{
  "_format": "hh-sol-artifact-1",
  "contractName": "SoulboundToken",
  "sourceName": "contracts/SoulboundToken.sol",
  "abi": [
    {
      "inputs": [],
      "stateMutability": "nonpayable",
      "type": "constructor"
    },
    {
      "inputs": [
        {
          "internalType": "address",
          "name": "sender",
          "type": "address"
        },
        {
          "internalType": "uint256",
          "name": "tokenId",
          "type": "uint256"
        },
        {
          "internalType": "address",
          "name": "owner",
          "type": "address"
        }
      ],
      "name": "ERC721IncorrectOwner",
      "type": "error"
    },
    {
      "inputs": [
        {
          "internalType": "address",
          "name": "operator",
          "type": "address"
        },
        {
          "internalType": "uint256",
          "name": "tokenId",
          "type": "uint256"
        }
      ],
      "name": "ERC721InsufficientApproval",
      "type": "error"
    },
    {
      "inputs": [
        {
          "internalType": "address",
          "name": "approver",
          "type": "address"
        }
      ],
      "name": "ERC721InvalidApprover",
      "type": "error"
    },
    {
      "inputs": [
        {
          "internalType": "address",
          "name": "operator",
          "type": "address"
        }
      ],
      "name": "ERC721InvalidOperator",
      "type": "error"
    },
    {
      "inputs": [
        {
          "internalType": "address",
          "name": "owner",
          "type": "address"
        }
      ],
      "name": "ERC721InvalidOwner",
      "type": "error"
    },
    {
      "inputs": [
        {
          "internalType": "address",
          "name": "receiver",
          "type": "address"
        }
      ],
      "name": "ERC721InvalidReceiver",
      "type": "error"
    },
    {
      "inputs": [
        {
          "internalType": "address",
          "name": "sender",
          "type": "address"
        }
      ],
      "name": "ERC721InvalidSender",
      "type": "error"
    },
    {
      "inputs": [
        {
          "internalType": "uint256",
          "name": "tokenId",
          "type": "uint256"
        }
      ],
      "name": "ERC721NonexistentToken",
      "type": "error"
    },
    {
      "anonymous": false,
      "inputs": [
        {
          "indexed": true,
          "internalType": "address",
          "name": "owner",
          "type": "address"
        },
        {
          "indexed": true,
          "internalType": "address",
          "name": "approved",
          "type": "address"
        },
        {
          "indexed": true,
          "internalType": "uint256",
          "name": "tokenId",
          "type": "uint256"
        }
      ],
      "name": "Approval",
      "type": "event"
    },
    {
      "anonymous": false,
      "inputs": [
        {
          "indexed": true,
          "internalType": "address",
          "name": "owner",
          "type": "address"
        },
        {
          "indexed": true,
          "internalType": "address",
          "name": "operator",
          "type": "address"
        },
        {
          "indexed": false,
          "internalType": "bool",
          "name": "approved",
          "type": "bool"
        }
      ],
      "name": "ApprovalForAll",
      "type": "event"
    },
    {
      "anonymous": false,
      "inputs": [
        {
          "indexed": true,
          "internalType": "address",
          "name": "from",
          "type": "address"
        },
        {
          "indexed": true,
          "internalType": "address",
          "name": "to",
          "type": "address"
        },
        {
          "indexed": true,
          "internalType": "uint256",
          "name": "tokenId",
          "type": "uint256"
        }
      ],
      "name": "Transfer",
      "type": "event"
    },
    {
      "inputs": [
        {
          "internalType": "address",
          "name": "verifier",
          "type": "address"
        },
        {
          "internalType": "string",
          "name": "organizationCode",
          "type": "string"
        }
      ],
      "name": "addVerifier",
      "outputs": [],
      "stateMutability": "nonpayable",
      "type": "function"
    },
    {
      "inputs": [
        {
          "internalType": "address",
          "name": "to",
          "type": "address"
        },
        {
          "internalType": "uint256",
          "name": "tokenId",
          "type": "uint256"
        }
      ],
      "name": "approve",
      "outputs": [],
      "stateMutability": "nonpayable",
      "type": "function"
    },
    {
      "inputs": [
        {
          "internalType": "address",
          "name": "owner",
          "type": "address"
        }
      ],
      "name": "balanceOf",
      "outputs": [
        {
          "internalType": "uint256",
          "name": "",
          "type": "uint256"
        }
      ],
      "stateMutability": "view",
      "type": "function"
    },
    {
      "inputs": [
        {
          "internalType": "uint256",
          "name": "tokenId",
          "type": "uint256"
        }
      ],
      "name": "getApproved",
      "outputs": [
        {
          "internalType": "address",
          "name": "",
          "type": "address"
        }
      ],
      "stateMutability": "view",
      "type": "function"
    },
    {
      "inputs": [],
      "name": "getMySBTs",
      "outputs": [
        {
          "components": [
            {
              "internalType": "uint256",
              "name": "sBTId",
              "type": "uint256"
            },
            {
              "internalType": "string",
              "name": "fullName",
              "type": "string"
            },
            {
              "internalType": "string",
              "name": "certificateHash",
              "type": "string"
            },
            {
              "internalType": "string",
              "name": "citizenID",
              "type": "string"
            },
            {
              "internalType": "string",
              "name": "hometown",
              "type": "string"
            },
            {
              "internalType": "string",
              "name": "nationality",
              "type": "string"
            },
            {
              "internalType": "uint256",
              "name": "birthDate",
              "type": "uint256"
            },
            {
              "internalType": "address",
              "name": "ownerAddress",
              "type": "address"
            }
          ],
          "internalType": "struct SoulboundToken.SBTInfo[]",
          "name": "",
          "type": "tuple[]"
        }
      ],
      "stateMutability": "view",
      "type": "function"
    },
    {
      "inputs": [
        {
          "internalType": "address",
          "name": "addr",
          "type": "address"
        }
      ],
      "name": "getOrganizationCode",
      "outputs": [
        {
          "internalType": "string",
          "name": "",
          "type": "string"
        }
      ],
      "stateMutability": "view",
      "type": "function"
    },
    {
      "inputs": [],
      "name": "getOrganizationCodes",
      "outputs": [
        {
          "internalType": "string[]",
          "name": "",
          "type": "string[]"
        }
      ],
      "stateMutability": "view",
      "type": "function"
    },
    {
      "inputs": [
        {
          "internalType": "string",
          "name": "targetOrganizationCode",
          "type": "string"
        }
      ],
      "name": "getVerifiersByOrganizationCode",
      "outputs": [
        {
          "internalType": "address[]",
          "name": "",
          "type": "address[]"
        }
      ],
      "stateMutability": "view",
      "type": "function"
    },
    {
      "inputs": [
        {
          "internalType": "uint256",
          "name": "",
          "type": "uint256"
        }
      ],
      "name": "idToSBT",
      "outputs": [
        {
          "internalType": "uint256",
          "name": "sBTId",
          "type": "uint256"
        },
        {
          "internalType": "string",
          "name": "fullName",
          "type": "string"
        },
        {
          "internalType": "string",
          "name": "certificateHash",
          "type": "string"
        },
        {
          "internalType": "string",
          "name": "citizenID",
          "type": "string"
        },
        {
          "internalType": "string",
          "name": "hometown",
          "type": "string"
        },
        {
          "internalType": "string",
          "name": "nationality",
          "type": "string"
        },
        {
          "internalType": "uint256",
          "name": "birthDate",
          "type": "uint256"
        },
        {
          "internalType": "address",
          "name": "ownerAddress",
          "type": "address"
        }
      ],
      "stateMutability": "view",
      "type": "function"
    },
    {
      "inputs": [
        {
          "internalType": "address",
          "name": "owner",
          "type": "address"
        },
        {
          "internalType": "address",
          "name": "operator",
          "type": "address"
        }
      ],
      "name": "isApprovedForAll",
      "outputs": [
        {
          "internalType": "bool",
          "name": "",
          "type": "bool"
        }
      ],
      "stateMutability": "view",
      "type": "function"
    },
    {
      "inputs": [
        {
          "internalType": "address",
          "name": "addr",
          "type": "address"
        }
      ],
      "name": "isVerifier",
      "outputs": [
        {
          "internalType": "bool",
          "name": "",
          "type": "bool"
        }
      ],
      "stateMutability": "view",
      "type": "function"
    },
    {
      "inputs": [
        {
          "internalType": "address",
          "name": "recipient",
          "type": "address"
        },
        {
          "internalType": "string",
          "name": "fullName",
          "type": "string"
        },
        {
          "internalType": "string",
          "name": "certificateHash",
          "type": "string"
        },
        {
          "internalType": "string",
          "name": "citizenID",
          "type": "string"
        },
        {
          "internalType": "string",
          "name": "hometown",
          "type": "string"
        },
        {
          "internalType": "string",
          "name": "nationality",
          "type": "string"
        },
        {
          "internalType": "uint256",
          "name": "birthDate",
          "type": "uint256"
        }
      ],
      "name": "mintSBTForAddress",
      "outputs": [],
      "stateMutability": "nonpayable",
      "type": "function"
    },
    {
      "inputs": [],
      "name": "name",
      "outputs": [
        {
          "internalType": "string",
          "name": "",
          "type": "string"
        }
      ],
      "stateMutability": "view",
      "type": "function"
    },
    {
      "inputs": [],
      "name": "owner",
      "outputs": [
        {
          "internalType": "address",
          "name": "",
          "type": "address"
        }
      ],
      "stateMutability": "view",
      "type": "function"
    },
    {
      "inputs": [
        {
          "internalType": "uint256",
          "name": "tokenId",
          "type": "uint256"
        }
      ],
      "name": "ownerOf",
      "outputs": [
        {
          "internalType": "address",
          "name": "",
          "type": "address"
        }
      ],
      "stateMutability": "view",
      "type": "function"
    },
    {
      "inputs": [
        {
          "internalType": "bytes32",
          "name": "_ethSignedMessageHash",
          "type": "bytes32"
        },
        {
          "internalType": "bytes",
          "name": "_sig",
          "type": "bytes"
        }
      ],
      "name": "recover",
      "outputs": [
        {
          "internalType": "address",
          "name": "",
          "type": "address"
        }
      ],
      "stateMutability": "pure",
      "type": "function"
    },
    {
      "inputs": [
        {
          "internalType": "address",
          "name": "from",
          "type": "address"
        },
        {
          "internalType": "address",
          "name": "to",
          "type": "address"
        },
        {
          "internalType": "uint256",
          "name": "tokenId",
          "type": "uint256"
        }
      ],
      "name": "safeTransferFrom",
      "outputs": [],
      "stateMutability": "nonpayable",
      "type": "function"
    },
    {
      "inputs": [
        {
          "internalType": "address",
          "name": "from",
          "type": "address"
        },
        {
          "internalType": "address",
          "name": "to",
          "type": "address"
        },
        {
          "internalType": "uint256",
          "name": "tokenId",
          "type": "uint256"
        },
        {
          "internalType": "bytes",
          "name": "data",
          "type": "bytes"
        }
      ],
      "name": "safeTransferFrom",
      "outputs": [],
      "stateMutability": "nonpayable",
      "type": "function"
    },
    {
      "inputs": [
        {
          "internalType": "address",
          "name": "operator",
          "type": "address"
        },
        {
          "internalType": "bool",
          "name": "approved",
          "type": "bool"
        }
      ],
      "name": "setApprovalForAll",
      "outputs": [],
      "stateMutability": "nonpayable",
      "type": "function"
    },
    {
      "inputs": [
        {
          "internalType": "bytes4",
          "name": "interfaceId",
          "type": "bytes4"
        }
      ],
      "name": "supportsInterface",
      "outputs": [
        {
          "internalType": "bool",
          "name": "",
          "type": "bool"
        }
      ],
      "stateMutability": "view",
      "type": "function"
    },
    {
      "inputs": [],
      "name": "symbol",
      "outputs": [
        {
          "internalType": "string",
          "name": "",
          "type": "string"
        }
      ],
      "stateMutability": "view",
      "type": "function"
    },
    {
      "inputs": [
        {
          "internalType": "uint256",
          "name": "tokenId",
          "type": "uint256"
        }
      ],
      "name": "tokenURI",
      "outputs": [
        {
          "internalType": "string",
          "name": "",
          "type": "string"
        }
      ],
      "stateMutability": "view",
      "type": "function"
    },
    {
      "inputs": [
        {
          "internalType": "address",
          "name": "from",
          "type": "address"
        },
        {
          "internalType": "address",
          "name": "to",
          "type": "address"
        },
        {
          "internalType": "uint256",
          "name": "tokenId",
          "type": "uint256"
        }
      ],
      "name": "transferFrom",
      "outputs": [],
      "stateMutability": "nonpayable",
      "type": "function"
    },
    {
      "inputs": [
        {
          "internalType": "uint256",
          "name": "",
          "type": "uint256"
        }
      ],
      "name": "verifierAddresses",
      "outputs": [
        {
          "internalType": "address",
          "name": "",
          "type": "address"
        }
      ],
      "stateMutability": "view",
      "type": "function"
    },
    {
      "inputs": [
        {
          "internalType": "address",
          "name": "",
          "type": "address"
        }
      ],
      "name": "verifierList",
      "outputs": [
        {
          "internalType": "bool",
          "name": "isVerifier",
          "type": "bool"
        },
        {
          "internalType": "string",
          "name": "organizationCode",
          "type": "string"
        }
      ],
      "stateMutability": "view",
      "type": "function"
    }
  ],
  "bytecode": "0x608060405234801562000010575f80fd5b506040518060400160405280600e81526020017f536f756c626f756e64546f6b656e0000000000000000000000000000000000008152506040518060400160405280600381526020017f5342540000000000000000000000000000000000000000000000000000000000815250815f90816200008d91906200034c565b5080600190816200009f91906200034c565b5050503360065f6101000a81548173ffffffffffffffffffffffffffffffffffffffff021916908373ffffffffffffffffffffffffffffffffffffffff16021790555062000430565b5f81519050919050565b7f4e487b71000000000000000000000000000000000000000000000000000000005f52604160045260245ffd5b7f4e487b71000000000000000000000000000000000000000000000000000000005f52602260045260245ffd5b5f60028204905060018216806200016457607f821691505b6020821081036200017a57620001796200011f565b5b50919050565b5f819050815f5260205f209050919050565b5f6020601f8301049050919050565b5f82821b905092915050565b5f60088302620001de7fffffffffffffffffffffffffffffffffffffffffffffffffffffffffffffffff82620001a1565b620001ea8683620001a1565b95508019841693508086168417925050509392505050565b5f819050919050565b5f819050919050565b5f620002346200022e620002288462000202565b6200020b565b62000202565b9050919050565b5f819050919050565b6200024f8362000214565b620002676200025e826200023b565b848454620001ad565b825550505050565b5f90565b6200027d6200026f565b6200028a81848462000244565b505050565b5b81811015620002b157620002a55f8262000273565b60018101905062000290565b5050565b601f8211156200030057620002ca8162000180565b620002d58462000192565b81016020851015620002e5578190505b620002fd620002f48562000192565b8301826200028f565b50505b505050565b5f82821c905092915050565b5f620003225f198460080262000305565b1980831691505092915050565b5f6200033c838362000311565b9150826002028217905092915050565b6200035782620000e8565b67ffffffffffffffff811115620003735762000372620000f2565b5b6200037f82546200014c565b6200038c828285620002b5565b5f60209050601f831160018114620003c2575f8415620003ad578287015190505b620003b985826200032f565b86555062000428565b601f198416620003d28662000180565b5f5b82811015620003fb57848901518255600182019150602085019450602081019050620003d4565b868310156200041b578489015162000417601f89168262000311565b8355505b6001600288020188555050505b505050505050565b613eef806200043e5f395ff3fe608060405234801561000f575f80fd5b5060043610610171575f3560e01c80636352211e116100dc57806395d89b4111610095578063c368572f1161006f578063c368572f14610486578063c87b56dd146104b6578063d5c48a31146104e6578063e985e9c51461051757610171565b806395d89b4114610430578063a22cb4651461044e578063b88d4fde1461046a57610171565b80636352211e14610336578063657ad668146103665780636de053981461039657806370a08231146103c65780637340792a146103f65780638da5cb5b1461041257610171565b806323b872dd1161012e57806323b872dd1461025d5780633310521814610279578063355d3998146102a957806337520e78146102c75780633a487463146102fe57806342842e0e1461031a57610171565b806301ffc9a71461017557806306fdde03146101a5578063081812fc146101c3578063095ea7b3146101f35780630f003ff71461020f57806319045a251461022d575b5f80fd5b61018f600480360381019061018a9190612aa6565b610547565b60405161019c9190612aeb565b60405180910390f35b6101ad610628565b6040516101ba9190612b8e565b60405180910390f35b6101dd60048036038101906101d89190612be1565b6106b7565b6040516101ea9190612c4b565b60405180910390f35b61020d60048036038101906102089190612c8e565b6106d2565b005b6102176106e8565b6040516102249190612eb6565b60405180910390f35b61024760048036038101906102429190613035565b610bfb565b6040516102549190612c4b565b60405180910390f35b6102776004803603810190610272919061308f565b610c65565b005b610293600480360381019061028e91906130df565b610d64565b6040516102a09190612aeb565b60405180910390f35b6102b1610db8565b6040516102be91906131c5565b60405180910390f35b6102e160048036038101906102dc9190612be1565b610e8c565b6040516102f59897969594939291906131f4565b60405180910390f35b61031860048036038101906103139190613331565b61118d565b005b610334600480360381019061032f919061308f565b611375565b005b610350600480360381019061034b9190612be1565b611394565b60405161035d9190612c4b565b60405180910390f35b610380600480360381019061037b91906130df565b6113a5565b60405161038d9190612b8e565b60405180910390f35b6103b060048036038101906103ab9190612be1565b611475565b6040516103bd9190612c4b565b60405180910390f35b6103e060048036038101906103db91906130df565b6114b0565b6040516103ed919061345a565b60405180910390f35b610410600480360381019061040b9190613473565b611566565b005b61041a6116ed565b6040516104279190612c4b565b60405180910390f35b610438611712565b6040516104459190612b8e565b60405180910390f35b610468600480360381019061046391906134f7565b6117a2565b005b610484600480360381019061047f9190613535565b6117b8565b005b6104a0600480360381019061049b91906135b5565b6117d5565b6040516104ad91906136a4565b60405180910390f35b6104d060048036038101906104cb9190612be1565b611a1b565b6040516104dd9190612b8e565b60405180910390f35b61050060048036038101906104fb91906130df565b611a81565b60405161050e9291906136c4565b60405180910390f35b610531600480360381019061052c91906136f2565b611b33565b60405161053e9190612aeb565b60405180910390f35b5f7f80ac58cd000000000000000000000000000000000000000000000000000000007bffffffffffffffffffffffffffffffffffffffffffffffffffffffff1916827bffffffffffffffffffffffffffffffffffffffffffffffffffffffff1916148061061157507f5b5e139f000000000000000000000000000000000000000000000000000000007bffffffffffffffffffffffffffffffffffffffffffffffffffffffff1916827bffffffffffffffffffffffffffffffffffffffffffffffffffffffff1916145b80610621575061062082611bc1565b5b9050919050565b60605f80546106369061375d565b80601f01602080910402602001604051908101604052809291908181526020018280546106629061375d565b80156106ad5780601f10610684576101008083540402835291602001916106ad565b820191905f5260205f20905b81548152906001019060200180831161069057829003601f168201915b5050505050905090565b5f6106c182611c2a565b506106cb82611cb0565b9050919050565b6106e482826106df611ce9565b611cf0565b5050565b60605f6106f56007611d02565b90505f80600190505b82811161078e573373ffffffffffffffffffffffffffffffffffffffff1660085f8381526020019081526020015f206007015f9054906101000a900473ffffffffffffffffffffffffffffffffffffffff1673ffffffffffffffffffffffffffffffffffffffff160361077b5760018261077891906137ba565b91505b8080610786906137ed565b9150506106fe565b505f8167ffffffffffffffff8111156107aa576107a9612f11565b5b6040519080825280602002602001820160405280156107e357816020015b6107d06129e8565b8152602001906001900390816107c85790505b5090505f80600190505b848111610bf0573373ffffffffffffffffffffffffffffffffffffffff1660085f8381526020019081526020015f206007015f9054906101000a900473ffffffffffffffffffffffffffffffffffffffff1673ffffffffffffffffffffffffffffffffffffffff1603610bdd5760085f8281526020019081526020015f20604051806101000160405290815f82015481526020016001820180546108909061375d565b80601f01602080910402602001604051908101604052809291908181526020018280546108bc9061375d565b80156109075780601f106108de57610100808354040283529160200191610907565b820191905f5260205f20905b8154815290600101906020018083116108ea57829003601f168201915b505050505081526020016002820180546109209061375d565b80601f016020809104026020016040519081016040528092919081815260200182805461094c9061375d565b80156109975780601f1061096e57610100808354040283529160200191610997565b820191905f5260205f20905b81548152906001019060200180831161097a57829003601f168201915b505050505081526020016003820180546109b09061375d565b80601f01602080910402602001604051908101604052809291908181526020018280546109dc9061375d565b8015610a275780601f106109fe57610100808354040283529160200191610a27565b820191905f5260205f20905b815481529060010190602001808311610a0a57829003601f168201915b50505050508152602001600482018054610a409061375d565b80601f0160208091040260200160405190810160405280929190818152602001828054610a6c9061375d565b8015610ab75780601f10610a8e57610100808354040283529160200191610ab7565b820191905f5260205f20905b815481529060010190602001808311610a9a57829003601f168201915b50505050508152602001600582018054610ad09061375d565b80601f0160208091040260200160405190810160405280929190818152602001828054610afc9061375d565b8015610b475780601f10610b1e57610100808354040283529160200191610b47565b820191905f5260205f20905b815481529060010190602001808311610b2a57829003601f168201915b5050505050815260200160068201548152602001600782015f9054906101000a900473ffffffffffffffffffffffffffffffffffffffff1673ffffffffffffffffffffffffffffffffffffffff1673ffffffffffffffffffffffffffffffffffffffff1681525050838381518110610bc257610bc1613834565b5b6020026020010181905250600182610bda91906137ba565b91505b8080610be8906137ed565b9150506107ed565b508194505050505090565b5f805f80610c0885611d0e565b9250925092506001868285856040515f8152602001604052604051610c30949392919061388b565b6020604051602081039080840390855afa158015610c50573d5f803e3d5ffd5b50505060206040510351935050505092915050565b5f73ffffffffffffffffffffffffffffffffffffffff168273ffffffffffffffffffffffffffffffffffffffff1603610cd5575f6040517f64a0ae92000000000000000000000000000000000000000000000000000000008152600401610ccc9190612c4b565b60405180910390fd5b5f610ce88383610ce3611ce9565b611d73565b90508373ffffffffffffffffffffffffffffffffffffffff168173ffffffffffffffffffffffffffffffffffffffff1614610d5e578382826040517f64283d7b000000000000000000000000000000000000000000000000000000008152600401610d55939291906138ce565b60405180910390fd5b50505050565b5f60095f8373ffffffffffffffffffffffffffffffffffffffff1673ffffffffffffffffffffffffffffffffffffffff1681526020019081526020015f205f015f9054906101000a900460ff169050919050565b6060600c805480602002602001604051908101604052809291908181526020015f905b82821015610e83578382905f5260205f20018054610df89061375d565b80601f0160208091040260200160405190810160405280929190818152602001828054610e249061375d565b8015610e6f5780601f10610e4657610100808354040283529160200191610e6f565b820191905f5260205f20905b815481529060010190602001808311610e5257829003601f168201915b505050505081526020019060010190610ddb565b50505050905090565b6008602052805f5260405f205f91509050805f015490806001018054610eb19061375d565b80601f0160208091040260200160405190810160405280929190818152602001828054610edd9061375d565b8015610f285780601f10610eff57610100808354040283529160200191610f28565b820191905f5260205f20905b815481529060010190602001808311610f0b57829003601f168201915b505050505090806002018054610f3d9061375d565b80601f0160208091040260200160405190810160405280929190818152602001828054610f699061375d565b8015610fb45780601f10610f8b57610100808354040283529160200191610fb4565b820191905f5260205f20905b815481529060010190602001808311610f9757829003601f168201915b505050505090806003018054610fc99061375d565b80601f0160208091040260200160405190810160405280929190818152602001828054610ff59061375d565b80156110405780601f1061101757610100808354040283529160200191611040565b820191905f5260205f20905b81548152906001019060200180831161102357829003601f168201915b5050505050908060040180546110559061375d565b80601f01602080910402602001604051908101604052809291908181526020018280546110819061375d565b80156110cc5780601f106110a3576101008083540402835291602001916110cc565b820191905f5260205f20905b8154815290600101906020018083116110af57829003601f168201915b5050505050908060050180546110e19061375d565b80601f016020809104026020016040519081016040528092919081815260200182805461110d9061375d565b80156111585780601f1061112f57610100808354040283529160200191611158565b820191905f5260205f20905b81548152906001019060200180831161113b57829003601f168201915b505050505090806006015490806007015f9054906101000a900473ffffffffffffffffffffffffffffffffffffffff16905088565b60065f9054906101000a900473ffffffffffffffffffffffffffffffffffffffff1673ffffffffffffffffffffffffffffffffffffffff163373ffffffffffffffffffffffffffffffffffffffff161461121c576040517f08c379a000000000000000000000000000000000000000000000000000000000815260040161121390613973565b60405180910390fd5b6112266007611f7e565b5f6112316007611d02565b90505f611242888888888888611f92565b905081815f018181525050888160e0019073ffffffffffffffffffffffffffffffffffffffff16908173ffffffffffffffffffffffffffffffffffffffff16815250508060085f8481526020019081526020015f205f820151815f015560208201518160010190816112b49190613b2e565b5060408201518160020190816112ca9190613b2e565b5060608201518160030190816112e09190613b2e565b5060808201518160040190816112f69190613b2e565b5060a082015181600501908161130c9190613b2e565b5060c0820151816006015560e0820151816007015f6101000a81548173ffffffffffffffffffffffffffffffffffffffff021916908373ffffffffffffffffffffffffffffffffffffffff16021790555090505061136a8983611ff6565b505050505050505050565b61138f83838360405180602001604052805f8152506117b8565b505050565b5f61139e82611c2a565b9050919050565b606060095f8373ffffffffffffffffffffffffffffffffffffffff1673ffffffffffffffffffffffffffffffffffffffff1681526020019081526020015f2060010180546113f29061375d565b80601f016020809104026020016040519081016040528092919081815260200182805461141e9061375d565b80156114695780601f1061144057610100808354040283529160200191611469565b820191905f5260205f20905b81548152906001019060200180831161144c57829003601f168201915b50505050509050919050565b600a8181548110611484575f80fd5b905f5260205f20015f915054906101000a900473ffffffffffffffffffffffffffffffffffffffff1681565b5f8073ffffffffffffffffffffffffffffffffffffffff168273ffffffffffffffffffffffffffffffffffffffff1603611521575f6040517f89c62b640000000000000000000000000000000000000000000000000000000081526004016115189190612c4b565b60405180910390fd5b60035f8373ffffffffffffffffffffffffffffffffffffffff1673ffffffffffffffffffffffffffffffffffffffff1681526020019081526020015f20549050919050565b60405180604001604052806001151581526020018281525060095f8473ffffffffffffffffffffffffffffffffffffffff1673ffffffffffffffffffffffffffffffffffffffff1681526020019081526020015f205f820151815f015f6101000a81548160ff02191690831515021790555060208201518160010190816115ed9190613b2e565b50905050600a82908060018154018082558091505060019003905f5260205f20015f9091909190916101000a81548173ffffffffffffffffffffffffffffffffffffffff021916908373ffffffffffffffffffffffffffffffffffffffff160217905550600b816040516116619190613c37565b90815260200160405180910390205f9054906101000a900460ff166116e9576001600b826040516116929190613c37565b90815260200160405180910390205f6101000a81548160ff021916908315150217905550600c81908060018154018082558091505060019003905f5260205f20015f9091909190915090816116e79190613b2e565b505b5050565b60065f9054906101000a900473ffffffffffffffffffffffffffffffffffffffff1681565b6060600180546117219061375d565b80601f016020809104026020016040519081016040528092919081815260200182805461174d9061375d565b80156117985780601f1061176f57610100808354040283529160200191611798565b820191905f5260205f20905b81548152906001019060200180831161177b57829003601f168201915b5050505050905090565b6117b46117ad611ce9565b8383612013565b5050565b6117c3848484610c65565b6117cf8484848461217c565b50505050565b60605f60605f5b600a805490508110156118a7575f600a82815481106117fe576117fd613834565b5b905f5260205f20015f9054906101000a900473ffffffffffffffffffffffffffffffffffffffff169050858051906020012060095f8373ffffffffffffffffffffffffffffffffffffffff1673ffffffffffffffffffffffffffffffffffffffff1681526020019081526020015f2060010160405161187d9190613ce9565b604051809103902003611899578380611895906137ed565b9450505b5080806001019150506117dc565b508167ffffffffffffffff8111156118c2576118c1612f11565b5b6040519080825280602002602001820160405280156118f05781602001602082028036833780820191505090505b5090505f805b600a80549050811015611a0f575f600a828154811061191857611917613834565b5b905f5260205f20015f9054906101000a900473ffffffffffffffffffffffffffffffffffffffff169050868051906020012060095f8373ffffffffffffffffffffffffffffffffffffffff1673ffffffffffffffffffffffffffffffffffffffff1681526020019081526020015f206001016040516119979190613ce9565b604051809103902003611a0157808484815181106119b8576119b7613834565b5b602002602001019073ffffffffffffffffffffffffffffffffffffffff16908173ffffffffffffffffffffffffffffffffffffffff168152505082806119fd906137ed565b9350505b5080806001019150506118f6565b50819350505050919050565b6060611a2682611c2a565b505f611a3061232e565b90505f815111611a4e5760405180602001604052805f815250611a79565b80611a5884612344565b604051602001611a69929190613cff565b6040516020818303038152906040525b915050919050565b6009602052805f5260405f205f91509050805f015f9054906101000a900460ff1690806001018054611ab29061375d565b80601f0160208091040260200160405190810160405280929190818152602001828054611ade9061375d565b8015611b295780601f10611b0057610100808354040283529160200191611b29565b820191905f5260205f20905b815481529060010190602001808311611b0c57829003601f168201915b5050505050905082565b5f60055f8473ffffffffffffffffffffffffffffffffffffffff1673ffffffffffffffffffffffffffffffffffffffff1681526020019081526020015f205f8373ffffffffffffffffffffffffffffffffffffffff1673ffffffffffffffffffffffffffffffffffffffff1681526020019081526020015f205f9054906101000a900460ff16905092915050565b5f7f01ffc9a7000000000000000000000000000000000000000000000000000000007bffffffffffffffffffffffffffffffffffffffffffffffffffffffff1916827bffffffffffffffffffffffffffffffffffffffffffffffffffffffff1916149050919050565b5f80611c358361240e565b90505f73ffffffffffffffffffffffffffffffffffffffff168173ffffffffffffffffffffffffffffffffffffffff1603611ca757826040517f7e273289000000000000000000000000000000000000000000000000000000008152600401611c9e919061345a565b60405180910390fd5b80915050919050565b5f60045f8381526020019081526020015f205f9054906101000a900473ffffffffffffffffffffffffffffffffffffffff169050919050565b5f33905090565b611cfd8383836001612447565b505050565b5f815f01549050919050565b5f805f6041845114611d55576040517f08c379a0000000000000000000000000000000000000000000000000000000008152600401611d4c90613d6c565b60405180910390fd5b602084015192506040840151915060608401515f1a90509193909250565b5f80611d7e8461240e565b90505f73ffffffffffffffffffffffffffffffffffffffff168373ffffffffffffffffffffffffffffffffffffffff1614611dbf57611dbe818486612606565b5b5f73ffffffffffffffffffffffffffffffffffffffff168173ffffffffffffffffffffffffffffffffffffffff1614611e4a57611dfe5f855f80612447565b600160035f8373ffffffffffffffffffffffffffffffffffffffff1673ffffffffffffffffffffffffffffffffffffffff1681526020019081526020015f205f82825403925050819055505b5f73ffffffffffffffffffffffffffffffffffffffff168573ffffffffffffffffffffffffffffffffffffffff1614611ec957600160035f8773ffffffffffffffffffffffffffffffffffffffff1673ffffffffffffffffffffffffffffffffffffffff1681526020019081526020015f205f82825401925050819055505b8460025f8681526020019081526020015f205f6101000a81548173ffffffffffffffffffffffffffffffffffffffff021916908373ffffffffffffffffffffffffffffffffffffffff160217905550838573ffffffffffffffffffffffffffffffffffffffff168273ffffffffffffffffffffffffffffffffffffffff167fddf252ad1be2c89b69c2b068fc378daa952ba7f163c4a11628f55a4df523b3ef60405160405180910390a4809150509392505050565b6001815f015f828254019250508190555050565b611f9a6129e8565b6040518061010001604052805f81526020018881526020018781526020018681526020018581526020018481526020018381526020015f73ffffffffffffffffffffffffffffffffffffffff1681525090509695505050505050565b61200f828260405180602001604052805f8152506126c9565b5050565b5f73ffffffffffffffffffffffffffffffffffffffff168273ffffffffffffffffffffffffffffffffffffffff160361208357816040517f5b08ba1800000000000000000000000000000000000000000000000000000000815260040161207a9190612c4b565b60405180910390fd5b8060055f8573ffffffffffffffffffffffffffffffffffffffff1673ffffffffffffffffffffffffffffffffffffffff1681526020019081526020015f205f8473ffffffffffffffffffffffffffffffffffffffff1673ffffffffffffffffffffffffffffffffffffffff1681526020019081526020015f205f6101000a81548160ff0219169083151502179055508173ffffffffffffffffffffffffffffffffffffffff168373ffffffffffffffffffffffffffffffffffffffff167f17307eab39ab6107e8899845ad3d59bd9653f200f220920489ca2b5937696c318360405161216f9190612aeb565b60405180910390a3505050565b5f8373ffffffffffffffffffffffffffffffffffffffff163b1115612328578273ffffffffffffffffffffffffffffffffffffffff1663150b7a026121bf611ce9565b8685856040518563ffffffff1660e01b81526004016121e19493929190613ddc565b6020604051808303815f875af192505050801561221c57506040513d601f19601f820116820180604052508101906122199190613e3a565b60015b61229d573d805f811461224a576040519150601f19603f3d011682016040523d82523d5f602084013e61224f565b606091505b505f81510361229557836040517f64a0ae9200000000000000000000000000000000000000000000000000000000815260040161228c9190612c4b565b60405180910390fd5b805181602001fd5b63150b7a0260e01b7bffffffffffffffffffffffffffffffffffffffffffffffffffffffff1916817bffffffffffffffffffffffffffffffffffffffffffffffffffffffff19161461232657836040517f64a0ae9200000000000000000000000000000000000000000000000000000000815260040161231d9190612c4b565b60405180910390fd5b505b50505050565b606060405180602001604052805f815250905090565b60605f6001612352846126e4565b0190505f8167ffffffffffffffff8111156123705761236f612f11565b5b6040519080825280601f01601f1916602001820160405280156123a25781602001600182028036833780820191505090505b5090505f82602001820190505b600115612403578080600190039150507f3031323334353637383961626364656600000000000000000000000000000000600a86061a8153600a85816123f8576123f7613e65565b5b0494505f85036123af575b819350505050919050565b5f60025f8381526020019081526020015f205f9054906101000a900473ffffffffffffffffffffffffffffffffffffffff169050919050565b808061247f57505f73ffffffffffffffffffffffffffffffffffffffff168273ffffffffffffffffffffffffffffffffffffffff1614155b156125b1575f61248e84611c2a565b90505f73ffffffffffffffffffffffffffffffffffffffff168373ffffffffffffffffffffffffffffffffffffffff16141580156124f857508273ffffffffffffffffffffffffffffffffffffffff168173ffffffffffffffffffffffffffffffffffffffff1614155b801561250b57506125098184611b33565b155b1561254d57826040517fa9fbf51f0000000000000000000000000000000000000000000000000000000081526004016125449190612c4b565b60405180910390fd5b81156125af57838573ffffffffffffffffffffffffffffffffffffffff168273ffffffffffffffffffffffffffffffffffffffff167f8c5be1e5ebec7d5bd14f71427d1e84f3dd0314c0f7b2291e5b200ac8c7c3b92560405160405180910390a45b505b8360045f8581526020019081526020015f205f6101000a81548173ffffffffffffffffffffffffffffffffffffffff021916908373ffffffffffffffffffffffffffffffffffffffff16021790555050505050565b612611838383612835565b6126c4575f73ffffffffffffffffffffffffffffffffffffffff168373ffffffffffffffffffffffffffffffffffffffff160361268557806040517f7e27328900000000000000000000000000000000000000000000000000000000815260040161267c919061345a565b60405180910390fd5b81816040517f177e802f0000000000000000000000000000000000000000000000000000000081526004016126bb929190613e92565b60405180910390fd5b505050565b6126d383836128f5565b6126df5f84848461217c565b505050565b5f805f90507a184f03e93ff9f4daa797ed6e38ed64bf6a1f0100000000000000008310612740577a184f03e93ff9f4daa797ed6e38ed64bf6a1f010000000000000000838161273657612735613e65565b5b0492506040810190505b6d04ee2d6d415b85acef8100000000831061277d576d04ee2d6d415b85acef8100000000838161277357612772613e65565b5b0492506020810190505b662386f26fc1000083106127ac57662386f26fc1000083816127a2576127a1613e65565b5b0492506010810190505b6305f5e10083106127d5576305f5e10083816127cb576127ca613e65565b5b0492506008810190505b61271083106127fa5761271083816127f0576127ef613e65565b5b0492506004810190505b6064831061281d576064838161281357612812613e65565b5b0492506002810190505b600a831061282c576001810190505b80915050919050565b5f8073ffffffffffffffffffffffffffffffffffffffff168373ffffffffffffffffffffffffffffffffffffffff16141580156128ec57508273ffffffffffffffffffffffffffffffffffffffff168473ffffffffffffffffffffffffffffffffffffffff1614806128ad57506128ac8484611b33565b5b806128eb57508273ffffffffffffffffffffffffffffffffffffffff166128d383611cb0565b73ffffffffffffffffffffffffffffffffffffffff16145b5b90509392505050565b5f73ffffffffffffffffffffffffffffffffffffffff168273ffffffffffffffffffffffffffffffffffffffff1603612965575f6040517f64a0ae9200000000000000000000000000000000000000000000000000000000815260040161295c9190612c4b565b60405180910390fd5b5f61297183835f611d73565b90505f73ffffffffffffffffffffffffffffffffffffffff168173ffffffffffffffffffffffffffffffffffffffff16146129e3575f6040517f73c6ac6e0000000000000000000000000000000000000000000000000000000081526004016129da9190612c4b565b60405180910390fd5b505050565b6040518061010001604052805f815260200160608152602001606081526020016060815260200160608152602001606081526020015f81526020015f73ffffffffffffffffffffffffffffffffffffffff1681525090565b5f604051905090565b5f80fd5b5f80fd5b5f7fffffffff0000000000000000000000000000000000000000000000000000000082169050919050565b612a8581612a51565b8114612a8f575f80fd5b50565b5f81359050612aa081612a7c565b92915050565b5f60208284031215612abb57612aba612a49565b5b5f612ac884828501612a92565b91505092915050565b5f8115159050919050565b612ae581612ad1565b82525050565b5f602082019050612afe5f830184612adc565b92915050565b5f81519050919050565b5f82825260208201905092915050565b5f5b83811015612b3b578082015181840152602081019050612b20565b5f8484015250505050565b5f601f19601f8301169050919050565b5f612b6082612b04565b612b6a8185612b0e565b9350612b7a818560208601612b1e565b612b8381612b46565b840191505092915050565b5f6020820190508181035f830152612ba68184612b56565b905092915050565b5f819050919050565b612bc081612bae565b8114612bca575f80fd5b50565b5f81359050612bdb81612bb7565b92915050565b5f60208284031215612bf657612bf5612a49565b5b5f612c0384828501612bcd565b91505092915050565b5f73ffffffffffffffffffffffffffffffffffffffff82169050919050565b5f612c3582612c0c565b9050919050565b612c4581612c2b565b82525050565b5f602082019050612c5e5f830184612c3c565b92915050565b612c6d81612c2b565b8114612c77575f80fd5b50565b5f81359050612c8881612c64565b92915050565b5f8060408385031215612ca457612ca3612a49565b5b5f612cb185828601612c7a565b9250506020612cc285828601612bcd565b9150509250929050565b5f81519050919050565b5f82825260208201905092915050565b5f819050602082019050919050565b612cfe81612bae565b82525050565b5f82825260208201905092915050565b5f612d1e82612b04565b612d288185612d04565b9350612d38818560208601612b1e565b612d4181612b46565b840191505092915050565b612d5581612c2b565b82525050565b5f61010083015f830151612d715f860182612cf5565b5060208301518482036020860152612d898282612d14565b91505060408301518482036040860152612da38282612d14565b91505060608301518482036060860152612dbd8282612d14565b91505060808301518482036080860152612dd78282612d14565b91505060a083015184820360a0860152612df18282612d14565b91505060c0830151612e0660c0860182612cf5565b5060e0830151612e1960e0860182612d4c565b508091505092915050565b5f612e2f8383612d5b565b905092915050565b5f602082019050919050565b5f612e4d82612ccc565b612e578185612cd6565b935083602082028501612e6985612ce6565b805f5b85811015612ea45784840389528151612e858582612e24565b9450612e9083612e37565b925060208a01995050600181019050612e6c565b50829750879550505050505092915050565b5f6020820190508181035f830152612ece8184612e43565b905092915050565b5f819050919050565b612ee881612ed6565b8114612ef2575f80fd5b50565b5f81359050612f0381612edf565b92915050565b5f80fd5b5f80fd5b7f4e487b71000000000000000000000000000000000000000000000000000000005f52604160045260245ffd5b612f4782612b46565b810181811067ffffffffffffffff82111715612f6657612f65612f11565b5b80604052505050565b5f612f78612a40565b9050612f848282612f3e565b919050565b5f67ffffffffffffffff821115612fa357612fa2612f11565b5b612fac82612b46565b9050602081019050919050565b828183375f83830152505050565b5f612fd9612fd484612f89565b612f6f565b905082815260208101848484011115612ff557612ff4612f0d565b5b613000848285612fb9565b509392505050565b5f82601f83011261301c5761301b612f09565b5b813561302c848260208601612fc7565b91505092915050565b5f806040838503121561304b5761304a612a49565b5b5f61305885828601612ef5565b925050602083013567ffffffffffffffff81111561307957613078612a4d565b5b61308585828601613008565b9150509250929050565b5f805f606084860312156130a6576130a5612a49565b5b5f6130b386828701612c7a565b93505060206130c486828701612c7a565b92505060406130d586828701612bcd565b9150509250925092565b5f602082840312156130f4576130f3612a49565b5b5f61310184828501612c7a565b91505092915050565b5f81519050919050565b5f82825260208201905092915050565b5f819050602082019050919050565b5f61313e8383612d14565b905092915050565b5f602082019050919050565b5f61315c8261310a565b6131668185613114565b93508360208202850161317885613124565b805f5b858110156131b357848403895281516131948582613133565b945061319f83613146565b925060208a0199505060018101905061317b565b50829750879550505050505092915050565b5f6020820190508181035f8301526131dd8184613152565b905092915050565b6131ee81612bae565b82525050565b5f610100820190506132085f83018b6131e5565b818103602083015261321a818a612b56565b9050818103604083015261322e8189612b56565b905081810360608301526132428188612b56565b905081810360808301526132568187612b56565b905081810360a083015261326a8186612b56565b905061327960c08301856131e5565b61328660e0830184612c3c565b9998505050505050505050565b5f67ffffffffffffffff8211156132ad576132ac612f11565b5b6132b682612b46565b9050602081019050919050565b5f6132d56132d084613293565b612f6f565b9050828152602081018484840111156132f1576132f0612f0d565b5b6132fc848285612fb9565b509392505050565b5f82601f83011261331857613317612f09565b5b81356133288482602086016132c3565b91505092915050565b5f805f805f805f60e0888a03121561334c5761334b612a49565b5b5f6133598a828b01612c7a565b975050602088013567ffffffffffffffff81111561337a57613379612a4d565b5b6133868a828b01613304565b965050604088013567ffffffffffffffff8111156133a7576133a6612a4d565b5b6133b38a828b01613304565b955050606088013567ffffffffffffffff8111156133d4576133d3612a4d565b5b6133e08a828b01613304565b945050608088013567ffffffffffffffff81111561340157613400612a4d565b5b61340d8a828b01613304565b93505060a088013567ffffffffffffffff81111561342e5761342d612a4d565b5b61343a8a828b01613304565b92505060c061344b8a828b01612bcd565b91505092959891949750929550565b5f60208201905061346d5f8301846131e5565b92915050565b5f806040838503121561348957613488612a49565b5b5f61349685828601612c7a565b925050602083013567ffffffffffffffff8111156134b7576134b6612a4d565b5b6134c385828601613304565b9150509250929050565b6134d681612ad1565b81146134e0575f80fd5b50565b5f813590506134f1816134cd565b92915050565b5f806040838503121561350d5761350c612a49565b5b5f61351a85828601612c7a565b925050602061352b858286016134e3565b9150509250929050565b5f805f806080858703121561354d5761354c612a49565b5b5f61355a87828801612c7a565b945050602061356b87828801612c7a565b935050604061357c87828801612bcd565b925050606085013567ffffffffffffffff81111561359d5761359c612a4d565b5b6135a987828801613008565b91505092959194509250565b5f602082840312156135ca576135c9612a49565b5b5f82013567ffffffffffffffff8111156135e7576135e6612a4d565b5b6135f384828501613304565b91505092915050565b5f81519050919050565b5f82825260208201905092915050565b5f819050602082019050919050565b5f6136308383612d4c565b60208301905092915050565b5f602082019050919050565b5f613652826135fc565b61365c8185613606565b935061366783613616565b805f5b8381101561369757815161367e8882613625565b97506136898361363c565b92505060018101905061366a565b5085935050505092915050565b5f6020820190508181035f8301526136bc8184613648565b905092915050565b5f6040820190506136d75f830185612adc565b81810360208301526136e98184612b56565b90509392505050565b5f806040838503121561370857613707612a49565b5b5f61371585828601612c7a565b925050602061372685828601612c7a565b9150509250929050565b7f4e487b71000000000000000000000000000000000000000000000000000000005f52602260045260245ffd5b5f600282049050600182168061377457607f821691505b60208210810361378757613786613730565b5b50919050565b7f4e487b71000000000000000000000000000000000000000000000000000000005f52601160045260245ffd5b5f6137c482612bae565b91506137cf83612bae565b92508282019050808211156137e7576137e661378d565b5b92915050565b5f6137f782612bae565b91507fffffffffffffffffffffffffffffffffffffffffffffffffffffffffffffffff82036138295761382861378d565b5b600182019050919050565b7f4e487b71000000000000000000000000000000000000000000000000000000005f52603260045260245ffd5b61386a81612ed6565b82525050565b5f60ff82169050919050565b61388581613870565b82525050565b5f60808201905061389e5f830187613861565b6138ab602083018661387c565b6138b86040830185613861565b6138c56060830184613861565b95945050505050565b5f6060820190506138e15f830186612c3c565b6138ee60208301856131e5565b6138fb6040830184612c3c565b949350505050565b7f4f6e6c7920746865206f776e65722063616e206d696e74205342547320666f725f8201527f2061646472657373657300000000000000000000000000000000000000000000602082015250565b5f61395d602a83612b0e565b915061396882613903565b604082019050919050565b5f6020820190508181035f83015261398a81613951565b9050919050565b5f819050815f5260205f209050919050565b5f6020601f8301049050919050565b5f82821b905092915050565b5f600883026139ed7fffffffffffffffffffffffffffffffffffffffffffffffffffffffffffffffff826139b2565b6139f786836139b2565b95508019841693508086168417925050509392505050565b5f819050919050565b5f613a32613a2d613a2884612bae565b613a0f565b612bae565b9050919050565b5f819050919050565b613a4b83613a18565b613a5f613a5782613a39565b8484546139be565b825550505050565b5f90565b613a73613a67565b613a7e818484613a42565b505050565b5b81811015613aa157613a965f82613a6b565b600181019050613a84565b5050565b601f821115613ae657613ab781613991565b613ac0846139a3565b81016020851015613acf578190505b613ae3613adb856139a3565b830182613a83565b50505b505050565b5f82821c905092915050565b5f613b065f1984600802613aeb565b1980831691505092915050565b5f613b1e8383613af7565b9150826002028217905092915050565b613b3782612b04565b67ffffffffffffffff811115613b5057613b4f612f11565b5b613b5a825461375d565b613b65828285613aa5565b5f60209050601f831160018114613b96575f8415613b84578287015190505b613b8e8582613b13565b865550613bf5565b601f198416613ba486613991565b5f5b82811015613bcb57848901518255600182019150602085019450602081019050613ba6565b86831015613be85784890151613be4601f891682613af7565b8355505b6001600288020188555050505b505050505050565b5f81905092915050565b5f613c1182612b04565b613c1b8185613bfd565b9350613c2b818560208601612b1e565b80840191505092915050565b5f613c428284613c07565b915081905092915050565b5f81905092915050565b5f819050815f5260205f209050919050565b5f8154613c758161375d565b613c7f8186613c4d565b9450600182165f8114613c995760018114613cae57613ce0565b60ff1983168652811515820286019350613ce0565b613cb785613c57565b5f5b83811015613cd857815481890152600182019150602081019050613cb9565b838801955050505b50505092915050565b5f613cf48284613c69565b915081905092915050565b5f613d0a8285613c07565b9150613d168284613c07565b91508190509392505050565b7f696e76616c6964207369676e6174757265206c656e67746800000000000000005f82015250565b5f613d56601883612b0e565b9150613d6182613d22565b602082019050919050565b5f6020820190508181035f830152613d8381613d4a565b9050919050565b5f81519050919050565b5f82825260208201905092915050565b5f613dae82613d8a565b613db88185613d94565b9350613dc8818560208601612b1e565b613dd181612b46565b840191505092915050565b5f608082019050613def5f830187612c3c565b613dfc6020830186612c3c565b613e0960408301856131e5565b8181036060830152613e1b8184613da4565b905095945050505050565b5f81519050613e3481612a7c565b92915050565b5f60208284031215613e4f57613e4e612a49565b5b5f613e5c84828501613e26565b91505092915050565b7f4e487b71000000000000000000000000000000000000000000000000000000005f52601260045260245ffd5b5f604082019050613ea55f830185612c3c565b613eb260208301846131e5565b939250505056fea2646970667358221220b3c988f1cffacd62b418a336347126be2d02f9025f31d3228f5c5417c5d3286564736f6c63430008180033",
  "linkReferences": {},
  "deployedLinkReferences": {}
}