{
  "_format": "hh-sol-artifact-1",
  "contractName": "SoulboundToken",
  "sourceName": "contracts/SoulboundToken.sol",
  "abi": [
    {
      "inputs": [],
      "stateMutability": "nonpayable",
      "type": "constructor"
    },
    {
      "anonymous": false,
      "inputs": [
        {
          "indexed": true,
          "internalType": "address",
          "name": "owner",
          "type": "address"
        },
        {
          "indexed": true,
          "internalType": "address",
          "name": "approved",
          "type": "address"
        },
        {
          "indexed": true,
          "internalType": "uint256",
          "name": "tokenId",
          "type": "uint256"
        }
      ],
      "name": "Approval",
      "type": "event"
    },
    {
      "anonymous": false,
      "inputs": [
        {
          "indexed": true,
          "internalType": "address",
          "name": "owner",
          "type": "address"
        },
        {
          "indexed": true,
          "internalType": "address",
          "name": "operator",
          "type": "address"
        },
        {
          "indexed": false,
          "internalType": "bool",
          "name": "approved",
          "type": "bool"
        }
      ],
      "name": "ApprovalForAll",
      "type": "event"
    },
    {
      "anonymous": false,
      "inputs": [
        {
          "indexed": true,
          "internalType": "address",
          "name": "from",
          "type": "address"
        },
        {
          "indexed": true,
          "internalType": "address",
          "name": "to",
          "type": "address"
        },
        {
          "indexed": true,
          "internalType": "uint256",
          "name": "tokenId",
          "type": "uint256"
        }
      ],
      "name": "Transfer",
      "type": "event"
    },
    {
      "inputs": [
        {
          "internalType": "address",
          "name": "verifier",
          "type": "address"
        },
        {
          "internalType": "string",
          "name": "organizationCode",
          "type": "string"
        }
      ],
      "name": "addVerifier",
      "outputs": [],
      "stateMutability": "nonpayable",
      "type": "function"
    },
    {
      "inputs": [
        {
          "internalType": "address",
          "name": "to",
          "type": "address"
        },
        {
          "internalType": "uint256",
          "name": "tokenId",
          "type": "uint256"
        }
      ],
      "name": "approve",
      "outputs": [],
      "stateMutability": "nonpayable",
      "type": "function"
    },
    {
      "inputs": [
        {
          "internalType": "address",
          "name": "owner",
          "type": "address"
        }
      ],
      "name": "balanceOf",
      "outputs": [
        {
          "internalType": "uint256",
          "name": "",
          "type": "uint256"
        }
      ],
      "stateMutability": "view",
      "type": "function"
    },
    {
      "inputs": [
        {
          "internalType": "uint256",
          "name": "tokenId",
          "type": "uint256"
        }
      ],
      "name": "getApproved",
      "outputs": [
        {
          "internalType": "address",
          "name": "",
          "type": "address"
        }
      ],
      "stateMutability": "view",
      "type": "function"
    },
    {
      "inputs": [],
      "name": "getMySBTs",
      "outputs": [
        {
          "components": [
            {
              "internalType": "uint256",
              "name": "sBTId",
              "type": "uint256"
            },
            {
              "internalType": "string",
              "name": "fullName",
              "type": "string"
            },
            {
              "internalType": "string",
              "name": "certificateHash",
              "type": "string"
            },
            {
              "internalType": "string",
              "name": "citizenID",
              "type": "string"
            },
            {
              "internalType": "string",
              "name": "hometown",
              "type": "string"
            },
            {
              "internalType": "string",
              "name": "nationality",
              "type": "string"
            },
            {
              "internalType": "uint256",
              "name": "birthDate",
              "type": "uint256"
            },
            {
              "internalType": "address",
              "name": "ownerAddress",
              "type": "address"
            }
          ],
          "internalType": "struct SoulboundToken.SBTInfo[]",
          "name": "",
          "type": "tuple[]"
        }
      ],
      "stateMutability": "view",
      "type": "function"
    },
    {
      "inputs": [
        {
          "internalType": "address",
          "name": "addr",
          "type": "address"
        }
      ],
      "name": "getOrganizationCode",
      "outputs": [
        {
          "internalType": "string",
          "name": "",
          "type": "string"
        }
      ],
      "stateMutability": "view",
      "type": "function"
    },
    {
      "inputs": [
        {
          "internalType": "uint256",
          "name": "",
          "type": "uint256"
        }
      ],
      "name": "idToSBT",
      "outputs": [
        {
          "internalType": "uint256",
          "name": "sBTId",
          "type": "uint256"
        },
        {
          "internalType": "string",
          "name": "fullName",
          "type": "string"
        },
        {
          "internalType": "string",
          "name": "certificateHash",
          "type": "string"
        },
        {
          "internalType": "string",
          "name": "citizenID",
          "type": "string"
        },
        {
          "internalType": "string",
          "name": "hometown",
          "type": "string"
        },
        {
          "internalType": "string",
          "name": "nationality",
          "type": "string"
        },
        {
          "internalType": "uint256",
          "name": "birthDate",
          "type": "uint256"
        },
        {
          "internalType": "address",
          "name": "ownerAddress",
          "type": "address"
        }
      ],
      "stateMutability": "view",
      "type": "function"
    },
    {
      "inputs": [
        {
          "internalType": "address",
          "name": "owner",
          "type": "address"
        },
        {
          "internalType": "address",
          "name": "operator",
          "type": "address"
        }
      ],
      "name": "isApprovedForAll",
      "outputs": [
        {
          "internalType": "bool",
          "name": "",
          "type": "bool"
        }
      ],
      "stateMutability": "view",
      "type": "function"
    },
    {
      "inputs": [
        {
          "internalType": "address",
          "name": "addr",
          "type": "address"
        }
      ],
      "name": "isVerifier",
      "outputs": [
        {
          "internalType": "bool",
          "name": "",
          "type": "bool"
        }
      ],
      "stateMutability": "view",
      "type": "function"
    },
    {
      "inputs": [
        {
          "internalType": "address",
          "name": "recipient",
          "type": "address"
        },
        {
          "internalType": "string",
          "name": "fullName",
          "type": "string"
        },
        {
          "internalType": "string",
          "name": "certificateHash",
          "type": "string"
        },
        {
          "internalType": "string",
          "name": "citizenID",
          "type": "string"
        },
        {
          "internalType": "string",
          "name": "hometown",
          "type": "string"
        },
        {
          "internalType": "string",
          "name": "nationality",
          "type": "string"
        },
        {
          "internalType": "uint256",
          "name": "birthDate",
          "type": "uint256"
        }
      ],
      "name": "mintSBTForAddress",
      "outputs": [],
      "stateMutability": "nonpayable",
      "type": "function"
    },
    {
      "inputs": [],
      "name": "name",
      "outputs": [
        {
          "internalType": "string",
          "name": "",
          "type": "string"
        }
      ],
      "stateMutability": "view",
      "type": "function"
    },
    {
      "inputs": [],
      "name": "owner",
      "outputs": [
        {
          "internalType": "address",
          "name": "",
          "type": "address"
        }
      ],
      "stateMutability": "view",
      "type": "function"
    },
    {
      "inputs": [
        {
          "internalType": "uint256",
          "name": "tokenId",
          "type": "uint256"
        }
      ],
      "name": "ownerOf",
      "outputs": [
        {
          "internalType": "address",
          "name": "",
          "type": "address"
        }
      ],
      "stateMutability": "view",
      "type": "function"
    },
    {
      "inputs": [
        {
          "internalType": "bytes32",
          "name": "_ethSignedMessageHash",
          "type": "bytes32"
        },
        {
          "internalType": "bytes",
          "name": "_sig",
          "type": "bytes"
        }
      ],
      "name": "recover",
      "outputs": [
        {
          "internalType": "address",
          "name": "",
          "type": "address"
        }
      ],
      "stateMutability": "pure",
      "type": "function"
    },
    {
      "inputs": [
        {
          "internalType": "address",
          "name": "from",
          "type": "address"
        },
        {
          "internalType": "address",
          "name": "to",
          "type": "address"
        },
        {
          "internalType": "uint256",
          "name": "tokenId",
          "type": "uint256"
        }
      ],
      "name": "safeTransferFrom",
      "outputs": [],
      "stateMutability": "nonpayable",
      "type": "function"
    },
    {
      "inputs": [
        {
          "internalType": "address",
          "name": "from",
          "type": "address"
        },
        {
          "internalType": "address",
          "name": "to",
          "type": "address"
        },
        {
          "internalType": "uint256",
          "name": "tokenId",
          "type": "uint256"
        },
        {
          "internalType": "bytes",
          "name": "_data",
          "type": "bytes"
        }
      ],
      "name": "safeTransferFrom",
      "outputs": [],
      "stateMutability": "nonpayable",
      "type": "function"
    },
    {
      "inputs": [
        {
          "internalType": "address",
          "name": "operator",
          "type": "address"
        },
        {
          "internalType": "bool",
          "name": "approved",
          "type": "bool"
        }
      ],
      "name": "setApprovalForAll",
      "outputs": [],
      "stateMutability": "nonpayable",
      "type": "function"
    },
    {
      "inputs": [
        {
          "internalType": "bytes4",
          "name": "interfaceId",
          "type": "bytes4"
        }
      ],
      "name": "supportsInterface",
      "outputs": [
        {
          "internalType": "bool",
          "name": "",
          "type": "bool"
        }
      ],
      "stateMutability": "view",
      "type": "function"
    },
    {
      "inputs": [],
      "name": "symbol",
      "outputs": [
        {
          "internalType": "string",
          "name": "",
          "type": "string"
        }
      ],
      "stateMutability": "view",
      "type": "function"
    },
    {
      "inputs": [
        {
          "internalType": "uint256",
          "name": "tokenId",
          "type": "uint256"
        }
      ],
      "name": "tokenURI",
      "outputs": [
        {
          "internalType": "string",
          "name": "",
          "type": "string"
        }
      ],
      "stateMutability": "view",
      "type": "function"
    },
    {
      "inputs": [
        {
          "internalType": "address",
          "name": "from",
          "type": "address"
        },
        {
          "internalType": "address",
          "name": "to",
          "type": "address"
        },
        {
          "internalType": "uint256",
          "name": "tokenId",
          "type": "uint256"
        }
      ],
      "name": "transferFrom",
      "outputs": [],
      "stateMutability": "nonpayable",
      "type": "function"
    },
    {
      "inputs": [
        {
          "internalType": "address",
          "name": "",
          "type": "address"
        }
      ],
      "name": "verifierList",
      "outputs": [
        {
          "internalType": "bool",
          "name": "isVerifier",
          "type": "bool"
        },
        {
          "internalType": "string",
          "name": "organizationCode",
          "type": "string"
        }
      ],
      "stateMutability": "view",
      "type": "function"
    }
  ],
  "bytecode": "0x608060405234801562000010575f80fd5b506040518060400160405280600e81526020017f536f756c626f756e64546f6b656e0000000000000000000000000000000000008152506040518060400160405280600381526020017f5342540000000000000000000000000000000000000000000000000000000000815250815f90816200008d91906200034c565b5080600190816200009f91906200034c565b5050503360065f6101000a81548173ffffffffffffffffffffffffffffffffffffffff021916908373ffffffffffffffffffffffffffffffffffffffff16021790555062000430565b5f81519050919050565b7f4e487b71000000000000000000000000000000000000000000000000000000005f52604160045260245ffd5b7f4e487b71000000000000000000000000000000000000000000000000000000005f52602260045260245ffd5b5f60028204905060018216806200016457607f821691505b6020821081036200017a57620001796200011f565b5b50919050565b5f819050815f5260205f209050919050565b5f6020601f8301049050919050565b5f82821b905092915050565b5f60088302620001de7fffffffffffffffffffffffffffffffffffffffffffffffffffffffffffffffff82620001a1565b620001ea8683620001a1565b95508019841693508086168417925050509392505050565b5f819050919050565b5f819050919050565b5f620002346200022e620002288462000202565b6200020b565b62000202565b9050919050565b5f819050919050565b6200024f8362000214565b620002676200025e826200023b565b848454620001ad565b825550505050565b5f90565b6200027d6200026f565b6200028a81848462000244565b505050565b5b81811015620002b157620002a55f8262000273565b60018101905062000290565b5050565b601f8211156200030057620002ca8162000180565b620002d58462000192565b81016020851015620002e5578190505b620002fd620002f48562000192565b8301826200028f565b50505b505050565b5f82821c905092915050565b5f620003225f198460080262000305565b1980831691505092915050565b5f6200033c838362000311565b9150826002028217905092915050565b6200035782620000e8565b67ffffffffffffffff811115620003735762000372620000f2565b5b6200037f82546200014c565b6200038c828285620002b5565b5f60209050601f831160018114620003c2575f8415620003ad578287015190505b620003b985826200032f565b86555062000428565b601f198416620003d28662000180565b5f5b82811015620003fb57848901518255600182019150602085019450602081019050620003d4565b868310156200041b578489015162000417601f89168262000311565b8355505b6001600288020188555050505b505050505050565b613f2e806200043e5f395ff3fe608060405234801561000f575f80fd5b5060043610610140575f3560e01c80636352211e116100b657806395d89b411161007a57806395d89b41146103b1578063a22cb465146103cf578063b88d4fde146103eb578063c87b56dd14610407578063d5c48a3114610437578063e985e9c51461046857610140565b80636352211e146102e7578063657ad6681461031757806370a08231146103475780637340792a146103775780638da5cb5b1461039357610140565b806319045a251161010857806319045a25146101fc57806323b872dd1461022c578063331052181461024857806337520e78146102785780633a487463146102af57806342842e0e146102cb57610140565b806301ffc9a71461014457806306fdde0314610174578063081812fc14610192578063095ea7b3146101c25780630f003ff7146101de575b5f80fd5b61015e6004803603810190610159919061260e565b610498565b60405161016b9190612653565b60405180910390f35b61017c610579565b60405161018991906126f6565b60405180910390f35b6101ac60048036038101906101a79190612749565b610608565b6040516101b991906127b3565b60405180910390f35b6101dc60048036038101906101d791906127f6565b610689565b005b6101e661079f565b6040516101f39190612a1e565b60405180910390f35b61021660048036038101906102119190612b9d565b610cb2565b60405161022391906127b3565b60405180910390f35b61024660048036038101906102419190612bf7565b610d1c565b005b610262600480360381019061025d9190612c47565b610d7c565b60405161026f9190612653565b60405180910390f35b610292600480360381019061028d9190612749565b610dd0565b6040516102a6989796959493929190612c81565b60405180910390f35b6102c960048036038101906102c49190612dbe565b6110d1565b005b6102e560048036038101906102e09190612bf7565b6112b9565b005b61030160048036038101906102fc9190612749565b6112d8565b60405161030e91906127b3565b60405180910390f35b610331600480360381019061032c9190612c47565b611384565b60405161033e91906126f6565b60405180910390f35b610361600480360381019061035c9190612c47565b611454565b60405161036e9190612ee7565b60405180910390f35b610391600480360381019061038c9190612f00565b611508565b005b61039b611597565b6040516103a891906127b3565b60405180910390f35b6103b96115bc565b6040516103c691906126f6565b60405180910390f35b6103e960048036038101906103e49190612f84565b61164c565b005b61040560048036038101906104009190612fc2565b611662565b005b610421600480360381019061041c9190612749565b6116c4565b60405161042e91906126f6565b60405180910390f35b610451600480360381019061044c9190612c47565b611768565b60405161045f929190613042565b60405180910390f35b610482600480360381019061047d9190613070565b61181a565b60405161048f9190612653565b60405180910390f35b5f7f80ac58cd000000000000000000000000000000000000000000000000000000007bffffffffffffffffffffffffffffffffffffffffffffffffffffffff1916827bffffffffffffffffffffffffffffffffffffffffffffffffffffffff1916148061056257507f5b5e139f000000000000000000000000000000000000000000000000000000007bffffffffffffffffffffffffffffffffffffffffffffffffffffffff1916827bffffffffffffffffffffffffffffffffffffffffffffffffffffffff1916145b806105725750610571826118a8565b5b9050919050565b60605f8054610587906130db565b80601f01602080910402602001604051908101604052809291908181526020018280546105b3906130db565b80156105fe5780601f106105d5576101008083540402835291602001916105fe565b820191905f5260205f20905b8154815290600101906020018083116105e157829003601f168201915b5050505050905090565b5f61061282611911565b610651576040517f08c379a00000000000000000000000000000000000000000000000000000000081526004016106489061317b565b60405180910390fd5b60045f8381526020019081526020015f205f9054906101000a900473ffffffffffffffffffffffffffffffffffffffff169050919050565b5f610693826112d8565b90508073ffffffffffffffffffffffffffffffffffffffff168373ffffffffffffffffffffffffffffffffffffffff1603610703576040517f08c379a00000000000000000000000000000000000000000000000000000000081526004016106fa90613209565b60405180910390fd5b8073ffffffffffffffffffffffffffffffffffffffff16610722611979565b73ffffffffffffffffffffffffffffffffffffffff16148061075157506107508161074b611979565b61181a565b5b610790576040517f08c379a000000000000000000000000000000000000000000000000000000000815260040161078790613297565b60405180910390fd5b61079a8383611980565b505050565b60605f6107ac6007611a36565b90505f80600190505b828111610845573373ffffffffffffffffffffffffffffffffffffffff1660085f8381526020019081526020015f206007015f9054906101000a900473ffffffffffffffffffffffffffffffffffffffff1673ffffffffffffffffffffffffffffffffffffffff16036108325760018261082f91906132e2565b91505b808061083d90613315565b9150506107b5565b505f8167ffffffffffffffff81111561086157610860612a79565b5b60405190808252806020026020018201604052801561089a57816020015b610887612550565b81526020019060019003908161087f5790505b5090505f80600190505b848111610ca7573373ffffffffffffffffffffffffffffffffffffffff1660085f8381526020019081526020015f206007015f9054906101000a900473ffffffffffffffffffffffffffffffffffffffff1673ffffffffffffffffffffffffffffffffffffffff1603610c945760085f8281526020019081526020015f20604051806101000160405290815f8201548152602001600182018054610947906130db565b80601f0160208091040260200160405190810160405280929190818152602001828054610973906130db565b80156109be5780601f10610995576101008083540402835291602001916109be565b820191905f5260205f20905b8154815290600101906020018083116109a157829003601f168201915b505050505081526020016002820180546109d7906130db565b80601f0160208091040260200160405190810160405280929190818152602001828054610a03906130db565b8015610a4e5780601f10610a2557610100808354040283529160200191610a4e565b820191905f5260205f20905b815481529060010190602001808311610a3157829003601f168201915b50505050508152602001600382018054610a67906130db565b80601f0160208091040260200160405190810160405280929190818152602001828054610a93906130db565b8015610ade5780601f10610ab557610100808354040283529160200191610ade565b820191905f5260205f20905b815481529060010190602001808311610ac157829003601f168201915b50505050508152602001600482018054610af7906130db565b80601f0160208091040260200160405190810160405280929190818152602001828054610b23906130db565b8015610b6e5780601f10610b4557610100808354040283529160200191610b6e565b820191905f5260205f20905b815481529060010190602001808311610b5157829003601f168201915b50505050508152602001600582018054610b87906130db565b80601f0160208091040260200160405190810160405280929190818152602001828054610bb3906130db565b8015610bfe5780601f10610bd557610100808354040283529160200191610bfe565b820191905f5260205f20905b815481529060010190602001808311610be157829003601f168201915b5050505050815260200160068201548152602001600782015f9054906101000a900473ffffffffffffffffffffffffffffffffffffffff1673ffffffffffffffffffffffffffffffffffffffff1673ffffffffffffffffffffffffffffffffffffffff1681525050838381518110610c7957610c7861335c565b5b6020026020010181905250600182610c9191906132e2565b91505b8080610c9f90613315565b9150506108a4565b508194505050505090565b5f805f80610cbf85611a42565b9250925092506001868285856040515f8152602001604052604051610ce794939291906133b3565b6020604051602081039080840390855afa158015610d07573d5f803e3d5ffd5b50505060206040510351935050505092915050565b610d2d610d27611979565b82611aa7565b610d6c576040517f08c379a0000000000000000000000000000000000000000000000000000000008152600401610d6390613466565b60405180910390fd5b610d77838383611b83565b505050565b5f60095f8373ffffffffffffffffffffffffffffffffffffffff1673ffffffffffffffffffffffffffffffffffffffff1681526020019081526020015f205f015f9054906101000a900460ff169050919050565b6008602052805f5260405f205f91509050805f015490806001018054610df5906130db565b80601f0160208091040260200160405190810160405280929190818152602001828054610e21906130db565b8015610e6c5780601f10610e4357610100808354040283529160200191610e6c565b820191905f5260205f20905b815481529060010190602001808311610e4f57829003601f168201915b505050505090806002018054610e81906130db565b80601f0160208091040260200160405190810160405280929190818152602001828054610ead906130db565b8015610ef85780601f10610ecf57610100808354040283529160200191610ef8565b820191905f5260205f20905b815481529060010190602001808311610edb57829003601f168201915b505050505090806003018054610f0d906130db565b80601f0160208091040260200160405190810160405280929190818152602001828054610f39906130db565b8015610f845780601f10610f5b57610100808354040283529160200191610f84565b820191905f5260205f20905b815481529060010190602001808311610f6757829003601f168201915b505050505090806004018054610f99906130db565b80601f0160208091040260200160405190810160405280929190818152602001828054610fc5906130db565b80156110105780601f10610fe757610100808354040283529160200191611010565b820191905f5260205f20905b815481529060010190602001808311610ff357829003601f168201915b505050505090806005018054611025906130db565b80601f0160208091040260200160405190810160405280929190818152602001828054611051906130db565b801561109c5780601f106110735761010080835404028352916020019161109c565b820191905f5260205f20905b81548152906001019060200180831161107f57829003601f168201915b505050505090806006015490806007015f9054906101000a900473ffffffffffffffffffffffffffffffffffffffff16905088565b60065f9054906101000a900473ffffffffffffffffffffffffffffffffffffffff1673ffffffffffffffffffffffffffffffffffffffff163373ffffffffffffffffffffffffffffffffffffffff1614611160576040517f08c379a0000000000000000000000000000000000000000000000000000000008152600401611157906134f4565b60405180910390fd5b61116a6007611dd3565b5f6111756007611a36565b90505f611186888888888888611de7565b905081815f018181525050888160e0019073ffffffffffffffffffffffffffffffffffffffff16908173ffffffffffffffffffffffffffffffffffffffff16815250508060085f8481526020019081526020015f205f820151815f015560208201518160010190816111f891906136af565b50604082015181600201908161120e91906136af565b50606082015181600301908161122491906136af565b50608082015181600401908161123a91906136af565b5060a082015181600501908161125091906136af565b5060c0820151816006015560e0820151816007015f6101000a81548173ffffffffffffffffffffffffffffffffffffffff021916908373ffffffffffffffffffffffffffffffffffffffff1602179055509050506112ae8983611e4b565b505050505050505050565b6112d383838360405180602001604052805f815250611662565b505050565b5f8060025f8481526020019081526020015f205f9054906101000a900473ffffffffffffffffffffffffffffffffffffffff1690505f73ffffffffffffffffffffffffffffffffffffffff168173ffffffffffffffffffffffffffffffffffffffff160361137b576040517f08c379a0000000000000000000000000000000000000000000000000000000008152600401611372906137ee565b60405180910390fd5b80915050919050565b606060095f8373ffffffffffffffffffffffffffffffffffffffff1673ffffffffffffffffffffffffffffffffffffffff1681526020019081526020015f2060010180546113d1906130db565b80601f01602080910402602001604051908101604052809291908181526020018280546113fd906130db565b80156114485780601f1061141f57610100808354040283529160200191611448565b820191905f5260205f20905b81548152906001019060200180831161142b57829003601f168201915b50505050509050919050565b5f8073ffffffffffffffffffffffffffffffffffffffff168273ffffffffffffffffffffffffffffffffffffffff16036114c3576040517f08c379a00000000000000000000000000000000000000000000000000000000081526004016114ba9061387c565b60405180910390fd5b60035f8373ffffffffffffffffffffffffffffffffffffffff1673ffffffffffffffffffffffffffffffffffffffff1681526020019081526020015f20549050919050565b60405180604001604052806001151581526020018281525060095f8473ffffffffffffffffffffffffffffffffffffffff1673ffffffffffffffffffffffffffffffffffffffff1681526020019081526020015f205f820151815f015f6101000a81548160ff021916908315150217905550602082015181600101908161158f91906136af565b509050505050565b60065f9054906101000a900473ffffffffffffffffffffffffffffffffffffffff1681565b6060600180546115cb906130db565b80601f01602080910402602001604051908101604052809291908181526020018280546115f7906130db565b80156116425780601f1061161957610100808354040283529160200191611642565b820191905f5260205f20905b81548152906001019060200180831161162557829003601f168201915b5050505050905090565b61165e611657611979565b8383611e68565b5050565b61167361166d611979565b83611aa7565b6116b2576040517f08c379a00000000000000000000000000000000000000000000000000000000081526004016116a990613466565b60405180910390fd5b6116be84848484611fcf565b50505050565b60606116cf82611911565b61170e576040517f08c379a00000000000000000000000000000000000000000000000000000000081526004016117059061390a565b60405180910390fd5b5f61171761202b565b90505f8151116117355760405180602001604052805f815250611760565b8061173f84612041565b604051602001611750929190613962565b6040516020818303038152906040525b915050919050565b6009602052805f5260405f205f91509050805f015f9054906101000a900460ff1690806001018054611799906130db565b80601f01602080910402602001604051908101604052809291908181526020018280546117c5906130db565b80156118105780601f106117e757610100808354040283529160200191611810565b820191905f5260205f20905b8154815290600101906020018083116117f357829003601f168201915b5050505050905082565b5f60055f8473ffffffffffffffffffffffffffffffffffffffff1673ffffffffffffffffffffffffffffffffffffffff1681526020019081526020015f205f8373ffffffffffffffffffffffffffffffffffffffff1673ffffffffffffffffffffffffffffffffffffffff1681526020019081526020015f205f9054906101000a900460ff16905092915050565b5f7f01ffc9a7000000000000000000000000000000000000000000000000000000007bffffffffffffffffffffffffffffffffffffffffffffffffffffffff1916827bffffffffffffffffffffffffffffffffffffffffffffffffffffffff1916149050919050565b5f8073ffffffffffffffffffffffffffffffffffffffff1660025f8481526020019081526020015f205f9054906101000a900473ffffffffffffffffffffffffffffffffffffffff1673ffffffffffffffffffffffffffffffffffffffff1614159050919050565b5f33905090565b8160045f8381526020019081526020015f205f6101000a81548173ffffffffffffffffffffffffffffffffffffffff021916908373ffffffffffffffffffffffffffffffffffffffff160217905550808273ffffffffffffffffffffffffffffffffffffffff166119f0836112d8565b73ffffffffffffffffffffffffffffffffffffffff167f8c5be1e5ebec7d5bd14f71427d1e84f3dd0314c0f7b2291e5b200ac8c7c3b92560405160405180910390a45050565b5f815f01549050919050565b5f805f6041845114611a89576040517f08c379a0000000000000000000000000000000000000000000000000000000008152600401611a80906139cf565b60405180910390fd5b602084015192506040840151915060608401515f1a90509193909250565b5f611ab182611911565b611af0576040517f08c379a0000000000000000000000000000000000000000000000000000000008152600401611ae790613a5d565b60405180910390fd5b5f611afa836112d8565b90508073ffffffffffffffffffffffffffffffffffffffff168473ffffffffffffffffffffffffffffffffffffffff161480611b6957508373ffffffffffffffffffffffffffffffffffffffff16611b5184610608565b73ffffffffffffffffffffffffffffffffffffffff16145b80611b7a5750611b79818561181a565b5b91505092915050565b8273ffffffffffffffffffffffffffffffffffffffff16611ba3826112d8565b73ffffffffffffffffffffffffffffffffffffffff1614611bf9576040517f08c379a0000000000000000000000000000000000000000000000000000000008152600401611bf090613aeb565b60405180910390fd5b5f73ffffffffffffffffffffffffffffffffffffffff168273ffffffffffffffffffffffffffffffffffffffff1603611c67576040517f08c379a0000000000000000000000000000000000000000000000000000000008152600401611c5e90613b79565b60405180910390fd5b611c7283838361219a565b611c7c5f82611980565b600160035f8573ffffffffffffffffffffffffffffffffffffffff1673ffffffffffffffffffffffffffffffffffffffff1681526020019081526020015f205f828254611cc99190613b97565b92505081905550600160035f8473ffffffffffffffffffffffffffffffffffffffff1673ffffffffffffffffffffffffffffffffffffffff1681526020019081526020015f205f828254611d1d91906132e2565b925050819055508160025f8381526020019081526020015f205f6101000a81548173ffffffffffffffffffffffffffffffffffffffff021916908373ffffffffffffffffffffffffffffffffffffffff160217905550808273ffffffffffffffffffffffffffffffffffffffff168473ffffffffffffffffffffffffffffffffffffffff167fddf252ad1be2c89b69c2b068fc378daa952ba7f163c4a11628f55a4df523b3ef60405160405180910390a4505050565b6001815f015f828254019250508190555050565b611def612550565b6040518061010001604052805f81526020018881526020018781526020018681526020018581526020018481526020018381526020015f73ffffffffffffffffffffffffffffffffffffffff1681525090509695505050505050565b611e64828260405180602001604052805f81525061219f565b5050565b8173ffffffffffffffffffffffffffffffffffffffff168373ffffffffffffffffffffffffffffffffffffffff1603611ed6576040517f08c379a0000000000000000000000000000000000000000000000000000000008152600401611ecd90613c14565b60405180910390fd5b8060055f8573ffffffffffffffffffffffffffffffffffffffff1673ffffffffffffffffffffffffffffffffffffffff1681526020019081526020015f205f8473ffffffffffffffffffffffffffffffffffffffff1673ffffffffffffffffffffffffffffffffffffffff1681526020019081526020015f205f6101000a81548160ff0219169083151502179055508173ffffffffffffffffffffffffffffffffffffffff168373ffffffffffffffffffffffffffffffffffffffff167f17307eab39ab6107e8899845ad3d59bd9653f200f220920489ca2b5937696c3183604051611fc29190612653565b60405180910390a3505050565b611fda848484611b83565b611fe6848484846121f9565b612025576040517f08c379a000000000000000000000000000000000000000000000000000000000815260040161201c90613ca2565b60405180910390fd5b50505050565b606060405180602001604052805f815250905090565b60605f8203612087576040518060400160405280600181526020017f30000000000000000000000000000000000000000000000000000000000000008152509050612195565b5f8290505f5b5f82146120b657808061209f90613315565b915050600a826120af9190613ced565b915061208d565b5f8167ffffffffffffffff8111156120d1576120d0612a79565b5b6040519080825280601f01601f1916602001820160405280156121035781602001600182028036833780820191505090505b5090505b5f851461218e5760018261211b9190613b97565b9150600a8561212a9190613d1d565b603061213691906132e2565b60f81b81838151811061214c5761214b61335c565b5b60200101907effffffffffffffffffffffffffffffffffffffffffffffffffffffffffffff191690815f1a905350600a856121879190613ced565b9450612107565b8093505050505b919050565b505050565b6121a9838361237b565b6121b55f8484846121f9565b6121f4576040517f08c379a00000000000000000000000000000000000000000000000000000000081526004016121eb90613ca2565b60405180910390fd5b505050565b5f6122198473ffffffffffffffffffffffffffffffffffffffff1661253f565b1561236e578373ffffffffffffffffffffffffffffffffffffffff1663150b7a02612242611979565b8786866040518563ffffffff1660e01b81526004016122649493929190613d9f565b6020604051808303815f875af192505050801561229f57506040513d601f19601f8201168201806040525081019061229c9190613dfd565b60015b61231e573d805f81146122cd576040519150601f19603f3d011682016040523d82523d5f602084013e6122d2565b606091505b505f815103612316576040517f08c379a000000000000000000000000000000000000000000000000000000000815260040161230d90613ca2565b60405180910390fd5b805181602001fd5b63150b7a0260e01b7bffffffffffffffffffffffffffffffffffffffffffffffffffffffff1916817bffffffffffffffffffffffffffffffffffffffffffffffffffffffff191614915050612373565b600190505b949350505050565b5f73ffffffffffffffffffffffffffffffffffffffff168273ffffffffffffffffffffffffffffffffffffffff16036123e9576040517f08c379a00000000000000000000000000000000000000000000000000000000081526004016123e090613e72565b60405180910390fd5b6123f281611911565b15612432576040517f08c379a000000000000000000000000000000000000000000000000000000000815260040161242990613eda565b60405180910390fd5b61243d5f838361219a565b600160035f8473ffffffffffffffffffffffffffffffffffffffff1673ffffffffffffffffffffffffffffffffffffffff1681526020019081526020015f205f82825461248a91906132e2565b925050819055508160025f8381526020019081526020015f205f6101000a81548173ffffffffffffffffffffffffffffffffffffffff021916908373ffffffffffffffffffffffffffffffffffffffff160217905550808273ffffffffffffffffffffffffffffffffffffffff165f73ffffffffffffffffffffffffffffffffffffffff167fddf252ad1be2c89b69c2b068fc378daa952ba7f163c4a11628f55a4df523b3ef60405160405180910390a45050565b5f80823b90505f8111915050919050565b6040518061010001604052805f815260200160608152602001606081526020016060815260200160608152602001606081526020015f81526020015f73ffffffffffffffffffffffffffffffffffffffff1681525090565b5f604051905090565b5f80fd5b5f80fd5b5f7fffffffff0000000000000000000000000000000000000000000000000000000082169050919050565b6125ed816125b9565b81146125f7575f80fd5b50565b5f81359050612608816125e4565b92915050565b5f60208284031215612623576126226125b1565b5b5f612630848285016125fa565b91505092915050565b5f8115159050919050565b61264d81612639565b82525050565b5f6020820190506126665f830184612644565b92915050565b5f81519050919050565b5f82825260208201905092915050565b5f5b838110156126a3578082015181840152602081019050612688565b5f8484015250505050565b5f601f19601f8301169050919050565b5f6126c88261266c565b6126d28185612676565b93506126e2818560208601612686565b6126eb816126ae565b840191505092915050565b5f6020820190508181035f83015261270e81846126be565b905092915050565b5f819050919050565b61272881612716565b8114612732575f80fd5b50565b5f813590506127438161271f565b92915050565b5f6020828403121561275e5761275d6125b1565b5b5f61276b84828501612735565b91505092915050565b5f73ffffffffffffffffffffffffffffffffffffffff82169050919050565b5f61279d82612774565b9050919050565b6127ad81612793565b82525050565b5f6020820190506127c65f8301846127a4565b92915050565b6127d581612793565b81146127df575f80fd5b50565b5f813590506127f0816127cc565b92915050565b5f806040838503121561280c5761280b6125b1565b5b5f612819858286016127e2565b925050602061282a85828601612735565b9150509250929050565b5f81519050919050565b5f82825260208201905092915050565b5f819050602082019050919050565b61286681612716565b82525050565b5f82825260208201905092915050565b5f6128868261266c565b612890818561286c565b93506128a0818560208601612686565b6128a9816126ae565b840191505092915050565b6128bd81612793565b82525050565b5f61010083015f8301516128d95f86018261285d565b50602083015184820360208601526128f1828261287c565b9150506040830151848203604086015261290b828261287c565b91505060608301518482036060860152612925828261287c565b9150506080830151848203608086015261293f828261287c565b91505060a083015184820360a0860152612959828261287c565b91505060c083015161296e60c086018261285d565b5060e083015161298160e08601826128b4565b508091505092915050565b5f61299783836128c3565b905092915050565b5f602082019050919050565b5f6129b582612834565b6129bf818561283e565b9350836020820285016129d18561284e565b805f5b85811015612a0c57848403895281516129ed858261298c565b94506129f88361299f565b925060208a019950506001810190506129d4565b50829750879550505050505092915050565b5f6020820190508181035f830152612a3681846129ab565b905092915050565b5f819050919050565b612a5081612a3e565b8114612a5a575f80fd5b50565b5f81359050612a6b81612a47565b92915050565b5f80fd5b5f80fd5b7f4e487b71000000000000000000000000000000000000000000000000000000005f52604160045260245ffd5b612aaf826126ae565b810181811067ffffffffffffffff82111715612ace57612acd612a79565b5b80604052505050565b5f612ae06125a8565b9050612aec8282612aa6565b919050565b5f67ffffffffffffffff821115612b0b57612b0a612a79565b5b612b14826126ae565b9050602081019050919050565b828183375f83830152505050565b5f612b41612b3c84612af1565b612ad7565b905082815260208101848484011115612b5d57612b5c612a75565b5b612b68848285612b21565b509392505050565b5f82601f830112612b8457612b83612a71565b5b8135612b94848260208601612b2f565b91505092915050565b5f8060408385031215612bb357612bb26125b1565b5b5f612bc085828601612a5d565b925050602083013567ffffffffffffffff811115612be157612be06125b5565b5b612bed85828601612b70565b9150509250929050565b5f805f60608486031215612c0e57612c0d6125b1565b5b5f612c1b868287016127e2565b9350506020612c2c868287016127e2565b9250506040612c3d86828701612735565b9150509250925092565b5f60208284031215612c5c57612c5b6125b1565b5b5f612c69848285016127e2565b91505092915050565b612c7b81612716565b82525050565b5f61010082019050612c955f83018b612c72565b8181036020830152612ca7818a6126be565b90508181036040830152612cbb81896126be565b90508181036060830152612ccf81886126be565b90508181036080830152612ce381876126be565b905081810360a0830152612cf781866126be565b9050612d0660c0830185612c72565b612d1360e08301846127a4565b9998505050505050505050565b5f67ffffffffffffffff821115612d3a57612d39612a79565b5b612d43826126ae565b9050602081019050919050565b5f612d62612d5d84612d20565b612ad7565b905082815260208101848484011115612d7e57612d7d612a75565b5b612d89848285612b21565b509392505050565b5f82601f830112612da557612da4612a71565b5b8135612db5848260208601612d50565b91505092915050565b5f805f805f805f60e0888a031215612dd957612dd86125b1565b5b5f612de68a828b016127e2565b975050602088013567ffffffffffffffff811115612e0757612e066125b5565b5b612e138a828b01612d91565b965050604088013567ffffffffffffffff811115612e3457612e336125b5565b5b612e408a828b01612d91565b955050606088013567ffffffffffffffff811115612e6157612e606125b5565b5b612e6d8a828b01612d91565b945050608088013567ffffffffffffffff811115612e8e57612e8d6125b5565b5b612e9a8a828b01612d91565b93505060a088013567ffffffffffffffff811115612ebb57612eba6125b5565b5b612ec78a828b01612d91565b92505060c0612ed88a828b01612735565b91505092959891949750929550565b5f602082019050612efa5f830184612c72565b92915050565b5f8060408385031215612f1657612f156125b1565b5b5f612f23858286016127e2565b925050602083013567ffffffffffffffff811115612f4457612f436125b5565b5b612f5085828601612d91565b9150509250929050565b612f6381612639565b8114612f6d575f80fd5b50565b5f81359050612f7e81612f5a565b92915050565b5f8060408385031215612f9a57612f996125b1565b5b5f612fa7858286016127e2565b9250506020612fb885828601612f70565b9150509250929050565b5f805f8060808587031215612fda57612fd96125b1565b5b5f612fe7878288016127e2565b9450506020612ff8878288016127e2565b935050604061300987828801612735565b925050606085013567ffffffffffffffff81111561302a576130296125b5565b5b61303687828801612b70565b91505092959194509250565b5f6040820190506130555f830185612644565b818103602083015261306781846126be565b90509392505050565b5f8060408385031215613086576130856125b1565b5b5f613093858286016127e2565b92505060206130a4858286016127e2565b9150509250929050565b7f4e487b71000000000000000000000000000000000000000000000000000000005f52602260045260245ffd5b5f60028204905060018216806130f257607f821691505b602082108103613105576131046130ae565b5b50919050565b7f4552433732313a20617070726f76656420717565727920666f72206e6f6e65785f8201527f697374656e7420746f6b656e0000000000000000000000000000000000000000602082015250565b5f613165602c83612676565b91506131708261310b565b604082019050919050565b5f6020820190508181035f83015261319281613159565b9050919050565b7f4552433732313a20617070726f76616c20746f2063757272656e74206f776e655f8201527f7200000000000000000000000000000000000000000000000000000000000000602082015250565b5f6131f3602183612676565b91506131fe82613199565b604082019050919050565b5f6020820190508181035f830152613220816131e7565b9050919050565b7f4552433732313a20617070726f76652063616c6c6572206973206e6f74206f775f8201527f6e6572206e6f7220617070726f76656420666f7220616c6c0000000000000000602082015250565b5f613281603883612676565b915061328c82613227565b604082019050919050565b5f6020820190508181035f8301526132ae81613275565b9050919050565b7f4e487b71000000000000000000000000000000000000000000000000000000005f52601160045260245ffd5b5f6132ec82612716565b91506132f783612716565b925082820190508082111561330f5761330e6132b5565b5b92915050565b5f61331f82612716565b91507fffffffffffffffffffffffffffffffffffffffffffffffffffffffffffffffff8203613351576133506132b5565b5b600182019050919050565b7f4e487b71000000000000000000000000000000000000000000000000000000005f52603260045260245ffd5b61339281612a3e565b82525050565b5f60ff82169050919050565b6133ad81613398565b82525050565b5f6080820190506133c65f830187613389565b6133d360208301866133a4565b6133e06040830185613389565b6133ed6060830184613389565b95945050505050565b7f4552433732313a207472616e736665722063616c6c6572206973206e6f74206f5f8201527f776e6572206e6f7220617070726f766564000000000000000000000000000000602082015250565b5f613450603183612676565b915061345b826133f6565b604082019050919050565b5f6020820190508181035f83015261347d81613444565b9050919050565b7f4f6e6c7920746865206f776e65722063616e206d696e74205342547320666f725f8201527f2061646472657373657300000000000000000000000000000000000000000000602082015250565b5f6134de602a83612676565b91506134e982613484565b604082019050919050565b5f6020820190508181035f83015261350b816134d2565b9050919050565b5f819050815f5260205f209050919050565b5f6020601f8301049050919050565b5f82821b905092915050565b5f6008830261356e7fffffffffffffffffffffffffffffffffffffffffffffffffffffffffffffffff82613533565b6135788683613533565b95508019841693508086168417925050509392505050565b5f819050919050565b5f6135b36135ae6135a984612716565b613590565b612716565b9050919050565b5f819050919050565b6135cc83613599565b6135e06135d8826135ba565b84845461353f565b825550505050565b5f90565b6135f46135e8565b6135ff8184846135c3565b505050565b5b81811015613622576136175f826135ec565b600181019050613605565b5050565b601f8211156136675761363881613512565b61364184613524565b81016020851015613650578190505b61366461365c85613524565b830182613604565b50505b505050565b5f82821c905092915050565b5f6136875f198460080261366c565b1980831691505092915050565b5f61369f8383613678565b9150826002028217905092915050565b6136b88261266c565b67ffffffffffffffff8111156136d1576136d0612a79565b5b6136db82546130db565b6136e6828285613626565b5f60209050601f831160018114613717575f8415613705578287015190505b61370f8582613694565b865550613776565b601f19841661372586613512565b5f5b8281101561374c57848901518255600182019150602085019450602081019050613727565b868310156137695784890151613765601f891682613678565b8355505b6001600288020188555050505b505050505050565b7f4552433732313a206f776e657220717565727920666f72206e6f6e65786973745f8201527f656e7420746f6b656e0000000000000000000000000000000000000000000000602082015250565b5f6137d8602983612676565b91506137e38261377e565b604082019050919050565b5f6020820190508181035f830152613805816137cc565b9050919050565b7f4552433732313a2062616c616e636520717565727920666f7220746865207a655f8201527f726f206164647265737300000000000000000000000000000000000000000000602082015250565b5f613866602a83612676565b91506138718261380c565b604082019050919050565b5f6020820190508181035f8301526138938161385a565b9050919050565b7f4552433732314d657461646174613a2055524920717565727920666f72206e6f5f8201527f6e6578697374656e7420746f6b656e0000000000000000000000000000000000602082015250565b5f6138f4602f83612676565b91506138ff8261389a565b604082019050919050565b5f6020820190508181035f830152613921816138e8565b9050919050565b5f81905092915050565b5f61393c8261266c565b6139468185613928565b9350613956818560208601612686565b80840191505092915050565b5f61396d8285613932565b91506139798284613932565b91508190509392505050565b7f696e76616c6964207369676e6174757265206c656e67746800000000000000005f82015250565b5f6139b9601883612676565b91506139c482613985565b602082019050919050565b5f6020820190508181035f8301526139e6816139ad565b9050919050565b7f4552433732313a206f70657261746f7220717565727920666f72206e6f6e65785f8201527f697374656e7420746f6b656e0000000000000000000000000000000000000000602082015250565b5f613a47602c83612676565b9150613a52826139ed565b604082019050919050565b5f6020820190508181035f830152613a7481613a3b565b9050919050565b7f4552433732313a207472616e73666572206f6620746f6b656e207468617420695f8201527f73206e6f74206f776e0000000000000000000000000000000000000000000000602082015250565b5f613ad5602983612676565b9150613ae082613a7b565b604082019050919050565b5f6020820190508181035f830152613b0281613ac9565b9050919050565b7f4552433732313a207472616e7366657220746f20746865207a65726f206164645f8201527f7265737300000000000000000000000000000000000000000000000000000000602082015250565b5f613b63602483612676565b9150613b6e82613b09565b604082019050919050565b5f6020820190508181035f830152613b9081613b57565b9050919050565b5f613ba182612716565b9150613bac83612716565b9250828203905081811115613bc457613bc36132b5565b5b92915050565b7f4552433732313a20617070726f766520746f2063616c6c6572000000000000005f82015250565b5f613bfe601983612676565b9150613c0982613bca565b602082019050919050565b5f6020820190508181035f830152613c2b81613bf2565b9050919050565b7f4552433732313a207472616e7366657220746f206e6f6e2045524337323152655f8201527f63656976657220696d706c656d656e7465720000000000000000000000000000602082015250565b5f613c8c603283612676565b9150613c9782613c32565b604082019050919050565b5f6020820190508181035f830152613cb981613c80565b9050919050565b7f4e487b71000000000000000000000000000000000000000000000000000000005f52601260045260245ffd5b5f613cf782612716565b9150613d0283612716565b925082613d1257613d11613cc0565b5b828204905092915050565b5f613d2782612716565b9150613d3283612716565b925082613d4257613d41613cc0565b5b828206905092915050565b5f81519050919050565b5f82825260208201905092915050565b5f613d7182613d4d565b613d7b8185613d57565b9350613d8b818560208601612686565b613d94816126ae565b840191505092915050565b5f608082019050613db25f8301876127a4565b613dbf60208301866127a4565b613dcc6040830185612c72565b8181036060830152613dde8184613d67565b905095945050505050565b5f81519050613df7816125e4565b92915050565b5f60208284031215613e1257613e116125b1565b5b5f613e1f84828501613de9565b91505092915050565b7f4552433732313a206d696e7420746f20746865207a65726f20616464726573735f82015250565b5f613e5c602083612676565b9150613e6782613e28565b602082019050919050565b5f6020820190508181035f830152613e8981613e50565b9050919050565b7f4552433732313a20746f6b656e20616c7265616479206d696e746564000000005f82015250565b5f613ec4601c83612676565b9150613ecf82613e90565b602082019050919050565b5f6020820190508181035f830152613ef181613eb8565b905091905056fea26469706673582212208a2f3a88980b06a32b81d6bd997b6a2732e2f98f450ce461db61e869e04263f864736f6c63430008180033",
  "linkReferences": {},
  "deployedLinkReferences": {}
}