{
  "_format": "hh-sol-artifact-1",
  "contractName": "SoulboundToken",
  "sourceName": "contracts/SoulboundToken.sol",
  "abi": [
    {
      "inputs": [],
      "stateMutability": "nonpayable",
      "type": "constructor"
    },
    {
      "anonymous": false,
      "inputs": [
        {
          "indexed": true,
          "internalType": "address",
          "name": "owner",
          "type": "address"
        },
        {
          "indexed": true,
          "internalType": "address",
          "name": "approved",
          "type": "address"
        },
        {
          "indexed": true,
          "internalType": "uint256",
          "name": "tokenId",
          "type": "uint256"
        }
      ],
      "name": "Approval",
      "type": "event"
    },
    {
      "anonymous": false,
      "inputs": [
        {
          "indexed": true,
          "internalType": "address",
          "name": "owner",
          "type": "address"
        },
        {
          "indexed": true,
          "internalType": "address",
          "name": "operator",
          "type": "address"
        },
        {
          "indexed": false,
          "internalType": "bool",
          "name": "approved",
          "type": "bool"
        }
      ],
      "name": "ApprovalForAll",
      "type": "event"
    },
    {
      "anonymous": false,
      "inputs": [
        {
          "indexed": true,
          "internalType": "address",
          "name": "previousOwner",
          "type": "address"
        },
        {
          "indexed": true,
          "internalType": "address",
          "name": "newOwner",
          "type": "address"
        }
      ],
      "name": "OwnershipTransferred",
      "type": "event"
    },
    {
      "anonymous": false,
      "inputs": [
        {
          "indexed": true,
          "internalType": "address",
          "name": "from",
          "type": "address"
        },
        {
          "indexed": true,
          "internalType": "address",
          "name": "to",
          "type": "address"
        },
        {
          "indexed": true,
          "internalType": "uint256",
          "name": "tokenId",
          "type": "uint256"
        }
      ],
      "name": "Transfer",
      "type": "event"
    },
    {
      "inputs": [
        {
          "internalType": "address",
          "name": "verifier",
          "type": "address"
        },
        {
          "internalType": "string",
          "name": "organizationCode",
          "type": "string"
        }
      ],
      "name": "addVerifier",
      "outputs": [],
      "stateMutability": "nonpayable",
      "type": "function"
    },
    {
      "inputs": [
        {
          "internalType": "address",
          "name": "to",
          "type": "address"
        },
        {
          "internalType": "uint256",
          "name": "tokenId",
          "type": "uint256"
        }
      ],
      "name": "approve",
      "outputs": [],
      "stateMutability": "nonpayable",
      "type": "function"
    },
    {
      "inputs": [
        {
          "internalType": "address",
          "name": "owner",
          "type": "address"
        }
      ],
      "name": "balanceOf",
      "outputs": [
        {
          "internalType": "uint256",
          "name": "",
          "type": "uint256"
        }
      ],
      "stateMutability": "view",
      "type": "function"
    },
    {
      "inputs": [
        {
          "internalType": "uint256",
          "name": "tokenId",
          "type": "uint256"
        }
      ],
      "name": "getApproved",
      "outputs": [
        {
          "internalType": "address",
          "name": "",
          "type": "address"
        }
      ],
      "stateMutability": "view",
      "type": "function"
    },
    {
      "inputs": [],
      "name": "getMySBTs",
      "outputs": [
        {
          "components": [
            {
              "internalType": "uint256",
              "name": "sBTId",
              "type": "uint256"
            },
            {
              "internalType": "string",
              "name": "fullName",
              "type": "string"
            },
            {
              "internalType": "string",
              "name": "certificateHash",
              "type": "string"
            },
            {
              "internalType": "string",
              "name": "citizenID",
              "type": "string"
            },
            {
              "internalType": "string",
              "name": "hometown",
              "type": "string"
            },
            {
              "internalType": "string",
              "name": "nationality",
              "type": "string"
            },
            {
              "internalType": "uint256",
              "name": "birthDate",
              "type": "uint256"
            },
            {
              "internalType": "address",
              "name": "ownerAddress",
              "type": "address"
            }
          ],
          "internalType": "struct SoulboundToken.SBTInfo[]",
          "name": "",
          "type": "tuple[]"
        }
      ],
      "stateMutability": "view",
      "type": "function"
    },
    {
      "inputs": [
        {
          "internalType": "address",
          "name": "addr",
          "type": "address"
        }
      ],
      "name": "getOrganizationCode",
      "outputs": [
        {
          "internalType": "string",
          "name": "",
          "type": "string"
        }
      ],
      "stateMutability": "view",
      "type": "function"
    },
    {
      "inputs": [],
      "name": "getOrganizationCodes",
      "outputs": [
        {
          "internalType": "string[]",
          "name": "",
          "type": "string[]"
        }
      ],
      "stateMutability": "view",
      "type": "function"
    },
    {
      "inputs": [
        {
          "internalType": "string",
          "name": "targetOrganizationCode",
          "type": "string"
        }
      ],
      "name": "getVerifiersByOrganizationCode",
      "outputs": [
        {
          "internalType": "address[]",
          "name": "",
          "type": "address[]"
        }
      ],
      "stateMutability": "view",
      "type": "function"
    },
    {
      "inputs": [
        {
          "internalType": "uint256",
          "name": "",
          "type": "uint256"
        }
      ],
      "name": "idToSBT",
      "outputs": [
        {
          "internalType": "uint256",
          "name": "sBTId",
          "type": "uint256"
        },
        {
          "internalType": "string",
          "name": "fullName",
          "type": "string"
        },
        {
          "internalType": "string",
          "name": "certificateHash",
          "type": "string"
        },
        {
          "internalType": "string",
          "name": "citizenID",
          "type": "string"
        },
        {
          "internalType": "string",
          "name": "hometown",
          "type": "string"
        },
        {
          "internalType": "string",
          "name": "nationality",
          "type": "string"
        },
        {
          "internalType": "uint256",
          "name": "birthDate",
          "type": "uint256"
        },
        {
          "internalType": "address",
          "name": "ownerAddress",
          "type": "address"
        }
      ],
      "stateMutability": "view",
      "type": "function"
    },
    {
      "inputs": [
        {
          "internalType": "address",
          "name": "owner",
          "type": "address"
        },
        {
          "internalType": "address",
          "name": "operator",
          "type": "address"
        }
      ],
      "name": "isApprovedForAll",
      "outputs": [
        {
          "internalType": "bool",
          "name": "",
          "type": "bool"
        }
      ],
      "stateMutability": "view",
      "type": "function"
    },
    {
      "inputs": [
        {
          "internalType": "address",
          "name": "addr",
          "type": "address"
        }
      ],
      "name": "isVerifier",
      "outputs": [
        {
          "internalType": "bool",
          "name": "",
          "type": "bool"
        }
      ],
      "stateMutability": "view",
      "type": "function"
    },
    {
      "inputs": [
        {
          "internalType": "address",
          "name": "recipient",
          "type": "address"
        },
        {
          "internalType": "string",
          "name": "myTokenURI",
          "type": "string"
        }
      ],
      "name": "mintSBTForAddress",
      "outputs": [],
      "stateMutability": "nonpayable",
      "type": "function"
    },
    {
      "inputs": [],
      "name": "name",
      "outputs": [
        {
          "internalType": "string",
          "name": "",
          "type": "string"
        }
      ],
      "stateMutability": "view",
      "type": "function"
    },
    {
      "inputs": [],
      "name": "owner",
      "outputs": [
        {
          "internalType": "address",
          "name": "",
          "type": "address"
        }
      ],
      "stateMutability": "view",
      "type": "function"
    },
    {
      "inputs": [
        {
          "internalType": "uint256",
          "name": "tokenId",
          "type": "uint256"
        }
      ],
      "name": "ownerOf",
      "outputs": [
        {
          "internalType": "address",
          "name": "",
          "type": "address"
        }
      ],
      "stateMutability": "view",
      "type": "function"
    },
    {
      "inputs": [
        {
          "internalType": "bytes32",
          "name": "_ethSignedMessageHash",
          "type": "bytes32"
        },
        {
          "internalType": "bytes",
          "name": "_sig",
          "type": "bytes"
        }
      ],
      "name": "recover",
      "outputs": [
        {
          "internalType": "address",
          "name": "",
          "type": "address"
        }
      ],
      "stateMutability": "pure",
      "type": "function"
    },
    {
      "inputs": [
        {
          "internalType": "address",
          "name": "verifier",
          "type": "address"
        }
      ],
      "name": "removeVerifier",
      "outputs": [],
      "stateMutability": "nonpayable",
      "type": "function"
    },
    {
      "inputs": [],
      "name": "renounceOwnership",
      "outputs": [],
      "stateMutability": "nonpayable",
      "type": "function"
    },
    {
      "inputs": [
        {
          "internalType": "address",
          "name": "from",
          "type": "address"
        },
        {
          "internalType": "address",
          "name": "to",
          "type": "address"
        },
        {
          "internalType": "uint256",
          "name": "tokenId",
          "type": "uint256"
        }
      ],
      "name": "safeTransferFrom",
      "outputs": [],
      "stateMutability": "nonpayable",
      "type": "function"
    },
    {
      "inputs": [
        {
          "internalType": "address",
          "name": "from",
          "type": "address"
        },
        {
          "internalType": "address",
          "name": "to",
          "type": "address"
        },
        {
          "internalType": "uint256",
          "name": "tokenId",
          "type": "uint256"
        },
        {
          "internalType": "bytes",
          "name": "data",
          "type": "bytes"
        }
      ],
      "name": "safeTransferFrom",
      "outputs": [],
      "stateMutability": "nonpayable",
      "type": "function"
    },
    {
      "inputs": [
        {
          "internalType": "address",
          "name": "operator",
          "type": "address"
        },
        {
          "internalType": "bool",
          "name": "approved",
          "type": "bool"
        }
      ],
      "name": "setApprovalForAll",
      "outputs": [],
      "stateMutability": "nonpayable",
      "type": "function"
    },
    {
      "inputs": [
        {
          "internalType": "bytes4",
          "name": "interfaceId",
          "type": "bytes4"
        }
      ],
      "name": "supportsInterface",
      "outputs": [
        {
          "internalType": "bool",
          "name": "",
          "type": "bool"
        }
      ],
      "stateMutability": "view",
      "type": "function"
    },
    {
      "inputs": [],
      "name": "symbol",
      "outputs": [
        {
          "internalType": "string",
          "name": "",
          "type": "string"
        }
      ],
      "stateMutability": "view",
      "type": "function"
    },
    {
      "inputs": [
        {
          "internalType": "uint256",
          "name": "tokenId",
          "type": "uint256"
        }
      ],
      "name": "tokenURI",
      "outputs": [
        {
          "internalType": "string",
          "name": "",
          "type": "string"
        }
      ],
      "stateMutability": "view",
      "type": "function"
    },
    {
      "inputs": [
        {
          "internalType": "address",
          "name": "from",
          "type": "address"
        },
        {
          "internalType": "address",
          "name": "to",
          "type": "address"
        },
        {
          "internalType": "uint256",
          "name": "tokenId",
          "type": "uint256"
        }
      ],
      "name": "transferFrom",
      "outputs": [],
      "stateMutability": "nonpayable",
      "type": "function"
    },
    {
      "inputs": [
        {
          "internalType": "address",
          "name": "newOwner",
          "type": "address"
        }
      ],
      "name": "transferOwnership",
      "outputs": [],
      "stateMutability": "nonpayable",
      "type": "function"
    },
    {
      "inputs": [
        {
          "internalType": "uint256",
          "name": "",
          "type": "uint256"
        }
      ],
      "name": "verifierAddresses",
      "outputs": [
        {
          "internalType": "address",
          "name": "",
          "type": "address"
        }
      ],
      "stateMutability": "view",
      "type": "function"
    },
    {
      "inputs": [
        {
          "internalType": "address",
          "name": "",
          "type": "address"
        }
      ],
      "name": "verifierList",
      "outputs": [
        {
          "internalType": "bool",
          "name": "isVerifier",
          "type": "bool"
        },
        {
          "internalType": "string",
          "name": "organizationCode",
          "type": "string"
        }
      ],
      "stateMutability": "view",
      "type": "function"
    }
  ],
  "bytecode": "0x608060405234801562000010575f80fd5b506040518060400160405280600e81526020017f536f756c626f756e64546f6b656e0000000000000000000000000000000000008152506040518060400160405280600381526020017f5342540000000000000000000000000000000000000000000000000000000000815250815f90816200008d9190620003f6565b5080600190816200009f9190620003f6565b505050620000c2620000b6620000c860201b60201c565b620000cf60201b60201c565b620004da565b5f33905090565b5f60075f9054906101000a900473ffffffffffffffffffffffffffffffffffffffff1690508160075f6101000a81548173ffffffffffffffffffffffffffffffffffffffff021916908373ffffffffffffffffffffffffffffffffffffffff1602179055508173ffffffffffffffffffffffffffffffffffffffff168173ffffffffffffffffffffffffffffffffffffffff167f8be0079c531659141344cd1fd0a4f28419497f9722a3daafe3b4186f6b6457e060405160405180910390a35050565b5f81519050919050565b7f4e487b71000000000000000000000000000000000000000000000000000000005f52604160045260245ffd5b7f4e487b71000000000000000000000000000000000000000000000000000000005f52602260045260245ffd5b5f60028204905060018216806200020e57607f821691505b602082108103620002245762000223620001c9565b5b50919050565b5f819050815f5260205f209050919050565b5f6020601f8301049050919050565b5f82821b905092915050565b5f60088302620002887fffffffffffffffffffffffffffffffffffffffffffffffffffffffffffffffff826200024b565b6200029486836200024b565b95508019841693508086168417925050509392505050565b5f819050919050565b5f819050919050565b5f620002de620002d8620002d284620002ac565b620002b5565b620002ac565b9050919050565b5f819050919050565b620002f983620002be565b620003116200030882620002e5565b84845462000257565b825550505050565b5f90565b6200032762000319565b62000334818484620002ee565b505050565b5b818110156200035b576200034f5f826200031d565b6001810190506200033a565b5050565b601f821115620003aa5762000374816200022a565b6200037f846200023c565b810160208510156200038f578190505b620003a76200039e856200023c565b83018262000339565b50505b505050565b5f82821c905092915050565b5f620003cc5f1984600802620003af565b1980831691505092915050565b5f620003e68383620003bb565b9150826002028217905092915050565b620004018262000192565b67ffffffffffffffff8111156200041d576200041c6200019c565b5b620004298254620001f6565b620004368282856200035f565b5f60209050601f8311600181146200046c575f841562000457578287015190505b620004638582620003d9565b865550620004d2565b601f1984166200047c866200022a565b5f5b82811015620004a5578489015182556001820191506020850194506020810190506200047e565b86831015620004c55784890151620004c1601f891682620003bb565b8355505b6001600288020188555050505b505050505050565b614e8e80620004e85f395ff3fe608060405234801561000f575f80fd5b50600436106101c2575f3560e01c806370a08231116100f7578063c368572f11610095578063d5c48a311161006f578063d5c48a3114610541578063e985e9c514610572578063f2fde38b146105a2578063fc3949eb146105be576101c2565b8063c368572f146104c5578063c87b56dd146104f5578063ca2dfd0a14610525576101c2565b80638da5cb5b116100d15780638da5cb5b1461045157806395d89b411461046f578063a22cb4651461048d578063b88d4fde146104a9576101c2565b806370a08231146103fb578063715018a61461042b5780637340792a14610435576101c2565b8063331052181161016457806342842e0e1161013e57806342842e0e1461034f5780636352211e1461036b578063657ad6681461039b5780636de05398146103cb576101c2565b806333105218146102ca578063355d3998146102fa57806337520e7814610318576101c2565b8063095ea7b3116101a0578063095ea7b3146102445780630f003ff71461026057806319045a251461027e57806323b872dd146102ae576101c2565b806301ffc9a7146101c657806306fdde03146101f6578063081812fc14610214575b5f80fd5b6101e060048036038101906101db9190613290565b6105da565b6040516101ed91906132d5565b60405180910390f35b6101fe6105eb565b60405161020b9190613378565b60405180910390f35b61022e600480360381019061022991906133cb565b61067a565b60405161023b9190613435565b60405180910390f35b61025e60048036038101906102599190613478565b6106bc565b005b6102686107d2565b60405161027591906136a0565b60405180910390f35b6102986004803603810190610293919061381f565b610ce5565b6040516102a59190613435565b60405180910390f35b6102c860048036038101906102c39190613879565b610d4f565b005b6102e460048036038101906102df91906138c9565b610daf565b6040516102f191906132d5565b60405180910390f35b610302610e03565b60405161030f91906139af565b60405180910390f35b610332600480360381019061032d91906133cb565b610ed7565b6040516103469897969594939291906139de565b60405180910390f35b61036960048036038101906103649190613879565b6111d8565b005b610385600480360381019061038091906133cb565b6111f7565b6040516103929190613435565b60405180910390f35b6103b560048036038101906103b091906138c9565b6112a3565b6040516103c29190613378565b60405180910390f35b6103e560048036038101906103e091906133cb565b611373565b6040516103f29190613435565b60405180910390f35b610415600480360381019061041091906138c9565b6113ae565b6040516104229190613a7d565b60405180910390f35b610433611462565b005b61044f600480360381019061044a9190613b34565b611475565b005b6104596115fc565b6040516104669190613435565b60405180910390f35b610477611624565b6040516104849190613378565b60405180910390f35b6104a760048036038101906104a29190613bb8565b6116b4565b005b6104c360048036038101906104be9190613bf6565b6116ca565b005b6104df60048036038101906104da9190613c76565b61172c565b6040516104ec9190613d65565b60405180910390f35b61050f600480360381019061050a91906133cb565b611972565b60405161051c9190613378565b60405180910390f35b61053f600480360381019061053a91906138c9565b611984565b005b61055b600480360381019061055691906138c9565b611e9b565b604051610569929190613d85565b60405180910390f35b61058c60048036038101906105879190613db3565b611f4d565b60405161059991906132d5565b60405180910390f35b6105bc60048036038101906105b791906138c9565b611fdb565b005b6105d860048036038101906105d39190613b34565b61205d565b005b5f6105e48261208d565b9050919050565b60605f80546105f990613e1e565b80601f016020809104026020016040519081016040528092919081815260200182805461062590613e1e565b80156106705780601f1061064757610100808354040283529160200191610670565b820191905f5260205f20905b81548152906001019060200180831161065357829003601f168201915b5050505050905090565b5f6106848261216e565b60045f8381526020019081526020015f205f9054906101000a900473ffffffffffffffffffffffffffffffffffffffff169050919050565b5f6106c6826111f7565b90508073ffffffffffffffffffffffffffffffffffffffff168373ffffffffffffffffffffffffffffffffffffffff1603610736576040517f08c379a000000000000000000000000000000000000000000000000000000000815260040161072d90613ebe565b60405180910390fd5b8073ffffffffffffffffffffffffffffffffffffffff166107556121b9565b73ffffffffffffffffffffffffffffffffffffffff16148061078457506107838161077e6121b9565b611f4d565b5b6107c3576040517f08c379a00000000000000000000000000000000000000000000000000000000081526004016107ba90613f4c565b60405180910390fd5b6107cd83836121c0565b505050565b60605f6107df6008612276565b90505f80600190505b828111610878573373ffffffffffffffffffffffffffffffffffffffff1660095f8381526020019081526020015f206007015f9054906101000a900473ffffffffffffffffffffffffffffffffffffffff1673ffffffffffffffffffffffffffffffffffffffff1603610865576001826108629190613f97565b91505b808061087090613fca565b9150506107e8565b505f8167ffffffffffffffff811115610894576108936136fb565b5b6040519080825280602002602001820160405280156108cd57816020015b6108ba61317a565b8152602001906001900390816108b25790505b5090505f80600190505b848111610cda573373ffffffffffffffffffffffffffffffffffffffff1660095f8381526020019081526020015f206007015f9054906101000a900473ffffffffffffffffffffffffffffffffffffffff1673ffffffffffffffffffffffffffffffffffffffff1603610cc75760095f8281526020019081526020015f20604051806101000160405290815f820154815260200160018201805461097a90613e1e565b80601f01602080910402602001604051908101604052809291908181526020018280546109a690613e1e565b80156109f15780601f106109c8576101008083540402835291602001916109f1565b820191905f5260205f20905b8154815290600101906020018083116109d457829003601f168201915b50505050508152602001600282018054610a0a90613e1e565b80601f0160208091040260200160405190810160405280929190818152602001828054610a3690613e1e565b8015610a815780601f10610a5857610100808354040283529160200191610a81565b820191905f5260205f20905b815481529060010190602001808311610a6457829003601f168201915b50505050508152602001600382018054610a9a90613e1e565b80601f0160208091040260200160405190810160405280929190818152602001828054610ac690613e1e565b8015610b115780601f10610ae857610100808354040283529160200191610b11565b820191905f5260205f20905b815481529060010190602001808311610af457829003601f168201915b50505050508152602001600482018054610b2a90613e1e565b80601f0160208091040260200160405190810160405280929190818152602001828054610b5690613e1e565b8015610ba15780601f10610b7857610100808354040283529160200191610ba1565b820191905f5260205f20905b815481529060010190602001808311610b8457829003601f168201915b50505050508152602001600582018054610bba90613e1e565b80601f0160208091040260200160405190810160405280929190818152602001828054610be690613e1e565b8015610c315780601f10610c0857610100808354040283529160200191610c31565b820191905f5260205f20905b815481529060010190602001808311610c1457829003601f168201915b5050505050815260200160068201548152602001600782015f9054906101000a900473ffffffffffffffffffffffffffffffffffffffff1673ffffffffffffffffffffffffffffffffffffffff1673ffffffffffffffffffffffffffffffffffffffff1681525050838381518110610cac57610cab614011565b5b6020026020010181905250600182610cc49190613f97565b91505b8080610cd290613fca565b9150506108d7565b508194505050505090565b5f805f80610cf285612282565b9250925092506001868285856040515f8152602001604052604051610d1a9493929190614068565b6020604051602081039080840390855afa158015610d3a573d5f803e3d5ffd5b50505060206040510351935050505092915050565b610d60610d5a6121b9565b826122e7565b610d9f576040517f08c379a0000000000000000000000000000000000000000000000000000000008152600401610d969061411b565b60405180910390fd5b610daa83838361237b565b505050565b5f600a5f8373ffffffffffffffffffffffffffffffffffffffff1673ffffffffffffffffffffffffffffffffffffffff1681526020019081526020015f205f015f9054906101000a900460ff169050919050565b6060600d805480602002602001604051908101604052809291908181526020015f905b82821015610ece578382905f5260205f20018054610e4390613e1e565b80601f0160208091040260200160405190810160405280929190818152602001828054610e6f90613e1e565b8015610eba5780601f10610e9157610100808354040283529160200191610eba565b820191905f5260205f20905b815481529060010190602001808311610e9d57829003601f168201915b505050505081526020019060010190610e26565b50505050905090565b6009602052805f5260405f205f91509050805f015490806001018054610efc90613e1e565b80601f0160208091040260200160405190810160405280929190818152602001828054610f2890613e1e565b8015610f735780601f10610f4a57610100808354040283529160200191610f73565b820191905f5260205f20905b815481529060010190602001808311610f5657829003601f168201915b505050505090806002018054610f8890613e1e565b80601f0160208091040260200160405190810160405280929190818152602001828054610fb490613e1e565b8015610fff5780601f10610fd657610100808354040283529160200191610fff565b820191905f5260205f20905b815481529060010190602001808311610fe257829003601f168201915b50505050509080600301805461101490613e1e565b80601f016020809104026020016040519081016040528092919081815260200182805461104090613e1e565b801561108b5780601f106110625761010080835404028352916020019161108b565b820191905f5260205f20905b81548152906001019060200180831161106e57829003601f168201915b5050505050908060040180546110a090613e1e565b80601f01602080910402602001604051908101604052809291908181526020018280546110cc90613e1e565b80156111175780601f106110ee57610100808354040283529160200191611117565b820191905f5260205f20905b8154815290600101906020018083116110fa57829003601f168201915b50505050509080600501805461112c90613e1e565b80601f016020809104026020016040519081016040528092919081815260200182805461115890613e1e565b80156111a35780601f1061117a576101008083540402835291602001916111a3565b820191905f5260205f20905b81548152906001019060200180831161118657829003601f168201915b505050505090806006015490806007015f9054906101000a900473ffffffffffffffffffffffffffffffffffffffff16905088565b6111f283838360405180602001604052805f8152506116ca565b505050565b5f8060025f8481526020019081526020015f205f9054906101000a900473ffffffffffffffffffffffffffffffffffffffff1690505f73ffffffffffffffffffffffffffffffffffffffff168173ffffffffffffffffffffffffffffffffffffffff160361129a576040517f08c379a000000000000000000000000000000000000000000000000000000000815260040161129190614183565b60405180910390fd5b80915050919050565b6060600a5f8373ffffffffffffffffffffffffffffffffffffffff1673ffffffffffffffffffffffffffffffffffffffff1681526020019081526020015f2060010180546112f090613e1e565b80601f016020809104026020016040519081016040528092919081815260200182805461131c90613e1e565b80156113675780601f1061133e57610100808354040283529160200191611367565b820191905f5260205f20905b81548152906001019060200180831161134a57829003601f168201915b50505050509050919050565b600b8181548110611382575f80fd5b905f5260205f20015f915054906101000a900473ffffffffffffffffffffffffffffffffffffffff1681565b5f8073ffffffffffffffffffffffffffffffffffffffff168273ffffffffffffffffffffffffffffffffffffffff160361141d576040517f08c379a000000000000000000000000000000000000000000000000000000000815260040161141490614211565b60405180910390fd5b60035f8373ffffffffffffffffffffffffffffffffffffffff1673ffffffffffffffffffffffffffffffffffffffff1681526020019081526020015f20549050919050565b61146a6125d6565b6114735f612654565b565b604051806040016040528060011515815260200182815250600a5f8473ffffffffffffffffffffffffffffffffffffffff1673ffffffffffffffffffffffffffffffffffffffff1681526020019081526020015f205f820151815f015f6101000a81548160ff02191690831515021790555060208201518160010190816114fc91906143cc565b50905050600b82908060018154018082558091505060019003905f5260205f20015f9091909190916101000a81548173ffffffffffffffffffffffffffffffffffffffff021916908373ffffffffffffffffffffffffffffffffffffffff160217905550600c8160405161157091906144d5565b90815260200160405180910390205f9054906101000a900460ff166115f8576001600c826040516115a191906144d5565b90815260200160405180910390205f6101000a81548160ff021916908315150217905550600d81908060018154018082558091505060019003905f5260205f20015f9091909190915090816115f691906143cc565b505b5050565b5f60075f9054906101000a900473ffffffffffffffffffffffffffffffffffffffff16905090565b60606001805461163390613e1e565b80601f016020809104026020016040519081016040528092919081815260200182805461165f90613e1e565b80156116aa5780601f10611681576101008083540402835291602001916116aa565b820191905f5260205f20905b81548152906001019060200180831161168d57829003601f168201915b5050505050905090565b6116c66116bf6121b9565b8383612717565b5050565b6116db6116d56121b9565b836122e7565b61171a576040517f08c379a00000000000000000000000000000000000000000000000000000000081526004016117119061411b565b60405180910390fd5b6117268484848461287e565b50505050565b60605f60605f5b600b805490508110156117fe575f600b828154811061175557611754614011565b5b905f5260205f20015f9054906101000a900473ffffffffffffffffffffffffffffffffffffffff1690508580519060200120600a5f8373ffffffffffffffffffffffffffffffffffffffff1673ffffffffffffffffffffffffffffffffffffffff1681526020019081526020015f206001016040516117d49190614587565b6040518091039020036117f05783806117ec90613fca565b9450505b508080600101915050611733565b508167ffffffffffffffff811115611819576118186136fb565b5b6040519080825280602002602001820160405280156118475781602001602082028036833780820191505090505b5090505f805b600b80549050811015611966575f600b828154811061186f5761186e614011565b5b905f5260205f20015f9054906101000a900473ffffffffffffffffffffffffffffffffffffffff1690508680519060200120600a5f8373ffffffffffffffffffffffffffffffffffffffff1673ffffffffffffffffffffffffffffffffffffffff1681526020019081526020015f206001016040516118ee9190614587565b604051809103902003611958578084848151811061190f5761190e614011565b5b602002602001019073ffffffffffffffffffffffffffffffffffffffff16908173ffffffffffffffffffffffffffffffffffffffff1681525050828061195490613fca565b9350505b50808060010191505061184d565b50819350505050919050565b606061197d826128da565b9050919050565b600a5f8273ffffffffffffffffffffffffffffffffffffffff1673ffffffffffffffffffffffffffffffffffffffff1681526020019081526020015f205f015f9054906101000a900460ff16611a0f576040517f08c379a0000000000000000000000000000000000000000000000000000000008152600401611a06906145e7565b60405180910390fd5b5f600a5f8373ffffffffffffffffffffffffffffffffffffffff1673ffffffffffffffffffffffffffffffffffffffff1681526020019081526020015f206001018054611a5b90613e1e565b80601f0160208091040260200160405190810160405280929190818152602001828054611a8790613e1e565b8015611ad25780601f10611aa957610100808354040283529160200191611ad2565b820191905f5260205f20905b815481529060010190602001808311611ab557829003601f168201915b50505050509050600a5f8373ffffffffffffffffffffffffffffffffffffffff1673ffffffffffffffffffffffffffffffffffffffff1681526020019081526020015f205f8082015f6101000a81549060ff0219169055600182015f611b3891906131d2565b50505f5b600b80549050811015611cb3578273ffffffffffffffffffffffffffffffffffffffff16600b8281548110611b7457611b73614011565b5b905f5260205f20015f9054906101000a900473ffffffffffffffffffffffffffffffffffffffff1673ffffffffffffffffffffffffffffffffffffffff1603611ca657600b6001600b80549050611bcb9190614605565b81548110611bdc57611bdb614011565b5b905f5260205f20015f9054906101000a900473ffffffffffffffffffffffffffffffffffffffff16600b8281548110611c1857611c17614011565b5b905f5260205f20015f6101000a81548173ffffffffffffffffffffffffffffffffffffffff021916908373ffffffffffffffffffffffffffffffffffffffff160217905550600b805480611c6f57611c6e614638565b5b600190038181905f5260205f20015f6101000a81549073ffffffffffffffffffffffffffffffffffffffff02191690559055611cb3565b8080600101915050611b3c565b505f805b600b80549050811015611d77578280519060200120600a5f600b8481548110611ce357611ce2614011565b5b905f5260205f20015f9054906101000a900473ffffffffffffffffffffffffffffffffffffffff1673ffffffffffffffffffffffffffffffffffffffff1673ffffffffffffffffffffffffffffffffffffffff1681526020019081526020015f20600101604051611d549190614587565b604051809103902003611d6a5760019150611d77565b8080600101915050611cb7565b5080611e96575f600c83604051611d8e91906144d5565b90815260200160405180910390205f6101000a81548160ff0219169083151502179055505f5b600d80549050811015611e94578280519060200120600d8281548110611ddd57611ddc614011565b5b905f5260205f2001604051611df29190614587565b604051809103902003611e8757600d6001600d80549050611e139190614605565b81548110611e2457611e23614011565b5b905f5260205f2001600d8281548110611e4057611e3f614011565b5b905f5260205f20019081611e54919061468c565b50600d805480611e6757611e66614638565b5b600190038181905f5260205f20015f611e8091906131d2565b9055611e94565b8080600101915050611db4565b505b505050565b600a602052805f5260405f205f91509050805f015f9054906101000a900460ff1690806001018054611ecc90613e1e565b80601f0160208091040260200160405190810160405280929190818152602001828054611ef890613e1e565b8015611f435780601f10611f1a57610100808354040283529160200191611f43565b820191905f5260205f20905b815481529060010190602001808311611f2657829003601f168201915b5050505050905082565b5f60055f8473ffffffffffffffffffffffffffffffffffffffff1673ffffffffffffffffffffffffffffffffffffffff1681526020019081526020015f205f8373ffffffffffffffffffffffffffffffffffffffff1673ffffffffffffffffffffffffffffffffffffffff1681526020019081526020015f205f9054906101000a900460ff16905092915050565b611fe36125d6565b5f73ffffffffffffffffffffffffffffffffffffffff168173ffffffffffffffffffffffffffffffffffffffff1603612051576040517f08c379a0000000000000000000000000000000000000000000000000000000008152600401612048906147e1565b60405180910390fd5b61205a81612654565b50565b61206760086129e4565b5f6120726008612276565b905061207e83826129f8565b6120888183612a15565b505050565b5f7f80ac58cd000000000000000000000000000000000000000000000000000000007bffffffffffffffffffffffffffffffffffffffffffffffffffffffff1916827bffffffffffffffffffffffffffffffffffffffffffffffffffffffff1916148061215757507f5b5e139f000000000000000000000000000000000000000000000000000000007bffffffffffffffffffffffffffffffffffffffffffffffffffffffff1916827bffffffffffffffffffffffffffffffffffffffffffffffffffffffff1916145b80612167575061216682612a80565b5b9050919050565b61217781612ae9565b6121b6576040517f08c379a00000000000000000000000000000000000000000000000000000000081526004016121ad90614183565b60405180910390fd5b50565b5f33905090565b8160045f8381526020019081526020015f205f6101000a81548173ffffffffffffffffffffffffffffffffffffffff021916908373ffffffffffffffffffffffffffffffffffffffff160217905550808273ffffffffffffffffffffffffffffffffffffffff16612230836111f7565b73ffffffffffffffffffffffffffffffffffffffff167f8c5be1e5ebec7d5bd14f71427d1e84f3dd0314c0f7b2291e5b200ac8c7c3b92560405160405180910390a45050565b5f815f01549050919050565b5f805f60418451146122c9576040517f08c379a00000000000000000000000000000000000000000000000000000000081526004016122c090614849565b60405180910390fd5b602084015192506040840151915060608401515f1a90509193909250565b5f806122f2836111f7565b90508073ffffffffffffffffffffffffffffffffffffffff168473ffffffffffffffffffffffffffffffffffffffff16148061233457506123338185611f4d565b5b8061237257508373ffffffffffffffffffffffffffffffffffffffff1661235a8461067a565b73ffffffffffffffffffffffffffffffffffffffff16145b91505092915050565b8273ffffffffffffffffffffffffffffffffffffffff1661239b826111f7565b73ffffffffffffffffffffffffffffffffffffffff16146123f1576040517f08c379a00000000000000000000000000000000000000000000000000000000081526004016123e8906148d7565b60405180910390fd5b5f73ffffffffffffffffffffffffffffffffffffffff168273ffffffffffffffffffffffffffffffffffffffff160361245f576040517f08c379a000000000000000000000000000000000000000000000000000000000815260040161245690614965565b60405180910390fd5b61246a838383612b51565b6124745f826121c0565b600160035f8573ffffffffffffffffffffffffffffffffffffffff1673ffffffffffffffffffffffffffffffffffffffff1681526020019081526020015f205f8282546124c19190614605565b92505081905550600160035f8473ffffffffffffffffffffffffffffffffffffffff1673ffffffffffffffffffffffffffffffffffffffff1681526020019081526020015f205f8282546125159190613f97565b925050819055508160025f8381526020019081526020015f205f6101000a81548173ffffffffffffffffffffffffffffffffffffffff021916908373ffffffffffffffffffffffffffffffffffffffff160217905550808273ffffffffffffffffffffffffffffffffffffffff168473ffffffffffffffffffffffffffffffffffffffff167fddf252ad1be2c89b69c2b068fc378daa952ba7f163c4a11628f55a4df523b3ef60405160405180910390a46125d1838383612bcf565b505050565b6125de6121b9565b73ffffffffffffffffffffffffffffffffffffffff166125fc6115fc565b73ffffffffffffffffffffffffffffffffffffffff1614612652576040517f08c379a0000000000000000000000000000000000000000000000000000000008152600401612649906149cd565b60405180910390fd5b565b5f60075f9054906101000a900473ffffffffffffffffffffffffffffffffffffffff1690508160075f6101000a81548173ffffffffffffffffffffffffffffffffffffffff021916908373ffffffffffffffffffffffffffffffffffffffff1602179055508173ffffffffffffffffffffffffffffffffffffffff168173ffffffffffffffffffffffffffffffffffffffff167f8be0079c531659141344cd1fd0a4f28419497f9722a3daafe3b4186f6b6457e060405160405180910390a35050565b8173ffffffffffffffffffffffffffffffffffffffff168373ffffffffffffffffffffffffffffffffffffffff1603612785576040517f08c379a000000000000000000000000000000000000000000000000000000000815260040161277c90614a35565b60405180910390fd5b8060055f8573ffffffffffffffffffffffffffffffffffffffff1673ffffffffffffffffffffffffffffffffffffffff1681526020019081526020015f205f8473ffffffffffffffffffffffffffffffffffffffff1673ffffffffffffffffffffffffffffffffffffffff1681526020019081526020015f205f6101000a81548160ff0219169083151502179055508173ffffffffffffffffffffffffffffffffffffffff168373ffffffffffffffffffffffffffffffffffffffff167f17307eab39ab6107e8899845ad3d59bd9653f200f220920489ca2b5937696c318360405161287191906132d5565b60405180910390a3505050565b61288984848461237b565b61289584848484612bd4565b6128d4576040517f08c379a00000000000000000000000000000000000000000000000000000000081526004016128cb90614ac3565b60405180910390fd5b50505050565b60606128e58261216e565b5f60065f8481526020019081526020015f20805461290290613e1e565b80601f016020809104026020016040519081016040528092919081815260200182805461292e90613e1e565b80156129795780601f1061295057610100808354040283529160200191612979565b820191905f5260205f20905b81548152906001019060200180831161295c57829003601f168201915b505050505090505f612989612d56565b90505f81510361299d5781925050506129df565b5f825111156129d15780826040516020016129b9929190614ae1565b604051602081830303815290604052925050506129df565b6129da84612d6c565b925050505b919050565b6001815f015f828254019250508190555050565b612a11828260405180602001604052805f815250612dd1565b5050565b612a1e82612ae9565b612a5d576040517f08c379a0000000000000000000000000000000000000000000000000000000008152600401612a5490614b74565b60405180910390fd5b8060065f8481526020019081526020015f209081612a7b91906143cc565b505050565b5f7f01ffc9a7000000000000000000000000000000000000000000000000000000007bffffffffffffffffffffffffffffffffffffffffffffffffffffffff1916827bffffffffffffffffffffffffffffffffffffffffffffffffffffffff1916149050919050565b5f8073ffffffffffffffffffffffffffffffffffffffff1660025f8481526020019081526020015f205f9054906101000a900473ffffffffffffffffffffffffffffffffffffffff1673ffffffffffffffffffffffffffffffffffffffff1614159050919050565b5f73ffffffffffffffffffffffffffffffffffffffff168373ffffffffffffffffffffffffffffffffffffffff1614612bbf576040517f08c379a0000000000000000000000000000000000000000000000000000000008152600401612bb690614c02565b60405180910390fd5b612bca838383612e2b565b505050565b505050565b5f612bf48473ffffffffffffffffffffffffffffffffffffffff16612e30565b15612d49578373ffffffffffffffffffffffffffffffffffffffff1663150b7a02612c1d6121b9565b8786866040518563ffffffff1660e01b8152600401612c3f9493929190614c72565b6020604051808303815f875af1925050508015612c7a57506040513d601f19601f82011682018060405250810190612c779190614cd0565b60015b612cf9573d805f8114612ca8576040519150601f19603f3d011682016040523d82523d5f602084013e612cad565b606091505b505f815103612cf1576040517f08c379a0000000000000000000000000000000000000000000000000000000008152600401612ce890614ac3565b60405180910390fd5b805181602001fd5b63150b7a0260e01b7bffffffffffffffffffffffffffffffffffffffffffffffffffffffff1916817bffffffffffffffffffffffffffffffffffffffffffffffffffffffff191614915050612d4e565b600190505b949350505050565b606060405180602001604052805f815250905090565b6060612d778261216e565b5f612d80612d56565b90505f815111612d9e5760405180602001604052805f815250612dc9565b80612da884612e52565b604051602001612db9929190614ae1565b6040516020818303038152906040525b915050919050565b612ddb8383612fab565b612de75f848484612bd4565b612e26576040517f08c379a0000000000000000000000000000000000000000000000000000000008152600401612e1d90614ac3565b60405180910390fd5b505050565b505050565b5f808273ffffffffffffffffffffffffffffffffffffffff163b119050919050565b60605f8203612e98576040518060400160405280600181526020017f30000000000000000000000000000000000000000000000000000000000000008152509050612fa6565b5f8290505f5b5f8214612ec7578080612eb090613fca565b915050600a82612ec09190614d28565b9150612e9e565b5f8167ffffffffffffffff811115612ee257612ee16136fb565b5b6040519080825280601f01601f191660200182016040528015612f145781602001600182028036833780820191505090505b5090505b5f8514612f9f57600182612f2c9190614605565b9150600a85612f3b9190614d58565b6030612f479190613f97565b60f81b818381518110612f5d57612f5c614011565b5b60200101907effffffffffffffffffffffffffffffffffffffffffffffffffffffffffffff191690815f1a905350600a85612f989190614d28565b9450612f18565b8093505050505b919050565b5f73ffffffffffffffffffffffffffffffffffffffff168273ffffffffffffffffffffffffffffffffffffffff1603613019576040517f08c379a000000000000000000000000000000000000000000000000000000000815260040161301090614dd2565b60405180910390fd5b61302281612ae9565b15613062576040517f08c379a000000000000000000000000000000000000000000000000000000000815260040161305990614e3a565b60405180910390fd5b61306d5f8383612b51565b600160035f8473ffffffffffffffffffffffffffffffffffffffff1673ffffffffffffffffffffffffffffffffffffffff1681526020019081526020015f205f8282546130ba9190613f97565b925050819055508160025f8381526020019081526020015f205f6101000a81548173ffffffffffffffffffffffffffffffffffffffff021916908373ffffffffffffffffffffffffffffffffffffffff160217905550808273ffffffffffffffffffffffffffffffffffffffff165f73ffffffffffffffffffffffffffffffffffffffff167fddf252ad1be2c89b69c2b068fc378daa952ba7f163c4a11628f55a4df523b3ef60405160405180910390a46131765f8383612bcf565b5050565b6040518061010001604052805f815260200160608152602001606081526020016060815260200160608152602001606081526020015f81526020015f73ffffffffffffffffffffffffffffffffffffffff1681525090565b5080546131de90613e1e565b5f825580601f106131ef575061320c565b601f0160209004905f5260205f209081019061320b919061320f565b5b50565b5b80821115613226575f815f905550600101613210565b5090565b5f604051905090565b5f80fd5b5f80fd5b5f7fffffffff0000000000000000000000000000000000000000000000000000000082169050919050565b61326f8161323b565b8114613279575f80fd5b50565b5f8135905061328a81613266565b92915050565b5f602082840312156132a5576132a4613233565b5b5f6132b28482850161327c565b91505092915050565b5f8115159050919050565b6132cf816132bb565b82525050565b5f6020820190506132e85f8301846132c6565b92915050565b5f81519050919050565b5f82825260208201905092915050565b5f5b8381101561332557808201518184015260208101905061330a565b5f8484015250505050565b5f601f19601f8301169050919050565b5f61334a826132ee565b61335481856132f8565b9350613364818560208601613308565b61336d81613330565b840191505092915050565b5f6020820190508181035f8301526133908184613340565b905092915050565b5f819050919050565b6133aa81613398565b81146133b4575f80fd5b50565b5f813590506133c5816133a1565b92915050565b5f602082840312156133e0576133df613233565b5b5f6133ed848285016133b7565b91505092915050565b5f73ffffffffffffffffffffffffffffffffffffffff82169050919050565b5f61341f826133f6565b9050919050565b61342f81613415565b82525050565b5f6020820190506134485f830184613426565b92915050565b61345781613415565b8114613461575f80fd5b50565b5f813590506134728161344e565b92915050565b5f806040838503121561348e5761348d613233565b5b5f61349b85828601613464565b92505060206134ac858286016133b7565b9150509250929050565b5f81519050919050565b5f82825260208201905092915050565b5f819050602082019050919050565b6134e881613398565b82525050565b5f82825260208201905092915050565b5f613508826132ee565b61351281856134ee565b9350613522818560208601613308565b61352b81613330565b840191505092915050565b61353f81613415565b82525050565b5f61010083015f83015161355b5f8601826134df565b506020830151848203602086015261357382826134fe565b9150506040830151848203604086015261358d82826134fe565b915050606083015184820360608601526135a782826134fe565b915050608083015184820360808601526135c182826134fe565b91505060a083015184820360a08601526135db82826134fe565b91505060c08301516135f060c08601826134df565b5060e083015161360360e0860182613536565b508091505092915050565b5f6136198383613545565b905092915050565b5f602082019050919050565b5f613637826134b6565b61364181856134c0565b935083602082028501613653856134d0565b805f5b8581101561368e578484038952815161366f858261360e565b945061367a83613621565b925060208a01995050600181019050613656565b50829750879550505050505092915050565b5f6020820190508181035f8301526136b8818461362d565b905092915050565b5f819050919050565b6136d2816136c0565b81146136dc575f80fd5b50565b5f813590506136ed816136c9565b92915050565b5f80fd5b5f80fd5b7f4e487b71000000000000000000000000000000000000000000000000000000005f52604160045260245ffd5b61373182613330565b810181811067ffffffffffffffff821117156137505761374f6136fb565b5b80604052505050565b5f61376261322a565b905061376e8282613728565b919050565b5f67ffffffffffffffff82111561378d5761378c6136fb565b5b61379682613330565b9050602081019050919050565b828183375f83830152505050565b5f6137c36137be84613773565b613759565b9050828152602081018484840111156137df576137de6136f7565b5b6137ea8482856137a3565b509392505050565b5f82601f830112613806576138056136f3565b5b81356138168482602086016137b1565b91505092915050565b5f806040838503121561383557613834613233565b5b5f613842858286016136df565b925050602083013567ffffffffffffffff81111561386357613862613237565b5b61386f858286016137f2565b9150509250929050565b5f805f606084860312156138905761388f613233565b5b5f61389d86828701613464565b93505060206138ae86828701613464565b92505060406138bf868287016133b7565b9150509250925092565b5f602082840312156138de576138dd613233565b5b5f6138eb84828501613464565b91505092915050565b5f81519050919050565b5f82825260208201905092915050565b5f819050602082019050919050565b5f61392883836134fe565b905092915050565b5f602082019050919050565b5f613946826138f4565b61395081856138fe565b9350836020820285016139628561390e565b805f5b8581101561399d578484038952815161397e858261391d565b945061398983613930565b925060208a01995050600181019050613965565b50829750879550505050505092915050565b5f6020820190508181035f8301526139c7818461393c565b905092915050565b6139d881613398565b82525050565b5f610100820190506139f25f83018b6139cf565b8181036020830152613a04818a613340565b90508181036040830152613a188189613340565b90508181036060830152613a2c8188613340565b90508181036080830152613a408187613340565b905081810360a0830152613a548186613340565b9050613a6360c08301856139cf565b613a7060e0830184613426565b9998505050505050505050565b5f602082019050613a905f8301846139cf565b92915050565b5f67ffffffffffffffff821115613ab057613aaf6136fb565b5b613ab982613330565b9050602081019050919050565b5f613ad8613ad384613a96565b613759565b905082815260208101848484011115613af457613af36136f7565b5b613aff8482856137a3565b509392505050565b5f82601f830112613b1b57613b1a6136f3565b5b8135613b2b848260208601613ac6565b91505092915050565b5f8060408385031215613b4a57613b49613233565b5b5f613b5785828601613464565b925050602083013567ffffffffffffffff811115613b7857613b77613237565b5b613b8485828601613b07565b9150509250929050565b613b97816132bb565b8114613ba1575f80fd5b50565b5f81359050613bb281613b8e565b92915050565b5f8060408385031215613bce57613bcd613233565b5b5f613bdb85828601613464565b9250506020613bec85828601613ba4565b9150509250929050565b5f805f8060808587031215613c0e57613c0d613233565b5b5f613c1b87828801613464565b9450506020613c2c87828801613464565b9350506040613c3d878288016133b7565b925050606085013567ffffffffffffffff811115613c5e57613c5d613237565b5b613c6a878288016137f2565b91505092959194509250565b5f60208284031215613c8b57613c8a613233565b5b5f82013567ffffffffffffffff811115613ca857613ca7613237565b5b613cb484828501613b07565b91505092915050565b5f81519050919050565b5f82825260208201905092915050565b5f819050602082019050919050565b5f613cf18383613536565b60208301905092915050565b5f602082019050919050565b5f613d1382613cbd565b613d1d8185613cc7565b9350613d2883613cd7565b805f5b83811015613d58578151613d3f8882613ce6565b9750613d4a83613cfd565b925050600181019050613d2b565b5085935050505092915050565b5f6020820190508181035f830152613d7d8184613d09565b905092915050565b5f604082019050613d985f8301856132c6565b8181036020830152613daa8184613340565b90509392505050565b5f8060408385031215613dc957613dc8613233565b5b5f613dd685828601613464565b9250506020613de785828601613464565b9150509250929050565b7f4e487b71000000000000000000000000000000000000000000000000000000005f52602260045260245ffd5b5f6002820490506001821680613e3557607f821691505b602082108103613e4857613e47613df1565b5b50919050565b7f4552433732313a20617070726f76616c20746f2063757272656e74206f776e655f8201527f7200000000000000000000000000000000000000000000000000000000000000602082015250565b5f613ea86021836132f8565b9150613eb382613e4e565b604082019050919050565b5f6020820190508181035f830152613ed581613e9c565b9050919050565b7f4552433732313a20617070726f76652063616c6c6572206973206e6f7420746f5f8201527f6b656e206f776e6572206e6f7220617070726f76656420666f7220616c6c0000602082015250565b5f613f36603e836132f8565b9150613f4182613edc565b604082019050919050565b5f6020820190508181035f830152613f6381613f2a565b9050919050565b7f4e487b71000000000000000000000000000000000000000000000000000000005f52601160045260245ffd5b5f613fa182613398565b9150613fac83613398565b9250828201905080821115613fc457613fc3613f6a565b5b92915050565b5f613fd482613398565b91507fffffffffffffffffffffffffffffffffffffffffffffffffffffffffffffffff820361400657614005613f6a565b5b600182019050919050565b7f4e487b71000000000000000000000000000000000000000000000000000000005f52603260045260245ffd5b614047816136c0565b82525050565b5f60ff82169050919050565b6140628161404d565b82525050565b5f60808201905061407b5f83018761403e565b6140886020830186614059565b614095604083018561403e565b6140a2606083018461403e565b95945050505050565b7f4552433732313a2063616c6c6572206973206e6f7420746f6b656e206f776e655f8201527f72206e6f7220617070726f766564000000000000000000000000000000000000602082015250565b5f614105602e836132f8565b9150614110826140ab565b604082019050919050565b5f6020820190508181035f830152614132816140f9565b9050919050565b7f4552433732313a20696e76616c696420746f6b656e20494400000000000000005f82015250565b5f61416d6018836132f8565b915061417882614139565b602082019050919050565b5f6020820190508181035f83015261419a81614161565b9050919050565b7f4552433732313a2061646472657373207a65726f206973206e6f7420612076615f8201527f6c6964206f776e65720000000000000000000000000000000000000000000000602082015250565b5f6141fb6029836132f8565b9150614206826141a1565b604082019050919050565b5f6020820190508181035f830152614228816141ef565b9050919050565b5f819050815f5260205f209050919050565b5f6020601f8301049050919050565b5f82821b905092915050565b5f6008830261428b7fffffffffffffffffffffffffffffffffffffffffffffffffffffffffffffffff82614250565b6142958683614250565b95508019841693508086168417925050509392505050565b5f819050919050565b5f6142d06142cb6142c684613398565b6142ad565b613398565b9050919050565b5f819050919050565b6142e9836142b6565b6142fd6142f5826142d7565b84845461425c565b825550505050565b5f90565b614311614305565b61431c8184846142e0565b505050565b5b8181101561433f576143345f82614309565b600181019050614322565b5050565b601f821115614384576143558161422f565b61435e84614241565b8101602085101561436d578190505b61438161437985614241565b830182614321565b50505b505050565b5f82821c905092915050565b5f6143a45f1984600802614389565b1980831691505092915050565b5f6143bc8383614395565b9150826002028217905092915050565b6143d5826132ee565b67ffffffffffffffff8111156143ee576143ed6136fb565b5b6143f88254613e1e565b614403828285614343565b5f60209050601f831160018114614434575f8415614422578287015190505b61442c85826143b1565b865550614493565b601f1984166144428661422f565b5f5b8281101561446957848901518255600182019150602085019450602081019050614444565b868310156144865784890151614482601f891682614395565b8355505b6001600288020188555050505b505050505050565b5f81905092915050565b5f6144af826132ee565b6144b9818561449b565b93506144c9818560208601613308565b80840191505092915050565b5f6144e082846144a5565b915081905092915050565b5f81905092915050565b5f819050815f5260205f209050919050565b5f815461451381613e1e565b61451d81866144eb565b9450600182165f8114614537576001811461454c5761457e565b60ff198316865281151582028601935061457e565b614555856144f5565b5f5b8381101561457657815481890152600182019150602081019050614557565b838801955050505b50505092915050565b5f6145928284614507565b915081905092915050565b7f41646472657373206973206e6f742061207665726966696572000000000000005f82015250565b5f6145d16019836132f8565b91506145dc8261459d565b602082019050919050565b5f6020820190508181035f8301526145fe816145c5565b9050919050565b5f61460f82613398565b915061461a83613398565b925082820390508181111561463257614631613f6a565b5b92915050565b7f4e487b71000000000000000000000000000000000000000000000000000000005f52603160045260245ffd5b5f8154905061467381613e1e565b9050919050565b5f819050815f5260205f209050919050565b81810361469a57505061476f565b6146a382614665565b67ffffffffffffffff8111156146bc576146bb6136fb565b5b6146c68254613e1e565b6146d1828285614343565b5f601f8311600181146146fe575f84156146ec578287015490505b6146f685826143b1565b865550614768565b601f19841661470c8761467a565b96506147178661422f565b5f5b8281101561473e57848901548255600182019150600185019450602081019050614719565b8683101561475b5784890154614757601f891682614395565b8355505b6001600288020188555050505b5050505050505b565b7f4f776e61626c653a206e6577206f776e657220697320746865207a65726f20615f8201527f6464726573730000000000000000000000000000000000000000000000000000602082015250565b5f6147cb6026836132f8565b91506147d682614771565b604082019050919050565b5f6020820190508181035f8301526147f8816147bf565b9050919050565b7f696e76616c6964207369676e6174757265206c656e67746800000000000000005f82015250565b5f6148336018836132f8565b915061483e826147ff565b602082019050919050565b5f6020820190508181035f83015261486081614827565b9050919050565b7f4552433732313a207472616e736665722066726f6d20696e636f7272656374205f8201527f6f776e6572000000000000000000000000000000000000000000000000000000602082015250565b5f6148c16025836132f8565b91506148cc82614867565b604082019050919050565b5f6020820190508181035f8301526148ee816148b5565b9050919050565b7f4552433732313a207472616e7366657220746f20746865207a65726f206164645f8201527f7265737300000000000000000000000000000000000000000000000000000000602082015250565b5f61494f6024836132f8565b915061495a826148f5565b604082019050919050565b5f6020820190508181035f83015261497c81614943565b9050919050565b7f4f776e61626c653a2063616c6c6572206973206e6f7420746865206f776e65725f82015250565b5f6149b76020836132f8565b91506149c282614983565b602082019050919050565b5f6020820190508181035f8301526149e4816149ab565b9050919050565b7f4552433732313a20617070726f766520746f2063616c6c6572000000000000005f82015250565b5f614a1f6019836132f8565b9150614a2a826149eb565b602082019050919050565b5f6020820190508181035f830152614a4c81614a13565b9050919050565b7f4552433732313a207472616e7366657220746f206e6f6e2045524337323152655f8201527f63656976657220696d706c656d656e7465720000000000000000000000000000602082015250565b5f614aad6032836132f8565b9150614ab882614a53565b604082019050919050565b5f6020820190508181035f830152614ada81614aa1565b9050919050565b5f614aec82856144a5565b9150614af882846144a5565b91508190509392505050565b7f45524337323155524953746f726167653a2055524920736574206f66206e6f6e5f8201527f6578697374656e7420746f6b656e000000000000000000000000000000000000602082015250565b5f614b5e602e836132f8565b9150614b6982614b04565b604082019050919050565b5f6020820190508181035f830152614b8b81614b52565b9050919050565b7f4572723a20536f756c626f756e6420746f6b656e207472616e736665722069735f8201527f20424c4f434b4544000000000000000000000000000000000000000000000000602082015250565b5f614bec6028836132f8565b9150614bf782614b92565b604082019050919050565b5f6020820190508181035f830152614c1981614be0565b9050919050565b5f81519050919050565b5f82825260208201905092915050565b5f614c4482614c20565b614c4e8185614c2a565b9350614c5e818560208601613308565b614c6781613330565b840191505092915050565b5f608082019050614c855f830187613426565b614c926020830186613426565b614c9f60408301856139cf565b8181036060830152614cb18184614c3a565b905095945050505050565b5f81519050614cca81613266565b92915050565b5f60208284031215614ce557614ce4613233565b5b5f614cf284828501614cbc565b91505092915050565b7f4e487b71000000000000000000000000000000000000000000000000000000005f52601260045260245ffd5b5f614d3282613398565b9150614d3d83613398565b925082614d4d57614d4c614cfb565b5b828204905092915050565b5f614d6282613398565b9150614d6d83613398565b925082614d7d57614d7c614cfb565b5b828206905092915050565b7f4552433732313a206d696e7420746f20746865207a65726f20616464726573735f82015250565b5f614dbc6020836132f8565b9150614dc782614d88565b602082019050919050565b5f6020820190508181035f830152614de981614db0565b9050919050565b7f4552433732313a20746f6b656e20616c7265616479206d696e746564000000005f82015250565b5f614e24601c836132f8565b9150614e2f82614df0565b602082019050919050565b5f6020820190508181035f830152614e5181614e18565b905091905056fea264697066735822122046f06195640be3b5a56e3a6056f7b31b2e081275fd61b946f4028142684ed35664736f6c63430008180033",
  "linkReferences": {},
  "deployedLinkReferences": {}
}