{
  "_format": "hh-sol-artifact-1",
  "contractName": "SoulboundToken",
  "sourceName": "contracts/SoulboundToken.sol",
  "abi": [
    {
      "inputs": [],
      "stateMutability": "nonpayable",
      "type": "constructor"
    },
    {
      "inputs": [
        {
          "internalType": "address",
          "name": "sender",
          "type": "address"
        },
        {
          "internalType": "uint256",
          "name": "tokenId",
          "type": "uint256"
        },
        {
          "internalType": "address",
          "name": "owner",
          "type": "address"
        }
      ],
      "name": "ERC721IncorrectOwner",
      "type": "error"
    },
    {
      "inputs": [
        {
          "internalType": "address",
          "name": "operator",
          "type": "address"
        },
        {
          "internalType": "uint256",
          "name": "tokenId",
          "type": "uint256"
        }
      ],
      "name": "ERC721InsufficientApproval",
      "type": "error"
    },
    {
      "inputs": [
        {
          "internalType": "address",
          "name": "approver",
          "type": "address"
        }
      ],
      "name": "ERC721InvalidApprover",
      "type": "error"
    },
    {
      "inputs": [
        {
          "internalType": "address",
          "name": "operator",
          "type": "address"
        }
      ],
      "name": "ERC721InvalidOperator",
      "type": "error"
    },
    {
      "inputs": [
        {
          "internalType": "address",
          "name": "owner",
          "type": "address"
        }
      ],
      "name": "ERC721InvalidOwner",
      "type": "error"
    },
    {
      "inputs": [
        {
          "internalType": "address",
          "name": "receiver",
          "type": "address"
        }
      ],
      "name": "ERC721InvalidReceiver",
      "type": "error"
    },
    {
      "inputs": [
        {
          "internalType": "address",
          "name": "sender",
          "type": "address"
        }
      ],
      "name": "ERC721InvalidSender",
      "type": "error"
    },
    {
      "inputs": [
        {
          "internalType": "uint256",
          "name": "tokenId",
          "type": "uint256"
        }
      ],
      "name": "ERC721NonexistentToken",
      "type": "error"
    },
    {
      "inputs": [],
      "name": "EnforcedPause",
      "type": "error"
    },
    {
      "inputs": [],
      "name": "ExpectedPause",
      "type": "error"
    },
    {
      "inputs": [
        {
          "internalType": "address",
          "name": "owner",
          "type": "address"
        }
      ],
      "name": "OwnableInvalidOwner",
      "type": "error"
    },
    {
      "inputs": [
        {
          "internalType": "address",
          "name": "account",
          "type": "address"
        }
      ],
      "name": "OwnableUnauthorizedAccount",
      "type": "error"
    },
    {
      "anonymous": false,
      "inputs": [
        {
          "indexed": true,
          "internalType": "address",
          "name": "owner",
          "type": "address"
        },
        {
          "indexed": true,
          "internalType": "address",
          "name": "approved",
          "type": "address"
        },
        {
          "indexed": true,
          "internalType": "uint256",
          "name": "tokenId",
          "type": "uint256"
        }
      ],
      "name": "Approval",
      "type": "event"
    },
    {
      "anonymous": false,
      "inputs": [
        {
          "indexed": true,
          "internalType": "address",
          "name": "owner",
          "type": "address"
        },
        {
          "indexed": true,
          "internalType": "address",
          "name": "operator",
          "type": "address"
        },
        {
          "indexed": false,
          "internalType": "bool",
          "name": "approved",
          "type": "bool"
        }
      ],
      "name": "ApprovalForAll",
      "type": "event"
    },
    {
      "anonymous": false,
      "inputs": [
        {
          "indexed": false,
          "internalType": "uint256",
          "name": "_fromTokenId",
          "type": "uint256"
        },
        {
          "indexed": false,
          "internalType": "uint256",
          "name": "_toTokenId",
          "type": "uint256"
        }
      ],
      "name": "BatchMetadataUpdate",
      "type": "event"
    },
    {
      "anonymous": false,
      "inputs": [
        {
          "indexed": false,
          "internalType": "uint256",
          "name": "_tokenId",
          "type": "uint256"
        }
      ],
      "name": "MetadataUpdate",
      "type": "event"
    },
    {
      "anonymous": false,
      "inputs": [
        {
          "indexed": true,
          "internalType": "address",
          "name": "previousOwner",
          "type": "address"
        },
        {
          "indexed": true,
          "internalType": "address",
          "name": "newOwner",
          "type": "address"
        }
      ],
      "name": "OwnershipTransferred",
      "type": "event"
    },
    {
      "anonymous": false,
      "inputs": [
        {
          "indexed": false,
          "internalType": "address",
          "name": "account",
          "type": "address"
        }
      ],
      "name": "Paused",
      "type": "event"
    },
    {
      "anonymous": false,
      "inputs": [
        {
          "indexed": true,
          "internalType": "address",
          "name": "from",
          "type": "address"
        },
        {
          "indexed": true,
          "internalType": "address",
          "name": "to",
          "type": "address"
        },
        {
          "indexed": true,
          "internalType": "uint256",
          "name": "tokenId",
          "type": "uint256"
        }
      ],
      "name": "Transfer",
      "type": "event"
    },
    {
      "anonymous": false,
      "inputs": [
        {
          "indexed": false,
          "internalType": "address",
          "name": "account",
          "type": "address"
        }
      ],
      "name": "Unpaused",
      "type": "event"
    },
    {
      "inputs": [
        {
          "internalType": "address",
          "name": "verifier",
          "type": "address"
        },
        {
          "internalType": "string",
          "name": "organizationCode",
          "type": "string"
        }
      ],
      "name": "addVerifier",
      "outputs": [],
      "stateMutability": "nonpayable",
      "type": "function"
    },
    {
      "inputs": [
        {
          "internalType": "address",
          "name": "to",
          "type": "address"
        },
        {
          "internalType": "uint256",
          "name": "tokenId",
          "type": "uint256"
        }
      ],
      "name": "approve",
      "outputs": [],
      "stateMutability": "nonpayable",
      "type": "function"
    },
    {
      "inputs": [
        {
          "internalType": "address",
          "name": "owner",
          "type": "address"
        }
      ],
      "name": "balanceOf",
      "outputs": [
        {
          "internalType": "uint256",
          "name": "",
          "type": "uint256"
        }
      ],
      "stateMutability": "view",
      "type": "function"
    },
    {
      "inputs": [
        {
          "internalType": "uint256",
          "name": "tokenId",
          "type": "uint256"
        }
      ],
      "name": "getApproved",
      "outputs": [
        {
          "internalType": "address",
          "name": "",
          "type": "address"
        }
      ],
      "stateMutability": "view",
      "type": "function"
    },
    {
      "inputs": [],
      "name": "getMySBTs",
      "outputs": [
        {
          "components": [
            {
              "internalType": "uint256",
              "name": "sBTId",
              "type": "uint256"
            },
            {
              "internalType": "string",
              "name": "fullName",
              "type": "string"
            },
            {
              "internalType": "string",
              "name": "certificateHash",
              "type": "string"
            },
            {
              "internalType": "string",
              "name": "citizenID",
              "type": "string"
            },
            {
              "internalType": "string",
              "name": "hometown",
              "type": "string"
            },
            {
              "internalType": "string",
              "name": "nationality",
              "type": "string"
            },
            {
              "internalType": "uint256",
              "name": "birthDate",
              "type": "uint256"
            },
            {
              "internalType": "address",
              "name": "ownerAddress",
              "type": "address"
            }
          ],
          "internalType": "struct SoulboundToken.SBTInfo[]",
          "name": "",
          "type": "tuple[]"
        }
      ],
      "stateMutability": "view",
      "type": "function"
    },
    {
      "inputs": [
        {
          "internalType": "address",
          "name": "addr",
          "type": "address"
        }
      ],
      "name": "getOrganizationCode",
      "outputs": [
        {
          "internalType": "string",
          "name": "",
          "type": "string"
        }
      ],
      "stateMutability": "view",
      "type": "function"
    },
    {
      "inputs": [],
      "name": "getOrganizationCodes",
      "outputs": [
        {
          "internalType": "string[]",
          "name": "",
          "type": "string[]"
        }
      ],
      "stateMutability": "view",
      "type": "function"
    },
    {
      "inputs": [
        {
          "internalType": "string",
          "name": "targetOrganizationCode",
          "type": "string"
        }
      ],
      "name": "getVerifiersByOrganizationCode",
      "outputs": [
        {
          "internalType": "address[]",
          "name": "",
          "type": "address[]"
        }
      ],
      "stateMutability": "view",
      "type": "function"
    },
    {
      "inputs": [
        {
          "internalType": "uint256",
          "name": "",
          "type": "uint256"
        }
      ],
      "name": "idToSBT",
      "outputs": [
        {
          "internalType": "uint256",
          "name": "sBTId",
          "type": "uint256"
        },
        {
          "internalType": "string",
          "name": "fullName",
          "type": "string"
        },
        {
          "internalType": "string",
          "name": "certificateHash",
          "type": "string"
        },
        {
          "internalType": "string",
          "name": "citizenID",
          "type": "string"
        },
        {
          "internalType": "string",
          "name": "hometown",
          "type": "string"
        },
        {
          "internalType": "string",
          "name": "nationality",
          "type": "string"
        },
        {
          "internalType": "uint256",
          "name": "birthDate",
          "type": "uint256"
        },
        {
          "internalType": "address",
          "name": "ownerAddress",
          "type": "address"
        }
      ],
      "stateMutability": "view",
      "type": "function"
    },
    {
      "inputs": [
        {
          "internalType": "address",
          "name": "owner",
          "type": "address"
        },
        {
          "internalType": "address",
          "name": "operator",
          "type": "address"
        }
      ],
      "name": "isApprovedForAll",
      "outputs": [
        {
          "internalType": "bool",
          "name": "",
          "type": "bool"
        }
      ],
      "stateMutability": "view",
      "type": "function"
    },
    {
      "inputs": [
        {
          "internalType": "address",
          "name": "addr",
          "type": "address"
        }
      ],
      "name": "isVerifier",
      "outputs": [
        {
          "internalType": "bool",
          "name": "",
          "type": "bool"
        }
      ],
      "stateMutability": "view",
      "type": "function"
    },
    {
      "inputs": [
        {
          "internalType": "address",
          "name": "recipient",
          "type": "address"
        },
        {
          "internalType": "string",
          "name": "myTokenURI",
          "type": "string"
        }
      ],
      "name": "mintSBTForAddress",
      "outputs": [],
      "stateMutability": "nonpayable",
      "type": "function"
    },
    {
      "inputs": [],
      "name": "name",
      "outputs": [
        {
          "internalType": "string",
          "name": "",
          "type": "string"
        }
      ],
      "stateMutability": "view",
      "type": "function"
    },
    {
      "inputs": [],
      "name": "owner",
      "outputs": [
        {
          "internalType": "address",
          "name": "",
          "type": "address"
        }
      ],
      "stateMutability": "view",
      "type": "function"
    },
    {
      "inputs": [
        {
          "internalType": "uint256",
          "name": "tokenId",
          "type": "uint256"
        }
      ],
      "name": "ownerOf",
      "outputs": [
        {
          "internalType": "address",
          "name": "",
          "type": "address"
        }
      ],
      "stateMutability": "view",
      "type": "function"
    },
    {
      "inputs": [],
      "name": "paused",
      "outputs": [
        {
          "internalType": "bool",
          "name": "",
          "type": "bool"
        }
      ],
      "stateMutability": "view",
      "type": "function"
    },
    {
      "inputs": [
        {
          "internalType": "bytes32",
          "name": "_ethSignedMessageHash",
          "type": "bytes32"
        },
        {
          "internalType": "bytes",
          "name": "_sig",
          "type": "bytes"
        }
      ],
      "name": "recover",
      "outputs": [
        {
          "internalType": "address",
          "name": "",
          "type": "address"
        }
      ],
      "stateMutability": "pure",
      "type": "function"
    },
    {
      "inputs": [
        {
          "internalType": "address",
          "name": "verifier",
          "type": "address"
        }
      ],
      "name": "removeVerifier",
      "outputs": [],
      "stateMutability": "nonpayable",
      "type": "function"
    },
    {
      "inputs": [],
      "name": "renounceOwnership",
      "outputs": [],
      "stateMutability": "nonpayable",
      "type": "function"
    },
    {
      "inputs": [
        {
          "internalType": "address",
          "name": "from",
          "type": "address"
        },
        {
          "internalType": "address",
          "name": "to",
          "type": "address"
        },
        {
          "internalType": "uint256",
          "name": "tokenId",
          "type": "uint256"
        }
      ],
      "name": "safeTransferFrom",
      "outputs": [],
      "stateMutability": "nonpayable",
      "type": "function"
    },
    {
      "inputs": [
        {
          "internalType": "address",
          "name": "from",
          "type": "address"
        },
        {
          "internalType": "address",
          "name": "to",
          "type": "address"
        },
        {
          "internalType": "uint256",
          "name": "tokenId",
          "type": "uint256"
        },
        {
          "internalType": "bytes",
          "name": "data",
          "type": "bytes"
        }
      ],
      "name": "safeTransferFrom",
      "outputs": [],
      "stateMutability": "nonpayable",
      "type": "function"
    },
    {
      "inputs": [
        {
          "internalType": "address",
          "name": "operator",
          "type": "address"
        },
        {
          "internalType": "bool",
          "name": "approved",
          "type": "bool"
        }
      ],
      "name": "setApprovalForAll",
      "outputs": [],
      "stateMutability": "nonpayable",
      "type": "function"
    },
    {
      "inputs": [
        {
          "internalType": "bytes4",
          "name": "interfaceId",
          "type": "bytes4"
        }
      ],
      "name": "supportsInterface",
      "outputs": [
        {
          "internalType": "bool",
          "name": "",
          "type": "bool"
        }
      ],
      "stateMutability": "view",
      "type": "function"
    },
    {
      "inputs": [],
      "name": "symbol",
      "outputs": [
        {
          "internalType": "string",
          "name": "",
          "type": "string"
        }
      ],
      "stateMutability": "view",
      "type": "function"
    },
    {
      "inputs": [
        {
          "internalType": "uint256",
          "name": "tokenId",
          "type": "uint256"
        }
      ],
      "name": "tokenURI",
      "outputs": [
        {
          "internalType": "string",
          "name": "",
          "type": "string"
        }
      ],
      "stateMutability": "view",
      "type": "function"
    },
    {
      "inputs": [
        {
          "internalType": "address",
          "name": "from",
          "type": "address"
        },
        {
          "internalType": "address",
          "name": "to",
          "type": "address"
        },
        {
          "internalType": "uint256",
          "name": "tokenId",
          "type": "uint256"
        }
      ],
      "name": "transferFrom",
      "outputs": [],
      "stateMutability": "nonpayable",
      "type": "function"
    },
    {
      "inputs": [
        {
          "internalType": "address",
          "name": "newOwner",
          "type": "address"
        }
      ],
      "name": "transferOwnership",
      "outputs": [],
      "stateMutability": "nonpayable",
      "type": "function"
    },
    {
      "inputs": [
        {
          "internalType": "uint256",
          "name": "",
          "type": "uint256"
        }
      ],
      "name": "verifierAddresses",
      "outputs": [
        {
          "internalType": "address",
          "name": "",
          "type": "address"
        }
      ],
      "stateMutability": "view",
      "type": "function"
    },
    {
      "inputs": [
        {
          "internalType": "address",
          "name": "",
          "type": "address"
        }
      ],
      "name": "verifierList",
      "outputs": [
        {
          "internalType": "bool",
          "name": "isVerifier",
          "type": "bool"
        },
        {
          "internalType": "string",
          "name": "organizationCode",
          "type": "string"
        }
      ],
      "stateMutability": "view",
      "type": "function"
    }
  ],
  "bytecode": "0x608060405234801562000010575f80fd5b50336040518060400160405280600e81526020017f536f756c626f756e64546f6b656e0000000000000000000000000000000000008152506040518060400160405280600381526020017f5342540000000000000000000000000000000000000000000000000000000000815250815f90816200008e919062000470565b508060019081620000a0919062000470565b5050505f60075f6101000a81548160ff0219169083151502179055505f73ffffffffffffffffffffffffffffffffffffffff168173ffffffffffffffffffffffffffffffffffffffff16036200012f575f6040517f1e4fbdf700000000000000000000000000000000000000000000000000000000815260040162000126919062000597565b60405180910390fd5b62000140816200014760201b60201c565b50620005b2565b5f600760019054906101000a900473ffffffffffffffffffffffffffffffffffffffff16905081600760016101000a81548173ffffffffffffffffffffffffffffffffffffffff021916908373ffffffffffffffffffffffffffffffffffffffff1602179055508173ffffffffffffffffffffffffffffffffffffffff168173ffffffffffffffffffffffffffffffffffffffff167f8be0079c531659141344cd1fd0a4f28419497f9722a3daafe3b4186f6b6457e060405160405180910390a35050565b5f81519050919050565b7f4e487b71000000000000000000000000000000000000000000000000000000005f52604160045260245ffd5b7f4e487b71000000000000000000000000000000000000000000000000000000005f52602260045260245ffd5b5f60028204905060018216806200028857607f821691505b6020821081036200029e576200029d62000243565b5b50919050565b5f819050815f5260205f209050919050565b5f6020601f8301049050919050565b5f82821b905092915050565b5f60088302620003027fffffffffffffffffffffffffffffffffffffffffffffffffffffffffffffffff82620002c5565b6200030e8683620002c5565b95508019841693508086168417925050509392505050565b5f819050919050565b5f819050919050565b5f62000358620003526200034c8462000326565b6200032f565b62000326565b9050919050565b5f819050919050565b620003738362000338565b6200038b62000382826200035f565b848454620002d1565b825550505050565b5f90565b620003a162000393565b620003ae81848462000368565b505050565b5b81811015620003d557620003c95f8262000397565b600181019050620003b4565b5050565b601f8211156200042457620003ee81620002a4565b620003f984620002b6565b8101602085101562000409578190505b620004216200041885620002b6565b830182620003b3565b50505b505050565b5f82821c905092915050565b5f620004465f198460080262000429565b1980831691505092915050565b5f62000460838362000435565b9150826002028217905092915050565b6200047b826200020c565b67ffffffffffffffff81111562000497576200049662000216565b5b620004a3825462000270565b620004b0828285620003d9565b5f60209050601f831160018114620004e6575f8415620004d1578287015190505b620004dd858262000453565b8655506200054c565b601f198416620004f686620002a4565b5f5b828110156200051f57848901518255600182019150602085019450602081019050620004f8565b868310156200053f57848901516200053b601f89168262000435565b8355505b6001600288020188555050505b505050505050565b5f73ffffffffffffffffffffffffffffffffffffffff82169050919050565b5f6200057f8262000554565b9050919050565b620005918162000573565b82525050565b5f602082019050620005ac5f83018462000586565b92915050565b61488f80620005c05f395ff3fe608060405234801561000f575f80fd5b50600436106101cd575f3560e01c80636de0539811610102578063b88d4fde116100a0578063d5c48a311161006f578063d5c48a311461056a578063e985e9c51461059b578063f2fde38b146105cb578063fc3949eb146105e7576101cd565b8063b88d4fde146104d2578063c368572f146104ee578063c87b56dd1461051e578063ca2dfd0a1461054e576101cd565b80637340792a116100dc5780637340792a1461045e5780638da5cb5b1461047a57806395d89b4114610498578063a22cb465146104b6576101cd565b80636de05398146103f457806370a0823114610424578063715018a614610454576101cd565b8063331052181161016f57806342842e0e1161014957806342842e0e1461035a5780635c975abb146103765780636352211e14610394578063657ad668146103c4576101cd565b806333105218146102d5578063355d39981461030557806337520e7814610323576101cd565b8063095ea7b3116101ab578063095ea7b31461024f5780630f003ff71461026b57806319045a251461028957806323b872dd146102b9576101cd565b806301ffc9a7146101d157806306fdde0314610201578063081812fc1461021f575b5f80fd5b6101eb60048036038101906101e691906133c1565b610603565b6040516101f89190613406565b60405180910390f35b610209610614565b60405161021691906134a9565b60405180910390f35b610239600480360381019061023491906134fc565b6106a3565b6040516102469190613566565b60405180910390f35b610269600480360381019061026491906135a9565b6106be565b005b6102736106d4565b60405161028091906137d1565b60405180910390f35b6102a3600480360381019061029e9190613950565b610be7565b6040516102b09190613566565b60405180910390f35b6102d360048036038101906102ce91906139aa565b610c51565b005b6102ef60048036038101906102ea91906139fa565b610d50565b6040516102fc9190613406565b60405180910390f35b61030d610da4565b60405161031a9190613ae0565b60405180910390f35b61033d600480360381019061033891906134fc565b610e78565b604051610351989796959493929190613b0f565b60405180910390f35b610374600480360381019061036f91906139aa565b611179565b005b61037e611198565b60405161038b9190613406565b60405180910390f35b6103ae60048036038101906103a991906134fc565b6111ad565b6040516103bb9190613566565b60405180910390f35b6103de60048036038101906103d991906139fa565b6111be565b6040516103eb91906134a9565b60405180910390f35b61040e600480360381019061040991906134fc565b61128e565b60405161041b9190613566565b60405180910390f35b61043e600480360381019061043991906139fa565b6112c9565b60405161044b9190613bae565b60405180910390f35b61045c61137f565b005b61047860048036038101906104739190613c65565b611392565b005b610482611519565b60405161048f9190613566565b60405180910390f35b6104a0611542565b6040516104ad91906134a9565b60405180910390f35b6104d060048036038101906104cb9190613ce9565b6115d2565b005b6104ec60048036038101906104e79190613d27565b6115e8565b005b61050860048036038101906105039190613da7565b611605565b6040516105159190613e96565b60405180910390f35b610538600480360381019061053391906134fc565b61184b565b60405161054591906134a9565b60405180910390f35b610568600480360381019061056391906139fa565b61185d565b005b610584600480360381019061057f91906139fa565b611d74565b604051610592929190613eb6565b60405180910390f35b6105b560048036038101906105b09190613ee4565b611e26565b6040516105c29190613406565b60405180910390f35b6105e560048036038101906105e091906139fa565b611eb4565b005b61060160048036038101906105fc9190613c65565b611f38565b005b5f61060d82611f68565b9050919050565b60605f805461062290613f4f565b80601f016020809104026020016040519081016040528092919081815260200182805461064e90613f4f565b80156106995780601f1061067057610100808354040283529160200191610699565b820191905f5260205f20905b81548152906001019060200180831161067c57829003601f168201915b5050505050905090565b5f6106ad82611fc8565b506106b78261204e565b9050919050565b6106d082826106cb612087565b61208e565b5050565b60605f6106e160086120a0565b90505f80600190505b82811161077a573373ffffffffffffffffffffffffffffffffffffffff1660095f8381526020019081526020015f206007015f9054906101000a900473ffffffffffffffffffffffffffffffffffffffff1673ffffffffffffffffffffffffffffffffffffffff1603610767576001826107649190613fac565b91505b808061077290613fdf565b9150506106ea565b505f8167ffffffffffffffff8111156107965761079561382c565b5b6040519080825280602002602001820160405280156107cf57816020015b6107bc6132ab565b8152602001906001900390816107b45790505b5090505f80600190505b848111610bdc573373ffffffffffffffffffffffffffffffffffffffff1660095f8381526020019081526020015f206007015f9054906101000a900473ffffffffffffffffffffffffffffffffffffffff1673ffffffffffffffffffffffffffffffffffffffff1603610bc95760095f8281526020019081526020015f20604051806101000160405290815f820154815260200160018201805461087c90613f4f565b80601f01602080910402602001604051908101604052809291908181526020018280546108a890613f4f565b80156108f35780601f106108ca576101008083540402835291602001916108f3565b820191905f5260205f20905b8154815290600101906020018083116108d657829003601f168201915b5050505050815260200160028201805461090c90613f4f565b80601f016020809104026020016040519081016040528092919081815260200182805461093890613f4f565b80156109835780601f1061095a57610100808354040283529160200191610983565b820191905f5260205f20905b81548152906001019060200180831161096657829003601f168201915b5050505050815260200160038201805461099c90613f4f565b80601f01602080910402602001604051908101604052809291908181526020018280546109c890613f4f565b8015610a135780601f106109ea57610100808354040283529160200191610a13565b820191905f5260205f20905b8154815290600101906020018083116109f657829003601f168201915b50505050508152602001600482018054610a2c90613f4f565b80601f0160208091040260200160405190810160405280929190818152602001828054610a5890613f4f565b8015610aa35780601f10610a7a57610100808354040283529160200191610aa3565b820191905f5260205f20905b815481529060010190602001808311610a8657829003601f168201915b50505050508152602001600582018054610abc90613f4f565b80601f0160208091040260200160405190810160405280929190818152602001828054610ae890613f4f565b8015610b335780601f10610b0a57610100808354040283529160200191610b33565b820191905f5260205f20905b815481529060010190602001808311610b1657829003601f168201915b5050505050815260200160068201548152602001600782015f9054906101000a900473ffffffffffffffffffffffffffffffffffffffff1673ffffffffffffffffffffffffffffffffffffffff1673ffffffffffffffffffffffffffffffffffffffff1681525050838381518110610bae57610bad614026565b5b6020026020010181905250600182610bc69190613fac565b91505b8080610bd490613fdf565b9150506107d9565b508194505050505090565b5f805f80610bf4856120ac565b9250925092506001868285856040515f8152602001604052604051610c1c949392919061407d565b6020604051602081039080840390855afa158015610c3c573d5f803e3d5ffd5b50505060206040510351935050505092915050565b5f73ffffffffffffffffffffffffffffffffffffffff168273ffffffffffffffffffffffffffffffffffffffff1603610cc1575f6040517f64a0ae92000000000000000000000000000000000000000000000000000000008152600401610cb89190613566565b60405180910390fd5b5f610cd48383610ccf612087565b612111565b90508373ffffffffffffffffffffffffffffffffffffffff168173ffffffffffffffffffffffffffffffffffffffff1614610d4a578382826040517f64283d7b000000000000000000000000000000000000000000000000000000008152600401610d41939291906140c0565b60405180910390fd5b50505050565b5f600a5f8373ffffffffffffffffffffffffffffffffffffffff1673ffffffffffffffffffffffffffffffffffffffff1681526020019081526020015f205f015f9054906101000a900460ff169050919050565b6060600d805480602002602001604051908101604052809291908181526020015f905b82821015610e6f578382905f5260205f20018054610de490613f4f565b80601f0160208091040260200160405190810160405280929190818152602001828054610e1090613f4f565b8015610e5b5780601f10610e3257610100808354040283529160200191610e5b565b820191905f5260205f20905b815481529060010190602001808311610e3e57829003601f168201915b505050505081526020019060010190610dc7565b50505050905090565b6009602052805f5260405f205f91509050805f015490806001018054610e9d90613f4f565b80601f0160208091040260200160405190810160405280929190818152602001828054610ec990613f4f565b8015610f145780601f10610eeb57610100808354040283529160200191610f14565b820191905f5260205f20905b815481529060010190602001808311610ef757829003601f168201915b505050505090806002018054610f2990613f4f565b80601f0160208091040260200160405190810160405280929190818152602001828054610f5590613f4f565b8015610fa05780601f10610f7757610100808354040283529160200191610fa0565b820191905f5260205f20905b815481529060010190602001808311610f8357829003601f168201915b505050505090806003018054610fb590613f4f565b80601f0160208091040260200160405190810160405280929190818152602001828054610fe190613f4f565b801561102c5780601f106110035761010080835404028352916020019161102c565b820191905f5260205f20905b81548152906001019060200180831161100f57829003601f168201915b50505050509080600401805461104190613f4f565b80601f016020809104026020016040519081016040528092919081815260200182805461106d90613f4f565b80156110b85780601f1061108f576101008083540402835291602001916110b8565b820191905f5260205f20905b81548152906001019060200180831161109b57829003601f168201915b5050505050908060050180546110cd90613f4f565b80601f01602080910402602001604051908101604052809291908181526020018280546110f990613f4f565b80156111445780601f1061111b57610100808354040283529160200191611144565b820191905f5260205f20905b81548152906001019060200180831161112757829003601f168201915b505050505090806006015490806007015f9054906101000a900473ffffffffffffffffffffffffffffffffffffffff16905088565b61119383838360405180602001604052805f8152506115e8565b505050565b5f60075f9054906101000a900460ff16905090565b5f6111b782611fc8565b9050919050565b6060600a5f8373ffffffffffffffffffffffffffffffffffffffff1673ffffffffffffffffffffffffffffffffffffffff1681526020019081526020015f20600101805461120b90613f4f565b80601f016020809104026020016040519081016040528092919081815260200182805461123790613f4f565b80156112825780601f1061125957610100808354040283529160200191611282565b820191905f5260205f20905b81548152906001019060200180831161126557829003601f168201915b50505050509050919050565b600b818154811061129d575f80fd5b905f5260205f20015f915054906101000a900473ffffffffffffffffffffffffffffffffffffffff1681565b5f8073ffffffffffffffffffffffffffffffffffffffff168273ffffffffffffffffffffffffffffffffffffffff160361133a575f6040517f89c62b640000000000000000000000000000000000000000000000000000000081526004016113319190613566565b60405180910390fd5b60035f8373ffffffffffffffffffffffffffffffffffffffff1673ffffffffffffffffffffffffffffffffffffffff1681526020019081526020015f20549050919050565b6113876121db565b6113905f612262565b565b604051806040016040528060011515815260200182815250600a5f8473ffffffffffffffffffffffffffffffffffffffff1673ffffffffffffffffffffffffffffffffffffffff1681526020019081526020015f205f820151815f015f6101000a81548160ff02191690831515021790555060208201518160010190816114199190614292565b50905050600b82908060018154018082558091505060019003905f5260205f20015f9091909190916101000a81548173ffffffffffffffffffffffffffffffffffffffff021916908373ffffffffffffffffffffffffffffffffffffffff160217905550600c8160405161148d919061439b565b90815260200160405180910390205f9054906101000a900460ff16611515576001600c826040516114be919061439b565b90815260200160405180910390205f6101000a81548160ff021916908315150217905550600d81908060018154018082558091505060019003905f5260205f20015f9091909190915090816115139190614292565b505b5050565b5f600760019054906101000a900473ffffffffffffffffffffffffffffffffffffffff16905090565b60606001805461155190613f4f565b80601f016020809104026020016040519081016040528092919081815260200182805461157d90613f4f565b80156115c85780601f1061159f576101008083540402835291602001916115c8565b820191905f5260205f20905b8154815290600101906020018083116115ab57829003601f168201915b5050505050905090565b6115e46115dd612087565b8383612327565b5050565b6115f3848484610c51565b6115ff84848484612490565b50505050565b60605f60605f5b600b805490508110156116d7575f600b828154811061162e5761162d614026565b5b905f5260205f20015f9054906101000a900473ffffffffffffffffffffffffffffffffffffffff1690508580519060200120600a5f8373ffffffffffffffffffffffffffffffffffffffff1673ffffffffffffffffffffffffffffffffffffffff1681526020019081526020015f206001016040516116ad919061444d565b6040518091039020036116c95783806116c590613fdf565b9450505b50808060010191505061160c565b508167ffffffffffffffff8111156116f2576116f161382c565b5b6040519080825280602002602001820160405280156117205781602001602082028036833780820191505090505b5090505f805b600b8054905081101561183f575f600b828154811061174857611747614026565b5b905f5260205f20015f9054906101000a900473ffffffffffffffffffffffffffffffffffffffff1690508680519060200120600a5f8373ffffffffffffffffffffffffffffffffffffffff1673ffffffffffffffffffffffffffffffffffffffff1681526020019081526020015f206001016040516117c7919061444d565b60405180910390200361183157808484815181106117e8576117e7614026565b5b602002602001019073ffffffffffffffffffffffffffffffffffffffff16908173ffffffffffffffffffffffffffffffffffffffff1681525050828061182d90613fdf565b9350505b508080600101915050611726565b50819350505050919050565b606061185682612642565b9050919050565b600a5f8273ffffffffffffffffffffffffffffffffffffffff1673ffffffffffffffffffffffffffffffffffffffff1681526020019081526020015f205f015f9054906101000a900460ff166118e8576040517f08c379a00000000000000000000000000000000000000000000000000000000081526004016118df906144ad565b60405180910390fd5b5f600a5f8373ffffffffffffffffffffffffffffffffffffffff1673ffffffffffffffffffffffffffffffffffffffff1681526020019081526020015f20600101805461193490613f4f565b80601f016020809104026020016040519081016040528092919081815260200182805461196090613f4f565b80156119ab5780601f10611982576101008083540402835291602001916119ab565b820191905f5260205f20905b81548152906001019060200180831161198e57829003601f168201915b50505050509050600a5f8373ffffffffffffffffffffffffffffffffffffffff1673ffffffffffffffffffffffffffffffffffffffff1681526020019081526020015f205f8082015f6101000a81549060ff0219169055600182015f611a119190613303565b50505f5b600b80549050811015611b8c578273ffffffffffffffffffffffffffffffffffffffff16600b8281548110611a4d57611a4c614026565b5b905f5260205f20015f9054906101000a900473ffffffffffffffffffffffffffffffffffffffff1673ffffffffffffffffffffffffffffffffffffffff1603611b7f57600b6001600b80549050611aa491906144cb565b81548110611ab557611ab4614026565b5b905f5260205f20015f9054906101000a900473ffffffffffffffffffffffffffffffffffffffff16600b8281548110611af157611af0614026565b5b905f5260205f20015f6101000a81548173ffffffffffffffffffffffffffffffffffffffff021916908373ffffffffffffffffffffffffffffffffffffffff160217905550600b805480611b4857611b476144fe565b5b600190038181905f5260205f20015f6101000a81549073ffffffffffffffffffffffffffffffffffffffff02191690559055611b8c565b8080600101915050611a15565b505f805b600b80549050811015611c50578280519060200120600a5f600b8481548110611bbc57611bbb614026565b5b905f5260205f20015f9054906101000a900473ffffffffffffffffffffffffffffffffffffffff1673ffffffffffffffffffffffffffffffffffffffff1673ffffffffffffffffffffffffffffffffffffffff1681526020019081526020015f20600101604051611c2d919061444d565b604051809103902003611c435760019150611c50565b8080600101915050611b90565b5080611d6f575f600c83604051611c67919061439b565b90815260200160405180910390205f6101000a81548160ff0219169083151502179055505f5b600d80549050811015611d6d578280519060200120600d8281548110611cb657611cb5614026565b5b905f5260205f2001604051611ccb919061444d565b604051809103902003611d6057600d6001600d80549050611cec91906144cb565b81548110611cfd57611cfc614026565b5b905f5260205f2001600d8281548110611d1957611d18614026565b5b905f5260205f20019081611d2d9190614552565b50600d805480611d4057611d3f6144fe565b5b600190038181905f5260205f20015f611d599190613303565b9055611d6d565b8080600101915050611c8d565b505b505050565b600a602052805f5260405f205f91509050805f015f9054906101000a900460ff1690806001018054611da590613f4f565b80601f0160208091040260200160405190810160405280929190818152602001828054611dd190613f4f565b8015611e1c5780601f10611df357610100808354040283529160200191611e1c565b820191905f5260205f20905b815481529060010190602001808311611dff57829003601f168201915b5050505050905082565b5f60055f8473ffffffffffffffffffffffffffffffffffffffff1673ffffffffffffffffffffffffffffffffffffffff1681526020019081526020015f205f8373ffffffffffffffffffffffffffffffffffffffff1673ffffffffffffffffffffffffffffffffffffffff1681526020019081526020015f205f9054906101000a900460ff16905092915050565b611ebc6121db565b5f73ffffffffffffffffffffffffffffffffffffffff168173ffffffffffffffffffffffffffffffffffffffff1603611f2c575f6040517f1e4fbdf7000000000000000000000000000000000000000000000000000000008152600401611f239190613566565b60405180910390fd5b611f3581612262565b50565b611f42600861274d565b5f611f4d60086120a0565b9050611f598382612761565b611f63818361277e565b505050565b5f634906490660e01b7bffffffffffffffffffffffffffffffffffffffffffffffffffffffff1916827bffffffffffffffffffffffffffffffffffffffffffffffffffffffff19161480611fc15750611fc0826127d8565b5b9050919050565b5f80611fd3836128b9565b90505f73ffffffffffffffffffffffffffffffffffffffff168173ffffffffffffffffffffffffffffffffffffffff160361204557826040517f7e27328900000000000000000000000000000000000000000000000000000000815260040161203c9190613bae565b60405180910390fd5b80915050919050565b5f60045f8381526020019081526020015f205f9054906101000a900473ffffffffffffffffffffffffffffffffffffffff169050919050565b5f33905090565b61209b83838360016128f2565b505050565b5f815f01549050919050565b5f805f60418451146120f3576040517f08c379a00000000000000000000000000000000000000000000000000000000081526004016120ea90614681565b60405180910390fd5b602084015192506040840151915060608401515f1a90509193909250565b5f8061211c846128b9565b90505f73ffffffffffffffffffffffffffffffffffffffff168173ffffffffffffffffffffffffffffffffffffffff161415801561218657505f73ffffffffffffffffffffffffffffffffffffffff168573ffffffffffffffffffffffffffffffffffffffff1614155b156121c6576040517f08c379a00000000000000000000000000000000000000000000000000000000081526004016121bd906146e9565b60405180910390fd5b6121d1858585612ab1565b9150509392505050565b6121e3612087565b73ffffffffffffffffffffffffffffffffffffffff16612201611519565b73ffffffffffffffffffffffffffffffffffffffff161461226057612224612087565b6040517f118cdaa70000000000000000000000000000000000000000000000000000000081526004016122579190613566565b60405180910390fd5b565b5f600760019054906101000a900473ffffffffffffffffffffffffffffffffffffffff16905081600760016101000a81548173ffffffffffffffffffffffffffffffffffffffff021916908373ffffffffffffffffffffffffffffffffffffffff1602179055508173ffffffffffffffffffffffffffffffffffffffff168173ffffffffffffffffffffffffffffffffffffffff167f8be0079c531659141344cd1fd0a4f28419497f9722a3daafe3b4186f6b6457e060405160405180910390a35050565b5f73ffffffffffffffffffffffffffffffffffffffff168273ffffffffffffffffffffffffffffffffffffffff160361239757816040517f5b08ba1800000000000000000000000000000000000000000000000000000000815260040161238e9190613566565b60405180910390fd5b8060055f8573ffffffffffffffffffffffffffffffffffffffff1673ffffffffffffffffffffffffffffffffffffffff1681526020019081526020015f205f8473ffffffffffffffffffffffffffffffffffffffff1673ffffffffffffffffffffffffffffffffffffffff1681526020019081526020015f205f6101000a81548160ff0219169083151502179055508173ffffffffffffffffffffffffffffffffffffffff168373ffffffffffffffffffffffffffffffffffffffff167f17307eab39ab6107e8899845ad3d59bd9653f200f220920489ca2b5937696c31836040516124839190613406565b60405180910390a3505050565b5f8373ffffffffffffffffffffffffffffffffffffffff163b111561263c578273ffffffffffffffffffffffffffffffffffffffff1663150b7a026124d3612087565b8685856040518563ffffffff1660e01b81526004016124f59493929190614759565b6020604051808303815f875af192505050801561253057506040513d601f19601f8201168201806040525081019061252d91906147b7565b60015b6125b1573d805f811461255e576040519150601f19603f3d011682016040523d82523d5f602084013e612563565b606091505b505f8151036125a957836040517f64a0ae920000000000000000000000000000000000000000000000000000000081526004016125a09190613566565b60405180910390fd5b805181602001fd5b63150b7a0260e01b7bffffffffffffffffffffffffffffffffffffffffffffffffffffffff1916817bffffffffffffffffffffffffffffffffffffffffffffffffffffffff19161461263a57836040517f64a0ae920000000000000000000000000000000000000000000000000000000081526004016126319190613566565b60405180910390fd5b505b50505050565b606061264d82611fc8565b505f60065f8481526020019081526020015f20805461266b90613f4f565b80601f016020809104026020016040519081016040528092919081815260200182805461269790613f4f565b80156126e25780601f106126b9576101008083540402835291602001916126e2565b820191905f5260205f20905b8154815290600101906020018083116126c557829003601f168201915b505050505090505f6126f2612ace565b90505f815103612706578192505050612748565b5f8251111561273a5780826040516020016127229291906147e2565b60405160208183030381529060405292505050612748565b61274384612ae4565b925050505b919050565b6001815f015f828254019250508190555050565b61277a828260405180602001604052805f815250612b4a565b5050565b8060065f8481526020019081526020015f20908161279c9190614292565b507ff8e1a15aba9398e019f0b49df1a4fde98ee17ae345cb5f6b5e2c27f5033e8ce7826040516127cc9190613bae565b60405180910390a15050565b5f7f80ac58cd000000000000000000000000000000000000000000000000000000007bffffffffffffffffffffffffffffffffffffffffffffffffffffffff1916827bffffffffffffffffffffffffffffffffffffffffffffffffffffffff191614806128a257507f5b5e139f000000000000000000000000000000000000000000000000000000007bffffffffffffffffffffffffffffffffffffffffffffffffffffffff1916827bffffffffffffffffffffffffffffffffffffffffffffffffffffffff1916145b806128b257506128b182612b65565b5b9050919050565b5f60025f8381526020019081526020015f205f9054906101000a900473ffffffffffffffffffffffffffffffffffffffff169050919050565b808061292a57505f73ffffffffffffffffffffffffffffffffffffffff168273ffffffffffffffffffffffffffffffffffffffff1614155b15612a5c575f61293984611fc8565b90505f73ffffffffffffffffffffffffffffffffffffffff168373ffffffffffffffffffffffffffffffffffffffff16141580156129a357508273ffffffffffffffffffffffffffffffffffffffff168173ffffffffffffffffffffffffffffffffffffffff1614155b80156129b657506129b48184611e26565b155b156129f857826040517fa9fbf51f0000000000000000000000000000000000000000000000000000000081526004016129ef9190613566565b60405180910390fd5b8115612a5a57838573ffffffffffffffffffffffffffffffffffffffff168273ffffffffffffffffffffffffffffffffffffffff167f8c5be1e5ebec7d5bd14f71427d1e84f3dd0314c0f7b2291e5b200ac8c7c3b92560405160405180910390a45b505b8360045f8581526020019081526020015f205f6101000a81548173ffffffffffffffffffffffffffffffffffffffff021916908373ffffffffffffffffffffffffffffffffffffffff16021790555050505050565b5f612aba612bce565b612ac5848484612c0f565b90509392505050565b606060405180602001604052805f815250905090565b6060612aef82611fc8565b505f612af9612ace565b90505f815111612b175760405180602001604052805f815250612b42565b80612b2184612e1a565b604051602001612b329291906147e2565b6040516020818303038152906040525b915050919050565b612b548383612ee4565b612b605f848484612490565b505050565b5f7f01ffc9a7000000000000000000000000000000000000000000000000000000007bffffffffffffffffffffffffffffffffffffffffffffffffffffffff1916827bffffffffffffffffffffffffffffffffffffffffffffffffffffffff1916149050919050565b612bd6611198565b15612c0d576040517fd93c066500000000000000000000000000000000000000000000000000000000815260040160405180910390fd5b565b5f80612c1a846128b9565b90505f73ffffffffffffffffffffffffffffffffffffffff168373ffffffffffffffffffffffffffffffffffffffff1614612c5b57612c5a818486612fd7565b5b5f73ffffffffffffffffffffffffffffffffffffffff168173ffffffffffffffffffffffffffffffffffffffff1614612ce657612c9a5f855f806128f2565b600160035f8373ffffffffffffffffffffffffffffffffffffffff1673ffffffffffffffffffffffffffffffffffffffff1681526020019081526020015f205f82825403925050819055505b5f73ffffffffffffffffffffffffffffffffffffffff168573ffffffffffffffffffffffffffffffffffffffff1614612d6557600160035f8773ffffffffffffffffffffffffffffffffffffffff1673ffffffffffffffffffffffffffffffffffffffff1681526020019081526020015f205f82825401925050819055505b8460025f8681526020019081526020015f205f6101000a81548173ffffffffffffffffffffffffffffffffffffffff021916908373ffffffffffffffffffffffffffffffffffffffff160217905550838573ffffffffffffffffffffffffffffffffffffffff168273ffffffffffffffffffffffffffffffffffffffff167fddf252ad1be2c89b69c2b068fc378daa952ba7f163c4a11628f55a4df523b3ef60405160405180910390a4809150509392505050565b60605f6001612e288461309a565b0190505f8167ffffffffffffffff811115612e4657612e4561382c565b5b6040519080825280601f01601f191660200182016040528015612e785781602001600182028036833780820191505090505b5090505f82602001820190505b600115612ed9578080600190039150507f3031323334353637383961626364656600000000000000000000000000000000600a86061a8153600a8581612ece57612ecd614805565b5b0494505f8503612e85575b819350505050919050565b5f73ffffffffffffffffffffffffffffffffffffffff168273ffffffffffffffffffffffffffffffffffffffff1603612f54575f6040517f64a0ae92000000000000000000000000000000000000000000000000000000008152600401612f4b9190613566565b60405180910390fd5b5f612f6083835f612111565b90505f73ffffffffffffffffffffffffffffffffffffffff168173ffffffffffffffffffffffffffffffffffffffff1614612fd2575f6040517f73c6ac6e000000000000000000000000000000000000000000000000000000008152600401612fc99190613566565b60405180910390fd5b505050565b612fe28383836131eb565b613095575f73ffffffffffffffffffffffffffffffffffffffff168373ffffffffffffffffffffffffffffffffffffffff160361305657806040517f7e27328900000000000000000000000000000000000000000000000000000000815260040161304d9190613bae565b60405180910390fd5b81816040517f177e802f00000000000000000000000000000000000000000000000000000000815260040161308c929190614832565b60405180910390fd5b505050565b5f805f90507a184f03e93ff9f4daa797ed6e38ed64bf6a1f01000000000000000083106130f6577a184f03e93ff9f4daa797ed6e38ed64bf6a1f01000000000000000083816130ec576130eb614805565b5b0492506040810190505b6d04ee2d6d415b85acef81000000008310613133576d04ee2d6d415b85acef8100000000838161312957613128614805565b5b0492506020810190505b662386f26fc10000831061316257662386f26fc10000838161315857613157614805565b5b0492506010810190505b6305f5e100831061318b576305f5e100838161318157613180614805565b5b0492506008810190505b61271083106131b05761271083816131a6576131a5614805565b5b0492506004810190505b606483106131d357606483816131c9576131c8614805565b5b0492506002810190505b600a83106131e2576001810190505b80915050919050565b5f8073ffffffffffffffffffffffffffffffffffffffff168373ffffffffffffffffffffffffffffffffffffffff16141580156132a257508273ffffffffffffffffffffffffffffffffffffffff168473ffffffffffffffffffffffffffffffffffffffff16148061326357506132628484611e26565b5b806132a157508273ffffffffffffffffffffffffffffffffffffffff166132898361204e565b73ffffffffffffffffffffffffffffffffffffffff16145b5b90509392505050565b6040518061010001604052805f815260200160608152602001606081526020016060815260200160608152602001606081526020015f81526020015f73ffffffffffffffffffffffffffffffffffffffff1681525090565b50805461330f90613f4f565b5f825580601f10613320575061333d565b601f0160209004905f5260205f209081019061333c9190613340565b5b50565b5b80821115613357575f815f905550600101613341565b5090565b5f604051905090565b5f80fd5b5f80fd5b5f7fffffffff0000000000000000000000000000000000000000000000000000000082169050919050565b6133a08161336c565b81146133aa575f80fd5b50565b5f813590506133bb81613397565b92915050565b5f602082840312156133d6576133d5613364565b5b5f6133e3848285016133ad565b91505092915050565b5f8115159050919050565b613400816133ec565b82525050565b5f6020820190506134195f8301846133f7565b92915050565b5f81519050919050565b5f82825260208201905092915050565b5f5b8381101561345657808201518184015260208101905061343b565b5f8484015250505050565b5f601f19601f8301169050919050565b5f61347b8261341f565b6134858185613429565b9350613495818560208601613439565b61349e81613461565b840191505092915050565b5f6020820190508181035f8301526134c18184613471565b905092915050565b5f819050919050565b6134db816134c9565b81146134e5575f80fd5b50565b5f813590506134f6816134d2565b92915050565b5f6020828403121561351157613510613364565b5b5f61351e848285016134e8565b91505092915050565b5f73ffffffffffffffffffffffffffffffffffffffff82169050919050565b5f61355082613527565b9050919050565b61356081613546565b82525050565b5f6020820190506135795f830184613557565b92915050565b61358881613546565b8114613592575f80fd5b50565b5f813590506135a38161357f565b92915050565b5f80604083850312156135bf576135be613364565b5b5f6135cc85828601613595565b92505060206135dd858286016134e8565b9150509250929050565b5f81519050919050565b5f82825260208201905092915050565b5f819050602082019050919050565b613619816134c9565b82525050565b5f82825260208201905092915050565b5f6136398261341f565b613643818561361f565b9350613653818560208601613439565b61365c81613461565b840191505092915050565b61367081613546565b82525050565b5f61010083015f83015161368c5f860182613610565b50602083015184820360208601526136a4828261362f565b915050604083015184820360408601526136be828261362f565b915050606083015184820360608601526136d8828261362f565b915050608083015184820360808601526136f2828261362f565b91505060a083015184820360a086015261370c828261362f565b91505060c083015161372160c0860182613610565b5060e083015161373460e0860182613667565b508091505092915050565b5f61374a8383613676565b905092915050565b5f602082019050919050565b5f613768826135e7565b61377281856135f1565b93508360208202850161378485613601565b805f5b858110156137bf57848403895281516137a0858261373f565b94506137ab83613752565b925060208a01995050600181019050613787565b50829750879550505050505092915050565b5f6020820190508181035f8301526137e9818461375e565b905092915050565b5f819050919050565b613803816137f1565b811461380d575f80fd5b50565b5f8135905061381e816137fa565b92915050565b5f80fd5b5f80fd5b7f4e487b71000000000000000000000000000000000000000000000000000000005f52604160045260245ffd5b61386282613461565b810181811067ffffffffffffffff821117156138815761388061382c565b5b80604052505050565b5f61389361335b565b905061389f8282613859565b919050565b5f67ffffffffffffffff8211156138be576138bd61382c565b5b6138c782613461565b9050602081019050919050565b828183375f83830152505050565b5f6138f46138ef846138a4565b61388a565b9050828152602081018484840111156139105761390f613828565b5b61391b8482856138d4565b509392505050565b5f82601f83011261393757613936613824565b5b81356139478482602086016138e2565b91505092915050565b5f806040838503121561396657613965613364565b5b5f61397385828601613810565b925050602083013567ffffffffffffffff81111561399457613993613368565b5b6139a085828601613923565b9150509250929050565b5f805f606084860312156139c1576139c0613364565b5b5f6139ce86828701613595565b93505060206139df86828701613595565b92505060406139f0868287016134e8565b9150509250925092565b5f60208284031215613a0f57613a0e613364565b5b5f613a1c84828501613595565b91505092915050565b5f81519050919050565b5f82825260208201905092915050565b5f819050602082019050919050565b5f613a59838361362f565b905092915050565b5f602082019050919050565b5f613a7782613a25565b613a818185613a2f565b935083602082028501613a9385613a3f565b805f5b85811015613ace5784840389528151613aaf8582613a4e565b9450613aba83613a61565b925060208a01995050600181019050613a96565b50829750879550505050505092915050565b5f6020820190508181035f830152613af88184613a6d565b905092915050565b613b09816134c9565b82525050565b5f61010082019050613b235f83018b613b00565b8181036020830152613b35818a613471565b90508181036040830152613b498189613471565b90508181036060830152613b5d8188613471565b90508181036080830152613b718187613471565b905081810360a0830152613b858186613471565b9050613b9460c0830185613b00565b613ba160e0830184613557565b9998505050505050505050565b5f602082019050613bc15f830184613b00565b92915050565b5f67ffffffffffffffff821115613be157613be061382c565b5b613bea82613461565b9050602081019050919050565b5f613c09613c0484613bc7565b61388a565b905082815260208101848484011115613c2557613c24613828565b5b613c308482856138d4565b509392505050565b5f82601f830112613c4c57613c4b613824565b5b8135613c5c848260208601613bf7565b91505092915050565b5f8060408385031215613c7b57613c7a613364565b5b5f613c8885828601613595565b925050602083013567ffffffffffffffff811115613ca957613ca8613368565b5b613cb585828601613c38565b9150509250929050565b613cc8816133ec565b8114613cd2575f80fd5b50565b5f81359050613ce381613cbf565b92915050565b5f8060408385031215613cff57613cfe613364565b5b5f613d0c85828601613595565b9250506020613d1d85828601613cd5565b9150509250929050565b5f805f8060808587031215613d3f57613d3e613364565b5b5f613d4c87828801613595565b9450506020613d5d87828801613595565b9350506040613d6e878288016134e8565b925050606085013567ffffffffffffffff811115613d8f57613d8e613368565b5b613d9b87828801613923565b91505092959194509250565b5f60208284031215613dbc57613dbb613364565b5b5f82013567ffffffffffffffff811115613dd957613dd8613368565b5b613de584828501613c38565b91505092915050565b5f81519050919050565b5f82825260208201905092915050565b5f819050602082019050919050565b5f613e228383613667565b60208301905092915050565b5f602082019050919050565b5f613e4482613dee565b613e4e8185613df8565b9350613e5983613e08565b805f5b83811015613e89578151613e708882613e17565b9750613e7b83613e2e565b925050600181019050613e5c565b5085935050505092915050565b5f6020820190508181035f830152613eae8184613e3a565b905092915050565b5f604082019050613ec95f8301856133f7565b8181036020830152613edb8184613471565b90509392505050565b5f8060408385031215613efa57613ef9613364565b5b5f613f0785828601613595565b9250506020613f1885828601613595565b9150509250929050565b7f4e487b71000000000000000000000000000000000000000000000000000000005f52602260045260245ffd5b5f6002820490506001821680613f6657607f821691505b602082108103613f7957613f78613f22565b5b50919050565b7f4e487b71000000000000000000000000000000000000000000000000000000005f52601160045260245ffd5b5f613fb6826134c9565b9150613fc1836134c9565b9250828201905080821115613fd957613fd8613f7f565b5b92915050565b5f613fe9826134c9565b91507fffffffffffffffffffffffffffffffffffffffffffffffffffffffffffffffff820361401b5761401a613f7f565b5b600182019050919050565b7f4e487b71000000000000000000000000000000000000000000000000000000005f52603260045260245ffd5b61405c816137f1565b82525050565b5f60ff82169050919050565b61407781614062565b82525050565b5f6080820190506140905f830187614053565b61409d602083018661406e565b6140aa6040830185614053565b6140b76060830184614053565b95945050505050565b5f6060820190506140d35f830186613557565b6140e06020830185613b00565b6140ed6040830184613557565b949350505050565b5f819050815f5260205f209050919050565b5f6020601f8301049050919050565b5f82821b905092915050565b5f600883026141517fffffffffffffffffffffffffffffffffffffffffffffffffffffffffffffffff82614116565b61415b8683614116565b95508019841693508086168417925050509392505050565b5f819050919050565b5f61419661419161418c846134c9565b614173565b6134c9565b9050919050565b5f819050919050565b6141af8361417c565b6141c36141bb8261419d565b848454614122565b825550505050565b5f90565b6141d76141cb565b6141e28184846141a6565b505050565b5b81811015614205576141fa5f826141cf565b6001810190506141e8565b5050565b601f82111561424a5761421b816140f5565b61422484614107565b81016020851015614233578190505b61424761423f85614107565b8301826141e7565b50505b505050565b5f82821c905092915050565b5f61426a5f198460080261424f565b1980831691505092915050565b5f614282838361425b565b9150826002028217905092915050565b61429b8261341f565b67ffffffffffffffff8111156142b4576142b361382c565b5b6142be8254613f4f565b6142c9828285614209565b5f60209050601f8311600181146142fa575f84156142e8578287015190505b6142f28582614277565b865550614359565b601f198416614308866140f5565b5f5b8281101561432f5784890151825560018201915060208501945060208101905061430a565b8683101561434c5784890151614348601f89168261425b565b8355505b6001600288020188555050505b505050505050565b5f81905092915050565b5f6143758261341f565b61437f8185614361565b935061438f818560208601613439565b80840191505092915050565b5f6143a6828461436b565b915081905092915050565b5f81905092915050565b5f819050815f5260205f209050919050565b5f81546143d981613f4f565b6143e381866143b1565b9450600182165f81146143fd576001811461441257614444565b60ff1983168652811515820286019350614444565b61441b856143bb565b5f5b8381101561443c5781548189015260018201915060208101905061441d565b838801955050505b50505092915050565b5f61445882846143cd565b915081905092915050565b7f41646472657373206973206e6f742061207665726966696572000000000000005f82015250565b5f614497601983613429565b91506144a282614463565b602082019050919050565b5f6020820190508181035f8301526144c48161448b565b9050919050565b5f6144d5826134c9565b91506144e0836134c9565b92508282039050818111156144f8576144f7613f7f565b5b92915050565b7f4e487b71000000000000000000000000000000000000000000000000000000005f52603160045260245ffd5b5f8154905061453981613f4f565b9050919050565b5f819050815f5260205f209050919050565b818103614560575050614635565b6145698261452b565b67ffffffffffffffff8111156145825761458161382c565b5b61458c8254613f4f565b614597828285614209565b5f601f8311600181146145c4575f84156145b2578287015490505b6145bc8582614277565b86555061462e565b601f1984166145d287614540565b96506145dd866140f5565b5f5b82811015614604578489015482556001820191506001850194506020810190506145df565b86831015614621578489015461461d601f89168261425b565b8355505b6001600288020188555050505b5050505050505b565b7f696e76616c6964207369676e6174757265206c656e67746800000000000000005f82015250565b5f61466b601883613429565b915061467682614637565b602082019050919050565b5f6020820190508181035f8301526146988161465f565b9050919050565b7f536f756c626f756e643a205472616e73666572206661696c65640000000000005f82015250565b5f6146d3601a83613429565b91506146de8261469f565b602082019050919050565b5f6020820190508181035f830152614700816146c7565b9050919050565b5f81519050919050565b5f82825260208201905092915050565b5f61472b82614707565b6147358185614711565b9350614745818560208601613439565b61474e81613461565b840191505092915050565b5f60808201905061476c5f830187613557565b6147796020830186613557565b6147866040830185613b00565b81810360608301526147988184614721565b905095945050505050565b5f815190506147b181613397565b92915050565b5f602082840312156147cc576147cb613364565b5b5f6147d9848285016147a3565b91505092915050565b5f6147ed828561436b565b91506147f9828461436b565b91508190509392505050565b7f4e487b71000000000000000000000000000000000000000000000000000000005f52601260045260245ffd5b5f6040820190506148455f830185613557565b6148526020830184613b00565b939250505056fea2646970667358221220a055c8a0b61e56566c057db4bf4d94593c15ae6b8d56ec3fd8ace5d5e346f7c964736f6c63430008180033",
  "linkReferences": {},
  "deployedLinkReferences": {}
}