{
  "_format": "hh-sol-artifact-1",
  "contractName": "SoulboundToken",
  "sourceName": "contracts/SoulboundToken.sol",
  "abi": [
    {
      "inputs": [],
      "stateMutability": "nonpayable",
      "type": "constructor"
    },
    {
      "inputs": [
        {
          "internalType": "address",
          "name": "sender",
          "type": "address"
        },
        {
          "internalType": "uint256",
          "name": "tokenId",
          "type": "uint256"
        },
        {
          "internalType": "address",
          "name": "owner",
          "type": "address"
        }
      ],
      "name": "ERC721IncorrectOwner",
      "type": "error"
    },
    {
      "inputs": [
        {
          "internalType": "address",
          "name": "operator",
          "type": "address"
        },
        {
          "internalType": "uint256",
          "name": "tokenId",
          "type": "uint256"
        }
      ],
      "name": "ERC721InsufficientApproval",
      "type": "error"
    },
    {
      "inputs": [
        {
          "internalType": "address",
          "name": "approver",
          "type": "address"
        }
      ],
      "name": "ERC721InvalidApprover",
      "type": "error"
    },
    {
      "inputs": [
        {
          "internalType": "address",
          "name": "operator",
          "type": "address"
        }
      ],
      "name": "ERC721InvalidOperator",
      "type": "error"
    },
    {
      "inputs": [
        {
          "internalType": "address",
          "name": "owner",
          "type": "address"
        }
      ],
      "name": "ERC721InvalidOwner",
      "type": "error"
    },
    {
      "inputs": [
        {
          "internalType": "address",
          "name": "receiver",
          "type": "address"
        }
      ],
      "name": "ERC721InvalidReceiver",
      "type": "error"
    },
    {
      "inputs": [
        {
          "internalType": "address",
          "name": "sender",
          "type": "address"
        }
      ],
      "name": "ERC721InvalidSender",
      "type": "error"
    },
    {
      "inputs": [
        {
          "internalType": "uint256",
          "name": "tokenId",
          "type": "uint256"
        }
      ],
      "name": "ERC721NonexistentToken",
      "type": "error"
    },
    {
      "inputs": [
        {
          "internalType": "address",
          "name": "owner",
          "type": "address"
        }
      ],
      "name": "OwnableInvalidOwner",
      "type": "error"
    },
    {
      "inputs": [
        {
          "internalType": "address",
          "name": "account",
          "type": "address"
        }
      ],
      "name": "OwnableUnauthorizedAccount",
      "type": "error"
    },
    {
      "anonymous": false,
      "inputs": [
        {
          "indexed": true,
          "internalType": "address",
          "name": "owner",
          "type": "address"
        },
        {
          "indexed": true,
          "internalType": "address",
          "name": "approved",
          "type": "address"
        },
        {
          "indexed": true,
          "internalType": "uint256",
          "name": "tokenId",
          "type": "uint256"
        }
      ],
      "name": "Approval",
      "type": "event"
    },
    {
      "anonymous": false,
      "inputs": [
        {
          "indexed": true,
          "internalType": "address",
          "name": "owner",
          "type": "address"
        },
        {
          "indexed": true,
          "internalType": "address",
          "name": "operator",
          "type": "address"
        },
        {
          "indexed": false,
          "internalType": "bool",
          "name": "approved",
          "type": "bool"
        }
      ],
      "name": "ApprovalForAll",
      "type": "event"
    },
    {
      "anonymous": false,
      "inputs": [
        {
          "indexed": false,
          "internalType": "uint256",
          "name": "_fromTokenId",
          "type": "uint256"
        },
        {
          "indexed": false,
          "internalType": "uint256",
          "name": "_toTokenId",
          "type": "uint256"
        }
      ],
      "name": "BatchMetadataUpdate",
      "type": "event"
    },
    {
      "anonymous": false,
      "inputs": [
        {
          "indexed": false,
          "internalType": "uint256",
          "name": "_tokenId",
          "type": "uint256"
        }
      ],
      "name": "MetadataUpdate",
      "type": "event"
    },
    {
      "anonymous": false,
      "inputs": [
        {
          "indexed": true,
          "internalType": "address",
          "name": "previousOwner",
          "type": "address"
        },
        {
          "indexed": true,
          "internalType": "address",
          "name": "newOwner",
          "type": "address"
        }
      ],
      "name": "OwnershipTransferred",
      "type": "event"
    },
    {
      "anonymous": false,
      "inputs": [
        {
          "indexed": true,
          "internalType": "address",
          "name": "from",
          "type": "address"
        },
        {
          "indexed": true,
          "internalType": "address",
          "name": "to",
          "type": "address"
        },
        {
          "indexed": true,
          "internalType": "uint256",
          "name": "tokenId",
          "type": "uint256"
        }
      ],
      "name": "Transfer",
      "type": "event"
    },
    {
      "inputs": [
        {
          "internalType": "address",
          "name": "verifier",
          "type": "address"
        },
        {
          "internalType": "string",
          "name": "organizationCode",
          "type": "string"
        }
      ],
      "name": "addVerifier",
      "outputs": [],
      "stateMutability": "nonpayable",
      "type": "function"
    },
    {
      "inputs": [
        {
          "internalType": "address",
          "name": "to",
          "type": "address"
        },
        {
          "internalType": "uint256",
          "name": "tokenId",
          "type": "uint256"
        }
      ],
      "name": "approve",
      "outputs": [],
      "stateMutability": "nonpayable",
      "type": "function"
    },
    {
      "inputs": [
        {
          "internalType": "address",
          "name": "owner",
          "type": "address"
        }
      ],
      "name": "balanceOf",
      "outputs": [
        {
          "internalType": "uint256",
          "name": "",
          "type": "uint256"
        }
      ],
      "stateMutability": "view",
      "type": "function"
    },
    {
      "inputs": [
        {
          "internalType": "uint256",
          "name": "tokenId",
          "type": "uint256"
        }
      ],
      "name": "getApproved",
      "outputs": [
        {
          "internalType": "address",
          "name": "",
          "type": "address"
        }
      ],
      "stateMutability": "view",
      "type": "function"
    },
    {
      "inputs": [],
      "name": "getMySBTs",
      "outputs": [
        {
          "components": [
            {
              "internalType": "uint256",
              "name": "sBTId",
              "type": "uint256"
            },
            {
              "internalType": "string",
              "name": "fullName",
              "type": "string"
            },
            {
              "internalType": "string",
              "name": "certificateHash",
              "type": "string"
            },
            {
              "internalType": "string",
              "name": "citizenID",
              "type": "string"
            },
            {
              "internalType": "string",
              "name": "hometown",
              "type": "string"
            },
            {
              "internalType": "string",
              "name": "nationality",
              "type": "string"
            },
            {
              "internalType": "uint256",
              "name": "birthDate",
              "type": "uint256"
            },
            {
              "internalType": "address",
              "name": "ownerAddress",
              "type": "address"
            }
          ],
          "internalType": "struct SoulboundToken.SBTInfo[]",
          "name": "",
          "type": "tuple[]"
        }
      ],
      "stateMutability": "view",
      "type": "function"
    },
    {
      "inputs": [
        {
          "internalType": "address",
          "name": "addr",
          "type": "address"
        }
      ],
      "name": "getOrganizationCode",
      "outputs": [
        {
          "internalType": "string",
          "name": "",
          "type": "string"
        }
      ],
      "stateMutability": "view",
      "type": "function"
    },
    {
      "inputs": [],
      "name": "getOrganizationCodes",
      "outputs": [
        {
          "internalType": "string[]",
          "name": "",
          "type": "string[]"
        }
      ],
      "stateMutability": "view",
      "type": "function"
    },
    {
      "inputs": [
        {
          "internalType": "string",
          "name": "targetOrganizationCode",
          "type": "string"
        }
      ],
      "name": "getVerifiersByOrganizationCode",
      "outputs": [
        {
          "internalType": "address[]",
          "name": "",
          "type": "address[]"
        }
      ],
      "stateMutability": "view",
      "type": "function"
    },
    {
      "inputs": [
        {
          "internalType": "uint256",
          "name": "",
          "type": "uint256"
        }
      ],
      "name": "idToSBT",
      "outputs": [
        {
          "internalType": "uint256",
          "name": "sBTId",
          "type": "uint256"
        },
        {
          "internalType": "string",
          "name": "fullName",
          "type": "string"
        },
        {
          "internalType": "string",
          "name": "certificateHash",
          "type": "string"
        },
        {
          "internalType": "string",
          "name": "citizenID",
          "type": "string"
        },
        {
          "internalType": "string",
          "name": "hometown",
          "type": "string"
        },
        {
          "internalType": "string",
          "name": "nationality",
          "type": "string"
        },
        {
          "internalType": "uint256",
          "name": "birthDate",
          "type": "uint256"
        },
        {
          "internalType": "address",
          "name": "ownerAddress",
          "type": "address"
        }
      ],
      "stateMutability": "view",
      "type": "function"
    },
    {
      "inputs": [
        {
          "internalType": "address",
          "name": "owner",
          "type": "address"
        },
        {
          "internalType": "address",
          "name": "operator",
          "type": "address"
        }
      ],
      "name": "isApprovedForAll",
      "outputs": [
        {
          "internalType": "bool",
          "name": "",
          "type": "bool"
        }
      ],
      "stateMutability": "view",
      "type": "function"
    },
    {
      "inputs": [
        {
          "internalType": "address",
          "name": "addr",
          "type": "address"
        }
      ],
      "name": "isVerifier",
      "outputs": [
        {
          "internalType": "bool",
          "name": "",
          "type": "bool"
        }
      ],
      "stateMutability": "view",
      "type": "function"
    },
    {
      "inputs": [
        {
          "internalType": "address",
          "name": "recipient",
          "type": "address"
        },
        {
          "internalType": "string",
          "name": "tokenURI",
          "type": "string"
        }
      ],
      "name": "mintSBTForAddress",
      "outputs": [],
      "stateMutability": "nonpayable",
      "type": "function"
    },
    {
      "inputs": [],
      "name": "name",
      "outputs": [
        {
          "internalType": "string",
          "name": "",
          "type": "string"
        }
      ],
      "stateMutability": "view",
      "type": "function"
    },
    {
      "inputs": [],
      "name": "owner",
      "outputs": [
        {
          "internalType": "address",
          "name": "",
          "type": "address"
        }
      ],
      "stateMutability": "view",
      "type": "function"
    },
    {
      "inputs": [
        {
          "internalType": "uint256",
          "name": "tokenId",
          "type": "uint256"
        }
      ],
      "name": "ownerOf",
      "outputs": [
        {
          "internalType": "address",
          "name": "",
          "type": "address"
        }
      ],
      "stateMutability": "view",
      "type": "function"
    },
    {
      "inputs": [
        {
          "internalType": "bytes32",
          "name": "_ethSignedMessageHash",
          "type": "bytes32"
        },
        {
          "internalType": "bytes",
          "name": "_sig",
          "type": "bytes"
        }
      ],
      "name": "recover",
      "outputs": [
        {
          "internalType": "address",
          "name": "",
          "type": "address"
        }
      ],
      "stateMutability": "pure",
      "type": "function"
    },
    {
      "inputs": [],
      "name": "renounceOwnership",
      "outputs": [],
      "stateMutability": "nonpayable",
      "type": "function"
    },
    {
      "inputs": [
        {
          "internalType": "address",
          "name": "from",
          "type": "address"
        },
        {
          "internalType": "address",
          "name": "to",
          "type": "address"
        },
        {
          "internalType": "uint256",
          "name": "tokenId",
          "type": "uint256"
        }
      ],
      "name": "safeTransferFrom",
      "outputs": [],
      "stateMutability": "nonpayable",
      "type": "function"
    },
    {
      "inputs": [
        {
          "internalType": "address",
          "name": "from",
          "type": "address"
        },
        {
          "internalType": "address",
          "name": "to",
          "type": "address"
        },
        {
          "internalType": "uint256",
          "name": "tokenId",
          "type": "uint256"
        },
        {
          "internalType": "bytes",
          "name": "data",
          "type": "bytes"
        }
      ],
      "name": "safeTransferFrom",
      "outputs": [],
      "stateMutability": "nonpayable",
      "type": "function"
    },
    {
      "inputs": [
        {
          "internalType": "address",
          "name": "operator",
          "type": "address"
        },
        {
          "internalType": "bool",
          "name": "approved",
          "type": "bool"
        }
      ],
      "name": "setApprovalForAll",
      "outputs": [],
      "stateMutability": "nonpayable",
      "type": "function"
    },
    {
      "inputs": [
        {
          "internalType": "bytes4",
          "name": "interfaceId",
          "type": "bytes4"
        }
      ],
      "name": "supportsInterface",
      "outputs": [
        {
          "internalType": "bool",
          "name": "",
          "type": "bool"
        }
      ],
      "stateMutability": "view",
      "type": "function"
    },
    {
      "inputs": [],
      "name": "symbol",
      "outputs": [
        {
          "internalType": "string",
          "name": "",
          "type": "string"
        }
      ],
      "stateMutability": "view",
      "type": "function"
    },
    {
      "inputs": [
        {
          "internalType": "uint256",
          "name": "tokenId",
          "type": "uint256"
        }
      ],
      "name": "tokenURI",
      "outputs": [
        {
          "internalType": "string",
          "name": "",
          "type": "string"
        }
      ],
      "stateMutability": "view",
      "type": "function"
    },
    {
      "inputs": [
        {
          "internalType": "address",
          "name": "to",
          "type": "address"
        },
        {
          "internalType": "uint256",
          "name": "tokenId",
          "type": "uint256"
        }
      ],
      "name": "transfer",
      "outputs": [],
      "stateMutability": "nonpayable",
      "type": "function"
    },
    {
      "inputs": [
        {
          "internalType": "address",
          "name": "from",
          "type": "address"
        },
        {
          "internalType": "address",
          "name": "to",
          "type": "address"
        },
        {
          "internalType": "uint256",
          "name": "tokenId",
          "type": "uint256"
        }
      ],
      "name": "transferFrom",
      "outputs": [],
      "stateMutability": "nonpayable",
      "type": "function"
    },
    {
      "inputs": [
        {
          "internalType": "address",
          "name": "newOwner",
          "type": "address"
        }
      ],
      "name": "transferOwnership",
      "outputs": [],
      "stateMutability": "nonpayable",
      "type": "function"
    },
    {
      "inputs": [
        {
          "internalType": "uint256",
          "name": "",
          "type": "uint256"
        }
      ],
      "name": "verifierAddresses",
      "outputs": [
        {
          "internalType": "address",
          "name": "",
          "type": "address"
        }
      ],
      "stateMutability": "view",
      "type": "function"
    },
    {
      "inputs": [
        {
          "internalType": "address",
          "name": "",
          "type": "address"
        }
      ],
      "name": "verifierList",
      "outputs": [
        {
          "internalType": "bool",
          "name": "isVerifier",
          "type": "bool"
        },
        {
          "internalType": "string",
          "name": "organizationCode",
          "type": "string"
        }
      ],
      "stateMutability": "view",
      "type": "function"
    }
  ],
  "bytecode": "0x608060405234801562000010575f80fd5b50336040518060400160405280600e81526020017f536f756c626f756e64546f6b656e0000000000000000000000000000000000008152506040518060400160405280600381526020017f5342540000000000000000000000000000000000000000000000000000000000815250815f90816200008e919062000455565b508060019081620000a0919062000455565b5050505f73ffffffffffffffffffffffffffffffffffffffff168173ffffffffffffffffffffffffffffffffffffffff160362000116575f6040517f1e4fbdf70000000000000000000000000000000000000000000000000000000081526004016200010d91906200057c565b60405180910390fd5b62000127816200012e60201b60201c565b5062000597565b5f60075f9054906101000a900473ffffffffffffffffffffffffffffffffffffffff1690508160075f6101000a81548173ffffffffffffffffffffffffffffffffffffffff021916908373ffffffffffffffffffffffffffffffffffffffff1602179055508173ffffffffffffffffffffffffffffffffffffffff168173ffffffffffffffffffffffffffffffffffffffff167f8be0079c531659141344cd1fd0a4f28419497f9722a3daafe3b4186f6b6457e060405160405180910390a35050565b5f81519050919050565b7f4e487b71000000000000000000000000000000000000000000000000000000005f52604160045260245ffd5b7f4e487b71000000000000000000000000000000000000000000000000000000005f52602260045260245ffd5b5f60028204905060018216806200026d57607f821691505b60208210810362000283576200028262000228565b5b50919050565b5f819050815f5260205f209050919050565b5f6020601f8301049050919050565b5f82821b905092915050565b5f60088302620002e77fffffffffffffffffffffffffffffffffffffffffffffffffffffffffffffffff82620002aa565b620002f38683620002aa565b95508019841693508086168417925050509392505050565b5f819050919050565b5f819050919050565b5f6200033d6200033762000331846200030b565b62000314565b6200030b565b9050919050565b5f819050919050565b62000358836200031d565b62000370620003678262000344565b848454620002b6565b825550505050565b5f90565b6200038662000378565b620003938184846200034d565b505050565b5b81811015620003ba57620003ae5f826200037c565b60018101905062000399565b5050565b601f8211156200040957620003d38162000289565b620003de846200029b565b81016020851015620003ee578190505b62000406620003fd856200029b565b83018262000398565b50505b505050565b5f82821c905092915050565b5f6200042b5f19846008026200040e565b1980831691505092915050565b5f6200044583836200041a565b9150826002028217905092915050565b6200046082620001f1565b67ffffffffffffffff8111156200047c576200047b620001fb565b5b62000488825462000255565b62000495828285620003be565b5f60209050601f831160018114620004cb575f8415620004b6578287015190505b620004c2858262000438565b86555062000531565b601f198416620004db8662000289565b5f5b828110156200050457848901518255600182019150602085019450602081019050620004dd565b8683101562000524578489015162000520601f8916826200041a565b8355505b6001600288020188555050505b505050505050565b5f73ffffffffffffffffffffffffffffffffffffffff82169050919050565b5f620005648262000539565b9050919050565b620005768162000558565b82525050565b5f602082019050620005915f8301846200056b565b92915050565b61426080620005a55f395ff3fe608060405234801561000f575f80fd5b50600436106101c2575f3560e01c806370a08231116100f7578063b88d4fde11610095578063d5c48a311161006f578063d5c48a3114610541578063e985e9c514610572578063f2fde38b146105a2578063fc3949eb146105be576101c2565b8063b88d4fde146104c5578063c368572f146104e1578063c87b56dd14610511576101c2565b80638da5cb5b116100d15780638da5cb5b1461045157806395d89b411461046f578063a22cb4651461048d578063a9059cbb146104a9576101c2565b806370a08231146103fb578063715018a61461042b5780637340792a14610435576101c2565b8063331052181161016457806342842e0e1161013e57806342842e0e1461034f5780636352211e1461036b578063657ad6681461039b5780636de05398146103cb576101c2565b806333105218146102ca578063355d3998146102fa57806337520e7814610318576101c2565b8063095ea7b3116101a0578063095ea7b3146102445780630f003ff71461026057806319045a251461027e57806323b872dd146102ae576101c2565b806301ffc9a7146101c657806306fdde03146101f6578063081812fc14610214575b5f80fd5b6101e060048036038101906101db9190612f40565b6105da565b6040516101ed9190612f85565b60405180910390f35b6101fe6105eb565b60405161020b9190613028565b60405180910390f35b61022e6004803603810190610229919061307b565b61067a565b60405161023b91906130e5565b60405180910390f35b61025e60048036038101906102599190613128565b610695565b005b6102686106ab565b6040516102759190613350565b60405180910390f35b610298600480360381019061029391906134cf565b610bbe565b6040516102a591906130e5565b60405180910390f35b6102c860048036038101906102c39190613529565b610c28565b005b6102e460048036038101906102df9190613579565b610d27565b6040516102f19190612f85565b60405180910390f35b610302610d7b565b60405161030f919061365f565b60405180910390f35b610332600480360381019061032d919061307b565b610e4f565b60405161034698979695949392919061368e565b60405180910390f35b61036960048036038101906103649190613529565b611150565b005b6103856004803603810190610380919061307b565b61116f565b60405161039291906130e5565b60405180910390f35b6103b560048036038101906103b09190613579565b611180565b6040516103c29190613028565b60405180910390f35b6103e560048036038101906103e0919061307b565b611250565b6040516103f291906130e5565b60405180910390f35b61041560048036038101906104109190613579565b61128b565b604051610422919061372d565b60405180910390f35b610433611341565b005b61044f600480360381019061044a91906137e4565b611354565b005b6104596114db565b60405161046691906130e5565b60405180910390f35b610477611503565b6040516104849190613028565b60405180910390f35b6104a760048036038101906104a29190613868565b611593565b005b6104c360048036038101906104be9190613128565b6115a9565b005b6104df60048036038101906104da91906138a6565b61162e565b005b6104fb60048036038101906104f69190613926565b6116b5565b6040516105089190613a15565b60405180910390f35b61052b6004803603810190610526919061307b565b6118fb565b6040516105389190613028565b60405180910390f35b61055b60048036038101906105569190613579565b61190d565b604051610569929190613a35565b60405180910390f35b61058c60048036038101906105879190613a63565b6119bf565b6040516105999190612f85565b60405180910390f35b6105bc60048036038101906105b79190613579565b611a4d565b005b6105d860048036038101906105d391906137e4565b611ad1565b005b5f6105e482611b01565b9050919050565b60605f80546105f990613ace565b80601f016020809104026020016040519081016040528092919081815260200182805461062590613ace565b80156106705780601f1061064757610100808354040283529160200191610670565b820191905f5260205f20905b81548152906001019060200180831161065357829003601f168201915b5050505050905090565b5f61068482611b61565b5061068e82611be7565b9050919050565b6106a782826106a2611c20565b611c27565b5050565b60605f6106b86008611c39565b90505f80600190505b828111610751573373ffffffffffffffffffffffffffffffffffffffff1660095f8381526020019081526020015f206007015f9054906101000a900473ffffffffffffffffffffffffffffffffffffffff1673ffffffffffffffffffffffffffffffffffffffff160361073e5760018261073b9190613b2b565b91505b808061074990613b5e565b9150506106c1565b505f8167ffffffffffffffff81111561076d5761076c6133ab565b5b6040519080825280602002602001820160405280156107a657816020015b610793612e82565b81526020019060019003908161078b5790505b5090505f80600190505b848111610bb3573373ffffffffffffffffffffffffffffffffffffffff1660095f8381526020019081526020015f206007015f9054906101000a900473ffffffffffffffffffffffffffffffffffffffff1673ffffffffffffffffffffffffffffffffffffffff1603610ba05760095f8281526020019081526020015f20604051806101000160405290815f820154815260200160018201805461085390613ace565b80601f016020809104026020016040519081016040528092919081815260200182805461087f90613ace565b80156108ca5780601f106108a1576101008083540402835291602001916108ca565b820191905f5260205f20905b8154815290600101906020018083116108ad57829003601f168201915b505050505081526020016002820180546108e390613ace565b80601f016020809104026020016040519081016040528092919081815260200182805461090f90613ace565b801561095a5780601f106109315761010080835404028352916020019161095a565b820191905f5260205f20905b81548152906001019060200180831161093d57829003601f168201915b5050505050815260200160038201805461097390613ace565b80601f016020809104026020016040519081016040528092919081815260200182805461099f90613ace565b80156109ea5780601f106109c1576101008083540402835291602001916109ea565b820191905f5260205f20905b8154815290600101906020018083116109cd57829003601f168201915b50505050508152602001600482018054610a0390613ace565b80601f0160208091040260200160405190810160405280929190818152602001828054610a2f90613ace565b8015610a7a5780601f10610a5157610100808354040283529160200191610a7a565b820191905f5260205f20905b815481529060010190602001808311610a5d57829003601f168201915b50505050508152602001600582018054610a9390613ace565b80601f0160208091040260200160405190810160405280929190818152602001828054610abf90613ace565b8015610b0a5780601f10610ae157610100808354040283529160200191610b0a565b820191905f5260205f20905b815481529060010190602001808311610aed57829003601f168201915b5050505050815260200160068201548152602001600782015f9054906101000a900473ffffffffffffffffffffffffffffffffffffffff1673ffffffffffffffffffffffffffffffffffffffff1673ffffffffffffffffffffffffffffffffffffffff1681525050838381518110610b8557610b84613ba5565b5b6020026020010181905250600182610b9d9190613b2b565b91505b8080610bab90613b5e565b9150506107b0565b508194505050505090565b5f805f80610bcb85611c45565b9250925092506001868285856040515f8152602001604052604051610bf39493929190613bfc565b6020604051602081039080840390855afa158015610c13573d5f803e3d5ffd5b50505060206040510351935050505092915050565b5f73ffffffffffffffffffffffffffffffffffffffff168273ffffffffffffffffffffffffffffffffffffffff1603610c98575f6040517f64a0ae92000000000000000000000000000000000000000000000000000000008152600401610c8f91906130e5565b60405180910390fd5b5f610cab8383610ca6611c20565b611caa565b90508373ffffffffffffffffffffffffffffffffffffffff168173ffffffffffffffffffffffffffffffffffffffff1614610d21578382826040517f64283d7b000000000000000000000000000000000000000000000000000000008152600401610d1893929190613c3f565b60405180910390fd5b50505050565b5f600a5f8373ffffffffffffffffffffffffffffffffffffffff1673ffffffffffffffffffffffffffffffffffffffff1681526020019081526020015f205f015f9054906101000a900460ff169050919050565b6060600d805480602002602001604051908101604052809291908181526020015f905b82821015610e46578382905f5260205f20018054610dbb90613ace565b80601f0160208091040260200160405190810160405280929190818152602001828054610de790613ace565b8015610e325780601f10610e0957610100808354040283529160200191610e32565b820191905f5260205f20905b815481529060010190602001808311610e1557829003601f168201915b505050505081526020019060010190610d9e565b50505050905090565b6009602052805f5260405f205f91509050805f015490806001018054610e7490613ace565b80601f0160208091040260200160405190810160405280929190818152602001828054610ea090613ace565b8015610eeb5780601f10610ec257610100808354040283529160200191610eeb565b820191905f5260205f20905b815481529060010190602001808311610ece57829003601f168201915b505050505090806002018054610f0090613ace565b80601f0160208091040260200160405190810160405280929190818152602001828054610f2c90613ace565b8015610f775780601f10610f4e57610100808354040283529160200191610f77565b820191905f5260205f20905b815481529060010190602001808311610f5a57829003601f168201915b505050505090806003018054610f8c90613ace565b80601f0160208091040260200160405190810160405280929190818152602001828054610fb890613ace565b80156110035780601f10610fda57610100808354040283529160200191611003565b820191905f5260205f20905b815481529060010190602001808311610fe657829003601f168201915b50505050509080600401805461101890613ace565b80601f016020809104026020016040519081016040528092919081815260200182805461104490613ace565b801561108f5780601f106110665761010080835404028352916020019161108f565b820191905f5260205f20905b81548152906001019060200180831161107257829003601f168201915b5050505050908060050180546110a490613ace565b80601f01602080910402602001604051908101604052809291908181526020018280546110d090613ace565b801561111b5780601f106110f25761010080835404028352916020019161111b565b820191905f5260205f20905b8154815290600101906020018083116110fe57829003601f168201915b505050505090806006015490806007015f9054906101000a900473ffffffffffffffffffffffffffffffffffffffff16905088565b61116a83838360405180602001604052805f81525061162e565b505050565b5f61117982611b61565b9050919050565b6060600a5f8373ffffffffffffffffffffffffffffffffffffffff1673ffffffffffffffffffffffffffffffffffffffff1681526020019081526020015f2060010180546111cd90613ace565b80601f01602080910402602001604051908101604052809291908181526020018280546111f990613ace565b80156112445780601f1061121b57610100808354040283529160200191611244565b820191905f5260205f20905b81548152906001019060200180831161122757829003601f168201915b50505050509050919050565b600b818154811061125f575f80fd5b905f5260205f20015f915054906101000a900473ffffffffffffffffffffffffffffffffffffffff1681565b5f8073ffffffffffffffffffffffffffffffffffffffff168273ffffffffffffffffffffffffffffffffffffffff16036112fc575f6040517f89c62b640000000000000000000000000000000000000000000000000000000081526004016112f391906130e5565b60405180910390fd5b60035f8373ffffffffffffffffffffffffffffffffffffffff1673ffffffffffffffffffffffffffffffffffffffff1681526020019081526020015f20549050919050565b611349611eb5565b6113525f611f3c565b565b604051806040016040528060011515815260200182815250600a5f8473ffffffffffffffffffffffffffffffffffffffff1673ffffffffffffffffffffffffffffffffffffffff1681526020019081526020015f205f820151815f015f6101000a81548160ff02191690831515021790555060208201518160010190816113db9190613e11565b50905050600b82908060018154018082558091505060019003905f5260205f20015f9091909190916101000a81548173ffffffffffffffffffffffffffffffffffffffff021916908373ffffffffffffffffffffffffffffffffffffffff160217905550600c8160405161144f9190613f1a565b90815260200160405180910390205f9054906101000a900460ff166114d7576001600c826040516114809190613f1a565b90815260200160405180910390205f6101000a81548160ff021916908315150217905550600d81908060018154018082558091505060019003905f5260205f20015f9091909190915090816114d59190613e11565b505b5050565b5f60075f9054906101000a900473ffffffffffffffffffffffffffffffffffffffff16905090565b60606001805461151290613ace565b80601f016020809104026020016040519081016040528092919081815260200182805461153e90613ace565b80156115895780601f1061156057610100808354040283529160200191611589565b820191905f5260205f20905b81548152906001019060200180831161156c57829003601f168201915b5050505050905090565b6115a561159e611c20565b8383611fff565b5050565b6115b28161116f565b73ffffffffffffffffffffffffffffffffffffffff163373ffffffffffffffffffffffffffffffffffffffff160361161f576040517f08c379a000000000000000000000000000000000000000000000000000000000815260040161161690613fa0565b60405180910390fd5b61162a338383612168565b5050565b6116378261116f565b73ffffffffffffffffffffffffffffffffffffffff163373ffffffffffffffffffffffffffffffffffffffff16036116a4576040517f08c379a000000000000000000000000000000000000000000000000000000000815260040161169b90613fa0565b60405180910390fd5b6116af848484611150565b50505050565b60605f60605f5b600b80549050811015611787575f600b82815481106116de576116dd613ba5565b5b905f5260205f20015f9054906101000a900473ffffffffffffffffffffffffffffffffffffffff1690508580519060200120600a5f8373ffffffffffffffffffffffffffffffffffffffff1673ffffffffffffffffffffffffffffffffffffffff1681526020019081526020015f2060010160405161175d919061405a565b60405180910390200361177957838061177590613b5e565b9450505b5080806001019150506116bc565b508167ffffffffffffffff8111156117a2576117a16133ab565b5b6040519080825280602002602001820160405280156117d05781602001602082028036833780820191505090505b5090505f805b600b805490508110156118ef575f600b82815481106117f8576117f7613ba5565b5b905f5260205f20015f9054906101000a900473ffffffffffffffffffffffffffffffffffffffff1690508680519060200120600a5f8373ffffffffffffffffffffffffffffffffffffffff1673ffffffffffffffffffffffffffffffffffffffff1681526020019081526020015f20600101604051611877919061405a565b6040518091039020036118e1578084848151811061189857611897613ba5565b5b602002602001019073ffffffffffffffffffffffffffffffffffffffff16908173ffffffffffffffffffffffffffffffffffffffff168152505082806118dd90613b5e565b9350505b5080806001019150506117d6565b50819350505050919050565b6060611906826122d0565b9050919050565b600a602052805f5260405f205f91509050805f015f9054906101000a900460ff169080600101805461193e90613ace565b80601f016020809104026020016040519081016040528092919081815260200182805461196a90613ace565b80156119b55780601f1061198c576101008083540402835291602001916119b5565b820191905f5260205f20905b81548152906001019060200180831161199857829003601f168201915b5050505050905082565b5f60055f8473ffffffffffffffffffffffffffffffffffffffff1673ffffffffffffffffffffffffffffffffffffffff1681526020019081526020015f205f8373ffffffffffffffffffffffffffffffffffffffff1673ffffffffffffffffffffffffffffffffffffffff1681526020019081526020015f205f9054906101000a900460ff16905092915050565b611a55611eb5565b5f73ffffffffffffffffffffffffffffffffffffffff168173ffffffffffffffffffffffffffffffffffffffff1603611ac5575f6040517f1e4fbdf7000000000000000000000000000000000000000000000000000000008152600401611abc91906130e5565b60405180910390fd5b611ace81611f3c565b50565b611adb60086123db565b5f611ae66008611c39565b9050611af283826123ef565b611afc818361240c565b505050565b5f634906490660e01b7bffffffffffffffffffffffffffffffffffffffffffffffffffffffff1916827bffffffffffffffffffffffffffffffffffffffffffffffffffffffff19161480611b5a5750611b5982612466565b5b9050919050565b5f80611b6c83612547565b90505f73ffffffffffffffffffffffffffffffffffffffff168173ffffffffffffffffffffffffffffffffffffffff1603611bde57826040517f7e273289000000000000000000000000000000000000000000000000000000008152600401611bd5919061372d565b60405180910390fd5b80915050919050565b5f60045f8381526020019081526020015f205f9054906101000a900473ffffffffffffffffffffffffffffffffffffffff169050919050565b5f33905090565b611c348383836001612580565b505050565b5f815f01549050919050565b5f805f6041845114611c8c576040517f08c379a0000000000000000000000000000000000000000000000000000000008152600401611c83906140ba565b60405180910390fd5b602084015192506040840151915060608401515f1a90509193909250565b5f80611cb584612547565b90505f73ffffffffffffffffffffffffffffffffffffffff168373ffffffffffffffffffffffffffffffffffffffff1614611cf657611cf581848661273f565b5b5f73ffffffffffffffffffffffffffffffffffffffff168173ffffffffffffffffffffffffffffffffffffffff1614611d8157611d355f855f80612580565b600160035f8373ffffffffffffffffffffffffffffffffffffffff1673ffffffffffffffffffffffffffffffffffffffff1681526020019081526020015f205f82825403925050819055505b5f73ffffffffffffffffffffffffffffffffffffffff168573ffffffffffffffffffffffffffffffffffffffff1614611e0057600160035f8773ffffffffffffffffffffffffffffffffffffffff1673ffffffffffffffffffffffffffffffffffffffff1681526020019081526020015f205f82825401925050819055505b8460025f8681526020019081526020015f205f6101000a81548173ffffffffffffffffffffffffffffffffffffffff021916908373ffffffffffffffffffffffffffffffffffffffff160217905550838573ffffffffffffffffffffffffffffffffffffffff168273ffffffffffffffffffffffffffffffffffffffff167fddf252ad1be2c89b69c2b068fc378daa952ba7f163c4a11628f55a4df523b3ef60405160405180910390a4809150509392505050565b611ebd611c20565b73ffffffffffffffffffffffffffffffffffffffff16611edb6114db565b73ffffffffffffffffffffffffffffffffffffffff1614611f3a57611efe611c20565b6040517f118cdaa7000000000000000000000000000000000000000000000000000000008152600401611f3191906130e5565b60405180910390fd5b565b5f60075f9054906101000a900473ffffffffffffffffffffffffffffffffffffffff1690508160075f6101000a81548173ffffffffffffffffffffffffffffffffffffffff021916908373ffffffffffffffffffffffffffffffffffffffff1602179055508173ffffffffffffffffffffffffffffffffffffffff168173ffffffffffffffffffffffffffffffffffffffff167f8be0079c531659141344cd1fd0a4f28419497f9722a3daafe3b4186f6b6457e060405160405180910390a35050565b5f73ffffffffffffffffffffffffffffffffffffffff168273ffffffffffffffffffffffffffffffffffffffff160361206f57816040517f5b08ba1800000000000000000000000000000000000000000000000000000000815260040161206691906130e5565b60405180910390fd5b8060055f8573ffffffffffffffffffffffffffffffffffffffff1673ffffffffffffffffffffffffffffffffffffffff1681526020019081526020015f205f8473ffffffffffffffffffffffffffffffffffffffff1673ffffffffffffffffffffffffffffffffffffffff1681526020019081526020015f205f6101000a81548160ff0219169083151502179055508173ffffffffffffffffffffffffffffffffffffffff168373ffffffffffffffffffffffffffffffffffffffff167f17307eab39ab6107e8899845ad3d59bd9653f200f220920489ca2b5937696c318360405161215b9190612f85565b60405180910390a3505050565b5f73ffffffffffffffffffffffffffffffffffffffff168273ffffffffffffffffffffffffffffffffffffffff16036121d8575f6040517f64a0ae920000000000000000000000000000000000000000000000000000000081526004016121cf91906130e5565b60405180910390fd5b5f6121e483835f611caa565b90505f73ffffffffffffffffffffffffffffffffffffffff168173ffffffffffffffffffffffffffffffffffffffff160361225657816040517f7e27328900000000000000000000000000000000000000000000000000000000815260040161224d919061372d565b60405180910390fd5b8373ffffffffffffffffffffffffffffffffffffffff168173ffffffffffffffffffffffffffffffffffffffff16146122ca578382826040517f64283d7b0000000000000000000000000000000000000000000000000000000081526004016122c193929190613c3f565b60405180910390fd5b50505050565b60606122db82611b61565b505f60065f8481526020019081526020015f2080546122f990613ace565b80601f016020809104026020016040519081016040528092919081815260200182805461232590613ace565b80156123705780601f1061234757610100808354040283529160200191612370565b820191905f5260205f20905b81548152906001019060200180831161235357829003601f168201915b505050505090505f612380612802565b90505f8151036123945781925050506123d6565b5f825111156123c85780826040516020016123b09291906140d8565b604051602081830303815290604052925050506123d6565b6123d184612818565b925050505b919050565b6001815f015f828254019250508190555050565b612408828260405180602001604052805f81525061287e565b5050565b8060065f8481526020019081526020015f20908161242a9190613e11565b507ff8e1a15aba9398e019f0b49df1a4fde98ee17ae345cb5f6b5e2c27f5033e8ce78260405161245a919061372d565b60405180910390a15050565b5f7f80ac58cd000000000000000000000000000000000000000000000000000000007bffffffffffffffffffffffffffffffffffffffffffffffffffffffff1916827bffffffffffffffffffffffffffffffffffffffffffffffffffffffff1916148061253057507f5b5e139f000000000000000000000000000000000000000000000000000000007bffffffffffffffffffffffffffffffffffffffffffffffffffffffff1916827bffffffffffffffffffffffffffffffffffffffffffffffffffffffff1916145b80612540575061253f82612899565b5b9050919050565b5f60025f8381526020019081526020015f205f9054906101000a900473ffffffffffffffffffffffffffffffffffffffff169050919050565b80806125b857505f73ffffffffffffffffffffffffffffffffffffffff168273ffffffffffffffffffffffffffffffffffffffff1614155b156126ea575f6125c784611b61565b90505f73ffffffffffffffffffffffffffffffffffffffff168373ffffffffffffffffffffffffffffffffffffffff161415801561263157508273ffffffffffffffffffffffffffffffffffffffff168173ffffffffffffffffffffffffffffffffffffffff1614155b8015612644575061264281846119bf565b155b1561268657826040517fa9fbf51f00000000000000000000000000000000000000000000000000000000815260040161267d91906130e5565b60405180910390fd5b81156126e857838573ffffffffffffffffffffffffffffffffffffffff168273ffffffffffffffffffffffffffffffffffffffff167f8c5be1e5ebec7d5bd14f71427d1e84f3dd0314c0f7b2291e5b200ac8c7c3b92560405160405180910390a45b505b8360045f8581526020019081526020015f205f6101000a81548173ffffffffffffffffffffffffffffffffffffffff021916908373ffffffffffffffffffffffffffffffffffffffff16021790555050505050565b61274a838383612902565b6127fd575f73ffffffffffffffffffffffffffffffffffffffff168373ffffffffffffffffffffffffffffffffffffffff16036127be57806040517f7e2732890000000000000000000000000000000000000000000000000000000081526004016127b5919061372d565b60405180910390fd5b81816040517f177e802f0000000000000000000000000000000000000000000000000000000081526004016127f49291906140fb565b60405180910390fd5b505050565b606060405180602001604052805f815250905090565b606061282382611b61565b505f61282d612802565b90505f81511161284b5760405180602001604052805f815250612876565b80612855846129c2565b6040516020016128669291906140d8565b6040516020818303038152906040525b915050919050565b6128888383612a8c565b6128945f848484612b7f565b505050565b5f7f01ffc9a7000000000000000000000000000000000000000000000000000000007bffffffffffffffffffffffffffffffffffffffffffffffffffffffff1916827bffffffffffffffffffffffffffffffffffffffffffffffffffffffff1916149050919050565b5f8073ffffffffffffffffffffffffffffffffffffffff168373ffffffffffffffffffffffffffffffffffffffff16141580156129b957508273ffffffffffffffffffffffffffffffffffffffff168473ffffffffffffffffffffffffffffffffffffffff16148061297a575061297984846119bf565b5b806129b857508273ffffffffffffffffffffffffffffffffffffffff166129a083611be7565b73ffffffffffffffffffffffffffffffffffffffff16145b5b90509392505050565b60605f60016129d084612d31565b0190505f8167ffffffffffffffff8111156129ee576129ed6133ab565b5b6040519080825280601f01601f191660200182016040528015612a205781602001600182028036833780820191505090505b5090505f82602001820190505b600115612a81578080600190039150507f3031323334353637383961626364656600000000000000000000000000000000600a86061a8153600a8581612a7657612a75614122565b5b0494505f8503612a2d575b819350505050919050565b5f73ffffffffffffffffffffffffffffffffffffffff168273ffffffffffffffffffffffffffffffffffffffff1603612afc575f6040517f64a0ae92000000000000000000000000000000000000000000000000000000008152600401612af391906130e5565b60405180910390fd5b5f612b0883835f611caa565b90505f73ffffffffffffffffffffffffffffffffffffffff168173ffffffffffffffffffffffffffffffffffffffff1614612b7a575f6040517f73c6ac6e000000000000000000000000000000000000000000000000000000008152600401612b7191906130e5565b60405180910390fd5b505050565b5f8373ffffffffffffffffffffffffffffffffffffffff163b1115612d2b578273ffffffffffffffffffffffffffffffffffffffff1663150b7a02612bc2611c20565b8685856040518563ffffffff1660e01b8152600401612be494939291906141a1565b6020604051808303815f875af1925050508015612c1f57506040513d601f19601f82011682018060405250810190612c1c91906141ff565b60015b612ca0573d805f8114612c4d576040519150601f19603f3d011682016040523d82523d5f602084013e612c52565b606091505b505f815103612c9857836040517f64a0ae92000000000000000000000000000000000000000000000000000000008152600401612c8f91906130e5565b60405180910390fd5b805181602001fd5b63150b7a0260e01b7bffffffffffffffffffffffffffffffffffffffffffffffffffffffff1916817bffffffffffffffffffffffffffffffffffffffffffffffffffffffff191614612d2957836040517f64a0ae92000000000000000000000000000000000000000000000000000000008152600401612d2091906130e5565b60405180910390fd5b505b50505050565b5f805f90507a184f03e93ff9f4daa797ed6e38ed64bf6a1f0100000000000000008310612d8d577a184f03e93ff9f4daa797ed6e38ed64bf6a1f0100000000000000008381612d8357612d82614122565b5b0492506040810190505b6d04ee2d6d415b85acef81000000008310612dca576d04ee2d6d415b85acef81000000008381612dc057612dbf614122565b5b0492506020810190505b662386f26fc100008310612df957662386f26fc100008381612def57612dee614122565b5b0492506010810190505b6305f5e1008310612e22576305f5e1008381612e1857612e17614122565b5b0492506008810190505b6127108310612e47576127108381612e3d57612e3c614122565b5b0492506004810190505b60648310612e6a5760648381612e6057612e5f614122565b5b0492506002810190505b600a8310612e79576001810190505b80915050919050565b6040518061010001604052805f815260200160608152602001606081526020016060815260200160608152602001606081526020015f81526020015f73ffffffffffffffffffffffffffffffffffffffff1681525090565b5f604051905090565b5f80fd5b5f80fd5b5f7fffffffff0000000000000000000000000000000000000000000000000000000082169050919050565b612f1f81612eeb565b8114612f29575f80fd5b50565b5f81359050612f3a81612f16565b92915050565b5f60208284031215612f5557612f54612ee3565b5b5f612f6284828501612f2c565b91505092915050565b5f8115159050919050565b612f7f81612f6b565b82525050565b5f602082019050612f985f830184612f76565b92915050565b5f81519050919050565b5f82825260208201905092915050565b5f5b83811015612fd5578082015181840152602081019050612fba565b5f8484015250505050565b5f601f19601f8301169050919050565b5f612ffa82612f9e565b6130048185612fa8565b9350613014818560208601612fb8565b61301d81612fe0565b840191505092915050565b5f6020820190508181035f8301526130408184612ff0565b905092915050565b5f819050919050565b61305a81613048565b8114613064575f80fd5b50565b5f8135905061307581613051565b92915050565b5f602082840312156130905761308f612ee3565b5b5f61309d84828501613067565b91505092915050565b5f73ffffffffffffffffffffffffffffffffffffffff82169050919050565b5f6130cf826130a6565b9050919050565b6130df816130c5565b82525050565b5f6020820190506130f85f8301846130d6565b92915050565b613107816130c5565b8114613111575f80fd5b50565b5f81359050613122816130fe565b92915050565b5f806040838503121561313e5761313d612ee3565b5b5f61314b85828601613114565b925050602061315c85828601613067565b9150509250929050565b5f81519050919050565b5f82825260208201905092915050565b5f819050602082019050919050565b61319881613048565b82525050565b5f82825260208201905092915050565b5f6131b882612f9e565b6131c2818561319e565b93506131d2818560208601612fb8565b6131db81612fe0565b840191505092915050565b6131ef816130c5565b82525050565b5f61010083015f83015161320b5f86018261318f565b506020830151848203602086015261322382826131ae565b9150506040830151848203604086015261323d82826131ae565b9150506060830151848203606086015261325782826131ae565b9150506080830151848203608086015261327182826131ae565b91505060a083015184820360a086015261328b82826131ae565b91505060c08301516132a060c086018261318f565b5060e08301516132b360e08601826131e6565b508091505092915050565b5f6132c983836131f5565b905092915050565b5f602082019050919050565b5f6132e782613166565b6132f18185613170565b93508360208202850161330385613180565b805f5b8581101561333e578484038952815161331f85826132be565b945061332a836132d1565b925060208a01995050600181019050613306565b50829750879550505050505092915050565b5f6020820190508181035f83015261336881846132dd565b905092915050565b5f819050919050565b61338281613370565b811461338c575f80fd5b50565b5f8135905061339d81613379565b92915050565b5f80fd5b5f80fd5b7f4e487b71000000000000000000000000000000000000000000000000000000005f52604160045260245ffd5b6133e182612fe0565b810181811067ffffffffffffffff82111715613400576133ff6133ab565b5b80604052505050565b5f613412612eda565b905061341e82826133d8565b919050565b5f67ffffffffffffffff82111561343d5761343c6133ab565b5b61344682612fe0565b9050602081019050919050565b828183375f83830152505050565b5f61347361346e84613423565b613409565b90508281526020810184848401111561348f5761348e6133a7565b5b61349a848285613453565b509392505050565b5f82601f8301126134b6576134b56133a3565b5b81356134c6848260208601613461565b91505092915050565b5f80604083850312156134e5576134e4612ee3565b5b5f6134f28582860161338f565b925050602083013567ffffffffffffffff81111561351357613512612ee7565b5b61351f858286016134a2565b9150509250929050565b5f805f606084860312156135405761353f612ee3565b5b5f61354d86828701613114565b935050602061355e86828701613114565b925050604061356f86828701613067565b9150509250925092565b5f6020828403121561358e5761358d612ee3565b5b5f61359b84828501613114565b91505092915050565b5f81519050919050565b5f82825260208201905092915050565b5f819050602082019050919050565b5f6135d883836131ae565b905092915050565b5f602082019050919050565b5f6135f6826135a4565b61360081856135ae565b935083602082028501613612856135be565b805f5b8581101561364d578484038952815161362e85826135cd565b9450613639836135e0565b925060208a01995050600181019050613615565b50829750879550505050505092915050565b5f6020820190508181035f83015261367781846135ec565b905092915050565b61368881613048565b82525050565b5f610100820190506136a25f83018b61367f565b81810360208301526136b4818a612ff0565b905081810360408301526136c88189612ff0565b905081810360608301526136dc8188612ff0565b905081810360808301526136f08187612ff0565b905081810360a08301526137048186612ff0565b905061371360c083018561367f565b61372060e08301846130d6565b9998505050505050505050565b5f6020820190506137405f83018461367f565b92915050565b5f67ffffffffffffffff8211156137605761375f6133ab565b5b61376982612fe0565b9050602081019050919050565b5f61378861378384613746565b613409565b9050828152602081018484840111156137a4576137a36133a7565b5b6137af848285613453565b509392505050565b5f82601f8301126137cb576137ca6133a3565b5b81356137db848260208601613776565b91505092915050565b5f80604083850312156137fa576137f9612ee3565b5b5f61380785828601613114565b925050602083013567ffffffffffffffff81111561382857613827612ee7565b5b613834858286016137b7565b9150509250929050565b61384781612f6b565b8114613851575f80fd5b50565b5f813590506138628161383e565b92915050565b5f806040838503121561387e5761387d612ee3565b5b5f61388b85828601613114565b925050602061389c85828601613854565b9150509250929050565b5f805f80608085870312156138be576138bd612ee3565b5b5f6138cb87828801613114565b94505060206138dc87828801613114565b93505060406138ed87828801613067565b925050606085013567ffffffffffffffff81111561390e5761390d612ee7565b5b61391a878288016134a2565b91505092959194509250565b5f6020828403121561393b5761393a612ee3565b5b5f82013567ffffffffffffffff81111561395857613957612ee7565b5b613964848285016137b7565b91505092915050565b5f81519050919050565b5f82825260208201905092915050565b5f819050602082019050919050565b5f6139a183836131e6565b60208301905092915050565b5f602082019050919050565b5f6139c38261396d565b6139cd8185613977565b93506139d883613987565b805f5b83811015613a085781516139ef8882613996565b97506139fa836139ad565b9250506001810190506139db565b5085935050505092915050565b5f6020820190508181035f830152613a2d81846139b9565b905092915050565b5f604082019050613a485f830185612f76565b8181036020830152613a5a8184612ff0565b90509392505050565b5f8060408385031215613a7957613a78612ee3565b5b5f613a8685828601613114565b9250506020613a9785828601613114565b9150509250929050565b7f4e487b71000000000000000000000000000000000000000000000000000000005f52602260045260245ffd5b5f6002820490506001821680613ae557607f821691505b602082108103613af857613af7613aa1565b5b50919050565b7f4e487b71000000000000000000000000000000000000000000000000000000005f52601160045260245ffd5b5f613b3582613048565b9150613b4083613048565b9250828201905080821115613b5857613b57613afe565b5b92915050565b5f613b6882613048565b91507fffffffffffffffffffffffffffffffffffffffffffffffffffffffffffffffff8203613b9a57613b99613afe565b5b600182019050919050565b7f4e487b71000000000000000000000000000000000000000000000000000000005f52603260045260245ffd5b613bdb81613370565b82525050565b5f60ff82169050919050565b613bf681613be1565b82525050565b5f608082019050613c0f5f830187613bd2565b613c1c6020830186613bed565b613c296040830185613bd2565b613c366060830184613bd2565b95945050505050565b5f606082019050613c525f8301866130d6565b613c5f602083018561367f565b613c6c60408301846130d6565b949350505050565b5f819050815f5260205f209050919050565b5f6020601f8301049050919050565b5f82821b905092915050565b5f60088302613cd07fffffffffffffffffffffffffffffffffffffffffffffffffffffffffffffffff82613c95565b613cda8683613c95565b95508019841693508086168417925050509392505050565b5f819050919050565b5f613d15613d10613d0b84613048565b613cf2565b613048565b9050919050565b5f819050919050565b613d2e83613cfb565b613d42613d3a82613d1c565b848454613ca1565b825550505050565b5f90565b613d56613d4a565b613d61818484613d25565b505050565b5b81811015613d8457613d795f82613d4e565b600181019050613d67565b5050565b601f821115613dc957613d9a81613c74565b613da384613c86565b81016020851015613db2578190505b613dc6613dbe85613c86565b830182613d66565b50505b505050565b5f82821c905092915050565b5f613de95f1984600802613dce565b1980831691505092915050565b5f613e018383613dda565b9150826002028217905092915050565b613e1a82612f9e565b67ffffffffffffffff811115613e3357613e326133ab565b5b613e3d8254613ace565b613e48828285613d88565b5f60209050601f831160018114613e79575f8415613e67578287015190505b613e718582613df6565b865550613ed8565b601f198416613e8786613c74565b5f5b82811015613eae57848901518255600182019150602085019450602081019050613e89565b86831015613ecb5784890151613ec7601f891682613dda565b8355505b6001600288020188555050505b505050505050565b5f81905092915050565b5f613ef482612f9e565b613efe8185613ee0565b9350613f0e818560208601612fb8565b80840191505092915050565b5f613f258284613eea565b915081905092915050565b7f4f776e65722063616e6e6f74207472616e73666572207468697320746f6b656e5f8201527f2e00000000000000000000000000000000000000000000000000000000000000602082015250565b5f613f8a602183612fa8565b9150613f9582613f30565b604082019050919050565b5f6020820190508181035f830152613fb781613f7e565b9050919050565b5f81905092915050565b5f819050815f5260205f209050919050565b5f8154613fe681613ace565b613ff08186613fbe565b9450600182165f811461400a576001811461401f57614051565b60ff1983168652811515820286019350614051565b61402885613fc8565b5f5b838110156140495781548189015260018201915060208101905061402a565b838801955050505b50505092915050565b5f6140658284613fda565b915081905092915050565b7f696e76616c6964207369676e6174757265206c656e67746800000000000000005f82015250565b5f6140a4601883612fa8565b91506140af82614070565b602082019050919050565b5f6020820190508181035f8301526140d181614098565b9050919050565b5f6140e38285613eea565b91506140ef8284613eea565b91508190509392505050565b5f60408201905061410e5f8301856130d6565b61411b602083018461367f565b9392505050565b7f4e487b71000000000000000000000000000000000000000000000000000000005f52601260045260245ffd5b5f81519050919050565b5f82825260208201905092915050565b5f6141738261414f565b61417d8185614159565b935061418d818560208601612fb8565b61419681612fe0565b840191505092915050565b5f6080820190506141b45f8301876130d6565b6141c160208301866130d6565b6141ce604083018561367f565b81810360608301526141e08184614169565b905095945050505050565b5f815190506141f981612f16565b92915050565b5f6020828403121561421457614213612ee3565b5b5f614221848285016141eb565b9150509291505056fea26469706673582212204f535b2946a07e4fa8a244b0d880cd79f5649b21a7408a67f3975c4c0eb7b42664736f6c63430008180033",
  "linkReferences": {},
  "deployedLinkReferences": {}
}