{
  "_format": "hh-sol-artifact-1",
  "contractName": "SoulboundToken",
  "sourceName": "contracts/SoulboundToken.sol",
  "abi": [
    {
      "inputs": [],
      "stateMutability": "nonpayable",
      "type": "constructor"
    },
    {
      "inputs": [
        {
          "internalType": "address",
          "name": "sender",
          "type": "address"
        },
        {
          "internalType": "uint256",
          "name": "tokenId",
          "type": "uint256"
        },
        {
          "internalType": "address",
          "name": "owner",
          "type": "address"
        }
      ],
      "name": "ERC721IncorrectOwner",
      "type": "error"
    },
    {
      "inputs": [
        {
          "internalType": "address",
          "name": "operator",
          "type": "address"
        },
        {
          "internalType": "uint256",
          "name": "tokenId",
          "type": "uint256"
        }
      ],
      "name": "ERC721InsufficientApproval",
      "type": "error"
    },
    {
      "inputs": [
        {
          "internalType": "address",
          "name": "approver",
          "type": "address"
        }
      ],
      "name": "ERC721InvalidApprover",
      "type": "error"
    },
    {
      "inputs": [
        {
          "internalType": "address",
          "name": "operator",
          "type": "address"
        }
      ],
      "name": "ERC721InvalidOperator",
      "type": "error"
    },
    {
      "inputs": [
        {
          "internalType": "address",
          "name": "owner",
          "type": "address"
        }
      ],
      "name": "ERC721InvalidOwner",
      "type": "error"
    },
    {
      "inputs": [
        {
          "internalType": "address",
          "name": "receiver",
          "type": "address"
        }
      ],
      "name": "ERC721InvalidReceiver",
      "type": "error"
    },
    {
      "inputs": [
        {
          "internalType": "address",
          "name": "sender",
          "type": "address"
        }
      ],
      "name": "ERC721InvalidSender",
      "type": "error"
    },
    {
      "inputs": [
        {
          "internalType": "uint256",
          "name": "tokenId",
          "type": "uint256"
        }
      ],
      "name": "ERC721NonexistentToken",
      "type": "error"
    },
    {
      "inputs": [
        {
          "internalType": "address",
          "name": "owner",
          "type": "address"
        }
      ],
      "name": "OwnableInvalidOwner",
      "type": "error"
    },
    {
      "inputs": [
        {
          "internalType": "address",
          "name": "account",
          "type": "address"
        }
      ],
      "name": "OwnableUnauthorizedAccount",
      "type": "error"
    },
    {
      "anonymous": false,
      "inputs": [
        {
          "indexed": true,
          "internalType": "address",
          "name": "owner",
          "type": "address"
        },
        {
          "indexed": true,
          "internalType": "address",
          "name": "approved",
          "type": "address"
        },
        {
          "indexed": true,
          "internalType": "uint256",
          "name": "tokenId",
          "type": "uint256"
        }
      ],
      "name": "Approval",
      "type": "event"
    },
    {
      "anonymous": false,
      "inputs": [
        {
          "indexed": true,
          "internalType": "address",
          "name": "owner",
          "type": "address"
        },
        {
          "indexed": true,
          "internalType": "address",
          "name": "operator",
          "type": "address"
        },
        {
          "indexed": false,
          "internalType": "bool",
          "name": "approved",
          "type": "bool"
        }
      ],
      "name": "ApprovalForAll",
      "type": "event"
    },
    {
      "anonymous": false,
      "inputs": [
        {
          "indexed": false,
          "internalType": "uint256",
          "name": "_fromTokenId",
          "type": "uint256"
        },
        {
          "indexed": false,
          "internalType": "uint256",
          "name": "_toTokenId",
          "type": "uint256"
        }
      ],
      "name": "BatchMetadataUpdate",
      "type": "event"
    },
    {
      "anonymous": false,
      "inputs": [
        {
          "indexed": false,
          "internalType": "uint256",
          "name": "_tokenId",
          "type": "uint256"
        }
      ],
      "name": "MetadataUpdate",
      "type": "event"
    },
    {
      "anonymous": false,
      "inputs": [
        {
          "indexed": true,
          "internalType": "address",
          "name": "previousOwner",
          "type": "address"
        },
        {
          "indexed": true,
          "internalType": "address",
          "name": "newOwner",
          "type": "address"
        }
      ],
      "name": "OwnershipTransferred",
      "type": "event"
    },
    {
      "anonymous": false,
      "inputs": [
        {
          "indexed": true,
          "internalType": "address",
          "name": "from",
          "type": "address"
        },
        {
          "indexed": true,
          "internalType": "address",
          "name": "to",
          "type": "address"
        },
        {
          "indexed": true,
          "internalType": "uint256",
          "name": "tokenId",
          "type": "uint256"
        }
      ],
      "name": "Transfer",
      "type": "event"
    },
    {
      "inputs": [
        {
          "internalType": "address",
          "name": "verifier",
          "type": "address"
        },
        {
          "internalType": "string",
          "name": "organizationCode",
          "type": "string"
        }
      ],
      "name": "addVerifier",
      "outputs": [],
      "stateMutability": "nonpayable",
      "type": "function"
    },
    {
      "inputs": [
        {
          "internalType": "address",
          "name": "to",
          "type": "address"
        },
        {
          "internalType": "uint256",
          "name": "tokenId",
          "type": "uint256"
        }
      ],
      "name": "approve",
      "outputs": [],
      "stateMutability": "nonpayable",
      "type": "function"
    },
    {
      "inputs": [
        {
          "internalType": "address",
          "name": "owner",
          "type": "address"
        }
      ],
      "name": "balanceOf",
      "outputs": [
        {
          "internalType": "uint256",
          "name": "",
          "type": "uint256"
        }
      ],
      "stateMutability": "view",
      "type": "function"
    },
    {
      "inputs": [
        {
          "internalType": "uint256",
          "name": "tokenId",
          "type": "uint256"
        }
      ],
      "name": "getApproved",
      "outputs": [
        {
          "internalType": "address",
          "name": "",
          "type": "address"
        }
      ],
      "stateMutability": "view",
      "type": "function"
    },
    {
      "inputs": [],
      "name": "getMySBTs",
      "outputs": [
        {
          "components": [
            {
              "internalType": "uint256",
              "name": "sBTId",
              "type": "uint256"
            },
            {
              "internalType": "string",
              "name": "fullName",
              "type": "string"
            },
            {
              "internalType": "string",
              "name": "certificateHash",
              "type": "string"
            },
            {
              "internalType": "string",
              "name": "citizenID",
              "type": "string"
            },
            {
              "internalType": "string",
              "name": "hometown",
              "type": "string"
            },
            {
              "internalType": "string",
              "name": "nationality",
              "type": "string"
            },
            {
              "internalType": "uint256",
              "name": "birthDate",
              "type": "uint256"
            },
            {
              "internalType": "address",
              "name": "ownerAddress",
              "type": "address"
            }
          ],
          "internalType": "struct SoulboundToken.SBTInfo[]",
          "name": "",
          "type": "tuple[]"
        }
      ],
      "stateMutability": "view",
      "type": "function"
    },
    {
      "inputs": [
        {
          "internalType": "address",
          "name": "addr",
          "type": "address"
        }
      ],
      "name": "getOrganizationCode",
      "outputs": [
        {
          "internalType": "string",
          "name": "",
          "type": "string"
        }
      ],
      "stateMutability": "view",
      "type": "function"
    },
    {
      "inputs": [],
      "name": "getOrganizationCodes",
      "outputs": [
        {
          "internalType": "string[]",
          "name": "",
          "type": "string[]"
        }
      ],
      "stateMutability": "view",
      "type": "function"
    },
    {
      "inputs": [
        {
          "internalType": "string",
          "name": "targetOrganizationCode",
          "type": "string"
        }
      ],
      "name": "getVerifiersByOrganizationCode",
      "outputs": [
        {
          "internalType": "address[]",
          "name": "",
          "type": "address[]"
        }
      ],
      "stateMutability": "view",
      "type": "function"
    },
    {
      "inputs": [
        {
          "internalType": "uint256",
          "name": "",
          "type": "uint256"
        }
      ],
      "name": "idToSBT",
      "outputs": [
        {
          "internalType": "uint256",
          "name": "sBTId",
          "type": "uint256"
        },
        {
          "internalType": "string",
          "name": "fullName",
          "type": "string"
        },
        {
          "internalType": "string",
          "name": "certificateHash",
          "type": "string"
        },
        {
          "internalType": "string",
          "name": "citizenID",
          "type": "string"
        },
        {
          "internalType": "string",
          "name": "hometown",
          "type": "string"
        },
        {
          "internalType": "string",
          "name": "nationality",
          "type": "string"
        },
        {
          "internalType": "uint256",
          "name": "birthDate",
          "type": "uint256"
        },
        {
          "internalType": "address",
          "name": "ownerAddress",
          "type": "address"
        }
      ],
      "stateMutability": "view",
      "type": "function"
    },
    {
      "inputs": [
        {
          "internalType": "address",
          "name": "owner",
          "type": "address"
        },
        {
          "internalType": "address",
          "name": "operator",
          "type": "address"
        }
      ],
      "name": "isApprovedForAll",
      "outputs": [
        {
          "internalType": "bool",
          "name": "",
          "type": "bool"
        }
      ],
      "stateMutability": "view",
      "type": "function"
    },
    {
      "inputs": [
        {
          "internalType": "address",
          "name": "addr",
          "type": "address"
        }
      ],
      "name": "isVerifier",
      "outputs": [
        {
          "internalType": "bool",
          "name": "",
          "type": "bool"
        }
      ],
      "stateMutability": "view",
      "type": "function"
    },
    {
      "inputs": [
        {
          "internalType": "address",
          "name": "recipient",
          "type": "address"
        },
        {
          "internalType": "string",
          "name": "tokenURI",
          "type": "string"
        }
      ],
      "name": "mintSBTForAddress",
      "outputs": [],
      "stateMutability": "nonpayable",
      "type": "function"
    },
    {
      "inputs": [],
      "name": "name",
      "outputs": [
        {
          "internalType": "string",
          "name": "",
          "type": "string"
        }
      ],
      "stateMutability": "view",
      "type": "function"
    },
    {
      "inputs": [],
      "name": "owner",
      "outputs": [
        {
          "internalType": "address",
          "name": "",
          "type": "address"
        }
      ],
      "stateMutability": "view",
      "type": "function"
    },
    {
      "inputs": [
        {
          "internalType": "uint256",
          "name": "tokenId",
          "type": "uint256"
        }
      ],
      "name": "ownerOf",
      "outputs": [
        {
          "internalType": "address",
          "name": "",
          "type": "address"
        }
      ],
      "stateMutability": "view",
      "type": "function"
    },
    {
      "inputs": [
        {
          "internalType": "bytes32",
          "name": "_ethSignedMessageHash",
          "type": "bytes32"
        },
        {
          "internalType": "bytes",
          "name": "_sig",
          "type": "bytes"
        }
      ],
      "name": "recover",
      "outputs": [
        {
          "internalType": "address",
          "name": "",
          "type": "address"
        }
      ],
      "stateMutability": "pure",
      "type": "function"
    },
    {
      "inputs": [],
      "name": "renounceOwnership",
      "outputs": [],
      "stateMutability": "nonpayable",
      "type": "function"
    },
    {
      "inputs": [
        {
          "internalType": "address",
          "name": "from",
          "type": "address"
        },
        {
          "internalType": "address",
          "name": "to",
          "type": "address"
        },
        {
          "internalType": "uint256",
          "name": "tokenId",
          "type": "uint256"
        }
      ],
      "name": "safeTransferFrom",
      "outputs": [],
      "stateMutability": "nonpayable",
      "type": "function"
    },
    {
      "inputs": [
        {
          "internalType": "address",
          "name": "from",
          "type": "address"
        },
        {
          "internalType": "address",
          "name": "to",
          "type": "address"
        },
        {
          "internalType": "uint256",
          "name": "tokenId",
          "type": "uint256"
        },
        {
          "internalType": "bytes",
          "name": "data",
          "type": "bytes"
        }
      ],
      "name": "safeTransferFrom",
      "outputs": [],
      "stateMutability": "nonpayable",
      "type": "function"
    },
    {
      "inputs": [
        {
          "internalType": "address",
          "name": "from",
          "type": "address"
        },
        {
          "internalType": "address",
          "name": "to",
          "type": "address"
        },
        {
          "internalType": "uint256",
          "name": "tokenId",
          "type": "uint256"
        }
      ],
      "name": "safeTransferSBTFrom",
      "outputs": [],
      "stateMutability": "nonpayable",
      "type": "function"
    },
    {
      "inputs": [
        {
          "internalType": "address",
          "name": "operator",
          "type": "address"
        },
        {
          "internalType": "bool",
          "name": "approved",
          "type": "bool"
        }
      ],
      "name": "setApprovalForAll",
      "outputs": [],
      "stateMutability": "nonpayable",
      "type": "function"
    },
    {
      "inputs": [
        {
          "internalType": "bytes4",
          "name": "interfaceId",
          "type": "bytes4"
        }
      ],
      "name": "supportsInterface",
      "outputs": [
        {
          "internalType": "bool",
          "name": "",
          "type": "bool"
        }
      ],
      "stateMutability": "view",
      "type": "function"
    },
    {
      "inputs": [],
      "name": "symbol",
      "outputs": [
        {
          "internalType": "string",
          "name": "",
          "type": "string"
        }
      ],
      "stateMutability": "view",
      "type": "function"
    },
    {
      "inputs": [
        {
          "internalType": "uint256",
          "name": "tokenId",
          "type": "uint256"
        }
      ],
      "name": "tokenURI",
      "outputs": [
        {
          "internalType": "string",
          "name": "",
          "type": "string"
        }
      ],
      "stateMutability": "view",
      "type": "function"
    },
    {
      "inputs": [
        {
          "internalType": "address",
          "name": "to",
          "type": "address"
        },
        {
          "internalType": "uint256",
          "name": "tokenId",
          "type": "uint256"
        }
      ],
      "name": "transfer",
      "outputs": [],
      "stateMutability": "nonpayable",
      "type": "function"
    },
    {
      "inputs": [
        {
          "internalType": "address",
          "name": "from",
          "type": "address"
        },
        {
          "internalType": "address",
          "name": "to",
          "type": "address"
        },
        {
          "internalType": "uint256",
          "name": "tokenId",
          "type": "uint256"
        }
      ],
      "name": "transferFrom",
      "outputs": [],
      "stateMutability": "nonpayable",
      "type": "function"
    },
    {
      "inputs": [
        {
          "internalType": "address",
          "name": "newOwner",
          "type": "address"
        }
      ],
      "name": "transferOwnership",
      "outputs": [],
      "stateMutability": "nonpayable",
      "type": "function"
    },
    {
      "inputs": [
        {
          "internalType": "uint256",
          "name": "",
          "type": "uint256"
        }
      ],
      "name": "verifierAddresses",
      "outputs": [
        {
          "internalType": "address",
          "name": "",
          "type": "address"
        }
      ],
      "stateMutability": "view",
      "type": "function"
    },
    {
      "inputs": [
        {
          "internalType": "address",
          "name": "",
          "type": "address"
        }
      ],
      "name": "verifierList",
      "outputs": [
        {
          "internalType": "bool",
          "name": "isVerifier",
          "type": "bool"
        },
        {
          "internalType": "string",
          "name": "organizationCode",
          "type": "string"
        }
      ],
      "stateMutability": "view",
      "type": "function"
    }
  ],
  "bytecode": "0x608060405234801562000010575f80fd5b50336040518060400160405280600e81526020017f536f756c626f756e64546f6b656e0000000000000000000000000000000000008152506040518060400160405280600381526020017f5342540000000000000000000000000000000000000000000000000000000000815250815f90816200008e919062000455565b508060019081620000a0919062000455565b5050505f73ffffffffffffffffffffffffffffffffffffffff168173ffffffffffffffffffffffffffffffffffffffff160362000116575f6040517f1e4fbdf70000000000000000000000000000000000000000000000000000000081526004016200010d91906200057c565b60405180910390fd5b62000127816200012e60201b60201c565b5062000597565b5f60075f9054906101000a900473ffffffffffffffffffffffffffffffffffffffff1690508160075f6101000a81548173ffffffffffffffffffffffffffffffffffffffff021916908373ffffffffffffffffffffffffffffffffffffffff1602179055508173ffffffffffffffffffffffffffffffffffffffff168173ffffffffffffffffffffffffffffffffffffffff167f8be0079c531659141344cd1fd0a4f28419497f9722a3daafe3b4186f6b6457e060405160405180910390a35050565b5f81519050919050565b7f4e487b71000000000000000000000000000000000000000000000000000000005f52604160045260245ffd5b7f4e487b71000000000000000000000000000000000000000000000000000000005f52602260045260245ffd5b5f60028204905060018216806200026d57607f821691505b60208210810362000283576200028262000228565b5b50919050565b5f819050815f5260205f209050919050565b5f6020601f8301049050919050565b5f82821b905092915050565b5f60088302620002e77fffffffffffffffffffffffffffffffffffffffffffffffffffffffffffffffff82620002aa565b620002f38683620002aa565b95508019841693508086168417925050509392505050565b5f819050919050565b5f819050919050565b5f6200033d6200033762000331846200030b565b62000314565b6200030b565b9050919050565b5f819050919050565b62000358836200031d565b62000370620003678262000344565b848454620002b6565b825550505050565b5f90565b6200038662000378565b620003938184846200034d565b505050565b5b81811015620003ba57620003ae5f826200037c565b60018101905062000399565b5050565b601f8211156200040957620003d38162000289565b620003de846200029b565b81016020851015620003ee578190505b62000406620003fd856200029b565b83018262000398565b50505b505050565b5f82821c905092915050565b5f6200042b5f19846008026200040e565b1980831691505092915050565b5f6200044583836200041a565b9150826002028217905092915050565b6200046082620001f1565b67ffffffffffffffff8111156200047c576200047b620001fb565b5b62000488825462000255565b62000495828285620003be565b5f60209050601f831160018114620004cb575f8415620004b6578287015190505b620004c2858262000438565b86555062000531565b601f198416620004db8662000289565b5f5b828110156200050457848901518255600182019150602085019450602081019050620004dd565b8683101562000524578489015162000520601f8916826200041a565b8355505b6001600288020188555050505b505050505050565b5f73ffffffffffffffffffffffffffffffffffffffff82169050919050565b5f620005648262000539565b9050919050565b620005768162000558565b82525050565b5f602082019050620005915f8301846200056b565b92915050565b6143c280620005a55f395ff3fe608060405234801561000f575f80fd5b50600436106101cd575f3560e01c806370a0823111610102578063b88d4fde116100a0578063d5c48a311161006f578063d5c48a3114610568578063e985e9c514610599578063f2fde38b146105c9578063fc3949eb146105e5576101cd565b8063b88d4fde146104d0578063c368572f146104ec578063c87b56dd1461051c578063cf83c9aa1461054c576101cd565b80638da5cb5b116100dc5780638da5cb5b1461045c57806395d89b411461047a578063a22cb46514610498578063a9059cbb146104b4576101cd565b806370a0823114610406578063715018a6146104365780637340792a14610440576101cd565b8063331052181161016f57806342842e0e1161014957806342842e0e1461035a5780636352211e14610376578063657ad668146103a65780636de05398146103d6576101cd565b806333105218146102d5578063355d39981461030557806337520e7814610323576101cd565b8063095ea7b3116101ab578063095ea7b31461024f5780630f003ff71461026b57806319045a251461028957806323b872dd146102b9576101cd565b806301ffc9a7146101d157806306fdde0314610201578063081812fc1461021f575b5f80fd5b6101eb60048036038101906101e6919061303a565b610601565b6040516101f8919061307f565b60405180910390f35b610209610612565b6040516102169190613122565b60405180910390f35b61023960048036038101906102349190613175565b6106a1565b60405161024691906131df565b60405180910390f35b61026960048036038101906102649190613222565b6106bc565b005b6102736106d2565b604051610280919061344a565b60405180910390f35b6102a3600480360381019061029e91906135c9565b610be5565b6040516102b091906131df565b60405180910390f35b6102d360048036038101906102ce9190613623565b610c4f565b005b6102ef60048036038101906102ea9190613673565b610d4e565b6040516102fc919061307f565b60405180910390f35b61030d610da2565b60405161031a9190613759565b60405180910390f35b61033d60048036038101906103389190613175565b610e76565b604051610351989796959493929190613788565b60405180910390f35b610374600480360381019061036f9190613623565b611177565b005b610390600480360381019061038b9190613175565b611196565b60405161039d91906131df565b60405180910390f35b6103c060048036038101906103bb9190613673565b6111a7565b6040516103cd9190613122565b60405180910390f35b6103f060048036038101906103eb9190613175565b611277565b6040516103fd91906131df565b60405180910390f35b610420600480360381019061041b9190613673565b6112b2565b60405161042d9190613827565b60405180910390f35b61043e611368565b005b61045a600480360381019061045591906138de565b61137b565b005b610464611502565b60405161047191906131df565b60405180910390f35b61048261152a565b60405161048f9190613122565b60405180910390f35b6104b260048036038101906104ad9190613962565b6115ba565b005b6104ce60048036038101906104c99190613222565b6115d0565b005b6104ea60048036038101906104e591906139a0565b611655565b005b61050660048036038101906105019190613a20565b611672565b6040516105139190613b0f565b60405180910390f35b61053660048036038101906105319190613175565b6118b8565b6040516105439190613122565b60405180910390f35b61056660048036038101906105619190613623565b6118ca565b005b610582600480360381019061057d9190613673565b61195f565b604051610590929190613b2f565b60405180910390f35b6105b360048036038101906105ae9190613b5d565b611a11565b6040516105c0919061307f565b60405180910390f35b6105e360048036038101906105de9190613673565b611a9f565b005b6105ff60048036038101906105fa91906138de565b611b23565b005b5f61060b82611bde565b9050919050565b60605f805461062090613bc8565b80601f016020809104026020016040519081016040528092919081815260200182805461064c90613bc8565b80156106975780601f1061066e57610100808354040283529160200191610697565b820191905f5260205f20905b81548152906001019060200180831161067a57829003601f168201915b5050505050905090565b5f6106ab82611c3e565b506106b582611cc4565b9050919050565b6106ce82826106c9611cfd565b611d04565b5050565b60605f6106df6008611d16565b90505f80600190505b828111610778573373ffffffffffffffffffffffffffffffffffffffff1660095f8381526020019081526020015f206007015f9054906101000a900473ffffffffffffffffffffffffffffffffffffffff1673ffffffffffffffffffffffffffffffffffffffff1603610765576001826107629190613c25565b91505b808061077090613c58565b9150506106e8565b505f8167ffffffffffffffff811115610794576107936134a5565b5b6040519080825280602002602001820160405280156107cd57816020015b6107ba612f7c565b8152602001906001900390816107b25790505b5090505f80600190505b848111610bda573373ffffffffffffffffffffffffffffffffffffffff1660095f8381526020019081526020015f206007015f9054906101000a900473ffffffffffffffffffffffffffffffffffffffff1673ffffffffffffffffffffffffffffffffffffffff1603610bc75760095f8281526020019081526020015f20604051806101000160405290815f820154815260200160018201805461087a90613bc8565b80601f01602080910402602001604051908101604052809291908181526020018280546108a690613bc8565b80156108f15780601f106108c8576101008083540402835291602001916108f1565b820191905f5260205f20905b8154815290600101906020018083116108d457829003601f168201915b5050505050815260200160028201805461090a90613bc8565b80601f016020809104026020016040519081016040528092919081815260200182805461093690613bc8565b80156109815780601f1061095857610100808354040283529160200191610981565b820191905f5260205f20905b81548152906001019060200180831161096457829003601f168201915b5050505050815260200160038201805461099a90613bc8565b80601f01602080910402602001604051908101604052809291908181526020018280546109c690613bc8565b8015610a115780601f106109e857610100808354040283529160200191610a11565b820191905f5260205f20905b8154815290600101906020018083116109f457829003601f168201915b50505050508152602001600482018054610a2a90613bc8565b80601f0160208091040260200160405190810160405280929190818152602001828054610a5690613bc8565b8015610aa15780601f10610a7857610100808354040283529160200191610aa1565b820191905f5260205f20905b815481529060010190602001808311610a8457829003601f168201915b50505050508152602001600582018054610aba90613bc8565b80601f0160208091040260200160405190810160405280929190818152602001828054610ae690613bc8565b8015610b315780601f10610b0857610100808354040283529160200191610b31565b820191905f5260205f20905b815481529060010190602001808311610b1457829003601f168201915b5050505050815260200160068201548152602001600782015f9054906101000a900473ffffffffffffffffffffffffffffffffffffffff1673ffffffffffffffffffffffffffffffffffffffff1673ffffffffffffffffffffffffffffffffffffffff1681525050838381518110610bac57610bab613c9f565b5b6020026020010181905250600182610bc49190613c25565b91505b8080610bd290613c58565b9150506107d7565b508194505050505090565b5f805f80610bf285611d22565b9250925092506001868285856040515f8152602001604052604051610c1a9493929190613cf6565b6020604051602081039080840390855afa158015610c3a573d5f803e3d5ffd5b50505060206040510351935050505092915050565b5f73ffffffffffffffffffffffffffffffffffffffff168273ffffffffffffffffffffffffffffffffffffffff1603610cbf575f6040517f64a0ae92000000000000000000000000000000000000000000000000000000008152600401610cb691906131df565b60405180910390fd5b5f610cd28383610ccd611cfd565b611d87565b90508373ffffffffffffffffffffffffffffffffffffffff168173ffffffffffffffffffffffffffffffffffffffff1614610d48578382826040517f64283d7b000000000000000000000000000000000000000000000000000000008152600401610d3f93929190613d39565b60405180910390fd5b50505050565b5f600a5f8373ffffffffffffffffffffffffffffffffffffffff1673ffffffffffffffffffffffffffffffffffffffff1681526020019081526020015f205f015f9054906101000a900460ff169050919050565b6060600d805480602002602001604051908101604052809291908181526020015f905b82821015610e6d578382905f5260205f20018054610de290613bc8565b80601f0160208091040260200160405190810160405280929190818152602001828054610e0e90613bc8565b8015610e595780601f10610e3057610100808354040283529160200191610e59565b820191905f5260205f20905b815481529060010190602001808311610e3c57829003601f168201915b505050505081526020019060010190610dc5565b50505050905090565b6009602052805f5260405f205f91509050805f015490806001018054610e9b90613bc8565b80601f0160208091040260200160405190810160405280929190818152602001828054610ec790613bc8565b8015610f125780601f10610ee957610100808354040283529160200191610f12565b820191905f5260205f20905b815481529060010190602001808311610ef557829003601f168201915b505050505090806002018054610f2790613bc8565b80601f0160208091040260200160405190810160405280929190818152602001828054610f5390613bc8565b8015610f9e5780601f10610f7557610100808354040283529160200191610f9e565b820191905f5260205f20905b815481529060010190602001808311610f8157829003601f168201915b505050505090806003018054610fb390613bc8565b80601f0160208091040260200160405190810160405280929190818152602001828054610fdf90613bc8565b801561102a5780601f106110015761010080835404028352916020019161102a565b820191905f5260205f20905b81548152906001019060200180831161100d57829003601f168201915b50505050509080600401805461103f90613bc8565b80601f016020809104026020016040519081016040528092919081815260200182805461106b90613bc8565b80156110b65780601f1061108d576101008083540402835291602001916110b6565b820191905f5260205f20905b81548152906001019060200180831161109957829003601f168201915b5050505050908060050180546110cb90613bc8565b80601f01602080910402602001604051908101604052809291908181526020018280546110f790613bc8565b80156111425780601f1061111957610100808354040283529160200191611142565b820191905f5260205f20905b81548152906001019060200180831161112557829003601f168201915b505050505090806006015490806007015f9054906101000a900473ffffffffffffffffffffffffffffffffffffffff16905088565b61119183838360405180602001604052805f815250611655565b505050565b5f6111a082611c3e565b9050919050565b6060600a5f8373ffffffffffffffffffffffffffffffffffffffff1673ffffffffffffffffffffffffffffffffffffffff1681526020019081526020015f2060010180546111f490613bc8565b80601f016020809104026020016040519081016040528092919081815260200182805461122090613bc8565b801561126b5780601f106112425761010080835404028352916020019161126b565b820191905f5260205f20905b81548152906001019060200180831161124e57829003601f168201915b50505050509050919050565b600b8181548110611286575f80fd5b905f5260205f20015f915054906101000a900473ffffffffffffffffffffffffffffffffffffffff1681565b5f8073ffffffffffffffffffffffffffffffffffffffff168273ffffffffffffffffffffffffffffffffffffffff1603611323575f6040517f89c62b6400000000000000000000000000000000000000000000000000000000815260040161131a91906131df565b60405180910390fd5b60035f8373ffffffffffffffffffffffffffffffffffffffff1673ffffffffffffffffffffffffffffffffffffffff1681526020019081526020015f20549050919050565b611370611f92565b6113795f612019565b565b604051806040016040528060011515815260200182815250600a5f8473ffffffffffffffffffffffffffffffffffffffff1673ffffffffffffffffffffffffffffffffffffffff1681526020019081526020015f205f820151815f015f6101000a81548160ff02191690831515021790555060208201518160010190816114029190613f0b565b50905050600b82908060018154018082558091505060019003905f5260205f20015f9091909190916101000a81548173ffffffffffffffffffffffffffffffffffffffff021916908373ffffffffffffffffffffffffffffffffffffffff160217905550600c816040516114769190614014565b90815260200160405180910390205f9054906101000a900460ff166114fe576001600c826040516114a79190614014565b90815260200160405180910390205f6101000a81548160ff021916908315150217905550600d81908060018154018082558091505060019003905f5260205f20015f9091909190915090816114fc9190613f0b565b505b5050565b5f60075f9054906101000a900473ffffffffffffffffffffffffffffffffffffffff16905090565b60606001805461153990613bc8565b80601f016020809104026020016040519081016040528092919081815260200182805461156590613bc8565b80156115b05780601f10611587576101008083540402835291602001916115b0565b820191905f5260205f20905b81548152906001019060200180831161159357829003601f168201915b5050505050905090565b6115cc6115c5611cfd565b83836120dc565b5050565b6115d981611196565b73ffffffffffffffffffffffffffffffffffffffff163373ffffffffffffffffffffffffffffffffffffffff1614611646576040517f08c379a000000000000000000000000000000000000000000000000000000000815260040161163d90614074565b60405180910390fd5b611651338383612245565b5050565b611660848484610c4f565b61166c848484846123ad565b50505050565b60605f60605f5b600b80549050811015611744575f600b828154811061169b5761169a613c9f565b5b905f5260205f20015f9054906101000a900473ffffffffffffffffffffffffffffffffffffffff1690508580519060200120600a5f8373ffffffffffffffffffffffffffffffffffffffff1673ffffffffffffffffffffffffffffffffffffffff1681526020019081526020015f2060010160405161171a919061412e565b60405180910390200361173657838061173290613c58565b9450505b508080600101915050611679565b508167ffffffffffffffff81111561175f5761175e6134a5565b5b60405190808252806020026020018201604052801561178d5781602001602082028036833780820191505090505b5090505f805b600b805490508110156118ac575f600b82815481106117b5576117b4613c9f565b5b905f5260205f20015f9054906101000a900473ffffffffffffffffffffffffffffffffffffffff1690508680519060200120600a5f8373ffffffffffffffffffffffffffffffffffffffff1673ffffffffffffffffffffffffffffffffffffffff1681526020019081526020015f20600101604051611834919061412e565b60405180910390200361189e578084848151811061185557611854613c9f565b5b602002602001019073ffffffffffffffffffffffffffffffffffffffff16908173ffffffffffffffffffffffffffffffffffffffff1681525050828061189a90613c58565b9350505b508080600101915050611793565b50819350505050919050565b60606118c38261255f565b9050919050565b6118d381611196565b73ffffffffffffffffffffffffffffffffffffffff163373ffffffffffffffffffffffffffffffffffffffff1614611940576040517f08c379a000000000000000000000000000000000000000000000000000000000815260040161193790614074565b60405180910390fd5b61195a83838360405180602001604052805f81525061266a565b505050565b600a602052805f5260405f205f91509050805f015f9054906101000a900460ff169080600101805461199090613bc8565b80601f01602080910402602001604051908101604052809291908181526020018280546119bc90613bc8565b8015611a075780601f106119de57610100808354040283529160200191611a07565b820191905f5260205f20905b8154815290600101906020018083116119ea57829003601f168201915b5050505050905082565b5f60055f8473ffffffffffffffffffffffffffffffffffffffff1673ffffffffffffffffffffffffffffffffffffffff1681526020019081526020015f205f8373ffffffffffffffffffffffffffffffffffffffff1673ffffffffffffffffffffffffffffffffffffffff1681526020019081526020015f205f9054906101000a900460ff16905092915050565b611aa7611f92565b5f73ffffffffffffffffffffffffffffffffffffffff168173ffffffffffffffffffffffffffffffffffffffff1603611b17575f6040517f1e4fbdf7000000000000000000000000000000000000000000000000000000008152600401611b0e91906131df565b60405180910390fd5b611b2081612019565b50565b600a5f3373ffffffffffffffffffffffffffffffffffffffff1673ffffffffffffffffffffffffffffffffffffffff1681526020019081526020015f205f015f9054906101000a900460ff16611bae576040517f08c379a0000000000000000000000000000000000000000000000000000000008152600401611ba5906141b4565b60405180910390fd5b611bb86008612687565b5f611bc36008611d16565b9050611bcf838261269b565b611bd981836126b8565b505050565b5f634906490660e01b7bffffffffffffffffffffffffffffffffffffffffffffffffffffffff1916827bffffffffffffffffffffffffffffffffffffffffffffffffffffffff19161480611c375750611c3682612712565b5b9050919050565b5f80611c49836127f3565b90505f73ffffffffffffffffffffffffffffffffffffffff168173ffffffffffffffffffffffffffffffffffffffff1603611cbb57826040517f7e273289000000000000000000000000000000000000000000000000000000008152600401611cb29190613827565b60405180910390fd5b80915050919050565b5f60045f8381526020019081526020015f205f9054906101000a900473ffffffffffffffffffffffffffffffffffffffff169050919050565b5f33905090565b611d11838383600161282c565b505050565b5f815f01549050919050565b5f805f6041845114611d69576040517f08c379a0000000000000000000000000000000000000000000000000000000008152600401611d609061421c565b60405180910390fd5b602084015192506040840151915060608401515f1a90509193909250565b5f80611d92846127f3565b90505f73ffffffffffffffffffffffffffffffffffffffff168373ffffffffffffffffffffffffffffffffffffffff1614611dd357611dd28184866129eb565b5b5f73ffffffffffffffffffffffffffffffffffffffff168173ffffffffffffffffffffffffffffffffffffffff1614611e5e57611e125f855f8061282c565b600160035f8373ffffffffffffffffffffffffffffffffffffffff1673ffffffffffffffffffffffffffffffffffffffff1681526020019081526020015f205f82825403925050819055505b5f73ffffffffffffffffffffffffffffffffffffffff168573ffffffffffffffffffffffffffffffffffffffff1614611edd57600160035f8773ffffffffffffffffffffffffffffffffffffffff1673ffffffffffffffffffffffffffffffffffffffff1681526020019081526020015f205f82825401925050819055505b8460025f8681526020019081526020015f205f6101000a81548173ffffffffffffffffffffffffffffffffffffffff021916908373ffffffffffffffffffffffffffffffffffffffff160217905550838573ffffffffffffffffffffffffffffffffffffffff168273ffffffffffffffffffffffffffffffffffffffff167fddf252ad1be2c89b69c2b068fc378daa952ba7f163c4a11628f55a4df523b3ef60405160405180910390a4809150509392505050565b611f9a611cfd565b73ffffffffffffffffffffffffffffffffffffffff16611fb8611502565b73ffffffffffffffffffffffffffffffffffffffff161461201757611fdb611cfd565b6040517f118cdaa700000000000000000000000000000000000000000000000000000000815260040161200e91906131df565b60405180910390fd5b565b5f60075f9054906101000a900473ffffffffffffffffffffffffffffffffffffffff1690508160075f6101000a81548173ffffffffffffffffffffffffffffffffffffffff021916908373ffffffffffffffffffffffffffffffffffffffff1602179055508173ffffffffffffffffffffffffffffffffffffffff168173ffffffffffffffffffffffffffffffffffffffff167f8be0079c531659141344cd1fd0a4f28419497f9722a3daafe3b4186f6b6457e060405160405180910390a35050565b5f73ffffffffffffffffffffffffffffffffffffffff168273ffffffffffffffffffffffffffffffffffffffff160361214c57816040517f5b08ba1800000000000000000000000000000000000000000000000000000000815260040161214391906131df565b60405180910390fd5b8060055f8573ffffffffffffffffffffffffffffffffffffffff1673ffffffffffffffffffffffffffffffffffffffff1681526020019081526020015f205f8473ffffffffffffffffffffffffffffffffffffffff1673ffffffffffffffffffffffffffffffffffffffff1681526020019081526020015f205f6101000a81548160ff0219169083151502179055508173ffffffffffffffffffffffffffffffffffffffff168373ffffffffffffffffffffffffffffffffffffffff167f17307eab39ab6107e8899845ad3d59bd9653f200f220920489ca2b5937696c3183604051612238919061307f565b60405180910390a3505050565b5f73ffffffffffffffffffffffffffffffffffffffff168273ffffffffffffffffffffffffffffffffffffffff16036122b5575f6040517f64a0ae920000000000000000000000000000000000000000000000000000000081526004016122ac91906131df565b60405180910390fd5b5f6122c183835f611d87565b90505f73ffffffffffffffffffffffffffffffffffffffff168173ffffffffffffffffffffffffffffffffffffffff160361233357816040517f7e27328900000000000000000000000000000000000000000000000000000000815260040161232a9190613827565b60405180910390fd5b8373ffffffffffffffffffffffffffffffffffffffff168173ffffffffffffffffffffffffffffffffffffffff16146123a7578382826040517f64283d7b00000000000000000000000000000000000000000000000000000000815260040161239e93929190613d39565b60405180910390fd5b50505050565b5f8373ffffffffffffffffffffffffffffffffffffffff163b1115612559578273ffffffffffffffffffffffffffffffffffffffff1663150b7a026123f0611cfd565b8685856040518563ffffffff1660e01b8152600401612412949392919061428c565b6020604051808303815f875af192505050801561244d57506040513d601f19601f8201168201806040525081019061244a91906142ea565b60015b6124ce573d805f811461247b576040519150601f19603f3d011682016040523d82523d5f602084013e612480565b606091505b505f8151036124c657836040517f64a0ae920000000000000000000000000000000000000000000000000000000081526004016124bd91906131df565b60405180910390fd5b805181602001fd5b63150b7a0260e01b7bffffffffffffffffffffffffffffffffffffffffffffffffffffffff1916817bffffffffffffffffffffffffffffffffffffffffffffffffffffffff19161461255757836040517f64a0ae9200000000000000000000000000000000000000000000000000000000815260040161254e91906131df565b60405180910390fd5b505b50505050565b606061256a82611c3e565b505f60065f8481526020019081526020015f20805461258890613bc8565b80601f01602080910402602001604051908101604052809291908181526020018280546125b490613bc8565b80156125ff5780601f106125d6576101008083540402835291602001916125ff565b820191905f5260205f20905b8154815290600101906020018083116125e257829003601f168201915b505050505090505f61260f612aae565b90505f815103612623578192505050612665565b5f8251111561265757808260405160200161263f929190614315565b60405160208183030381529060405292505050612665565b61266084612ac4565b925050505b919050565b612675848484612245565b612681848484846123ad565b50505050565b6001815f015f828254019250508190555050565b6126b4828260405180602001604052805f815250612b2a565b5050565b8060065f8481526020019081526020015f2090816126d69190613f0b565b507ff8e1a15aba9398e019f0b49df1a4fde98ee17ae345cb5f6b5e2c27f5033e8ce7826040516127069190613827565b60405180910390a15050565b5f7f80ac58cd000000000000000000000000000000000000000000000000000000007bffffffffffffffffffffffffffffffffffffffffffffffffffffffff1916827bffffffffffffffffffffffffffffffffffffffffffffffffffffffff191614806127dc57507f5b5e139f000000000000000000000000000000000000000000000000000000007bffffffffffffffffffffffffffffffffffffffffffffffffffffffff1916827bffffffffffffffffffffffffffffffffffffffffffffffffffffffff1916145b806127ec57506127eb82612b45565b5b9050919050565b5f60025f8381526020019081526020015f205f9054906101000a900473ffffffffffffffffffffffffffffffffffffffff169050919050565b808061286457505f73ffffffffffffffffffffffffffffffffffffffff168273ffffffffffffffffffffffffffffffffffffffff1614155b15612996575f61287384611c3e565b90505f73ffffffffffffffffffffffffffffffffffffffff168373ffffffffffffffffffffffffffffffffffffffff16141580156128dd57508273ffffffffffffffffffffffffffffffffffffffff168173ffffffffffffffffffffffffffffffffffffffff1614155b80156128f057506128ee8184611a11565b155b1561293257826040517fa9fbf51f00000000000000000000000000000000000000000000000000000000815260040161292991906131df565b60405180910390fd5b811561299457838573ffffffffffffffffffffffffffffffffffffffff168273ffffffffffffffffffffffffffffffffffffffff167f8c5be1e5ebec7d5bd14f71427d1e84f3dd0314c0f7b2291e5b200ac8c7c3b92560405160405180910390a45b505b8360045f8581526020019081526020015f205f6101000a81548173ffffffffffffffffffffffffffffffffffffffff021916908373ffffffffffffffffffffffffffffffffffffffff16021790555050505050565b6129f6838383612bae565b612aa9575f73ffffffffffffffffffffffffffffffffffffffff168373ffffffffffffffffffffffffffffffffffffffff1603612a6a57806040517f7e273289000000000000000000000000000000000000000000000000000000008152600401612a619190613827565b60405180910390fd5b81816040517f177e802f000000000000000000000000000000000000000000000000000000008152600401612aa0929190614338565b60405180910390fd5b505050565b606060405180602001604052805f815250905090565b6060612acf82611c3e565b505f612ad9612aae565b90505f815111612af75760405180602001604052805f815250612b22565b80612b0184612c6e565b604051602001612b12929190614315565b6040516020818303038152906040525b915050919050565b612b348383612d38565b612b405f8484846123ad565b505050565b5f7f01ffc9a7000000000000000000000000000000000000000000000000000000007bffffffffffffffffffffffffffffffffffffffffffffffffffffffff1916827bffffffffffffffffffffffffffffffffffffffffffffffffffffffff1916149050919050565b5f8073ffffffffffffffffffffffffffffffffffffffff168373ffffffffffffffffffffffffffffffffffffffff1614158015612c6557508273ffffffffffffffffffffffffffffffffffffffff168473ffffffffffffffffffffffffffffffffffffffff161480612c265750612c258484611a11565b5b80612c6457508273ffffffffffffffffffffffffffffffffffffffff16612c4c83611cc4565b73ffffffffffffffffffffffffffffffffffffffff16145b5b90509392505050565b60605f6001612c7c84612e2b565b0190505f8167ffffffffffffffff811115612c9a57612c996134a5565b5b6040519080825280601f01601f191660200182016040528015612ccc5781602001600182028036833780820191505090505b5090505f82602001820190505b600115612d2d578080600190039150507f3031323334353637383961626364656600000000000000000000000000000000600a86061a8153600a8581612d2257612d2161435f565b5b0494505f8503612cd9575b819350505050919050565b5f73ffffffffffffffffffffffffffffffffffffffff168273ffffffffffffffffffffffffffffffffffffffff1603612da8575f6040517f64a0ae92000000000000000000000000000000000000000000000000000000008152600401612d9f91906131df565b60405180910390fd5b5f612db483835f611d87565b90505f73ffffffffffffffffffffffffffffffffffffffff168173ffffffffffffffffffffffffffffffffffffffff1614612e26575f6040517f73c6ac6e000000000000000000000000000000000000000000000000000000008152600401612e1d91906131df565b60405180910390fd5b505050565b5f805f90507a184f03e93ff9f4daa797ed6e38ed64bf6a1f0100000000000000008310612e87577a184f03e93ff9f4daa797ed6e38ed64bf6a1f0100000000000000008381612e7d57612e7c61435f565b5b0492506040810190505b6d04ee2d6d415b85acef81000000008310612ec4576d04ee2d6d415b85acef81000000008381612eba57612eb961435f565b5b0492506020810190505b662386f26fc100008310612ef357662386f26fc100008381612ee957612ee861435f565b5b0492506010810190505b6305f5e1008310612f1c576305f5e1008381612f1257612f1161435f565b5b0492506008810190505b6127108310612f41576127108381612f3757612f3661435f565b5b0492506004810190505b60648310612f645760648381612f5a57612f5961435f565b5b0492506002810190505b600a8310612f73576001810190505b80915050919050565b6040518061010001604052805f815260200160608152602001606081526020016060815260200160608152602001606081526020015f81526020015f73ffffffffffffffffffffffffffffffffffffffff1681525090565b5f604051905090565b5f80fd5b5f80fd5b5f7fffffffff0000000000000000000000000000000000000000000000000000000082169050919050565b61301981612fe5565b8114613023575f80fd5b50565b5f8135905061303481613010565b92915050565b5f6020828403121561304f5761304e612fdd565b5b5f61305c84828501613026565b91505092915050565b5f8115159050919050565b61307981613065565b82525050565b5f6020820190506130925f830184613070565b92915050565b5f81519050919050565b5f82825260208201905092915050565b5f5b838110156130cf5780820151818401526020810190506130b4565b5f8484015250505050565b5f601f19601f8301169050919050565b5f6130f482613098565b6130fe81856130a2565b935061310e8185602086016130b2565b613117816130da565b840191505092915050565b5f6020820190508181035f83015261313a81846130ea565b905092915050565b5f819050919050565b61315481613142565b811461315e575f80fd5b50565b5f8135905061316f8161314b565b92915050565b5f6020828403121561318a57613189612fdd565b5b5f61319784828501613161565b91505092915050565b5f73ffffffffffffffffffffffffffffffffffffffff82169050919050565b5f6131c9826131a0565b9050919050565b6131d9816131bf565b82525050565b5f6020820190506131f25f8301846131d0565b92915050565b613201816131bf565b811461320b575f80fd5b50565b5f8135905061321c816131f8565b92915050565b5f806040838503121561323857613237612fdd565b5b5f6132458582860161320e565b925050602061325685828601613161565b9150509250929050565b5f81519050919050565b5f82825260208201905092915050565b5f819050602082019050919050565b61329281613142565b82525050565b5f82825260208201905092915050565b5f6132b282613098565b6132bc8185613298565b93506132cc8185602086016130b2565b6132d5816130da565b840191505092915050565b6132e9816131bf565b82525050565b5f61010083015f8301516133055f860182613289565b506020830151848203602086015261331d82826132a8565b9150506040830151848203604086015261333782826132a8565b9150506060830151848203606086015261335182826132a8565b9150506080830151848203608086015261336b82826132a8565b91505060a083015184820360a086015261338582826132a8565b91505060c083015161339a60c0860182613289565b5060e08301516133ad60e08601826132e0565b508091505092915050565b5f6133c383836132ef565b905092915050565b5f602082019050919050565b5f6133e182613260565b6133eb818561326a565b9350836020820285016133fd8561327a565b805f5b85811015613438578484038952815161341985826133b8565b9450613424836133cb565b925060208a01995050600181019050613400565b50829750879550505050505092915050565b5f6020820190508181035f83015261346281846133d7565b905092915050565b5f819050919050565b61347c8161346a565b8114613486575f80fd5b50565b5f8135905061349781613473565b92915050565b5f80fd5b5f80fd5b7f4e487b71000000000000000000000000000000000000000000000000000000005f52604160045260245ffd5b6134db826130da565b810181811067ffffffffffffffff821117156134fa576134f96134a5565b5b80604052505050565b5f61350c612fd4565b905061351882826134d2565b919050565b5f67ffffffffffffffff821115613537576135366134a5565b5b613540826130da565b9050602081019050919050565b828183375f83830152505050565b5f61356d6135688461351d565b613503565b905082815260208101848484011115613589576135886134a1565b5b61359484828561354d565b509392505050565b5f82601f8301126135b0576135af61349d565b5b81356135c084826020860161355b565b91505092915050565b5f80604083850312156135df576135de612fdd565b5b5f6135ec85828601613489565b925050602083013567ffffffffffffffff81111561360d5761360c612fe1565b5b6136198582860161359c565b9150509250929050565b5f805f6060848603121561363a57613639612fdd565b5b5f6136478682870161320e565b93505060206136588682870161320e565b925050604061366986828701613161565b9150509250925092565b5f6020828403121561368857613687612fdd565b5b5f6136958482850161320e565b91505092915050565b5f81519050919050565b5f82825260208201905092915050565b5f819050602082019050919050565b5f6136d283836132a8565b905092915050565b5f602082019050919050565b5f6136f08261369e565b6136fa81856136a8565b93508360208202850161370c856136b8565b805f5b85811015613747578484038952815161372885826136c7565b9450613733836136da565b925060208a0199505060018101905061370f565b50829750879550505050505092915050565b5f6020820190508181035f83015261377181846136e6565b905092915050565b61378281613142565b82525050565b5f6101008201905061379c5f83018b613779565b81810360208301526137ae818a6130ea565b905081810360408301526137c281896130ea565b905081810360608301526137d681886130ea565b905081810360808301526137ea81876130ea565b905081810360a08301526137fe81866130ea565b905061380d60c0830185613779565b61381a60e08301846131d0565b9998505050505050505050565b5f60208201905061383a5f830184613779565b92915050565b5f67ffffffffffffffff82111561385a576138596134a5565b5b613863826130da565b9050602081019050919050565b5f61388261387d84613840565b613503565b90508281526020810184848401111561389e5761389d6134a1565b5b6138a984828561354d565b509392505050565b5f82601f8301126138c5576138c461349d565b5b81356138d5848260208601613870565b91505092915050565b5f80604083850312156138f4576138f3612fdd565b5b5f6139018582860161320e565b925050602083013567ffffffffffffffff81111561392257613921612fe1565b5b61392e858286016138b1565b9150509250929050565b61394181613065565b811461394b575f80fd5b50565b5f8135905061395c81613938565b92915050565b5f806040838503121561397857613977612fdd565b5b5f6139858582860161320e565b92505060206139968582860161394e565b9150509250929050565b5f805f80608085870312156139b8576139b7612fdd565b5b5f6139c58782880161320e565b94505060206139d68782880161320e565b93505060406139e787828801613161565b925050606085013567ffffffffffffffff811115613a0857613a07612fe1565b5b613a148782880161359c565b91505092959194509250565b5f60208284031215613a3557613a34612fdd565b5b5f82013567ffffffffffffffff811115613a5257613a51612fe1565b5b613a5e848285016138b1565b91505092915050565b5f81519050919050565b5f82825260208201905092915050565b5f819050602082019050919050565b5f613a9b83836132e0565b60208301905092915050565b5f602082019050919050565b5f613abd82613a67565b613ac78185613a71565b9350613ad283613a81565b805f5b83811015613b02578151613ae98882613a90565b9750613af483613aa7565b925050600181019050613ad5565b5085935050505092915050565b5f6020820190508181035f830152613b278184613ab3565b905092915050565b5f604082019050613b425f830185613070565b8181036020830152613b5481846130ea565b90509392505050565b5f8060408385031215613b7357613b72612fdd565b5b5f613b808582860161320e565b9250506020613b918582860161320e565b9150509250929050565b7f4e487b71000000000000000000000000000000000000000000000000000000005f52602260045260245ffd5b5f6002820490506001821680613bdf57607f821691505b602082108103613bf257613bf1613b9b565b5b50919050565b7f4e487b71000000000000000000000000000000000000000000000000000000005f52601160045260245ffd5b5f613c2f82613142565b9150613c3a83613142565b9250828201905080821115613c5257613c51613bf8565b5b92915050565b5f613c6282613142565b91507fffffffffffffffffffffffffffffffffffffffffffffffffffffffffffffffff8203613c9457613c93613bf8565b5b600182019050919050565b7f4e487b71000000000000000000000000000000000000000000000000000000005f52603260045260245ffd5b613cd58161346a565b82525050565b5f60ff82169050919050565b613cf081613cdb565b82525050565b5f608082019050613d095f830187613ccc565b613d166020830186613ce7565b613d236040830185613ccc565b613d306060830184613ccc565b95945050505050565b5f606082019050613d4c5f8301866131d0565b613d596020830185613779565b613d6660408301846131d0565b949350505050565b5f819050815f5260205f209050919050565b5f6020601f8301049050919050565b5f82821b905092915050565b5f60088302613dca7fffffffffffffffffffffffffffffffffffffffffffffffffffffffffffffffff82613d8f565b613dd48683613d8f565b95508019841693508086168417925050509392505050565b5f819050919050565b5f613e0f613e0a613e0584613142565b613dec565b613142565b9050919050565b5f819050919050565b613e2883613df5565b613e3c613e3482613e16565b848454613d9b565b825550505050565b5f90565b613e50613e44565b613e5b818484613e1f565b505050565b5b81811015613e7e57613e735f82613e48565b600181019050613e61565b5050565b601f821115613ec357613e9481613d6e565b613e9d84613d80565b81016020851015613eac578190505b613ec0613eb885613d80565b830182613e60565b50505b505050565b5f82821c905092915050565b5f613ee35f1984600802613ec8565b1980831691505092915050565b5f613efb8383613ed4565b9150826002028217905092915050565b613f1482613098565b67ffffffffffffffff811115613f2d57613f2c6134a5565b5b613f378254613bc8565b613f42828285613e82565b5f60209050601f831160018114613f73575f8415613f61578287015190505b613f6b8582613ef0565b865550613fd2565b601f198416613f8186613d6e565b5f5b82811015613fa857848901518255600182019150602085019450602081019050613f83565b86831015613fc55784890151613fc1601f891682613ed4565b8355505b6001600288020188555050505b505050505050565b5f81905092915050565b5f613fee82613098565b613ff88185613fda565b93506140088185602086016130b2565b80840191505092915050565b5f61401f8284613fe4565b915081905092915050565b7f43616e6e6f74207472616e7366657220736f756c626f756e6420746f6b656e2e5f82015250565b5f61405e6020836130a2565b91506140698261402a565b602082019050919050565b5f6020820190508181035f83015261408b81614052565b9050919050565b5f81905092915050565b5f819050815f5260205f209050919050565b5f81546140ba81613bc8565b6140c48186614092565b9450600182165f81146140de57600181146140f357614125565b60ff1983168652811515820286019350614125565b6140fc8561409c565b5f5b8381101561411d578154818901526001820191506020810190506140fe565b838801955050505b50505092915050565b5f61413982846140ae565b915081905092915050565b7f4f6e6c7920746865206f776e6572206f72207665726966696572732063616e205f8201527f6d696e74205342547320666f7220616464726573736573000000000000000000602082015250565b5f61419e6037836130a2565b91506141a982614144565b604082019050919050565b5f6020820190508181035f8301526141cb81614192565b9050919050565b7f696e76616c6964207369676e6174757265206c656e67746800000000000000005f82015250565b5f6142066018836130a2565b9150614211826141d2565b602082019050919050565b5f6020820190508181035f830152614233816141fa565b9050919050565b5f81519050919050565b5f82825260208201905092915050565b5f61425e8261423a565b6142688185614244565b93506142788185602086016130b2565b614281816130da565b840191505092915050565b5f60808201905061429f5f8301876131d0565b6142ac60208301866131d0565b6142b96040830185613779565b81810360608301526142cb8184614254565b905095945050505050565b5f815190506142e481613010565b92915050565b5f602082840312156142ff576142fe612fdd565b5b5f61430c848285016142d6565b91505092915050565b5f6143208285613fe4565b915061432c8284613fe4565b91508190509392505050565b5f60408201905061434b5f8301856131d0565b6143586020830184613779565b9392505050565b7f4e487b71000000000000000000000000000000000000000000000000000000005f52601260045260245ffdfea2646970667358221220da7d76876638511735ffc5499b68e08379bbdd8392a0ed7f6f56ad6329d5af0a64736f6c63430008180033",
  "linkReferences": {},
  "deployedLinkReferences": {}
}