{
  "_format": "hh-sol-artifact-1",
  "contractName": "SoulboundToken",
  "sourceName": "contracts/SoulboundToken.sol",
  "abi": [
    {
      "inputs": [],
      "stateMutability": "nonpayable",
      "type": "constructor"
    },
    {
      "inputs": [
        {
          "internalType": "address",
          "name": "sender",
          "type": "address"
        },
        {
          "internalType": "uint256",
          "name": "tokenId",
          "type": "uint256"
        },
        {
          "internalType": "address",
          "name": "owner",
          "type": "address"
        }
      ],
      "name": "ERC721IncorrectOwner",
      "type": "error"
    },
    {
      "inputs": [
        {
          "internalType": "address",
          "name": "operator",
          "type": "address"
        },
        {
          "internalType": "uint256",
          "name": "tokenId",
          "type": "uint256"
        }
      ],
      "name": "ERC721InsufficientApproval",
      "type": "error"
    },
    {
      "inputs": [
        {
          "internalType": "address",
          "name": "approver",
          "type": "address"
        }
      ],
      "name": "ERC721InvalidApprover",
      "type": "error"
    },
    {
      "inputs": [
        {
          "internalType": "address",
          "name": "operator",
          "type": "address"
        }
      ],
      "name": "ERC721InvalidOperator",
      "type": "error"
    },
    {
      "inputs": [
        {
          "internalType": "address",
          "name": "owner",
          "type": "address"
        }
      ],
      "name": "ERC721InvalidOwner",
      "type": "error"
    },
    {
      "inputs": [
        {
          "internalType": "address",
          "name": "receiver",
          "type": "address"
        }
      ],
      "name": "ERC721InvalidReceiver",
      "type": "error"
    },
    {
      "inputs": [
        {
          "internalType": "address",
          "name": "sender",
          "type": "address"
        }
      ],
      "name": "ERC721InvalidSender",
      "type": "error"
    },
    {
      "inputs": [
        {
          "internalType": "uint256",
          "name": "tokenId",
          "type": "uint256"
        }
      ],
      "name": "ERC721NonexistentToken",
      "type": "error"
    },
    {
      "anonymous": false,
      "inputs": [
        {
          "indexed": true,
          "internalType": "address",
          "name": "owner",
          "type": "address"
        },
        {
          "indexed": true,
          "internalType": "address",
          "name": "approved",
          "type": "address"
        },
        {
          "indexed": true,
          "internalType": "uint256",
          "name": "tokenId",
          "type": "uint256"
        }
      ],
      "name": "Approval",
      "type": "event"
    },
    {
      "anonymous": false,
      "inputs": [
        {
          "indexed": true,
          "internalType": "address",
          "name": "owner",
          "type": "address"
        },
        {
          "indexed": true,
          "internalType": "address",
          "name": "operator",
          "type": "address"
        },
        {
          "indexed": false,
          "internalType": "bool",
          "name": "approved",
          "type": "bool"
        }
      ],
      "name": "ApprovalForAll",
      "type": "event"
    },
    {
      "anonymous": false,
      "inputs": [
        {
          "indexed": false,
          "internalType": "uint256",
          "name": "_fromTokenId",
          "type": "uint256"
        },
        {
          "indexed": false,
          "internalType": "uint256",
          "name": "_toTokenId",
          "type": "uint256"
        }
      ],
      "name": "BatchMetadataUpdate",
      "type": "event"
    },
    {
      "anonymous": false,
      "inputs": [
        {
          "indexed": false,
          "internalType": "uint256",
          "name": "_tokenId",
          "type": "uint256"
        }
      ],
      "name": "MetadataUpdate",
      "type": "event"
    },
    {
      "anonymous": false,
      "inputs": [
        {
          "indexed": true,
          "internalType": "address",
          "name": "from",
          "type": "address"
        },
        {
          "indexed": true,
          "internalType": "address",
          "name": "to",
          "type": "address"
        },
        {
          "indexed": true,
          "internalType": "uint256",
          "name": "tokenId",
          "type": "uint256"
        }
      ],
      "name": "Transfer",
      "type": "event"
    },
    {
      "inputs": [
        {
          "internalType": "address",
          "name": "verifier",
          "type": "address"
        },
        {
          "internalType": "string",
          "name": "organizationCode",
          "type": "string"
        }
      ],
      "name": "addVerifier",
      "outputs": [],
      "stateMutability": "nonpayable",
      "type": "function"
    },
    {
      "inputs": [
        {
          "internalType": "address",
          "name": "to",
          "type": "address"
        },
        {
          "internalType": "uint256",
          "name": "tokenId",
          "type": "uint256"
        }
      ],
      "name": "approve",
      "outputs": [],
      "stateMutability": "nonpayable",
      "type": "function"
    },
    {
      "inputs": [
        {
          "internalType": "address",
          "name": "owner",
          "type": "address"
        }
      ],
      "name": "balanceOf",
      "outputs": [
        {
          "internalType": "uint256",
          "name": "",
          "type": "uint256"
        }
      ],
      "stateMutability": "view",
      "type": "function"
    },
    {
      "inputs": [
        {
          "internalType": "uint256",
          "name": "tokenId",
          "type": "uint256"
        }
      ],
      "name": "getApproved",
      "outputs": [
        {
          "internalType": "address",
          "name": "",
          "type": "address"
        }
      ],
      "stateMutability": "view",
      "type": "function"
    },
    {
      "inputs": [],
      "name": "getMySBTs",
      "outputs": [
        {
          "components": [
            {
              "internalType": "uint256",
              "name": "sBTId",
              "type": "uint256"
            },
            {
              "internalType": "string",
              "name": "fullName",
              "type": "string"
            },
            {
              "internalType": "string",
              "name": "certificateHash",
              "type": "string"
            },
            {
              "internalType": "string",
              "name": "citizenID",
              "type": "string"
            },
            {
              "internalType": "string",
              "name": "hometown",
              "type": "string"
            },
            {
              "internalType": "string",
              "name": "nationality",
              "type": "string"
            },
            {
              "internalType": "uint256",
              "name": "birthDate",
              "type": "uint256"
            },
            {
              "internalType": "address",
              "name": "ownerAddress",
              "type": "address"
            }
          ],
          "internalType": "struct SoulboundToken.SBTInfo[]",
          "name": "",
          "type": "tuple[]"
        }
      ],
      "stateMutability": "view",
      "type": "function"
    },
    {
      "inputs": [
        {
          "internalType": "address",
          "name": "addr",
          "type": "address"
        }
      ],
      "name": "getOrganizationCode",
      "outputs": [
        {
          "internalType": "string",
          "name": "",
          "type": "string"
        }
      ],
      "stateMutability": "view",
      "type": "function"
    },
    {
      "inputs": [],
      "name": "getOrganizationCodes",
      "outputs": [
        {
          "internalType": "string[]",
          "name": "",
          "type": "string[]"
        }
      ],
      "stateMutability": "view",
      "type": "function"
    },
    {
      "inputs": [
        {
          "internalType": "string",
          "name": "targetOrganizationCode",
          "type": "string"
        }
      ],
      "name": "getVerifiersByOrganizationCode",
      "outputs": [
        {
          "internalType": "address[]",
          "name": "",
          "type": "address[]"
        }
      ],
      "stateMutability": "view",
      "type": "function"
    },
    {
      "inputs": [
        {
          "internalType": "uint256",
          "name": "",
          "type": "uint256"
        }
      ],
      "name": "idToSBT",
      "outputs": [
        {
          "internalType": "uint256",
          "name": "sBTId",
          "type": "uint256"
        },
        {
          "internalType": "string",
          "name": "fullName",
          "type": "string"
        },
        {
          "internalType": "string",
          "name": "certificateHash",
          "type": "string"
        },
        {
          "internalType": "string",
          "name": "citizenID",
          "type": "string"
        },
        {
          "internalType": "string",
          "name": "hometown",
          "type": "string"
        },
        {
          "internalType": "string",
          "name": "nationality",
          "type": "string"
        },
        {
          "internalType": "uint256",
          "name": "birthDate",
          "type": "uint256"
        },
        {
          "internalType": "address",
          "name": "ownerAddress",
          "type": "address"
        }
      ],
      "stateMutability": "view",
      "type": "function"
    },
    {
      "inputs": [
        {
          "internalType": "address",
          "name": "owner",
          "type": "address"
        },
        {
          "internalType": "address",
          "name": "operator",
          "type": "address"
        }
      ],
      "name": "isApprovedForAll",
      "outputs": [
        {
          "internalType": "bool",
          "name": "",
          "type": "bool"
        }
      ],
      "stateMutability": "view",
      "type": "function"
    },
    {
      "inputs": [
        {
          "internalType": "address",
          "name": "addr",
          "type": "address"
        }
      ],
      "name": "isVerifier",
      "outputs": [
        {
          "internalType": "bool",
          "name": "",
          "type": "bool"
        }
      ],
      "stateMutability": "view",
      "type": "function"
    },
    {
      "inputs": [
        {
          "internalType": "address",
          "name": "recipient",
          "type": "address"
        },
        {
          "internalType": "string",
          "name": "tokenURI",
          "type": "string"
        }
      ],
      "name": "mintSBTForAddress",
      "outputs": [],
      "stateMutability": "nonpayable",
      "type": "function"
    },
    {
      "inputs": [],
      "name": "name",
      "outputs": [
        {
          "internalType": "string",
          "name": "",
          "type": "string"
        }
      ],
      "stateMutability": "view",
      "type": "function"
    },
    {
      "inputs": [],
      "name": "owner",
      "outputs": [
        {
          "internalType": "address",
          "name": "",
          "type": "address"
        }
      ],
      "stateMutability": "view",
      "type": "function"
    },
    {
      "inputs": [
        {
          "internalType": "uint256",
          "name": "tokenId",
          "type": "uint256"
        }
      ],
      "name": "ownerOf",
      "outputs": [
        {
          "internalType": "address",
          "name": "",
          "type": "address"
        }
      ],
      "stateMutability": "view",
      "type": "function"
    },
    {
      "inputs": [
        {
          "internalType": "bytes32",
          "name": "_ethSignedMessageHash",
          "type": "bytes32"
        },
        {
          "internalType": "bytes",
          "name": "_sig",
          "type": "bytes"
        }
      ],
      "name": "recover",
      "outputs": [
        {
          "internalType": "address",
          "name": "",
          "type": "address"
        }
      ],
      "stateMutability": "pure",
      "type": "function"
    },
    {
      "inputs": [
        {
          "internalType": "address",
          "name": "from",
          "type": "address"
        },
        {
          "internalType": "address",
          "name": "to",
          "type": "address"
        },
        {
          "internalType": "uint256",
          "name": "tokenId",
          "type": "uint256"
        }
      ],
      "name": "safeTransferFrom",
      "outputs": [],
      "stateMutability": "nonpayable",
      "type": "function"
    },
    {
      "inputs": [
        {
          "internalType": "address",
          "name": "from",
          "type": "address"
        },
        {
          "internalType": "address",
          "name": "to",
          "type": "address"
        },
        {
          "internalType": "uint256",
          "name": "tokenId",
          "type": "uint256"
        },
        {
          "internalType": "bytes",
          "name": "data",
          "type": "bytes"
        }
      ],
      "name": "safeTransferFrom",
      "outputs": [],
      "stateMutability": "nonpayable",
      "type": "function"
    },
    {
      "inputs": [
        {
          "internalType": "address",
          "name": "operator",
          "type": "address"
        },
        {
          "internalType": "bool",
          "name": "approved",
          "type": "bool"
        }
      ],
      "name": "setApprovalForAll",
      "outputs": [],
      "stateMutability": "nonpayable",
      "type": "function"
    },
    {
      "inputs": [
        {
          "internalType": "bytes4",
          "name": "interfaceId",
          "type": "bytes4"
        }
      ],
      "name": "supportsInterface",
      "outputs": [
        {
          "internalType": "bool",
          "name": "",
          "type": "bool"
        }
      ],
      "stateMutability": "view",
      "type": "function"
    },
    {
      "inputs": [],
      "name": "symbol",
      "outputs": [
        {
          "internalType": "string",
          "name": "",
          "type": "string"
        }
      ],
      "stateMutability": "view",
      "type": "function"
    },
    {
      "inputs": [
        {
          "internalType": "uint256",
          "name": "tokenId",
          "type": "uint256"
        }
      ],
      "name": "tokenURI",
      "outputs": [
        {
          "internalType": "string",
          "name": "",
          "type": "string"
        }
      ],
      "stateMutability": "view",
      "type": "function"
    },
    {
      "inputs": [
        {
          "internalType": "address",
          "name": "from",
          "type": "address"
        },
        {
          "internalType": "address",
          "name": "to",
          "type": "address"
        },
        {
          "internalType": "uint256",
          "name": "tokenId",
          "type": "uint256"
        }
      ],
      "name": "transferFrom",
      "outputs": [],
      "stateMutability": "nonpayable",
      "type": "function"
    },
    {
      "inputs": [
        {
          "internalType": "uint256",
          "name": "",
          "type": "uint256"
        }
      ],
      "name": "verifierAddresses",
      "outputs": [
        {
          "internalType": "address",
          "name": "",
          "type": "address"
        }
      ],
      "stateMutability": "view",
      "type": "function"
    },
    {
      "inputs": [
        {
          "internalType": "address",
          "name": "",
          "type": "address"
        }
      ],
      "name": "verifierList",
      "outputs": [
        {
          "internalType": "bool",
          "name": "isVerifier",
          "type": "bool"
        },
        {
          "internalType": "string",
          "name": "organizationCode",
          "type": "string"
        }
      ],
      "stateMutability": "view",
      "type": "function"
    }
  ],
  "bytecode": "0x608060405234801562000010575f80fd5b506040518060400160405280600e81526020017f536f756c626f756e64546f6b656e0000000000000000000000000000000000008152506040518060400160405280600381526020017f5342540000000000000000000000000000000000000000000000000000000000815250815f90816200008d91906200034c565b5080600190816200009f91906200034c565b5050503360075f6101000a81548173ffffffffffffffffffffffffffffffffffffffff021916908373ffffffffffffffffffffffffffffffffffffffff16021790555062000430565b5f81519050919050565b7f4e487b71000000000000000000000000000000000000000000000000000000005f52604160045260245ffd5b7f4e487b71000000000000000000000000000000000000000000000000000000005f52602260045260245ffd5b5f60028204905060018216806200016457607f821691505b6020821081036200017a57620001796200011f565b5b50919050565b5f819050815f5260205f209050919050565b5f6020601f8301049050919050565b5f82821b905092915050565b5f60088302620001de7fffffffffffffffffffffffffffffffffffffffffffffffffffffffffffffffff82620001a1565b620001ea8683620001a1565b95508019841693508086168417925050509392505050565b5f819050919050565b5f819050919050565b5f620002346200022e620002288462000202565b6200020b565b62000202565b9050919050565b5f819050919050565b6200024f8362000214565b620002676200025e826200023b565b848454620001ad565b825550505050565b5f90565b6200027d6200026f565b6200028a81848462000244565b505050565b5b81811015620002b157620002a55f8262000273565b60018101905062000290565b5050565b601f8211156200030057620002ca8162000180565b620002d58462000192565b81016020851015620002e5578190505b620002fd620002f48562000192565b8301826200028f565b50505b505050565b5f82821c905092915050565b5f620003225f198460080262000305565b1980831691505092915050565b5f6200033c838362000311565b9150826002028217905092915050565b6200035782620000e8565b67ffffffffffffffff811115620003735762000372620000f2565b5b6200037f82546200014c565b6200038c828285620002b5565b5f60209050601f831160018114620003c2575f8415620003ad578287015190505b620003b985826200032f565b86555062000428565b601f198416620003d28662000180565b5f5b82811015620003fb57848901518255600182019150602085019450602081019050620003d4565b868310156200041b578489015162000417601f89168262000311565b8355505b6001600288020188555050505b505050505050565b613e51806200043e5f395ff3fe608060405234801561000f575f80fd5b5060043610610171575f3560e01c8063657ad668116100dc578063a22cb46511610095578063c87b56dd1161006f578063c87b56dd1461049a578063d5c48a31146104ca578063e985e9c5146104fb578063fc3949eb1461052b57610171565b8063a22cb46514610432578063b88d4fde1461044e578063c368572f1461046a57610171565b8063657ad6681461034a5780636de053981461037a57806370a08231146103aa5780637340792a146103da5780638da5cb5b146103f657806395d89b411461041457610171565b806323b872dd1161012e57806323b872dd1461025d5780633310521814610279578063355d3998146102a957806337520e78146102c757806342842e0e146102fe5780636352211e1461031a57610171565b806301ffc9a71461017557806306fdde03146101a5578063081812fc146101c3578063095ea7b3146101f35780630f003ff71461020f57806319045a251461022d575b5f80fd5b61018f600480360381019061018a9190612b31565b610547565b60405161019c9190612b76565b60405180910390f35b6101ad6105a7565b6040516101ba9190612c19565b60405180910390f35b6101dd60048036038101906101d89190612c6c565b610636565b6040516101ea9190612cd6565b60405180910390f35b61020d60048036038101906102089190612d19565b610651565b005b610217610667565b6040516102249190612f41565b60405180910390f35b610247600480360381019061024291906130c0565b610b7a565b6040516102549190612cd6565b60405180910390f35b6102776004803603810190610272919061311a565b610be4565b005b610293600480360381019061028e919061316a565b610ce3565b6040516102a09190612b76565b60405180910390f35b6102b1610d37565b6040516102be9190613250565b60405180910390f35b6102e160048036038101906102dc9190612c6c565b610e0b565b6040516102f598979695949392919061327f565b60405180910390f35b6103186004803603810190610313919061311a565b61110c565b005b610334600480360381019061032f9190612c6c565b61112b565b6040516103419190612cd6565b60405180910390f35b610364600480360381019061035f919061316a565b61113c565b6040516103719190612c19565b60405180910390f35b610394600480360381019061038f9190612c6c565b61120c565b6040516103a19190612cd6565b60405180910390f35b6103c460048036038101906103bf919061316a565b611247565b6040516103d1919061331e565b60405180910390f35b6103f460048036038101906103ef91906133d5565b6112fd565b005b6103fe611484565b60405161040b9190612cd6565b60405180910390f35b61041c6114a9565b6040516104299190612c19565b60405180910390f35b61044c60048036038101906104479190613459565b611539565b005b61046860048036038101906104639190613497565b61154f565b005b610484600480360381019061047f9190613517565b61156c565b6040516104919190613606565b60405180910390f35b6104b460048036038101906104af9190612c6c565b6117b2565b6040516104c19190612c19565b60405180910390f35b6104e460048036038101906104df919061316a565b6118bd565b6040516104f2929190613626565b60405180910390f35b61051560048036038101906105109190613654565b61196f565b6040516105229190612b76565b60405180910390f35b610545600480360381019061054091906133d5565b6119fd565b005b5f634906490660e01b7bffffffffffffffffffffffffffffffffffffffffffffffffffffffff1916827bffffffffffffffffffffffffffffffffffffffffffffffffffffffff191614806105a0575061059f82611b0f565b5b9050919050565b60605f80546105b5906136bf565b80601f01602080910402602001604051908101604052809291908181526020018280546105e1906136bf565b801561062c5780601f106106035761010080835404028352916020019161062c565b820191905f5260205f20905b81548152906001019060200180831161060f57829003601f168201915b5050505050905090565b5f61064082611bf0565b5061064a82611c76565b9050919050565b610663828261065e611caf565b611cb6565b5050565b60605f6106746008611cc8565b90505f80600190505b82811161070d573373ffffffffffffffffffffffffffffffffffffffff1660095f8381526020019081526020015f206007015f9054906101000a900473ffffffffffffffffffffffffffffffffffffffff1673ffffffffffffffffffffffffffffffffffffffff16036106fa576001826106f7919061371c565b91505b80806107059061374f565b91505061067d565b505f8167ffffffffffffffff81111561072957610728612f9c565b5b60405190808252806020026020018201604052801561076257816020015b61074f612a73565b8152602001906001900390816107475790505b5090505f80600190505b848111610b6f573373ffffffffffffffffffffffffffffffffffffffff1660095f8381526020019081526020015f206007015f9054906101000a900473ffffffffffffffffffffffffffffffffffffffff1673ffffffffffffffffffffffffffffffffffffffff1603610b5c5760095f8281526020019081526020015f20604051806101000160405290815f820154815260200160018201805461080f906136bf565b80601f016020809104026020016040519081016040528092919081815260200182805461083b906136bf565b80156108865780601f1061085d57610100808354040283529160200191610886565b820191905f5260205f20905b81548152906001019060200180831161086957829003601f168201915b5050505050815260200160028201805461089f906136bf565b80601f01602080910402602001604051908101604052809291908181526020018280546108cb906136bf565b80156109165780601f106108ed57610100808354040283529160200191610916565b820191905f5260205f20905b8154815290600101906020018083116108f957829003601f168201915b5050505050815260200160038201805461092f906136bf565b80601f016020809104026020016040519081016040528092919081815260200182805461095b906136bf565b80156109a65780601f1061097d576101008083540402835291602001916109a6565b820191905f5260205f20905b81548152906001019060200180831161098957829003601f168201915b505050505081526020016004820180546109bf906136bf565b80601f01602080910402602001604051908101604052809291908181526020018280546109eb906136bf565b8015610a365780601f10610a0d57610100808354040283529160200191610a36565b820191905f5260205f20905b815481529060010190602001808311610a1957829003601f168201915b50505050508152602001600582018054610a4f906136bf565b80601f0160208091040260200160405190810160405280929190818152602001828054610a7b906136bf565b8015610ac65780601f10610a9d57610100808354040283529160200191610ac6565b820191905f5260205f20905b815481529060010190602001808311610aa957829003601f168201915b5050505050815260200160068201548152602001600782015f9054906101000a900473ffffffffffffffffffffffffffffffffffffffff1673ffffffffffffffffffffffffffffffffffffffff1673ffffffffffffffffffffffffffffffffffffffff1681525050838381518110610b4157610b40613796565b5b6020026020010181905250600182610b59919061371c565b91505b8080610b679061374f565b91505061076c565b508194505050505090565b5f805f80610b8785611cd4565b9250925092506001868285856040515f8152602001604052604051610baf94939291906137ed565b6020604051602081039080840390855afa158015610bcf573d5f803e3d5ffd5b50505060206040510351935050505092915050565b5f73ffffffffffffffffffffffffffffffffffffffff168273ffffffffffffffffffffffffffffffffffffffff1603610c54575f6040517f64a0ae92000000000000000000000000000000000000000000000000000000008152600401610c4b9190612cd6565b60405180910390fd5b5f610c678383610c62611caf565b611d39565b90508373ffffffffffffffffffffffffffffffffffffffff168173ffffffffffffffffffffffffffffffffffffffff1614610cdd578382826040517f64283d7b000000000000000000000000000000000000000000000000000000008152600401610cd493929190613830565b60405180910390fd5b50505050565b5f600a5f8373ffffffffffffffffffffffffffffffffffffffff1673ffffffffffffffffffffffffffffffffffffffff1681526020019081526020015f205f015f9054906101000a900460ff169050919050565b6060600d805480602002602001604051908101604052809291908181526020015f905b82821015610e02578382905f5260205f20018054610d77906136bf565b80601f0160208091040260200160405190810160405280929190818152602001828054610da3906136bf565b8015610dee5780601f10610dc557610100808354040283529160200191610dee565b820191905f5260205f20905b815481529060010190602001808311610dd157829003601f168201915b505050505081526020019060010190610d5a565b50505050905090565b6009602052805f5260405f205f91509050805f015490806001018054610e30906136bf565b80601f0160208091040260200160405190810160405280929190818152602001828054610e5c906136bf565b8015610ea75780601f10610e7e57610100808354040283529160200191610ea7565b820191905f5260205f20905b815481529060010190602001808311610e8a57829003601f168201915b505050505090806002018054610ebc906136bf565b80601f0160208091040260200160405190810160405280929190818152602001828054610ee8906136bf565b8015610f335780601f10610f0a57610100808354040283529160200191610f33565b820191905f5260205f20905b815481529060010190602001808311610f1657829003601f168201915b505050505090806003018054610f48906136bf565b80601f0160208091040260200160405190810160405280929190818152602001828054610f74906136bf565b8015610fbf5780601f10610f9657610100808354040283529160200191610fbf565b820191905f5260205f20905b815481529060010190602001808311610fa257829003601f168201915b505050505090806004018054610fd4906136bf565b80601f0160208091040260200160405190810160405280929190818152602001828054611000906136bf565b801561104b5780601f106110225761010080835404028352916020019161104b565b820191905f5260205f20905b81548152906001019060200180831161102e57829003601f168201915b505050505090806005018054611060906136bf565b80601f016020809104026020016040519081016040528092919081815260200182805461108c906136bf565b80156110d75780601f106110ae576101008083540402835291602001916110d7565b820191905f5260205f20905b8154815290600101906020018083116110ba57829003601f168201915b505050505090806006015490806007015f9054906101000a900473ffffffffffffffffffffffffffffffffffffffff16905088565b61112683838360405180602001604052805f81525061154f565b505050565b5f61113582611bf0565b9050919050565b6060600a5f8373ffffffffffffffffffffffffffffffffffffffff1673ffffffffffffffffffffffffffffffffffffffff1681526020019081526020015f206001018054611189906136bf565b80601f01602080910402602001604051908101604052809291908181526020018280546111b5906136bf565b80156112005780601f106111d757610100808354040283529160200191611200565b820191905f5260205f20905b8154815290600101906020018083116111e357829003601f168201915b50505050509050919050565b600b818154811061121b575f80fd5b905f5260205f20015f915054906101000a900473ffffffffffffffffffffffffffffffffffffffff1681565b5f8073ffffffffffffffffffffffffffffffffffffffff168273ffffffffffffffffffffffffffffffffffffffff16036112b8575f6040517f89c62b640000000000000000000000000000000000000000000000000000000081526004016112af9190612cd6565b60405180910390fd5b60035f8373ffffffffffffffffffffffffffffffffffffffff1673ffffffffffffffffffffffffffffffffffffffff1681526020019081526020015f20549050919050565b604051806040016040528060011515815260200182815250600a5f8473ffffffffffffffffffffffffffffffffffffffff1673ffffffffffffffffffffffffffffffffffffffff1681526020019081526020015f205f820151815f015f6101000a81548160ff02191690831515021790555060208201518160010190816113849190613a02565b50905050600b82908060018154018082558091505060019003905f5260205f20015f9091909190916101000a81548173ffffffffffffffffffffffffffffffffffffffff021916908373ffffffffffffffffffffffffffffffffffffffff160217905550600c816040516113f89190613b0b565b90815260200160405180910390205f9054906101000a900460ff16611480576001600c826040516114299190613b0b565b90815260200160405180910390205f6101000a81548160ff021916908315150217905550600d81908060018154018082558091505060019003905f5260205f20015f90919091909150908161147e9190613a02565b505b5050565b60075f9054906101000a900473ffffffffffffffffffffffffffffffffffffffff1681565b6060600180546114b8906136bf565b80601f01602080910402602001604051908101604052809291908181526020018280546114e4906136bf565b801561152f5780601f106115065761010080835404028352916020019161152f565b820191905f5260205f20905b81548152906001019060200180831161151257829003601f168201915b5050505050905090565b61154b611544611caf565b8383611f44565b5050565b61155a848484610be4565b611566848484846120ad565b50505050565b60605f60605f5b600b8054905081101561163e575f600b828154811061159557611594613796565b5b905f5260205f20015f9054906101000a900473ffffffffffffffffffffffffffffffffffffffff1690508580519060200120600a5f8373ffffffffffffffffffffffffffffffffffffffff1673ffffffffffffffffffffffffffffffffffffffff1681526020019081526020015f206001016040516116149190613bbd565b60405180910390200361163057838061162c9061374f565b9450505b508080600101915050611573565b508167ffffffffffffffff81111561165957611658612f9c565b5b6040519080825280602002602001820160405280156116875781602001602082028036833780820191505090505b5090505f805b600b805490508110156117a6575f600b82815481106116af576116ae613796565b5b905f5260205f20015f9054906101000a900473ffffffffffffffffffffffffffffffffffffffff1690508680519060200120600a5f8373ffffffffffffffffffffffffffffffffffffffff1673ffffffffffffffffffffffffffffffffffffffff1681526020019081526020015f2060010160405161172e9190613bbd565b604051809103902003611798578084848151811061174f5761174e613796565b5b602002602001019073ffffffffffffffffffffffffffffffffffffffff16908173ffffffffffffffffffffffffffffffffffffffff168152505082806117949061374f565b9350505b50808060010191505061168d565b50819350505050919050565b60606117bd82611bf0565b505f60065f8481526020019081526020015f2080546117db906136bf565b80601f0160208091040260200160405190810160405280929190818152602001828054611807906136bf565b80156118525780601f1061182957610100808354040283529160200191611852565b820191905f5260205f20905b81548152906001019060200180831161183557829003601f168201915b505050505090505f61186261225f565b90505f8151036118765781925050506118b8565b5f825111156118aa578082604051602001611892929190613bd3565b604051602081830303815290604052925050506118b8565b6118b384612275565b925050505b919050565b600a602052805f5260405f205f91509050805f015f9054906101000a900460ff16908060010180546118ee906136bf565b80601f016020809104026020016040519081016040528092919081815260200182805461191a906136bf565b80156119655780601f1061193c57610100808354040283529160200191611965565b820191905f5260205f20905b81548152906001019060200180831161194857829003601f168201915b5050505050905082565b5f60055f8473ffffffffffffffffffffffffffffffffffffffff1673ffffffffffffffffffffffffffffffffffffffff1681526020019081526020015f205f8373ffffffffffffffffffffffffffffffffffffffff1673ffffffffffffffffffffffffffffffffffffffff1681526020019081526020015f205f9054906101000a900460ff16905092915050565b60075f9054906101000a900473ffffffffffffffffffffffffffffffffffffffff1673ffffffffffffffffffffffffffffffffffffffff163373ffffffffffffffffffffffffffffffffffffffff161480611aa05750600a5f3373ffffffffffffffffffffffffffffffffffffffff1673ffffffffffffffffffffffffffffffffffffffff1681526020019081526020015f205f015f9054906101000a900460ff165b611adf576040517f08c379a0000000000000000000000000000000000000000000000000000000008152600401611ad690613c66565b60405180910390fd5b611ae960086122db565b5f611af46008611cc8565b9050611b0083826122ef565b611b0a818361230c565b505050565b5f7f80ac58cd000000000000000000000000000000000000000000000000000000007bffffffffffffffffffffffffffffffffffffffffffffffffffffffff1916827bffffffffffffffffffffffffffffffffffffffffffffffffffffffff19161480611bd957507f5b5e139f000000000000000000000000000000000000000000000000000000007bffffffffffffffffffffffffffffffffffffffffffffffffffffffff1916827bffffffffffffffffffffffffffffffffffffffffffffffffffffffff1916145b80611be95750611be882612366565b5b9050919050565b5f80611bfb836123cf565b90505f73ffffffffffffffffffffffffffffffffffffffff168173ffffffffffffffffffffffffffffffffffffffff1603611c6d57826040517f7e273289000000000000000000000000000000000000000000000000000000008152600401611c64919061331e565b60405180910390fd5b80915050919050565b5f60045f8381526020019081526020015f205f9054906101000a900473ffffffffffffffffffffffffffffffffffffffff169050919050565b5f33905090565b611cc38383836001612408565b505050565b5f815f01549050919050565b5f805f6041845114611d1b576040517f08c379a0000000000000000000000000000000000000000000000000000000008152600401611d1290613cce565b60405180910390fd5b602084015192506040840151915060608401515f1a90509193909250565b5f80611d44846123cf565b90505f73ffffffffffffffffffffffffffffffffffffffff168373ffffffffffffffffffffffffffffffffffffffff1614611d8557611d848184866125c7565b5b5f73ffffffffffffffffffffffffffffffffffffffff168173ffffffffffffffffffffffffffffffffffffffff1614611e1057611dc45f855f80612408565b600160035f8373ffffffffffffffffffffffffffffffffffffffff1673ffffffffffffffffffffffffffffffffffffffff1681526020019081526020015f205f82825403925050819055505b5f73ffffffffffffffffffffffffffffffffffffffff168573ffffffffffffffffffffffffffffffffffffffff1614611e8f57600160035f8773ffffffffffffffffffffffffffffffffffffffff1673ffffffffffffffffffffffffffffffffffffffff1681526020019081526020015f205f82825401925050819055505b8460025f8681526020019081526020015f205f6101000a81548173ffffffffffffffffffffffffffffffffffffffff021916908373ffffffffffffffffffffffffffffffffffffffff160217905550838573ffffffffffffffffffffffffffffffffffffffff168273ffffffffffffffffffffffffffffffffffffffff167fddf252ad1be2c89b69c2b068fc378daa952ba7f163c4a11628f55a4df523b3ef60405160405180910390a4809150509392505050565b5f73ffffffffffffffffffffffffffffffffffffffff168273ffffffffffffffffffffffffffffffffffffffff1603611fb457816040517f5b08ba18000000000000000000000000000000000000000000000000000000008152600401611fab9190612cd6565b60405180910390fd5b8060055f8573ffffffffffffffffffffffffffffffffffffffff1673ffffffffffffffffffffffffffffffffffffffff1681526020019081526020015f205f8473ffffffffffffffffffffffffffffffffffffffff1673ffffffffffffffffffffffffffffffffffffffff1681526020019081526020015f205f6101000a81548160ff0219169083151502179055508173ffffffffffffffffffffffffffffffffffffffff168373ffffffffffffffffffffffffffffffffffffffff167f17307eab39ab6107e8899845ad3d59bd9653f200f220920489ca2b5937696c31836040516120a09190612b76565b60405180910390a3505050565b5f8373ffffffffffffffffffffffffffffffffffffffff163b1115612259578273ffffffffffffffffffffffffffffffffffffffff1663150b7a026120f0611caf565b8685856040518563ffffffff1660e01b81526004016121129493929190613d3e565b6020604051808303815f875af192505050801561214d57506040513d601f19601f8201168201806040525081019061214a9190613d9c565b60015b6121ce573d805f811461217b576040519150601f19603f3d011682016040523d82523d5f602084013e612180565b606091505b505f8151036121c657836040517f64a0ae920000000000000000000000000000000000000000000000000000000081526004016121bd9190612cd6565b60405180910390fd5b805181602001fd5b63150b7a0260e01b7bffffffffffffffffffffffffffffffffffffffffffffffffffffffff1916817bffffffffffffffffffffffffffffffffffffffffffffffffffffffff19161461225757836040517f64a0ae9200000000000000000000000000000000000000000000000000000000815260040161224e9190612cd6565b60405180910390fd5b505b50505050565b606060405180602001604052805f815250905090565b606061228082611bf0565b505f61228a61225f565b90505f8151116122a85760405180602001604052805f8152506122d3565b806122b28461268a565b6040516020016122c3929190613bd3565b6040516020818303038152906040525b915050919050565b6001815f015f828254019250508190555050565b612308828260405180602001604052805f815250612754565b5050565b8060065f8481526020019081526020015f20908161232a9190613a02565b507ff8e1a15aba9398e019f0b49df1a4fde98ee17ae345cb5f6b5e2c27f5033e8ce78260405161235a919061331e565b60405180910390a15050565b5f7f01ffc9a7000000000000000000000000000000000000000000000000000000007bffffffffffffffffffffffffffffffffffffffffffffffffffffffff1916827bffffffffffffffffffffffffffffffffffffffffffffffffffffffff1916149050919050565b5f60025f8381526020019081526020015f205f9054906101000a900473ffffffffffffffffffffffffffffffffffffffff169050919050565b808061244057505f73ffffffffffffffffffffffffffffffffffffffff168273ffffffffffffffffffffffffffffffffffffffff1614155b15612572575f61244f84611bf0565b90505f73ffffffffffffffffffffffffffffffffffffffff168373ffffffffffffffffffffffffffffffffffffffff16141580156124b957508273ffffffffffffffffffffffffffffffffffffffff168173ffffffffffffffffffffffffffffffffffffffff1614155b80156124cc57506124ca818461196f565b155b1561250e57826040517fa9fbf51f0000000000000000000000000000000000000000000000000000000081526004016125059190612cd6565b60405180910390fd5b811561257057838573ffffffffffffffffffffffffffffffffffffffff168273ffffffffffffffffffffffffffffffffffffffff167f8c5be1e5ebec7d5bd14f71427d1e84f3dd0314c0f7b2291e5b200ac8c7c3b92560405160405180910390a45b505b8360045f8581526020019081526020015f205f6101000a81548173ffffffffffffffffffffffffffffffffffffffff021916908373ffffffffffffffffffffffffffffffffffffffff16021790555050505050565b6125d283838361276f565b612685575f73ffffffffffffffffffffffffffffffffffffffff168373ffffffffffffffffffffffffffffffffffffffff160361264657806040517f7e27328900000000000000000000000000000000000000000000000000000000815260040161263d919061331e565b60405180910390fd5b81816040517f177e802f00000000000000000000000000000000000000000000000000000000815260040161267c929190613dc7565b60405180910390fd5b505050565b60605f60016126988461282f565b0190505f8167ffffffffffffffff8111156126b6576126b5612f9c565b5b6040519080825280601f01601f1916602001820160405280156126e85781602001600182028036833780820191505090505b5090505f82602001820190505b600115612749578080600190039150507f3031323334353637383961626364656600000000000000000000000000000000600a86061a8153600a858161273e5761273d613dee565b5b0494505f85036126f5575b819350505050919050565b61275e8383612980565b61276a5f8484846120ad565b505050565b5f8073ffffffffffffffffffffffffffffffffffffffff168373ffffffffffffffffffffffffffffffffffffffff161415801561282657508273ffffffffffffffffffffffffffffffffffffffff168473ffffffffffffffffffffffffffffffffffffffff1614806127e757506127e6848461196f565b5b8061282557508273ffffffffffffffffffffffffffffffffffffffff1661280d83611c76565b73ffffffffffffffffffffffffffffffffffffffff16145b5b90509392505050565b5f805f90507a184f03e93ff9f4daa797ed6e38ed64bf6a1f010000000000000000831061288b577a184f03e93ff9f4daa797ed6e38ed64bf6a1f010000000000000000838161288157612880613dee565b5b0492506040810190505b6d04ee2d6d415b85acef810000000083106128c8576d04ee2d6d415b85acef810000000083816128be576128bd613dee565b5b0492506020810190505b662386f26fc1000083106128f757662386f26fc1000083816128ed576128ec613dee565b5b0492506010810190505b6305f5e1008310612920576305f5e100838161291657612915613dee565b5b0492506008810190505b612710831061294557612710838161293b5761293a613dee565b5b0492506004810190505b60648310612968576064838161295e5761295d613dee565b5b0492506002810190505b600a8310612977576001810190505b80915050919050565b5f73ffffffffffffffffffffffffffffffffffffffff168273ffffffffffffffffffffffffffffffffffffffff16036129f0575f6040517f64a0ae920000000000000000000000000000000000000000000000000000000081526004016129e79190612cd6565b60405180910390fd5b5f6129fc83835f611d39565b90505f73ffffffffffffffffffffffffffffffffffffffff168173ffffffffffffffffffffffffffffffffffffffff1614612a6e575f6040517f73c6ac6e000000000000000000000000000000000000000000000000000000008152600401612a659190612cd6565b60405180910390fd5b505050565b6040518061010001604052805f815260200160608152602001606081526020016060815260200160608152602001606081526020015f81526020015f73ffffffffffffffffffffffffffffffffffffffff1681525090565b5f604051905090565b5f80fd5b5f80fd5b5f7fffffffff0000000000000000000000000000000000000000000000000000000082169050919050565b612b1081612adc565b8114612b1a575f80fd5b50565b5f81359050612b2b81612b07565b92915050565b5f60208284031215612b4657612b45612ad4565b5b5f612b5384828501612b1d565b91505092915050565b5f8115159050919050565b612b7081612b5c565b82525050565b5f602082019050612b895f830184612b67565b92915050565b5f81519050919050565b5f82825260208201905092915050565b5f5b83811015612bc6578082015181840152602081019050612bab565b5f8484015250505050565b5f601f19601f8301169050919050565b5f612beb82612b8f565b612bf58185612b99565b9350612c05818560208601612ba9565b612c0e81612bd1565b840191505092915050565b5f6020820190508181035f830152612c318184612be1565b905092915050565b5f819050919050565b612c4b81612c39565b8114612c55575f80fd5b50565b5f81359050612c6681612c42565b92915050565b5f60208284031215612c8157612c80612ad4565b5b5f612c8e84828501612c58565b91505092915050565b5f73ffffffffffffffffffffffffffffffffffffffff82169050919050565b5f612cc082612c97565b9050919050565b612cd081612cb6565b82525050565b5f602082019050612ce95f830184612cc7565b92915050565b612cf881612cb6565b8114612d02575f80fd5b50565b5f81359050612d1381612cef565b92915050565b5f8060408385031215612d2f57612d2e612ad4565b5b5f612d3c85828601612d05565b9250506020612d4d85828601612c58565b9150509250929050565b5f81519050919050565b5f82825260208201905092915050565b5f819050602082019050919050565b612d8981612c39565b82525050565b5f82825260208201905092915050565b5f612da982612b8f565b612db38185612d8f565b9350612dc3818560208601612ba9565b612dcc81612bd1565b840191505092915050565b612de081612cb6565b82525050565b5f61010083015f830151612dfc5f860182612d80565b5060208301518482036020860152612e148282612d9f565b91505060408301518482036040860152612e2e8282612d9f565b91505060608301518482036060860152612e488282612d9f565b91505060808301518482036080860152612e628282612d9f565b91505060a083015184820360a0860152612e7c8282612d9f565b91505060c0830151612e9160c0860182612d80565b5060e0830151612ea460e0860182612dd7565b508091505092915050565b5f612eba8383612de6565b905092915050565b5f602082019050919050565b5f612ed882612d57565b612ee28185612d61565b935083602082028501612ef485612d71565b805f5b85811015612f2f5784840389528151612f108582612eaf565b9450612f1b83612ec2565b925060208a01995050600181019050612ef7565b50829750879550505050505092915050565b5f6020820190508181035f830152612f598184612ece565b905092915050565b5f819050919050565b612f7381612f61565b8114612f7d575f80fd5b50565b5f81359050612f8e81612f6a565b92915050565b5f80fd5b5f80fd5b7f4e487b71000000000000000000000000000000000000000000000000000000005f52604160045260245ffd5b612fd282612bd1565b810181811067ffffffffffffffff82111715612ff157612ff0612f9c565b5b80604052505050565b5f613003612acb565b905061300f8282612fc9565b919050565b5f67ffffffffffffffff82111561302e5761302d612f9c565b5b61303782612bd1565b9050602081019050919050565b828183375f83830152505050565b5f61306461305f84613014565b612ffa565b9050828152602081018484840111156130805761307f612f98565b5b61308b848285613044565b509392505050565b5f82601f8301126130a7576130a6612f94565b5b81356130b7848260208601613052565b91505092915050565b5f80604083850312156130d6576130d5612ad4565b5b5f6130e385828601612f80565b925050602083013567ffffffffffffffff81111561310457613103612ad8565b5b61311085828601613093565b9150509250929050565b5f805f6060848603121561313157613130612ad4565b5b5f61313e86828701612d05565b935050602061314f86828701612d05565b925050604061316086828701612c58565b9150509250925092565b5f6020828403121561317f5761317e612ad4565b5b5f61318c84828501612d05565b91505092915050565b5f81519050919050565b5f82825260208201905092915050565b5f819050602082019050919050565b5f6131c98383612d9f565b905092915050565b5f602082019050919050565b5f6131e782613195565b6131f1818561319f565b935083602082028501613203856131af565b805f5b8581101561323e578484038952815161321f85826131be565b945061322a836131d1565b925060208a01995050600181019050613206565b50829750879550505050505092915050565b5f6020820190508181035f83015261326881846131dd565b905092915050565b61327981612c39565b82525050565b5f610100820190506132935f83018b613270565b81810360208301526132a5818a612be1565b905081810360408301526132b98189612be1565b905081810360608301526132cd8188612be1565b905081810360808301526132e18187612be1565b905081810360a08301526132f58186612be1565b905061330460c0830185613270565b61331160e0830184612cc7565b9998505050505050505050565b5f6020820190506133315f830184613270565b92915050565b5f67ffffffffffffffff82111561335157613350612f9c565b5b61335a82612bd1565b9050602081019050919050565b5f61337961337484613337565b612ffa565b90508281526020810184848401111561339557613394612f98565b5b6133a0848285613044565b509392505050565b5f82601f8301126133bc576133bb612f94565b5b81356133cc848260208601613367565b91505092915050565b5f80604083850312156133eb576133ea612ad4565b5b5f6133f885828601612d05565b925050602083013567ffffffffffffffff81111561341957613418612ad8565b5b613425858286016133a8565b9150509250929050565b61343881612b5c565b8114613442575f80fd5b50565b5f813590506134538161342f565b92915050565b5f806040838503121561346f5761346e612ad4565b5b5f61347c85828601612d05565b925050602061348d85828601613445565b9150509250929050565b5f805f80608085870312156134af576134ae612ad4565b5b5f6134bc87828801612d05565b94505060206134cd87828801612d05565b93505060406134de87828801612c58565b925050606085013567ffffffffffffffff8111156134ff576134fe612ad8565b5b61350b87828801613093565b91505092959194509250565b5f6020828403121561352c5761352b612ad4565b5b5f82013567ffffffffffffffff81111561354957613548612ad8565b5b613555848285016133a8565b91505092915050565b5f81519050919050565b5f82825260208201905092915050565b5f819050602082019050919050565b5f6135928383612dd7565b60208301905092915050565b5f602082019050919050565b5f6135b48261355e565b6135be8185613568565b93506135c983613578565b805f5b838110156135f95781516135e08882613587565b97506135eb8361359e565b9250506001810190506135cc565b5085935050505092915050565b5f6020820190508181035f83015261361e81846135aa565b905092915050565b5f6040820190506136395f830185612b67565b818103602083015261364b8184612be1565b90509392505050565b5f806040838503121561366a57613669612ad4565b5b5f61367785828601612d05565b925050602061368885828601612d05565b9150509250929050565b7f4e487b71000000000000000000000000000000000000000000000000000000005f52602260045260245ffd5b5f60028204905060018216806136d657607f821691505b6020821081036136e9576136e8613692565b5b50919050565b7f4e487b71000000000000000000000000000000000000000000000000000000005f52601160045260245ffd5b5f61372682612c39565b915061373183612c39565b9250828201905080821115613749576137486136ef565b5b92915050565b5f61375982612c39565b91507fffffffffffffffffffffffffffffffffffffffffffffffffffffffffffffffff820361378b5761378a6136ef565b5b600182019050919050565b7f4e487b71000000000000000000000000000000000000000000000000000000005f52603260045260245ffd5b6137cc81612f61565b82525050565b5f60ff82169050919050565b6137e7816137d2565b82525050565b5f6080820190506138005f8301876137c3565b61380d60208301866137de565b61381a60408301856137c3565b61382760608301846137c3565b95945050505050565b5f6060820190506138435f830186612cc7565b6138506020830185613270565b61385d6040830184612cc7565b949350505050565b5f819050815f5260205f209050919050565b5f6020601f8301049050919050565b5f82821b905092915050565b5f600883026138c17fffffffffffffffffffffffffffffffffffffffffffffffffffffffffffffffff82613886565b6138cb8683613886565b95508019841693508086168417925050509392505050565b5f819050919050565b5f6139066139016138fc84612c39565b6138e3565b612c39565b9050919050565b5f819050919050565b61391f836138ec565b61393361392b8261390d565b848454613892565b825550505050565b5f90565b61394761393b565b613952818484613916565b505050565b5b818110156139755761396a5f8261393f565b600181019050613958565b5050565b601f8211156139ba5761398b81613865565b61399484613877565b810160208510156139a3578190505b6139b76139af85613877565b830182613957565b50505b505050565b5f82821c905092915050565b5f6139da5f19846008026139bf565b1980831691505092915050565b5f6139f283836139cb565b9150826002028217905092915050565b613a0b82612b8f565b67ffffffffffffffff811115613a2457613a23612f9c565b5b613a2e82546136bf565b613a39828285613979565b5f60209050601f831160018114613a6a575f8415613a58578287015190505b613a6285826139e7565b865550613ac9565b601f198416613a7886613865565b5f5b82811015613a9f57848901518255600182019150602085019450602081019050613a7a565b86831015613abc5784890151613ab8601f8916826139cb565b8355505b6001600288020188555050505b505050505050565b5f81905092915050565b5f613ae582612b8f565b613aef8185613ad1565b9350613aff818560208601612ba9565b80840191505092915050565b5f613b168284613adb565b915081905092915050565b5f81905092915050565b5f819050815f5260205f209050919050565b5f8154613b49816136bf565b613b538186613b21565b9450600182165f8114613b6d5760018114613b8257613bb4565b60ff1983168652811515820286019350613bb4565b613b8b85613b2b565b5f5b83811015613bac57815481890152600182019150602081019050613b8d565b838801955050505b50505092915050565b5f613bc88284613b3d565b915081905092915050565b5f613bde8285613adb565b9150613bea8284613adb565b91508190509392505050565b7f4f6e6c7920746865206f776e6572206f72207665726966696572732063616e205f8201527f6d696e74205342547320666f7220616464726573736573000000000000000000602082015250565b5f613c50603783612b99565b9150613c5b82613bf6565b604082019050919050565b5f6020820190508181035f830152613c7d81613c44565b9050919050565b7f696e76616c6964207369676e6174757265206c656e67746800000000000000005f82015250565b5f613cb8601883612b99565b9150613cc382613c84565b602082019050919050565b5f6020820190508181035f830152613ce581613cac565b9050919050565b5f81519050919050565b5f82825260208201905092915050565b5f613d1082613cec565b613d1a8185613cf6565b9350613d2a818560208601612ba9565b613d3381612bd1565b840191505092915050565b5f608082019050613d515f830187612cc7565b613d5e6020830186612cc7565b613d6b6040830185613270565b8181036060830152613d7d8184613d06565b905095945050505050565b5f81519050613d9681612b07565b92915050565b5f60208284031215613db157613db0612ad4565b5b5f613dbe84828501613d88565b91505092915050565b5f604082019050613dda5f830185612cc7565b613de76020830184613270565b9392505050565b7f4e487b71000000000000000000000000000000000000000000000000000000005f52601260045260245ffdfea26469706673582212200518f24d6917d04d4599f7429771a556840abf7f7cd73536788c917f538a6b3764736f6c63430008180033",
  "linkReferences": {},
  "deployedLinkReferences": {}
}