{
  "_format": "hh-sol-artifact-1",
  "contractName": "SoundboundToken",
  "sourceName": "contracts/SoundboundToken.sol",
  "abi": [
    {
      "inputs": [],
      "stateMutability": "nonpayable",
      "type": "constructor"
    },
    {
      "anonymous": false,
      "inputs": [
        {
          "indexed": true,
          "internalType": "address",
          "name": "owner",
          "type": "address"
        },
        {
          "indexed": true,
          "internalType": "address",
          "name": "approved",
          "type": "address"
        },
        {
          "indexed": true,
          "internalType": "uint256",
          "name": "tokenId",
          "type": "uint256"
        }
      ],
      "name": "Approval",
      "type": "event"
    },
    {
      "anonymous": false,
      "inputs": [
        {
          "indexed": true,
          "internalType": "address",
          "name": "owner",
          "type": "address"
        },
        {
          "indexed": true,
          "internalType": "address",
          "name": "operator",
          "type": "address"
        },
        {
          "indexed": false,
          "internalType": "bool",
          "name": "approved",
          "type": "bool"
        }
      ],
      "name": "ApprovalForAll",
      "type": "event"
    },
    {
      "anonymous": false,
      "inputs": [
        {
          "indexed": true,
          "internalType": "address",
          "name": "from",
          "type": "address"
        },
        {
          "indexed": true,
          "internalType": "address",
          "name": "to",
          "type": "address"
        },
        {
          "indexed": true,
          "internalType": "uint256",
          "name": "tokenId",
          "type": "uint256"
        }
      ],
      "name": "Transfer",
      "type": "event"
    },
    {
      "inputs": [
        {
          "internalType": "address",
          "name": "verifier",
          "type": "address"
        },
        {
          "internalType": "bytes32",
          "name": "code",
          "type": "bytes32"
        }
      ],
      "name": "addVerifier",
      "outputs": [],
      "stateMutability": "nonpayable",
      "type": "function"
    },
    {
      "inputs": [
        {
          "internalType": "address",
          "name": "to",
          "type": "address"
        },
        {
          "internalType": "uint256",
          "name": "tokenId",
          "type": "uint256"
        }
      ],
      "name": "approve",
      "outputs": [],
      "stateMutability": "nonpayable",
      "type": "function"
    },
    {
      "inputs": [
        {
          "internalType": "address",
          "name": "owner",
          "type": "address"
        }
      ],
      "name": "balanceOf",
      "outputs": [
        {
          "internalType": "uint256",
          "name": "",
          "type": "uint256"
        }
      ],
      "stateMutability": "view",
      "type": "function"
    },
    {
      "inputs": [
        {
          "internalType": "uint256",
          "name": "tokenId",
          "type": "uint256"
        }
      ],
      "name": "getApproved",
      "outputs": [
        {
          "internalType": "address",
          "name": "",
          "type": "address"
        }
      ],
      "stateMutability": "view",
      "type": "function"
    },
    {
      "inputs": [],
      "name": "getMySBTs",
      "outputs": [
        {
          "components": [
            {
              "internalType": "uint256",
              "name": "sBTId",
              "type": "uint256"
            },
            {
              "internalType": "string",
              "name": "fullName",
              "type": "string"
            },
            {
              "internalType": "string",
              "name": "certificateHash",
              "type": "string"
            },
            {
              "internalType": "string",
              "name": "citizenID",
              "type": "string"
            },
            {
              "internalType": "string",
              "name": "hometown",
              "type": "string"
            },
            {
              "internalType": "string",
              "name": "nationality",
              "type": "string"
            },
            {
              "internalType": "uint256",
              "name": "birthDate",
              "type": "uint256"
            },
            {
              "internalType": "address",
              "name": "ownerAddress",
              "type": "address"
            }
          ],
          "internalType": "struct SoundboundToken.SBTInfo[]",
          "name": "",
          "type": "tuple[]"
        }
      ],
      "stateMutability": "view",
      "type": "function"
    },
    {
      "inputs": [
        {
          "internalType": "address",
          "name": "addr",
          "type": "address"
        }
      ],
      "name": "getOrganizationCode",
      "outputs": [
        {
          "internalType": "bytes32",
          "name": "",
          "type": "bytes32"
        }
      ],
      "stateMutability": "view",
      "type": "function"
    },
    {
      "inputs": [
        {
          "internalType": "uint256",
          "name": "",
          "type": "uint256"
        }
      ],
      "name": "idToSBT",
      "outputs": [
        {
          "internalType": "uint256",
          "name": "sBTId",
          "type": "uint256"
        },
        {
          "internalType": "string",
          "name": "fullName",
          "type": "string"
        },
        {
          "internalType": "string",
          "name": "certificateHash",
          "type": "string"
        },
        {
          "internalType": "string",
          "name": "citizenID",
          "type": "string"
        },
        {
          "internalType": "string",
          "name": "hometown",
          "type": "string"
        },
        {
          "internalType": "string",
          "name": "nationality",
          "type": "string"
        },
        {
          "internalType": "uint256",
          "name": "birthDate",
          "type": "uint256"
        },
        {
          "internalType": "address",
          "name": "ownerAddress",
          "type": "address"
        }
      ],
      "stateMutability": "view",
      "type": "function"
    },
    {
      "inputs": [
        {
          "internalType": "address",
          "name": "owner",
          "type": "address"
        },
        {
          "internalType": "address",
          "name": "operator",
          "type": "address"
        }
      ],
      "name": "isApprovedForAll",
      "outputs": [
        {
          "internalType": "bool",
          "name": "",
          "type": "bool"
        }
      ],
      "stateMutability": "view",
      "type": "function"
    },
    {
      "inputs": [
        {
          "internalType": "address",
          "name": "addr",
          "type": "address"
        }
      ],
      "name": "isVerifier",
      "outputs": [
        {
          "internalType": "bool",
          "name": "",
          "type": "bool"
        }
      ],
      "stateMutability": "view",
      "type": "function"
    },
    {
      "inputs": [
        {
          "internalType": "address",
          "name": "recipient",
          "type": "address"
        },
        {
          "components": [
            {
              "internalType": "uint256",
              "name": "sBTId",
              "type": "uint256"
            },
            {
              "internalType": "string",
              "name": "fullName",
              "type": "string"
            },
            {
              "internalType": "string",
              "name": "certificateHash",
              "type": "string"
            },
            {
              "internalType": "string",
              "name": "citizenID",
              "type": "string"
            },
            {
              "internalType": "string",
              "name": "hometown",
              "type": "string"
            },
            {
              "internalType": "string",
              "name": "nationality",
              "type": "string"
            },
            {
              "internalType": "uint256",
              "name": "birthDate",
              "type": "uint256"
            },
            {
              "internalType": "address",
              "name": "ownerAddress",
              "type": "address"
            }
          ],
          "internalType": "struct SoundboundToken.SBTInfo",
          "name": "newSBTInfo",
          "type": "tuple"
        }
      ],
      "name": "mintSBTForAddress",
      "outputs": [],
      "stateMutability": "nonpayable",
      "type": "function"
    },
    {
      "inputs": [],
      "name": "name",
      "outputs": [
        {
          "internalType": "string",
          "name": "",
          "type": "string"
        }
      ],
      "stateMutability": "view",
      "type": "function"
    },
    {
      "inputs": [],
      "name": "owner",
      "outputs": [
        {
          "internalType": "address",
          "name": "",
          "type": "address"
        }
      ],
      "stateMutability": "view",
      "type": "function"
    },
    {
      "inputs": [
        {
          "internalType": "uint256",
          "name": "tokenId",
          "type": "uint256"
        }
      ],
      "name": "ownerOf",
      "outputs": [
        {
          "internalType": "address",
          "name": "",
          "type": "address"
        }
      ],
      "stateMutability": "view",
      "type": "function"
    },
    {
      "inputs": [
        {
          "internalType": "bytes32",
          "name": "_ethSignedMessageHash",
          "type": "bytes32"
        },
        {
          "internalType": "bytes",
          "name": "_sig",
          "type": "bytes"
        }
      ],
      "name": "recover",
      "outputs": [
        {
          "internalType": "address",
          "name": "",
          "type": "address"
        }
      ],
      "stateMutability": "pure",
      "type": "function"
    },
    {
      "inputs": [
        {
          "internalType": "address",
          "name": "from",
          "type": "address"
        },
        {
          "internalType": "address",
          "name": "to",
          "type": "address"
        },
        {
          "internalType": "uint256",
          "name": "tokenId",
          "type": "uint256"
        }
      ],
      "name": "safeTransferFrom",
      "outputs": [],
      "stateMutability": "nonpayable",
      "type": "function"
    },
    {
      "inputs": [
        {
          "internalType": "address",
          "name": "from",
          "type": "address"
        },
        {
          "internalType": "address",
          "name": "to",
          "type": "address"
        },
        {
          "internalType": "uint256",
          "name": "tokenId",
          "type": "uint256"
        },
        {
          "internalType": "bytes",
          "name": "_data",
          "type": "bytes"
        }
      ],
      "name": "safeTransferFrom",
      "outputs": [],
      "stateMutability": "nonpayable",
      "type": "function"
    },
    {
      "inputs": [
        {
          "internalType": "address",
          "name": "operator",
          "type": "address"
        },
        {
          "internalType": "bool",
          "name": "approved",
          "type": "bool"
        }
      ],
      "name": "setApprovalForAll",
      "outputs": [],
      "stateMutability": "nonpayable",
      "type": "function"
    },
    {
      "inputs": [
        {
          "internalType": "bytes4",
          "name": "interfaceId",
          "type": "bytes4"
        }
      ],
      "name": "supportsInterface",
      "outputs": [
        {
          "internalType": "bool",
          "name": "",
          "type": "bool"
        }
      ],
      "stateMutability": "view",
      "type": "function"
    },
    {
      "inputs": [],
      "name": "symbol",
      "outputs": [
        {
          "internalType": "string",
          "name": "",
          "type": "string"
        }
      ],
      "stateMutability": "view",
      "type": "function"
    },
    {
      "inputs": [
        {
          "internalType": "uint256",
          "name": "tokenId",
          "type": "uint256"
        }
      ],
      "name": "tokenURI",
      "outputs": [
        {
          "internalType": "string",
          "name": "",
          "type": "string"
        }
      ],
      "stateMutability": "view",
      "type": "function"
    },
    {
      "inputs": [
        {
          "internalType": "address",
          "name": "from",
          "type": "address"
        },
        {
          "internalType": "address",
          "name": "to",
          "type": "address"
        },
        {
          "internalType": "uint256",
          "name": "tokenId",
          "type": "uint256"
        }
      ],
      "name": "transferFrom",
      "outputs": [],
      "stateMutability": "nonpayable",
      "type": "function"
    },
    {
      "inputs": [
        {
          "internalType": "address",
          "name": "",
          "type": "address"
        }
      ],
      "name": "verifierList",
      "outputs": [
        {
          "internalType": "bool",
          "name": "isVerifier",
          "type": "bool"
        },
        {
          "internalType": "bytes32",
          "name": "organizationCode",
          "type": "bytes32"
        }
      ],
      "stateMutability": "view",
      "type": "function"
    }
  ],
  "bytecode": "0x608060405234801562000010575f80fd5b506040518060400160405280600e81526020017f536f756e64626f7574546f6b656e0000000000000000000000000000000000008152506040518060400160405280600381526020017f5342540000000000000000000000000000000000000000000000000000000000815250815f90816200008d91906200034c565b5080600190816200009f91906200034c565b5050503360065f6101000a81548173ffffffffffffffffffffffffffffffffffffffff021916908373ffffffffffffffffffffffffffffffffffffffff16021790555062000430565b5f81519050919050565b7f4e487b71000000000000000000000000000000000000000000000000000000005f52604160045260245ffd5b7f4e487b71000000000000000000000000000000000000000000000000000000005f52602260045260245ffd5b5f60028204905060018216806200016457607f821691505b6020821081036200017a57620001796200011f565b5b50919050565b5f819050815f5260205f209050919050565b5f6020601f8301049050919050565b5f82821b905092915050565b5f60088302620001de7fffffffffffffffffffffffffffffffffffffffffffffffffffffffffffffffff82620001a1565b620001ea8683620001a1565b95508019841693508086168417925050509392505050565b5f819050919050565b5f819050919050565b5f620002346200022e620002288462000202565b6200020b565b62000202565b9050919050565b5f819050919050565b6200024f8362000214565b620002676200025e826200023b565b848454620001ad565b825550505050565b5f90565b6200027d6200026f565b6200028a81848462000244565b505050565b5b81811015620002b157620002a55f8262000273565b60018101905062000290565b5050565b601f8211156200030057620002ca8162000180565b620002d58462000192565b81016020851015620002e5578190505b620002fd620002f48562000192565b8301826200028f565b50505b505050565b5f82821c905092915050565b5f620003225f198460080262000305565b1980831691505092915050565b5f6200033c838362000311565b9150826002028217905092915050565b6200035782620000e8565b67ffffffffffffffff811115620003735762000372620000f2565b5b6200037f82546200014c565b6200038c828285620002b5565b5f60209050601f831160018114620003c2575f8415620003ad578287015190505b620003b985826200032f565b86555062000428565b601f198416620003d28662000180565b5f5b82811015620003fb57848901518255600182019150602085019450602081019050620003d4565b868310156200041b578489015162000417601f89168262000311565b8355505b6001600288020188555050505b505050505050565b613e1c806200043e5f395ff3fe608060405234801561000f575f80fd5b5060043610610140575f3560e01c8063657ad668116100b6578063a22cb4651161007a578063a22cb465146103b3578063ac6d8bbd146103cf578063b88d4fde146103eb578063c87b56dd14610407578063d5c48a3114610437578063e985e9c51461046857610140565b8063657ad668146102fb57806370a082311461032b5780637114b0101461035b5780638da5cb5b1461037757806395d89b411461039557610140565b806319045a251161010857806319045a25146101fc57806323b872dd1461022c578063331052181461024857806337520e781461027857806342842e0e146102af5780636352211e146102cb57610140565b806301ffc9a71461014457806306fdde0314610174578063081812fc14610192578063095ea7b3146101c25780630f003ff7146101de575b5f80fd5b61015e6004803603810190610159919061247a565b610498565b60405161016b91906124bf565b60405180910390f35b61017c610579565b6040516101899190612562565b60405180910390f35b6101ac60048036038101906101a791906125b5565b610608565b6040516101b9919061261f565b60405180910390f35b6101dc60048036038101906101d79190612662565b610689565b005b6101e661079f565b6040516101f3919061288a565b60405180910390f35b61021660048036038101906102119190612a09565b610cb2565b604051610223919061261f565b60405180910390f35b61024660048036038101906102419190612a63565b610d1c565b005b610262600480360381019061025d9190612ab3565b610d7c565b60405161026f91906124bf565b60405180910390f35b610292600480360381019061028d91906125b5565b610dd0565b6040516102a6989796959493929190612aed565b60405180910390f35b6102c960048036038101906102c49190612a63565b6110d1565b005b6102e560048036038101906102e091906125b5565b6110f0565b6040516102f2919061261f565b60405180910390f35b61031560048036038101906103109190612ab3565b61119c565b6040516103229190612b9b565b60405180910390f35b61034560048036038101906103409190612ab3565b6111e5565b6040516103529190612bb4565b60405180910390f35b61037560048036038101906103709190612dc6565b611299565b005b61037f61146a565b60405161038c919061261f565b60405180910390f35b61039d61148f565b6040516103aa9190612562565b60405180910390f35b6103cd60048036038101906103c89190612e4a565b61151f565b005b6103e960048036038101906103e49190612e88565b611535565b005b61040560048036038101906104009190612ec6565b6115b8565b005b610421600480360381019061041c91906125b5565b61161a565b60405161042e9190612562565b60405180910390f35b610451600480360381019061044c9190612ab3565b6116be565b60405161045f929190612f46565b60405180910390f35b610482600480360381019061047d9190612f6d565b6116ea565b60405161048f91906124bf565b60405180910390f35b5f7f80ac58cd000000000000000000000000000000000000000000000000000000007bffffffffffffffffffffffffffffffffffffffffffffffffffffffff1916827bffffffffffffffffffffffffffffffffffffffffffffffffffffffff1916148061056257507f5b5e139f000000000000000000000000000000000000000000000000000000007bffffffffffffffffffffffffffffffffffffffffffffffffffffffff1916827bffffffffffffffffffffffffffffffffffffffffffffffffffffffff1916145b80610572575061057182611778565b5b9050919050565b60605f805461058790612fd8565b80601f01602080910402602001604051908101604052809291908181526020018280546105b390612fd8565b80156105fe5780601f106105d5576101008083540402835291602001916105fe565b820191905f5260205f20905b8154815290600101906020018083116105e157829003601f168201915b5050505050905090565b5f610612826117e1565b610651576040517f08c379a000000000000000000000000000000000000000000000000000000000815260040161064890613078565b60405180910390fd5b60045f8381526020019081526020015f205f9054906101000a900473ffffffffffffffffffffffffffffffffffffffff169050919050565b5f610693826110f0565b90508073ffffffffffffffffffffffffffffffffffffffff168373ffffffffffffffffffffffffffffffffffffffff1603610703576040517f08c379a00000000000000000000000000000000000000000000000000000000081526004016106fa90613106565b60405180910390fd5b8073ffffffffffffffffffffffffffffffffffffffff16610722611849565b73ffffffffffffffffffffffffffffffffffffffff16148061075157506107508161074b611849565b6116ea565b5b610790576040517f08c379a000000000000000000000000000000000000000000000000000000000815260040161078790613194565b60405180910390fd5b61079a8383611850565b505050565b60605f6107ac6007611906565b90505f80600190505b828111610845573373ffffffffffffffffffffffffffffffffffffffff1660085f8381526020019081526020015f206007015f9054906101000a900473ffffffffffffffffffffffffffffffffffffffff1673ffffffffffffffffffffffffffffffffffffffff16036108325760018261082f91906131df565b91505b808061083d90613212565b9150506107b5565b505f8167ffffffffffffffff811115610861576108606128e5565b5b60405190808252806020026020018201604052801561089a57816020015b6108876123bc565b81526020019060019003908161087f5790505b5090505f80600190505b848111610ca7573373ffffffffffffffffffffffffffffffffffffffff1660085f8381526020019081526020015f206007015f9054906101000a900473ffffffffffffffffffffffffffffffffffffffff1673ffffffffffffffffffffffffffffffffffffffff1603610c945760085f8281526020019081526020015f20604051806101000160405290815f820154815260200160018201805461094790612fd8565b80601f016020809104026020016040519081016040528092919081815260200182805461097390612fd8565b80156109be5780601f10610995576101008083540402835291602001916109be565b820191905f5260205f20905b8154815290600101906020018083116109a157829003601f168201915b505050505081526020016002820180546109d790612fd8565b80601f0160208091040260200160405190810160405280929190818152602001828054610a0390612fd8565b8015610a4e5780601f10610a2557610100808354040283529160200191610a4e565b820191905f5260205f20905b815481529060010190602001808311610a3157829003601f168201915b50505050508152602001600382018054610a6790612fd8565b80601f0160208091040260200160405190810160405280929190818152602001828054610a9390612fd8565b8015610ade5780601f10610ab557610100808354040283529160200191610ade565b820191905f5260205f20905b815481529060010190602001808311610ac157829003601f168201915b50505050508152602001600482018054610af790612fd8565b80601f0160208091040260200160405190810160405280929190818152602001828054610b2390612fd8565b8015610b6e5780601f10610b4557610100808354040283529160200191610b6e565b820191905f5260205f20905b815481529060010190602001808311610b5157829003601f168201915b50505050508152602001600582018054610b8790612fd8565b80601f0160208091040260200160405190810160405280929190818152602001828054610bb390612fd8565b8015610bfe5780601f10610bd557610100808354040283529160200191610bfe565b820191905f5260205f20905b815481529060010190602001808311610be157829003601f168201915b5050505050815260200160068201548152602001600782015f9054906101000a900473ffffffffffffffffffffffffffffffffffffffff1673ffffffffffffffffffffffffffffffffffffffff1673ffffffffffffffffffffffffffffffffffffffff1681525050838381518110610c7957610c78613259565b5b6020026020010181905250600182610c9191906131df565b91505b8080610c9f90613212565b9150506108a4565b508194505050505090565b5f805f80610cbf85611912565b9250925092506001868285856040515f8152602001604052604051610ce794939291906132a1565b6020604051602081039080840390855afa158015610d07573d5f803e3d5ffd5b50505060206040510351935050505092915050565b610d2d610d27611849565b82611977565b610d6c576040517f08c379a0000000000000000000000000000000000000000000000000000000008152600401610d6390613354565b60405180910390fd5b610d77838383611a53565b505050565b5f60095f8373ffffffffffffffffffffffffffffffffffffffff1673ffffffffffffffffffffffffffffffffffffffff1681526020019081526020015f205f015f9054906101000a900460ff169050919050565b6008602052805f5260405f205f91509050805f015490806001018054610df590612fd8565b80601f0160208091040260200160405190810160405280929190818152602001828054610e2190612fd8565b8015610e6c5780601f10610e4357610100808354040283529160200191610e6c565b820191905f5260205f20905b815481529060010190602001808311610e4f57829003601f168201915b505050505090806002018054610e8190612fd8565b80601f0160208091040260200160405190810160405280929190818152602001828054610ead90612fd8565b8015610ef85780601f10610ecf57610100808354040283529160200191610ef8565b820191905f5260205f20905b815481529060010190602001808311610edb57829003601f168201915b505050505090806003018054610f0d90612fd8565b80601f0160208091040260200160405190810160405280929190818152602001828054610f3990612fd8565b8015610f845780601f10610f5b57610100808354040283529160200191610f84565b820191905f5260205f20905b815481529060010190602001808311610f6757829003601f168201915b505050505090806004018054610f9990612fd8565b80601f0160208091040260200160405190810160405280929190818152602001828054610fc590612fd8565b80156110105780601f10610fe757610100808354040283529160200191611010565b820191905f5260205f20905b815481529060010190602001808311610ff357829003601f168201915b50505050509080600501805461102590612fd8565b80601f016020809104026020016040519081016040528092919081815260200182805461105190612fd8565b801561109c5780601f106110735761010080835404028352916020019161109c565b820191905f5260205f20905b81548152906001019060200180831161107f57829003601f168201915b505050505090806006015490806007015f9054906101000a900473ffffffffffffffffffffffffffffffffffffffff16905088565b6110eb83838360405180602001604052805f8152506115b8565b505050565b5f8060025f8481526020019081526020015f205f9054906101000a900473ffffffffffffffffffffffffffffffffffffffff1690505f73ffffffffffffffffffffffffffffffffffffffff168173ffffffffffffffffffffffffffffffffffffffff1603611193576040517f08c379a000000000000000000000000000000000000000000000000000000000815260040161118a906133e2565b60405180910390fd5b80915050919050565b5f60095f8373ffffffffffffffffffffffffffffffffffffffff1673ffffffffffffffffffffffffffffffffffffffff1681526020019081526020015f20600101549050919050565b5f8073ffffffffffffffffffffffffffffffffffffffff168273ffffffffffffffffffffffffffffffffffffffff1603611254576040517f08c379a000000000000000000000000000000000000000000000000000000000815260040161124b90613470565b60405180910390fd5b60035f8373ffffffffffffffffffffffffffffffffffffffff1673ffffffffffffffffffffffffffffffffffffffff1681526020019081526020015f20549050919050565b60065f9054906101000a900473ffffffffffffffffffffffffffffffffffffffff1673ffffffffffffffffffffffffffffffffffffffff163373ffffffffffffffffffffffffffffffffffffffff1614611328576040517f08c379a000000000000000000000000000000000000000000000000000000000815260040161131f906134fe565b60405180910390fd5b6113326007611ca3565b5f61133d6007611906565b905080825f018181525050828260e0019073ffffffffffffffffffffffffffffffffffffffff16908173ffffffffffffffffffffffffffffffffffffffff16815250508160085f8381526020019081526020015f205f820151815f015560208201518160010190816113af91906136b9565b5060408201518160020190816113c591906136b9565b5060608201518160030190816113db91906136b9565b5060808201518160040190816113f191906136b9565b5060a082015181600501908161140791906136b9565b5060c0820151816006015560e0820151816007015f6101000a81548173ffffffffffffffffffffffffffffffffffffffff021916908373ffffffffffffffffffffffffffffffffffffffff1602179055509050506114658382611cb7565b505050565b60065f9054906101000a900473ffffffffffffffffffffffffffffffffffffffff1681565b60606001805461149e90612fd8565b80601f01602080910402602001604051908101604052809291908181526020018280546114ca90612fd8565b80156115155780601f106114ec57610100808354040283529160200191611515565b820191905f5260205f20905b8154815290600101906020018083116114f857829003601f168201915b5050505050905090565b61153161152a611849565b8383611cd4565b5050565b60405180604001604052806001151581526020018281525060095f8473ffffffffffffffffffffffffffffffffffffffff1673ffffffffffffffffffffffffffffffffffffffff1681526020019081526020015f205f820151815f015f6101000a81548160ff021916908315150217905550602082015181600101559050505050565b6115c96115c3611849565b83611977565b611608576040517f08c379a00000000000000000000000000000000000000000000000000000000081526004016115ff90613354565b60405180910390fd5b61161484848484611e3b565b50505050565b6060611625826117e1565b611664576040517f08c379a000000000000000000000000000000000000000000000000000000000815260040161165b906137f8565b60405180910390fd5b5f61166d611e97565b90505f81511161168b5760405180602001604052805f8152506116b6565b8061169584611ead565b6040516020016116a6929190613850565b6040516020818303038152906040525b915050919050565b6009602052805f5260405f205f91509050805f015f9054906101000a900460ff16908060010154905082565b5f60055f8473ffffffffffffffffffffffffffffffffffffffff1673ffffffffffffffffffffffffffffffffffffffff1681526020019081526020015f205f8373ffffffffffffffffffffffffffffffffffffffff1673ffffffffffffffffffffffffffffffffffffffff1681526020019081526020015f205f9054906101000a900460ff16905092915050565b5f7f01ffc9a7000000000000000000000000000000000000000000000000000000007bffffffffffffffffffffffffffffffffffffffffffffffffffffffff1916827bffffffffffffffffffffffffffffffffffffffffffffffffffffffff1916149050919050565b5f8073ffffffffffffffffffffffffffffffffffffffff1660025f8481526020019081526020015f205f9054906101000a900473ffffffffffffffffffffffffffffffffffffffff1673ffffffffffffffffffffffffffffffffffffffff1614159050919050565b5f33905090565b8160045f8381526020019081526020015f205f6101000a81548173ffffffffffffffffffffffffffffffffffffffff021916908373ffffffffffffffffffffffffffffffffffffffff160217905550808273ffffffffffffffffffffffffffffffffffffffff166118c0836110f0565b73ffffffffffffffffffffffffffffffffffffffff167f8c5be1e5ebec7d5bd14f71427d1e84f3dd0314c0f7b2291e5b200ac8c7c3b92560405160405180910390a45050565b5f815f01549050919050565b5f805f6041845114611959576040517f08c379a0000000000000000000000000000000000000000000000000000000008152600401611950906138bd565b60405180910390fd5b602084015192506040840151915060608401515f1a90509193909250565b5f611981826117e1565b6119c0576040517f08c379a00000000000000000000000000000000000000000000000000000000081526004016119b79061394b565b60405180910390fd5b5f6119ca836110f0565b90508073ffffffffffffffffffffffffffffffffffffffff168473ffffffffffffffffffffffffffffffffffffffff161480611a3957508373ffffffffffffffffffffffffffffffffffffffff16611a2184610608565b73ffffffffffffffffffffffffffffffffffffffff16145b80611a4a5750611a4981856116ea565b5b91505092915050565b8273ffffffffffffffffffffffffffffffffffffffff16611a73826110f0565b73ffffffffffffffffffffffffffffffffffffffff1614611ac9576040517f08c379a0000000000000000000000000000000000000000000000000000000008152600401611ac0906139d9565b60405180910390fd5b5f73ffffffffffffffffffffffffffffffffffffffff168273ffffffffffffffffffffffffffffffffffffffff1603611b37576040517f08c379a0000000000000000000000000000000000000000000000000000000008152600401611b2e90613a67565b60405180910390fd5b611b42838383612006565b611b4c5f82611850565b600160035f8573ffffffffffffffffffffffffffffffffffffffff1673ffffffffffffffffffffffffffffffffffffffff1681526020019081526020015f205f828254611b999190613a85565b92505081905550600160035f8473ffffffffffffffffffffffffffffffffffffffff1673ffffffffffffffffffffffffffffffffffffffff1681526020019081526020015f205f828254611bed91906131df565b925050819055508160025f8381526020019081526020015f205f6101000a81548173ffffffffffffffffffffffffffffffffffffffff021916908373ffffffffffffffffffffffffffffffffffffffff160217905550808273ffffffffffffffffffffffffffffffffffffffff168473ffffffffffffffffffffffffffffffffffffffff167fddf252ad1be2c89b69c2b068fc378daa952ba7f163c4a11628f55a4df523b3ef60405160405180910390a4505050565b6001815f015f828254019250508190555050565b611cd0828260405180602001604052805f81525061200b565b5050565b8173ffffffffffffffffffffffffffffffffffffffff168373ffffffffffffffffffffffffffffffffffffffff1603611d42576040517f08c379a0000000000000000000000000000000000000000000000000000000008152600401611d3990613b02565b60405180910390fd5b8060055f8573ffffffffffffffffffffffffffffffffffffffff1673ffffffffffffffffffffffffffffffffffffffff1681526020019081526020015f205f8473ffffffffffffffffffffffffffffffffffffffff1673ffffffffffffffffffffffffffffffffffffffff1681526020019081526020015f205f6101000a81548160ff0219169083151502179055508173ffffffffffffffffffffffffffffffffffffffff168373ffffffffffffffffffffffffffffffffffffffff167f17307eab39ab6107e8899845ad3d59bd9653f200f220920489ca2b5937696c3183604051611e2e91906124bf565b60405180910390a3505050565b611e46848484611a53565b611e5284848484612065565b611e91576040517f08c379a0000000000000000000000000000000000000000000000000000000008152600401611e8890613b90565b60405180910390fd5b50505050565b606060405180602001604052805f815250905090565b60605f8203611ef3576040518060400160405280600181526020017f30000000000000000000000000000000000000000000000000000000000000008152509050612001565b5f8290505f5b5f8214611f22578080611f0b90613212565b915050600a82611f1b9190613bdb565b9150611ef9565b5f8167ffffffffffffffff811115611f3d57611f3c6128e5565b5b6040519080825280601f01601f191660200182016040528015611f6f5781602001600182028036833780820191505090505b5090505b5f8514611ffa57600182611f879190613a85565b9150600a85611f969190613c0b565b6030611fa291906131df565b60f81b818381518110611fb857611fb7613259565b5b60200101907effffffffffffffffffffffffffffffffffffffffffffffffffffffffffffff191690815f1a905350600a85611ff39190613bdb565b9450611f73565b8093505050505b919050565b505050565b61201583836121e7565b6120215f848484612065565b612060576040517f08c379a000000000000000000000000000000000000000000000000000000000815260040161205790613b90565b60405180910390fd5b505050565b5f6120858473ffffffffffffffffffffffffffffffffffffffff166123ab565b156121da578373ffffffffffffffffffffffffffffffffffffffff1663150b7a026120ae611849565b8786866040518563ffffffff1660e01b81526004016120d09493929190613c8d565b6020604051808303815f875af192505050801561210b57506040513d601f19601f820116820180604052508101906121089190613ceb565b60015b61218a573d805f8114612139576040519150601f19603f3d011682016040523d82523d5f602084013e61213e565b606091505b505f815103612182576040517f08c379a000000000000000000000000000000000000000000000000000000000815260040161217990613b90565b60405180910390fd5b805181602001fd5b63150b7a0260e01b7bffffffffffffffffffffffffffffffffffffffffffffffffffffffff1916817bffffffffffffffffffffffffffffffffffffffffffffffffffffffff1916149150506121df565b600190505b949350505050565b5f73ffffffffffffffffffffffffffffffffffffffff168273ffffffffffffffffffffffffffffffffffffffff1603612255576040517f08c379a000000000000000000000000000000000000000000000000000000000815260040161224c90613d60565b60405180910390fd5b61225e816117e1565b1561229e576040517f08c379a000000000000000000000000000000000000000000000000000000000815260040161229590613dc8565b60405180910390fd5b6122a95f8383612006565b600160035f8473ffffffffffffffffffffffffffffffffffffffff1673ffffffffffffffffffffffffffffffffffffffff1681526020019081526020015f205f8282546122f691906131df565b925050819055508160025f8381526020019081526020015f205f6101000a81548173ffffffffffffffffffffffffffffffffffffffff021916908373ffffffffffffffffffffffffffffffffffffffff160217905550808273ffffffffffffffffffffffffffffffffffffffff165f73ffffffffffffffffffffffffffffffffffffffff167fddf252ad1be2c89b69c2b068fc378daa952ba7f163c4a11628f55a4df523b3ef60405160405180910390a45050565b5f80823b90505f8111915050919050565b6040518061010001604052805f815260200160608152602001606081526020016060815260200160608152602001606081526020015f81526020015f73ffffffffffffffffffffffffffffffffffffffff1681525090565b5f604051905090565b5f80fd5b5f80fd5b5f7fffffffff0000000000000000000000000000000000000000000000000000000082169050919050565b61245981612425565b8114612463575f80fd5b50565b5f8135905061247481612450565b92915050565b5f6020828403121561248f5761248e61241d565b5b5f61249c84828501612466565b91505092915050565b5f8115159050919050565b6124b9816124a5565b82525050565b5f6020820190506124d25f8301846124b0565b92915050565b5f81519050919050565b5f82825260208201905092915050565b5f5b8381101561250f5780820151818401526020810190506124f4565b5f8484015250505050565b5f601f19601f8301169050919050565b5f612534826124d8565b61253e81856124e2565b935061254e8185602086016124f2565b6125578161251a565b840191505092915050565b5f6020820190508181035f83015261257a818461252a565b905092915050565b5f819050919050565b61259481612582565b811461259e575f80fd5b50565b5f813590506125af8161258b565b92915050565b5f602082840312156125ca576125c961241d565b5b5f6125d7848285016125a1565b91505092915050565b5f73ffffffffffffffffffffffffffffffffffffffff82169050919050565b5f612609826125e0565b9050919050565b612619816125ff565b82525050565b5f6020820190506126325f830184612610565b92915050565b612641816125ff565b811461264b575f80fd5b50565b5f8135905061265c81612638565b92915050565b5f80604083850312156126785761267761241d565b5b5f6126858582860161264e565b9250506020612696858286016125a1565b9150509250929050565b5f81519050919050565b5f82825260208201905092915050565b5f819050602082019050919050565b6126d281612582565b82525050565b5f82825260208201905092915050565b5f6126f2826124d8565b6126fc81856126d8565b935061270c8185602086016124f2565b6127158161251a565b840191505092915050565b612729816125ff565b82525050565b5f61010083015f8301516127455f8601826126c9565b506020830151848203602086015261275d82826126e8565b9150506040830151848203604086015261277782826126e8565b9150506060830151848203606086015261279182826126e8565b915050608083015184820360808601526127ab82826126e8565b91505060a083015184820360a08601526127c582826126e8565b91505060c08301516127da60c08601826126c9565b5060e08301516127ed60e0860182612720565b508091505092915050565b5f612803838361272f565b905092915050565b5f602082019050919050565b5f612821826126a0565b61282b81856126aa565b93508360208202850161283d856126ba565b805f5b85811015612878578484038952815161285985826127f8565b94506128648361280b565b925060208a01995050600181019050612840565b50829750879550505050505092915050565b5f6020820190508181035f8301526128a28184612817565b905092915050565b5f819050919050565b6128bc816128aa565b81146128c6575f80fd5b50565b5f813590506128d7816128b3565b92915050565b5f80fd5b5f80fd5b7f4e487b71000000000000000000000000000000000000000000000000000000005f52604160045260245ffd5b61291b8261251a565b810181811067ffffffffffffffff8211171561293a576129396128e5565b5b80604052505050565b5f61294c612414565b90506129588282612912565b919050565b5f67ffffffffffffffff821115612977576129766128e5565b5b6129808261251a565b9050602081019050919050565b828183375f83830152505050565b5f6129ad6129a88461295d565b612943565b9050828152602081018484840111156129c9576129c86128e1565b5b6129d484828561298d565b509392505050565b5f82601f8301126129f0576129ef6128dd565b5b8135612a0084826020860161299b565b91505092915050565b5f8060408385031215612a1f57612a1e61241d565b5b5f612a2c858286016128c9565b925050602083013567ffffffffffffffff811115612a4d57612a4c612421565b5b612a59858286016129dc565b9150509250929050565b5f805f60608486031215612a7a57612a7961241d565b5b5f612a878682870161264e565b9350506020612a988682870161264e565b9250506040612aa9868287016125a1565b9150509250925092565b5f60208284031215612ac857612ac761241d565b5b5f612ad58482850161264e565b91505092915050565b612ae781612582565b82525050565b5f61010082019050612b015f83018b612ade565b8181036020830152612b13818a61252a565b90508181036040830152612b27818961252a565b90508181036060830152612b3b818861252a565b90508181036080830152612b4f818761252a565b905081810360a0830152612b63818661252a565b9050612b7260c0830185612ade565b612b7f60e0830184612610565b9998505050505050505050565b612b95816128aa565b82525050565b5f602082019050612bae5f830184612b8c565b92915050565b5f602082019050612bc75f830184612ade565b92915050565b5f80fd5b5f80fd5b5f67ffffffffffffffff821115612bef57612bee6128e5565b5b612bf88261251a565b9050602081019050919050565b5f612c17612c1284612bd5565b612943565b905082815260208101848484011115612c3357612c326128e1565b5b612c3e84828561298d565b509392505050565b5f82601f830112612c5a57612c596128dd565b5b8135612c6a848260208601612c05565b91505092915050565b5f6101008284031215612c8957612c88612bcd565b5b612c94610100612943565b90505f612ca3848285016125a1565b5f83015250602082013567ffffffffffffffff811115612cc657612cc5612bd1565b5b612cd284828501612c46565b602083015250604082013567ffffffffffffffff811115612cf657612cf5612bd1565b5b612d0284828501612c46565b604083015250606082013567ffffffffffffffff811115612d2657612d25612bd1565b5b612d3284828501612c46565b606083015250608082013567ffffffffffffffff811115612d5657612d55612bd1565b5b612d6284828501612c46565b60808301525060a082013567ffffffffffffffff811115612d8657612d85612bd1565b5b612d9284828501612c46565b60a08301525060c0612da6848285016125a1565b60c08301525060e0612dba8482850161264e565b60e08301525092915050565b5f8060408385031215612ddc57612ddb61241d565b5b5f612de98582860161264e565b925050602083013567ffffffffffffffff811115612e0a57612e09612421565b5b612e1685828601612c73565b9150509250929050565b612e29816124a5565b8114612e33575f80fd5b50565b5f81359050612e4481612e20565b92915050565b5f8060408385031215612e6057612e5f61241d565b5b5f612e6d8582860161264e565b9250506020612e7e85828601612e36565b9150509250929050565b5f8060408385031215612e9e57612e9d61241d565b5b5f612eab8582860161264e565b9250506020612ebc858286016128c9565b9150509250929050565b5f805f8060808587031215612ede57612edd61241d565b5b5f612eeb8782880161264e565b9450506020612efc8782880161264e565b9350506040612f0d878288016125a1565b925050606085013567ffffffffffffffff811115612f2e57612f2d612421565b5b612f3a878288016129dc565b91505092959194509250565b5f604082019050612f595f8301856124b0565b612f666020830184612b8c565b9392505050565b5f8060408385031215612f8357612f8261241d565b5b5f612f908582860161264e565b9250506020612fa18582860161264e565b9150509250929050565b7f4e487b71000000000000000000000000000000000000000000000000000000005f52602260045260245ffd5b5f6002820490506001821680612fef57607f821691505b60208210810361300257613001612fab565b5b50919050565b7f4552433732313a20617070726f76656420717565727920666f72206e6f6e65785f8201527f697374656e7420746f6b656e0000000000000000000000000000000000000000602082015250565b5f613062602c836124e2565b915061306d82613008565b604082019050919050565b5f6020820190508181035f83015261308f81613056565b9050919050565b7f4552433732313a20617070726f76616c20746f2063757272656e74206f776e655f8201527f7200000000000000000000000000000000000000000000000000000000000000602082015250565b5f6130f06021836124e2565b91506130fb82613096565b604082019050919050565b5f6020820190508181035f83015261311d816130e4565b9050919050565b7f4552433732313a20617070726f76652063616c6c6572206973206e6f74206f775f8201527f6e6572206e6f7220617070726f76656420666f7220616c6c0000000000000000602082015250565b5f61317e6038836124e2565b915061318982613124565b604082019050919050565b5f6020820190508181035f8301526131ab81613172565b9050919050565b7f4e487b71000000000000000000000000000000000000000000000000000000005f52601160045260245ffd5b5f6131e982612582565b91506131f483612582565b925082820190508082111561320c5761320b6131b2565b5b92915050565b5f61321c82612582565b91507fffffffffffffffffffffffffffffffffffffffffffffffffffffffffffffffff820361324e5761324d6131b2565b5b600182019050919050565b7f4e487b71000000000000000000000000000000000000000000000000000000005f52603260045260245ffd5b5f60ff82169050919050565b61329b81613286565b82525050565b5f6080820190506132b45f830187612b8c565b6132c16020830186613292565b6132ce6040830185612b8c565b6132db6060830184612b8c565b95945050505050565b7f4552433732313a207472616e736665722063616c6c6572206973206e6f74206f5f8201527f776e6572206e6f7220617070726f766564000000000000000000000000000000602082015250565b5f61333e6031836124e2565b9150613349826132e4565b604082019050919050565b5f6020820190508181035f83015261336b81613332565b9050919050565b7f4552433732313a206f776e657220717565727920666f72206e6f6e65786973745f8201527f656e7420746f6b656e0000000000000000000000000000000000000000000000602082015250565b5f6133cc6029836124e2565b91506133d782613372565b604082019050919050565b5f6020820190508181035f8301526133f9816133c0565b9050919050565b7f4552433732313a2062616c616e636520717565727920666f7220746865207a655f8201527f726f206164647265737300000000000000000000000000000000000000000000602082015250565b5f61345a602a836124e2565b915061346582613400565b604082019050919050565b5f6020820190508181035f8301526134878161344e565b9050919050565b7f4f6e6c7920746865206f776e65722063616e206d696e74205342547320666f725f8201527f2061646472657373657300000000000000000000000000000000000000000000602082015250565b5f6134e8602a836124e2565b91506134f38261348e565b604082019050919050565b5f6020820190508181035f830152613515816134dc565b9050919050565b5f819050815f5260205f209050919050565b5f6020601f8301049050919050565b5f82821b905092915050565b5f600883026135787fffffffffffffffffffffffffffffffffffffffffffffffffffffffffffffffff8261353d565b613582868361353d565b95508019841693508086168417925050509392505050565b5f819050919050565b5f6135bd6135b86135b384612582565b61359a565b612582565b9050919050565b5f819050919050565b6135d6836135a3565b6135ea6135e2826135c4565b848454613549565b825550505050565b5f90565b6135fe6135f2565b6136098184846135cd565b505050565b5b8181101561362c576136215f826135f6565b60018101905061360f565b5050565b601f821115613671576136428161351c565b61364b8461352e565b8101602085101561365a578190505b61366e6136668561352e565b83018261360e565b50505b505050565b5f82821c905092915050565b5f6136915f1984600802613676565b1980831691505092915050565b5f6136a98383613682565b9150826002028217905092915050565b6136c2826124d8565b67ffffffffffffffff8111156136db576136da6128e5565b5b6136e58254612fd8565b6136f0828285613630565b5f60209050601f831160018114613721575f841561370f578287015190505b613719858261369e565b865550613780565b601f19841661372f8661351c565b5f5b8281101561375657848901518255600182019150602085019450602081019050613731565b86831015613773578489015161376f601f891682613682565b8355505b6001600288020188555050505b505050505050565b7f4552433732314d657461646174613a2055524920717565727920666f72206e6f5f8201527f6e6578697374656e7420746f6b656e0000000000000000000000000000000000602082015250565b5f6137e2602f836124e2565b91506137ed82613788565b604082019050919050565b5f6020820190508181035f83015261380f816137d6565b9050919050565b5f81905092915050565b5f61382a826124d8565b6138348185613816565b93506138448185602086016124f2565b80840191505092915050565b5f61385b8285613820565b91506138678284613820565b91508190509392505050565b7f696e76616c6964207369676e6174757265206c656e67746800000000000000005f82015250565b5f6138a76018836124e2565b91506138b282613873565b602082019050919050565b5f6020820190508181035f8301526138d48161389b565b9050919050565b7f4552433732313a206f70657261746f7220717565727920666f72206e6f6e65785f8201527f697374656e7420746f6b656e0000000000000000000000000000000000000000602082015250565b5f613935602c836124e2565b9150613940826138db565b604082019050919050565b5f6020820190508181035f83015261396281613929565b9050919050565b7f4552433732313a207472616e73666572206f6620746f6b656e207468617420695f8201527f73206e6f74206f776e0000000000000000000000000000000000000000000000602082015250565b5f6139c36029836124e2565b91506139ce82613969565b604082019050919050565b5f6020820190508181035f8301526139f0816139b7565b9050919050565b7f4552433732313a207472616e7366657220746f20746865207a65726f206164645f8201527f7265737300000000000000000000000000000000000000000000000000000000602082015250565b5f613a516024836124e2565b9150613a5c826139f7565b604082019050919050565b5f6020820190508181035f830152613a7e81613a45565b9050919050565b5f613a8f82612582565b9150613a9a83612582565b9250828203905081811115613ab257613ab16131b2565b5b92915050565b7f4552433732313a20617070726f766520746f2063616c6c6572000000000000005f82015250565b5f613aec6019836124e2565b9150613af782613ab8565b602082019050919050565b5f6020820190508181035f830152613b1981613ae0565b9050919050565b7f4552433732313a207472616e7366657220746f206e6f6e2045524337323152655f8201527f63656976657220696d706c656d656e7465720000000000000000000000000000602082015250565b5f613b7a6032836124e2565b9150613b8582613b20565b604082019050919050565b5f6020820190508181035f830152613ba781613b6e565b9050919050565b7f4e487b71000000000000000000000000000000000000000000000000000000005f52601260045260245ffd5b5f613be582612582565b9150613bf083612582565b925082613c0057613bff613bae565b5b828204905092915050565b5f613c1582612582565b9150613c2083612582565b925082613c3057613c2f613bae565b5b828206905092915050565b5f81519050919050565b5f82825260208201905092915050565b5f613c5f82613c3b565b613c698185613c45565b9350613c798185602086016124f2565b613c828161251a565b840191505092915050565b5f608082019050613ca05f830187612610565b613cad6020830186612610565b613cba6040830185612ade565b8181036060830152613ccc8184613c55565b905095945050505050565b5f81519050613ce581612450565b92915050565b5f60208284031215613d0057613cff61241d565b5b5f613d0d84828501613cd7565b91505092915050565b7f4552433732313a206d696e7420746f20746865207a65726f20616464726573735f82015250565b5f613d4a6020836124e2565b9150613d5582613d16565b602082019050919050565b5f6020820190508181035f830152613d7781613d3e565b9050919050565b7f4552433732313a20746f6b656e20616c7265616479206d696e746564000000005f82015250565b5f613db2601c836124e2565b9150613dbd82613d7e565b602082019050919050565b5f6020820190508181035f830152613ddf81613da6565b905091905056fea2646970667358221220226110b47917c4be8b6b03d83cda8a74e8c67a732e04d777bf536fb3c5f2103264736f6c63430008180033",
  "linkReferences": {},
  "deployedLinkReferences": {}
}